{
	"contracts/SaleContract.sol": {
		"SaleContract": {
			"abi": [
				{
					"inputs": [],
					"name": "ReentrancyGuardReentrantCall",
					"type": "error"
				},
				{
					"inputs": [
						{
							"internalType": "address",
							"name": "token",
							"type": "address"
						}
					],
					"name": "SafeERC20FailedOperation",
					"type": "error"
				},
				{
					"anonymous": false,
					"inputs": [
						{
							"indexed": false,
							"internalType": "uint256",
							"name": "listingId",
							"type": "uint256"
						},
						{
							"indexed": true,
							"internalType": "address",
							"name": "seller",
							"type": "address"
						},
						{
							"indexed": true,
							"internalType": "address",
							"name": "contractAddress",
							"type": "address"
						},
						{
							"indexed": false,
							"internalType": "uint256",
							"name": "price",
							"type": "uint256"
						},
						{
							"indexed": false,
							"internalType": "uint256",
							"name": "tokens",
							"type": "uint256"
						},
						{
							"indexed": false,
							"internalType": "uint256",
							"name": "expiration",
							"type": "uint256"
						}
					],
					"name": "ListingAdded",
					"type": "event"
				},
				{
					"anonymous": false,
					"inputs": [
						{
							"indexed": false,
							"internalType": "uint256",
							"name": "listingId",
							"type": "uint256"
						},
						{
							"indexed": true,
							"internalType": "address",
							"name": "buyer",
							"type": "address"
						},
						{
							"indexed": false,
							"internalType": "uint256",
							"name": "tokenAmount",
							"type": "uint256"
						},
						{
							"indexed": false,
							"internalType": "uint256",
							"name": "price",
							"type": "uint256"
						},
						{
							"indexed": false,
							"internalType": "bool",
							"name": "withERC20",
							"type": "bool"
						}
					],
					"name": "TokensPurchased",
					"type": "event"
				},
				{
					"inputs": [],
					"name": "COMMISSION_PERCENTAGE",
					"outputs": [
						{
							"internalType": "uint256",
							"name": "",
							"type": "uint256"
						}
					],
					"stateMutability": "view",
					"type": "function"
				},
				{
					"inputs": [],
					"name": "COMMISSION_WALLET",
					"outputs": [
						{
							"internalType": "address",
							"name": "",
							"type": "address"
						}
					],
					"stateMutability": "view",
					"type": "function"
				},
				{
					"inputs": [
						{
							"internalType": "uint256",
							"name": "price",
							"type": "uint256"
						},
						{
							"internalType": "address",
							"name": "contractAddress",
							"type": "address"
						},
						{
							"internalType": "uint256",
							"name": "tokens",
							"type": "uint256"
						},
						{
							"internalType": "uint256",
							"name": "duration",
							"type": "uint256"
						}
					],
					"name": "addListing",
					"outputs": [],
					"stateMutability": "nonpayable",
					"type": "function"
				},
				{
					"inputs": [
						{
							"internalType": "uint256",
							"name": "listingId",
							"type": "uint256"
						},
						{
							"internalType": "uint256",
							"name": "tokenAmount",
							"type": "uint256"
						},
						{
							"internalType": "address",
							"name": "paymentToken",
							"type": "address"
						},
						{
							"internalType": "uint256",
							"name": "paymentAmount",
							"type": "uint256"
						}
					],
					"name": "buyTokensWithERC20",
					"outputs": [],
					"stateMutability": "nonpayable",
					"type": "function"
				},
				{
					"inputs": [],
					"name": "listingCounter",
					"outputs": [
						{
							"internalType": "uint256",
							"name": "",
							"type": "uint256"
						}
					],
					"stateMutability": "view",
					"type": "function"
				},
				{
					"inputs": [
						{
							"internalType": "uint256",
							"name": "",
							"type": "uint256"
						}
					],
					"name": "listings",
					"outputs": [
						{
							"internalType": "address",
							"name": "contractAddress",
							"type": "address"
						},
						{
							"internalType": "uint256",
							"name": "price",
							"type": "uint256"
						},
						{
							"internalType": "uint256",
							"name": "tokens",
							"type": "uint256"
						},
						{
							"internalType": "address",
							"name": "seller",
							"type": "address"
						},
						{
							"internalType": "uint256",
							"name": "expiration",
							"type": "uint256"
						}
					],
					"stateMutability": "view",
					"type": "function"
				},
				{
					"inputs": [
						{
							"internalType": "uint256",
							"name": "listingId",
							"type": "uint256"
						}
					],
					"name": "withdrawTokensFromListing",
					"outputs": [],
					"stateMutability": "nonpayable",
					"type": "function"
				}
			],
			"devdoc": {
				"errors": {
					"ReentrancyGuardReentrantCall()": [
						{
							"details": "Unauthorized reentrant call."
						}
					],
					"SafeERC20FailedOperation(address)": [
						{
							"details": "An operation with an ERC-20 token failed."
						}
					]
				},
				"kind": "dev",
				"methods": {},
				"version": 1
			},
			"evm": {
				"assembly": "    /* \"contracts/SaleContract.sol\":241:3815  contract SaleContract is ReentrancyGuard {... */\n  mstore(0x40, 0x80)\n  callvalue\n  dup1\n  iszero\n  tag_1\n  jumpi\n  revert(0x00, 0x00)\ntag_1:\n  pop\n    /* \"@openzeppelin/contracts/utils/ReentrancyGuard.sol\":1857:1858  1 */\n  0x01\n    /* \"@openzeppelin/contracts/utils/ReentrancyGuard.sol\":2061:2068  _status */\n  0x00\n    /* \"@openzeppelin/contracts/utils/ReentrancyGuard.sol\":2061:2082  _status = NOT_ENTERED */\n  dup2\n  swap1\n  sstore\n  pop\n    /* \"contracts/SaleContract.sol\":241:3815  contract SaleContract is ReentrancyGuard {... */\n  dataSize(sub_0)\n  dup1\n  dataOffset(sub_0)\n  0x00\n  codecopy\n  0x00\n  return\nstop\n\nsub_0: assembly {\n        /* \"contracts/SaleContract.sol\":241:3815  contract SaleContract is ReentrancyGuard {... */\n      mstore(0x40, 0x80)\n      callvalue\n      dup1\n      iszero\n      tag_1\n      jumpi\n      revert(0x00, 0x00)\n    tag_1:\n      pop\n      jumpi(tag_2, lt(calldatasize, 0x04))\n      shr(0xe0, calldataload(0x00))\n      dup1\n      0x7a82a87f\n      gt\n      tag_10\n      jumpi\n      dup1\n      0x7a82a87f\n      eq\n      tag_6\n      jumpi\n      dup1\n      0x9ffae41b\n      eq\n      tag_7\n      jumpi\n      dup1\n      0xde74e57b\n      eq\n      tag_8\n      jumpi\n      dup1\n      0xf25713bf\n      eq\n      tag_9\n      jumpi\n      jump(tag_2)\n    tag_10:\n      dup1\n      0x17c73ff0\n      eq\n      tag_3\n      jumpi\n      dup1\n      0x1bf1de9b\n      eq\n      tag_4\n      jumpi\n      dup1\n      0x6c2c9c7d\n      eq\n      tag_5\n      jumpi\n    tag_2:\n      revert(0x00, 0x00)\n        /* \"contracts/SaleContract.sol\":564:650  address public constant COMMISSION_WALLET = 0xFCF8d2b098B3160654bbaDa1a8769483c71C288b */\n    tag_3:\n      tag_11\n      tag_12\n      jump\t// in\n    tag_11:\n      mload(0x40)\n      tag_13\n      swap2\n      swap1\n      tag_14\n      jump\t// in\n    tag_13:\n      mload(0x40)\n      dup1\n      swap2\n      sub\n      swap1\n      return\n        /* \"contracts/SaleContract.sol\":656:706  uint256 public constant COMMISSION_PERCENTAGE = 10 */\n    tag_4:\n      tag_15\n      tag_16\n      jump\t// in\n    tag_15:\n      mload(0x40)\n      tag_17\n      swap2\n      swap1\n      tag_18\n      jump\t// in\n    tag_17:\n      mload(0x40)\n      dup1\n      swap2\n      sub\n      swap1\n      return\n        /* \"contracts/SaleContract.sol\":529:558  uint256 public listingCounter */\n    tag_5:\n      tag_19\n      tag_20\n      jump\t// in\n    tag_19:\n      mload(0x40)\n      tag_21\n      swap2\n      swap1\n      tag_18\n      jump\t// in\n    tag_21:\n      mload(0x40)\n      dup1\n      swap2\n      sub\n      swap1\n      return\n        /* \"contracts/SaleContract.sol\":1971:3240  function buyTokensWithERC20(... */\n    tag_6:\n      tag_22\n      0x04\n      dup1\n      calldatasize\n      sub\n      dup2\n      add\n      swap1\n      tag_23\n      swap2\n      swap1\n      tag_24\n      jump\t// in\n    tag_23:\n      tag_25\n      jump\t// in\n    tag_22:\n      stop\n        /* \"contracts/SaleContract.sol\":986:1965  function addListing(uint256 price, address contractAddress, uint256 tokens, uint256 duration) external {... */\n    tag_7:\n      tag_26\n      0x04\n      dup1\n      calldatasize\n      sub\n      dup2\n      add\n      swap1\n      tag_27\n      swap2\n      swap1\n      tag_28\n      jump\t// in\n    tag_27:\n      tag_29\n      jump\t// in\n    tag_26:\n      stop\n        /* \"contracts/SaleContract.sol\":480:523  mapping(uint256 => Listing) public listings */\n    tag_8:\n      tag_30\n      0x04\n      dup1\n      calldatasize\n      sub\n      dup2\n      add\n      swap1\n      tag_31\n      swap2\n      swap1\n      tag_32\n      jump\t// in\n    tag_31:\n      tag_33\n      jump\t// in\n    tag_30:\n      mload(0x40)\n      tag_34\n      swap6\n      swap5\n      swap4\n      swap3\n      swap2\n      swap1\n      tag_35\n      jump\t// in\n    tag_34:\n      mload(0x40)\n      dup1\n      swap2\n      sub\n      swap1\n      return\n        /* \"contracts/SaleContract.sol\":3246:3812  function withdrawTokensFromListing(uint256 listingId) external nonReentrant {... */\n    tag_9:\n      tag_36\n      0x04\n      dup1\n      calldatasize\n      sub\n      dup2\n      add\n      swap1\n      tag_37\n      swap2\n      swap1\n      tag_32\n      jump\t// in\n    tag_37:\n      tag_38\n      jump\t// in\n    tag_36:\n      stop\n        /* \"contracts/SaleContract.sol\":564:650  address public constant COMMISSION_WALLET = 0xFCF8d2b098B3160654bbaDa1a8769483c71C288b */\n    tag_12:\n        /* \"contracts/SaleContract.sol\":608:650  0xFCF8d2b098B3160654bbaDa1a8769483c71C288b */\n      0xfcf8d2b098b3160654bbada1a8769483c71c288b\n        /* \"contracts/SaleContract.sol\":564:650  address public constant COMMISSION_WALLET = 0xFCF8d2b098B3160654bbaDa1a8769483c71C288b */\n      dup2\n      jump\t// out\n        /* \"contracts/SaleContract.sol\":656:706  uint256 public constant COMMISSION_PERCENTAGE = 10 */\n    tag_16:\n        /* \"contracts/SaleContract.sol\":704:706  10 */\n      0x0a\n        /* \"contracts/SaleContract.sol\":656:706  uint256 public constant COMMISSION_PERCENTAGE = 10 */\n      dup2\n      jump\t// out\n        /* \"contracts/SaleContract.sol\":529:558  uint256 public listingCounter */\n    tag_20:\n      sload(0x02)\n      dup2\n      jump\t// out\n        /* \"contracts/SaleContract.sol\":1971:3240  function buyTokensWithERC20(... */\n    tag_25:\n        /* \"@openzeppelin/contracts/utils/ReentrancyGuard.sol\":2500:2521  _nonReentrantBefore() */\n      tag_40\n        /* \"@openzeppelin/contracts/utils/ReentrancyGuard.sol\":2500:2519  _nonReentrantBefore */\n      tag_41\n        /* \"@openzeppelin/contracts/utils/ReentrancyGuard.sol\":2500:2521  _nonReentrantBefore() */\n      jump\t// in\n    tag_40:\n        /* \"contracts/SaleContract.sol\":2154:2177  Listing storage listing */\n      0x00\n        /* \"contracts/SaleContract.sol\":2180:2188  listings */\n      0x01\n        /* \"contracts/SaleContract.sol\":2180:2199  listings[listingId] */\n      0x00\n        /* \"contracts/SaleContract.sol\":2189:2198  listingId */\n      dup7\n        /* \"contracts/SaleContract.sol\":2180:2199  listings[listingId] */\n      dup2\n      mstore\n      0x20\n      add\n      swap1\n      dup2\n      mstore\n      0x20\n      add\n      0x00\n      keccak256\n        /* \"contracts/SaleContract.sol\":2154:2199  Listing storage listing = listings[listingId] */\n      swap1\n      pop\n        /* \"contracts/SaleContract.sol\":2234:2235  0 */\n      0x00\n        /* \"contracts/SaleContract.sol\":2217:2224  listing */\n      dup2\n        /* \"contracts/SaleContract.sol\":2217:2231  listing.tokens */\n      0x02\n      add\n      sload\n        /* \"contracts/SaleContract.sol\":2217:2235  listing.tokens > 0 */\n      gt\n        /* \"contracts/SaleContract.sol\":2209:2262  require(listing.tokens > 0, \"Listing does not exist\") */\n      tag_43\n      jumpi\n      mload(0x40)\n      0x08c379a000000000000000000000000000000000000000000000000000000000\n      dup2\n      mstore\n      0x04\n      add\n      tag_44\n      swap1\n      tag_45\n      jump\t// in\n    tag_44:\n      mload(0x40)\n      dup1\n      swap2\n      sub\n      swap1\n      revert\n    tag_43:\n        /* \"contracts/SaleContract.sol\":2299:2306  listing */\n      dup1\n        /* \"contracts/SaleContract.sol\":2299:2317  listing.expiration */\n      0x04\n      add\n      sload\n        /* \"contracts/SaleContract.sol\":2280:2295  block.timestamp */\n      timestamp\n        /* \"contracts/SaleContract.sol\":2280:2317  block.timestamp <= listing.expiration */\n      gt\n      iszero\n        /* \"contracts/SaleContract.sol\":2272:2341  require(block.timestamp <= listing.expiration, \"Listing has expired\") */\n      tag_46\n      jumpi\n      mload(0x40)\n      0x08c379a000000000000000000000000000000000000000000000000000000000\n      dup2\n      mstore\n      0x04\n      add\n      tag_47\n      swap1\n      tag_48\n      jump\t// in\n    tag_47:\n      mload(0x40)\n      dup1\n      swap2\n      sub\n      swap1\n      revert\n    tag_46:\n        /* \"contracts/SaleContract.sol\":2377:2388  tokenAmount */\n      dup4\n        /* \"contracts/SaleContract.sol\":2359:2366  listing */\n      dup2\n        /* \"contracts/SaleContract.sol\":2359:2373  listing.tokens */\n      0x02\n      add\n      sload\n        /* \"contracts/SaleContract.sol\":2359:2388  listing.tokens >= tokenAmount */\n      lt\n      iszero\n        /* \"contracts/SaleContract.sol\":2351:2421  require(listing.tokens >= tokenAmount, \"Not enough tokens in listing\") */\n      tag_49\n      jumpi\n      mload(0x40)\n      0x08c379a000000000000000000000000000000000000000000000000000000000\n      dup2\n      mstore\n      0x04\n      add\n      tag_50\n      swap1\n      tag_51\n      jump\t// in\n    tag_50:\n      mload(0x40)\n      dup1\n      swap2\n      sub\n      swap1\n      revert\n    tag_49:\n        /* \"contracts/SaleContract.sol\":2432:2450  uint256 totalPrice */\n      0x00\n        /* \"contracts/SaleContract.sol\":2469:2480  tokenAmount */\n      dup5\n        /* \"contracts/SaleContract.sol\":2453:2460  listing */\n      dup3\n        /* \"contracts/SaleContract.sol\":2453:2466  listing.price */\n      0x01\n      add\n      sload\n        /* \"contracts/SaleContract.sol\":2453:2480  listing.price * tokenAmount */\n      tag_52\n      swap2\n      swap1\n      tag_53\n      jump\t// in\n    tag_52:\n        /* \"contracts/SaleContract.sol\":2432:2480  uint256 totalPrice = listing.price * tokenAmount */\n      swap1\n      pop\n        /* \"contracts/SaleContract.sol\":2490:2508  uint256 commission */\n      0x00\n        /* \"contracts/SaleContract.sol\":2550:2553  100 */\n      0x64\n        /* \"contracts/SaleContract.sol\":704:706  10 */\n      0x0a\n        /* \"contracts/SaleContract.sol\":2512:2522  totalPrice */\n      dup4\n        /* \"contracts/SaleContract.sol\":2512:2546  totalPrice * COMMISSION_PERCENTAGE */\n      tag_54\n      swap2\n      swap1\n      tag_53\n      jump\t// in\n    tag_54:\n        /* \"contracts/SaleContract.sol\":2511:2553  (totalPrice * COMMISSION_PERCENTAGE) / 100 */\n      tag_55\n      swap2\n      swap1\n      tag_56\n      jump\t// in\n    tag_55:\n        /* \"contracts/SaleContract.sol\":2490:2553  uint256 commission = (totalPrice * COMMISSION_PERCENTAGE) / 100 */\n      swap1\n      pop\n        /* \"contracts/SaleContract.sol\":2563:2589  uint256 totalPaymentAmount */\n      0x00\n        /* \"contracts/SaleContract.sol\":2605:2615  commission */\n      dup2\n        /* \"contracts/SaleContract.sol\":2592:2602  totalPrice */\n      dup4\n        /* \"contracts/SaleContract.sol\":2592:2615  totalPrice + commission */\n      tag_57\n      swap2\n      swap1\n      tag_58\n      jump\t// in\n    tag_57:\n        /* \"contracts/SaleContract.sol\":2563:2615  uint256 totalPaymentAmount = totalPrice + commission */\n      swap1\n      pop\n        /* \"contracts/SaleContract.sol\":2650:2668  totalPaymentAmount */\n      dup1\n        /* \"contracts/SaleContract.sol\":2633:2646  paymentAmount */\n      dup6\n        /* \"contracts/SaleContract.sol\":2633:2668  paymentAmount == totalPaymentAmount */\n      eq\n        /* \"contracts/SaleContract.sol\":2625:2697  require(paymentAmount == totalPaymentAmount, \"Incorrect payment amount\") */\n      tag_59\n      jumpi\n      mload(0x40)\n      0x08c379a000000000000000000000000000000000000000000000000000000000\n      dup2\n      mstore\n      0x04\n      add\n      tag_60\n      swap1\n      tag_61\n      jump\t// in\n    tag_60:\n      mload(0x40)\n      dup1\n      swap2\n      sub\n      swap1\n      revert\n    tag_59:\n        /* \"contracts/SaleContract.sol\":2708:2726  ERC20 paymentERC20 */\n      0x00\n        /* \"contracts/SaleContract.sol\":2735:2747  paymentToken */\n      dup7\n        /* \"contracts/SaleContract.sol\":2708:2748  ERC20 paymentERC20 = ERC20(paymentToken) */\n      swap1\n      pop\n        /* \"contracts/SaleContract.sol\":2819:2832  paymentAmount */\n      dup6\n        /* \"contracts/SaleContract.sol\":2766:2778  paymentERC20 */\n      dup2\n        /* \"contracts/SaleContract.sol\":2766:2788  paymentERC20.allowance */\n      0xffffffffffffffffffffffffffffffffffffffff\n      and\n      0xdd62ed3e\n        /* \"contracts/SaleContract.sol\":2789:2799  msg.sender */\n      caller\n        /* \"contracts/SaleContract.sol\":2809:2813  this */\n      address\n        /* \"contracts/SaleContract.sol\":2766:2815  paymentERC20.allowance(msg.sender, address(this)) */\n      mload(0x40)\n      dup4\n      0xffffffff\n      and\n      0xe0\n      shl\n      dup2\n      mstore\n      0x04\n      add\n      tag_62\n      swap3\n      swap2\n      swap1\n      tag_63\n      jump\t// in\n    tag_62:\n      0x20\n      mload(0x40)\n      dup1\n      dup4\n      sub\n      dup2\n      dup7\n      gas\n      staticcall\n      iszero\n      dup1\n      iszero\n      tag_65\n      jumpi\n      returndatacopy(0x00, 0x00, returndatasize)\n      revert(0x00, returndatasize)\n    tag_65:\n      pop\n      pop\n      pop\n      pop\n      mload(0x40)\n      returndatasize\n      not(0x1f)\n      0x1f\n      dup3\n      add\n      and\n      dup3\n      add\n      dup1\n      0x40\n      mstore\n      pop\n      dup2\n      add\n      swap1\n      tag_66\n      swap2\n      swap1\n      tag_67\n      jump\t// in\n    tag_66:\n        /* \"contracts/SaleContract.sol\":2766:2832  paymentERC20.allowance(msg.sender, address(this)) >= paymentAmount */\n      lt\n      iszero\n        /* \"contracts/SaleContract.sol\":2758:2868  require(paymentERC20.allowance(msg.sender, address(this)) >= paymentAmount, \"Payment token allowance too low\") */\n      tag_68\n      jumpi\n      mload(0x40)\n      0x08c379a000000000000000000000000000000000000000000000000000000000\n      dup2\n      mstore\n      0x04\n      add\n      tag_69\n      swap1\n      tag_70\n      jump\t// in\n    tag_69:\n      mload(0x40)\n      dup1\n      swap2\n      sub\n      swap1\n      revert\n    tag_68:\n        /* \"contracts/SaleContract.sol\":2879:2951  paymentERC20.safeTransferFrom(msg.sender, COMMISSION_WALLET, commission) */\n      tag_71\n        /* \"contracts/SaleContract.sol\":2909:2919  msg.sender */\n      caller\n        /* \"contracts/SaleContract.sol\":608:650  0xFCF8d2b098B3160654bbaDa1a8769483c71C288b */\n      0xfcf8d2b098b3160654bbada1a8769483c71c288b\n        /* \"contracts/SaleContract.sol\":2940:2950  commission */\n      dup6\n        /* \"contracts/SaleContract.sol\":2879:2891  paymentERC20 */\n      dup5\n        /* \"contracts/SaleContract.sol\":2879:2908  paymentERC20.safeTransferFrom */\n      0xffffffffffffffffffffffffffffffffffffffff\n      and\n      tag_72\n      swap1\n        /* \"contracts/SaleContract.sol\":2879:2951  paymentERC20.safeTransferFrom(msg.sender, COMMISSION_WALLET, commission) */\n      swap4\n      swap3\n      swap2\n      swap1\n      0xffffffff\n      and\n      jump\t// in\n    tag_71:\n        /* \"contracts/SaleContract.sol\":2961:3030  paymentERC20.safeTransferFrom(msg.sender, listing.seller, totalPrice) */\n      tag_73\n        /* \"contracts/SaleContract.sol\":2991:3001  msg.sender */\n      caller\n        /* \"contracts/SaleContract.sol\":3003:3010  listing */\n      dup7\n        /* \"contracts/SaleContract.sol\":3003:3017  listing.seller */\n      0x03\n      add\n      0x00\n      swap1\n      sload\n      swap1\n      0x0100\n      exp\n      swap1\n      div\n      0xffffffffffffffffffffffffffffffffffffffff\n      and\n        /* \"contracts/SaleContract.sol\":3019:3029  totalPrice */\n      dup7\n        /* \"contracts/SaleContract.sol\":2961:2973  paymentERC20 */\n      dup5\n        /* \"contracts/SaleContract.sol\":2961:2990  paymentERC20.safeTransferFrom */\n      0xffffffffffffffffffffffffffffffffffffffff\n      and\n      tag_72\n      swap1\n        /* \"contracts/SaleContract.sol\":2961:3030  paymentERC20.safeTransferFrom(msg.sender, listing.seller, totalPrice) */\n      swap4\n      swap3\n      swap2\n      swap1\n      0xffffffff\n      and\n      jump\t// in\n    tag_73:\n        /* \"contracts/SaleContract.sol\":3059:3070  tokenAmount */\n      dup8\n        /* \"contracts/SaleContract.sol\":3041:3048  listing */\n      dup6\n        /* \"contracts/SaleContract.sol\":3041:3055  listing.tokens */\n      0x02\n      add\n      0x00\n        /* \"contracts/SaleContract.sol\":3041:3070  listing.tokens -= tokenAmount */\n      dup3\n      dup3\n      sload\n      tag_74\n      swap2\n      swap1\n      tag_75\n      jump\t// in\n    tag_74:\n      swap3\n      pop\n      pop\n      dup2\n      swap1\n      sstore\n      pop\n        /* \"contracts/SaleContract.sol\":3080:3148  ERC20(listing.contractAddress).safeTransfer(msg.sender, tokenAmount) */\n      tag_76\n        /* \"contracts/SaleContract.sol\":3124:3134  msg.sender */\n      caller\n        /* \"contracts/SaleContract.sol\":3136:3147  tokenAmount */\n      dup10\n        /* \"contracts/SaleContract.sol\":3086:3093  listing */\n      dup8\n        /* \"contracts/SaleContract.sol\":3086:3109  listing.contractAddress */\n      0x00\n      add\n      0x00\n      swap1\n      sload\n      swap1\n      0x0100\n      exp\n      swap1\n      div\n      0xffffffffffffffffffffffffffffffffffffffff\n      and\n        /* \"contracts/SaleContract.sol\":3080:3123  ERC20(listing.contractAddress).safeTransfer */\n      0xffffffffffffffffffffffffffffffffffffffff\n      and\n      tag_77\n      swap1\n        /* \"contracts/SaleContract.sol\":3080:3148  ERC20(listing.contractAddress).safeTransfer(msg.sender, tokenAmount) */\n      swap3\n      swap2\n      swap1\n      0xffffffff\n      and\n      jump\t// in\n    tag_76:\n        /* \"contracts/SaleContract.sol\":3191:3201  msg.sender */\n      caller\n        /* \"contracts/SaleContract.sol\":3164:3233  TokensPurchased(listingId, msg.sender, tokenAmount, totalPrice, true) */\n      0xffffffffffffffffffffffffffffffffffffffff\n      and\n      0xdca20547336c56209d6bccbfed1076a61d517d52a47986a7086df1977b10daf5\n        /* \"contracts/SaleContract.sol\":3180:3189  listingId */\n      dup11\n        /* \"contracts/SaleContract.sol\":3203:3214  tokenAmount */\n      dup11\n        /* \"contracts/SaleContract.sol\":3216:3226  totalPrice */\n      dup8\n        /* \"contracts/SaleContract.sol\":3228:3232  true */\n      0x01\n        /* \"contracts/SaleContract.sol\":3164:3233  TokensPurchased(listingId, msg.sender, tokenAmount, totalPrice, true) */\n      mload(0x40)\n      tag_78\n      swap5\n      swap4\n      swap3\n      swap2\n      swap1\n      tag_79\n      jump\t// in\n    tag_78:\n      mload(0x40)\n      dup1\n      swap2\n      sub\n      swap1\n      log2\n        /* \"contracts/SaleContract.sol\":2144:3240  {... */\n      pop\n      pop\n      pop\n      pop\n      pop\n        /* \"@openzeppelin/contracts/utils/ReentrancyGuard.sol\":2542:2562  _nonReentrantAfter() */\n      tag_80\n        /* \"@openzeppelin/contracts/utils/ReentrancyGuard.sol\":2542:2560  _nonReentrantAfter */\n      tag_81\n        /* \"@openzeppelin/contracts/utils/ReentrancyGuard.sol\":2542:2562  _nonReentrantAfter() */\n      jump\t// in\n    tag_80:\n        /* \"contracts/SaleContract.sol\":1971:3240  function buyTokensWithERC20(... */\n      pop\n      pop\n      pop\n      pop\n      jump\t// out\n        /* \"contracts/SaleContract.sol\":986:1965  function addListing(uint256 price, address contractAddress, uint256 tokens, uint256 duration) external {... */\n    tag_29:\n        /* \"contracts/SaleContract.sol\":1115:1116  0 */\n      0x00\n        /* \"contracts/SaleContract.sol\":1107:1112  price */\n      dup5\n        /* \"contracts/SaleContract.sol\":1107:1116  price > 0 */\n      gt\n        /* \"contracts/SaleContract.sol\":1099:1152  require(price > 0, \"Price must be greater than zero\") */\n      tag_83\n      jumpi\n      mload(0x40)\n      0x08c379a000000000000000000000000000000000000000000000000000000000\n      dup2\n      mstore\n      0x04\n      add\n      tag_84\n      swap1\n      tag_85\n      jump\t// in\n    tag_84:\n      mload(0x40)\n      dup1\n      swap2\n      sub\n      swap1\n      revert\n    tag_83:\n        /* \"contracts/SaleContract.sol\":1179:1180  0 */\n      0x00\n        /* \"contracts/SaleContract.sol\":1170:1176  tokens */\n      dup3\n        /* \"contracts/SaleContract.sol\":1170:1180  tokens > 0 */\n      gt\n        /* \"contracts/SaleContract.sol\":1162:1217  require(tokens > 0, \"Tokens must be greater than zero\") */\n      tag_86\n      jumpi\n      mload(0x40)\n      0x08c379a000000000000000000000000000000000000000000000000000000000\n      dup2\n      mstore\n      0x04\n      add\n      tag_87\n      swap1\n      tag_88\n      jump\t// in\n    tag_87:\n      mload(0x40)\n      dup1\n      swap2\n      sub\n      swap1\n      revert\n    tag_86:\n        /* \"contracts/SaleContract.sol\":1246:1247  0 */\n      0x00\n        /* \"contracts/SaleContract.sol\":1235:1243  duration */\n      dup2\n        /* \"contracts/SaleContract.sol\":1235:1247  duration > 0 */\n      gt\n        /* \"contracts/SaleContract.sol\":1227:1286  require(duration > 0, \"Duration must be greater than zero\") */\n      tag_89\n      jumpi\n      mload(0x40)\n      0x08c379a000000000000000000000000000000000000000000000000000000000\n      dup2\n      mstore\n      0x04\n      add\n      tag_90\n      swap1\n      tag_91\n      jump\t// in\n    tag_90:\n      mload(0x40)\n      dup1\n      swap2\n      sub\n      swap1\n      revert\n    tag_89:\n        /* \"contracts/SaleContract.sol\":1331:1332  0 */\n      0x00\n        /* \"contracts/SaleContract.sol\":1304:1333  contractAddress != address(0) */\n      0xffffffffffffffffffffffffffffffffffffffff\n      and\n        /* \"contracts/SaleContract.sol\":1304:1319  contractAddress */\n      dup4\n        /* \"contracts/SaleContract.sol\":1304:1333  contractAddress != address(0) */\n      0xffffffffffffffffffffffffffffffffffffffff\n      and\n      sub\n        /* \"contracts/SaleContract.sol\":1296:1362  require(contractAddress != address(0), \"Invalid contract address\") */\n      tag_92\n      jumpi\n      mload(0x40)\n      0x08c379a000000000000000000000000000000000000000000000000000000000\n      dup2\n      mstore\n      0x04\n      add\n      tag_93\n      swap1\n      tag_94\n      jump\t// in\n    tag_93:\n      mload(0x40)\n      dup1\n      swap2\n      sub\n      swap1\n      revert\n    tag_92:\n        /* \"contracts/SaleContract.sol\":1373:1384  ERC20 token */\n      0x00\n        /* \"contracts/SaleContract.sol\":1393:1408  contractAddress */\n      dup4\n        /* \"contracts/SaleContract.sol\":1373:1409  ERC20 token = ERC20(contractAddress) */\n      swap1\n      pop\n        /* \"contracts/SaleContract.sol\":1473:1479  tokens */\n      dup3\n        /* \"contracts/SaleContract.sol\":1427:1432  token */\n      dup2\n        /* \"contracts/SaleContract.sol\":1427:1442  token.allowance */\n      0xffffffffffffffffffffffffffffffffffffffff\n      and\n      0xdd62ed3e\n        /* \"contracts/SaleContract.sol\":1443:1453  msg.sender */\n      caller\n        /* \"contracts/SaleContract.sol\":1463:1467  this */\n      address\n        /* \"contracts/SaleContract.sol\":1427:1469  token.allowance(msg.sender, address(this)) */\n      mload(0x40)\n      dup4\n      0xffffffff\n      and\n      0xe0\n      shl\n      dup2\n      mstore\n      0x04\n      add\n      tag_95\n      swap3\n      swap2\n      swap1\n      tag_63\n      jump\t// in\n    tag_95:\n      0x20\n      mload(0x40)\n      dup1\n      dup4\n      sub\n      dup2\n      dup7\n      gas\n      staticcall\n      iszero\n      dup1\n      iszero\n      tag_97\n      jumpi\n      returndatacopy(0x00, 0x00, returndatasize)\n      revert(0x00, returndatasize)\n    tag_97:\n      pop\n      pop\n      pop\n      pop\n      mload(0x40)\n      returndatasize\n      not(0x1f)\n      0x1f\n      dup3\n      add\n      and\n      dup3\n      add\n      dup1\n      0x40\n      mstore\n      pop\n      dup2\n      add\n      swap1\n      tag_98\n      swap2\n      swap1\n      tag_67\n      jump\t// in\n    tag_98:\n        /* \"contracts/SaleContract.sol\":1427:1479  token.allowance(msg.sender, address(this)) >= tokens */\n      lt\n      iszero\n        /* \"contracts/SaleContract.sol\":1419:1507  require(token.allowance(msg.sender, address(this)) >= tokens, \"Token allowance too low\") */\n      tag_99\n      jumpi\n      mload(0x40)\n      0x08c379a000000000000000000000000000000000000000000000000000000000\n      dup2\n      mstore\n      0x04\n      add\n      tag_100\n      swap1\n      tag_101\n      jump\t// in\n    tag_100:\n      mload(0x40)\n      dup1\n      swap2\n      sub\n      swap1\n      revert\n    tag_99:\n        /* \"contracts/SaleContract.sol\":1518:1575  token.safeTransferFrom(msg.sender, address(this), tokens) */\n      tag_102\n        /* \"contracts/SaleContract.sol\":1541:1551  msg.sender */\n      caller\n        /* \"contracts/SaleContract.sol\":1561:1565  this */\n      address\n        /* \"contracts/SaleContract.sol\":1568:1574  tokens */\n      dup6\n        /* \"contracts/SaleContract.sol\":1518:1523  token */\n      dup5\n        /* \"contracts/SaleContract.sol\":1518:1540  token.safeTransferFrom */\n      0xffffffffffffffffffffffffffffffffffffffff\n      and\n      tag_72\n      swap1\n        /* \"contracts/SaleContract.sol\":1518:1575  token.safeTransferFrom(msg.sender, address(this), tokens) */\n      swap4\n      swap3\n      swap2\n      swap1\n      0xffffffff\n      and\n      jump\t// in\n    tag_102:\n        /* \"contracts/SaleContract.sol\":1586:1600  listingCounter */\n      0x02\n      0x00\n        /* \"contracts/SaleContract.sol\":1586:1602  listingCounter++ */\n      dup2\n      sload\n      dup1\n      swap3\n      swap2\n      swap1\n      tag_103\n      swap1\n      tag_104\n      jump\t// in\n    tag_103:\n      swap2\n      swap1\n      pop\n      sstore\n      pop\n        /* \"contracts/SaleContract.sol\":1639:1842  Listing({... */\n      mload(0x40)\n      dup1\n      0xa0\n      add\n      0x40\n      mstore\n      dup1\n        /* \"contracts/SaleContract.sol\":1678:1693  contractAddress */\n      dup6\n        /* \"contracts/SaleContract.sol\":1639:1842  Listing({... */\n      0xffffffffffffffffffffffffffffffffffffffff\n      and\n      dup2\n      mstore\n      0x20\n      add\n        /* \"contracts/SaleContract.sol\":1714:1719  price */\n      dup7\n        /* \"contracts/SaleContract.sol\":1639:1842  Listing({... */\n      dup2\n      mstore\n      0x20\n      add\n        /* \"contracts/SaleContract.sol\":1741:1747  tokens */\n      dup5\n        /* \"contracts/SaleContract.sol\":1639:1842  Listing({... */\n      dup2\n      mstore\n      0x20\n      add\n        /* \"contracts/SaleContract.sol\":1769:1779  msg.sender */\n      caller\n        /* \"contracts/SaleContract.sol\":1639:1842  Listing({... */\n      0xffffffffffffffffffffffffffffffffffffffff\n      and\n      dup2\n      mstore\n      0x20\n      add\n        /* \"contracts/SaleContract.sol\":1823:1831  duration */\n      dup4\n        /* \"contracts/SaleContract.sol\":1805:1820  block.timestamp */\n      timestamp\n        /* \"contracts/SaleContract.sol\":1805:1831  block.timestamp + duration */\n      tag_105\n      swap2\n      swap1\n      tag_58\n      jump\t// in\n    tag_105:\n        /* \"contracts/SaleContract.sol\":1639:1842  Listing({... */\n      dup2\n      mstore\n      pop\n        /* \"contracts/SaleContract.sol\":1612:1620  listings */\n      0x01\n        /* \"contracts/SaleContract.sol\":1612:1636  listings[listingCounter] */\n      0x00\n        /* \"contracts/SaleContract.sol\":1621:1635  listingCounter */\n      sload(0x02)\n        /* \"contracts/SaleContract.sol\":1612:1636  listings[listingCounter] */\n      dup2\n      mstore\n      0x20\n      add\n      swap1\n      dup2\n      mstore\n      0x20\n      add\n      0x00\n      keccak256\n        /* \"contracts/SaleContract.sol\":1612:1842  listings[listingCounter] = Listing({... */\n      0x00\n      dup3\n      add\n      mload\n      dup2\n      0x00\n      add\n      exp(0x0100, 0x00)\n      dup2\n      sload\n      dup2\n      0xffffffffffffffffffffffffffffffffffffffff\n      mul\n      not\n      and\n      swap1\n      dup4\n      0xffffffffffffffffffffffffffffffffffffffff\n      and\n      mul\n      or\n      swap1\n      sstore\n      pop\n      0x20\n      dup3\n      add\n      mload\n      dup2\n      0x01\n      add\n      sstore\n      0x40\n      dup3\n      add\n      mload\n      dup2\n      0x02\n      add\n      sstore\n      0x60\n      dup3\n      add\n      mload\n      dup2\n      0x03\n      add\n      exp(0x0100, 0x00)\n      dup2\n      sload\n      dup2\n      0xffffffffffffffffffffffffffffffffffffffff\n      mul\n      not\n      and\n      swap1\n      dup4\n      0xffffffffffffffffffffffffffffffffffffffff\n      and\n      mul\n      or\n      swap1\n      sstore\n      pop\n      0x80\n      dup3\n      add\n      mload\n      dup2\n      0x04\n      add\n      sstore\n      swap1\n      pop\n      pop\n        /* \"contracts/SaleContract.sol\":1899:1914  contractAddress */\n      dup4\n        /* \"contracts/SaleContract.sol\":1858:1958  ListingAdded(listingCounter, msg.sender, contractAddress, price, tokens, block.timestamp + duration) */\n      0xffffffffffffffffffffffffffffffffffffffff\n      and\n        /* \"contracts/SaleContract.sol\":1887:1897  msg.sender */\n      caller\n        /* \"contracts/SaleContract.sol\":1858:1958  ListingAdded(listingCounter, msg.sender, contractAddress, price, tokens, block.timestamp + duration) */\n      0xffffffffffffffffffffffffffffffffffffffff\n      and\n      0xc8636a22d2315a33de4785339601bb7299ebc1e02cf0d9f22776c7692ee3803b\n        /* \"contracts/SaleContract.sol\":1871:1885  listingCounter */\n      sload(0x02)\n        /* \"contracts/SaleContract.sol\":1916:1921  price */\n      dup9\n        /* \"contracts/SaleContract.sol\":1923:1929  tokens */\n      dup8\n        /* \"contracts/SaleContract.sol\":1949:1957  duration */\n      dup8\n        /* \"contracts/SaleContract.sol\":1931:1946  block.timestamp */\n      timestamp\n        /* \"contracts/SaleContract.sol\":1931:1957  block.timestamp + duration */\n      tag_106\n      swap2\n      swap1\n      tag_58\n      jump\t// in\n    tag_106:\n        /* \"contracts/SaleContract.sol\":1858:1958  ListingAdded(listingCounter, msg.sender, contractAddress, price, tokens, block.timestamp + duration) */\n      mload(0x40)\n      tag_107\n      swap5\n      swap4\n      swap3\n      swap2\n      swap1\n      tag_108\n      jump\t// in\n    tag_107:\n      mload(0x40)\n      dup1\n      swap2\n      sub\n      swap1\n      log3\n        /* \"contracts/SaleContract.sol\":1089:1965  {... */\n      pop\n        /* \"contracts/SaleContract.sol\":986:1965  function addListing(uint256 price, address contractAddress, uint256 tokens, uint256 duration) external {... */\n      pop\n      pop\n      pop\n      pop\n      jump\t// out\n        /* \"contracts/SaleContract.sol\":480:523  mapping(uint256 => Listing) public listings */\n    tag_33:\n      mstore(0x20, 0x01)\n      dup1\n      0x00\n      mstore\n      keccak256(0x00, 0x40)\n      0x00\n      swap2\n      pop\n      swap1\n      pop\n      dup1\n      0x00\n      add\n      0x00\n      swap1\n      sload\n      swap1\n      0x0100\n      exp\n      swap1\n      div\n      0xffffffffffffffffffffffffffffffffffffffff\n      and\n      swap1\n      dup1\n      0x01\n      add\n      sload\n      swap1\n      dup1\n      0x02\n      add\n      sload\n      swap1\n      dup1\n      0x03\n      add\n      0x00\n      swap1\n      sload\n      swap1\n      0x0100\n      exp\n      swap1\n      div\n      0xffffffffffffffffffffffffffffffffffffffff\n      and\n      swap1\n      dup1\n      0x04\n      add\n      sload\n      swap1\n      pop\n      dup6\n      jump\t// out\n        /* \"contracts/SaleContract.sol\":3246:3812  function withdrawTokensFromListing(uint256 listingId) external nonReentrant {... */\n    tag_38:\n        /* \"@openzeppelin/contracts/utils/ReentrancyGuard.sol\":2500:2521  _nonReentrantBefore() */\n      tag_110\n        /* \"@openzeppelin/contracts/utils/ReentrancyGuard.sol\":2500:2519  _nonReentrantBefore */\n      tag_41\n        /* \"@openzeppelin/contracts/utils/ReentrancyGuard.sol\":2500:2521  _nonReentrantBefore() */\n      jump\t// in\n    tag_110:\n        /* \"contracts/SaleContract.sol\":3332:3355  Listing storage listing */\n      0x00\n        /* \"contracts/SaleContract.sol\":3358:3366  listings */\n      0x01\n        /* \"contracts/SaleContract.sol\":3358:3377  listings[listingId] */\n      0x00\n        /* \"contracts/SaleContract.sol\":3367:3376  listingId */\n      dup4\n        /* \"contracts/SaleContract.sol\":3358:3377  listings[listingId] */\n      dup2\n      mstore\n      0x20\n      add\n      swap1\n      dup2\n      mstore\n      0x20\n      add\n      0x00\n      keccak256\n        /* \"contracts/SaleContract.sol\":3332:3377  Listing storage listing = listings[listingId] */\n      swap1\n      pop\n        /* \"contracts/SaleContract.sol\":3409:3416  listing */\n      dup1\n        /* \"contracts/SaleContract.sol\":3409:3423  listing.seller */\n      0x03\n      add\n      0x00\n      swap1\n      sload\n      swap1\n      0x0100\n      exp\n      swap1\n      div\n      0xffffffffffffffffffffffffffffffffffffffff\n      and\n        /* \"contracts/SaleContract.sol\":3395:3423  msg.sender == listing.seller */\n      0xffffffffffffffffffffffffffffffffffffffff\n      and\n        /* \"contracts/SaleContract.sol\":3395:3405  msg.sender */\n      caller\n        /* \"contracts/SaleContract.sol\":3395:3423  msg.sender == listing.seller */\n      0xffffffffffffffffffffffffffffffffffffffff\n      and\n      eq\n        /* \"contracts/SaleContract.sol\":3387:3460  require(msg.sender == listing.seller, \"Only listing seller can withdraw\") */\n      tag_112\n      jumpi\n      mload(0x40)\n      0x08c379a000000000000000000000000000000000000000000000000000000000\n      dup2\n      mstore\n      0x04\n      add\n      tag_113\n      swap1\n      tag_114\n      jump\t// in\n    tag_113:\n      mload(0x40)\n      dup1\n      swap2\n      sub\n      swap1\n      revert\n    tag_112:\n        /* \"contracts/SaleContract.sol\":3496:3503  listing */\n      dup1\n        /* \"contracts/SaleContract.sol\":3496:3514  listing.expiration */\n      0x04\n      add\n      sload\n        /* \"contracts/SaleContract.sol\":3478:3493  block.timestamp */\n      timestamp\n        /* \"contracts/SaleContract.sol\":3478:3514  block.timestamp > listing.expiration */\n      gt\n        /* \"contracts/SaleContract.sol\":3470:3540  require(block.timestamp > listing.expiration, \"Listing has not ended\") */\n      tag_115\n      jumpi\n      mload(0x40)\n      0x08c379a000000000000000000000000000000000000000000000000000000000\n      dup2\n      mstore\n      0x04\n      add\n      tag_116\n      swap1\n      tag_117\n      jump\t// in\n    tag_116:\n      mload(0x40)\n      dup1\n      swap2\n      sub\n      swap1\n      revert\n    tag_115:\n        /* \"contracts/SaleContract.sol\":3575:3576  0 */\n      0x00\n        /* \"contracts/SaleContract.sol\":3558:3565  listing */\n      dup2\n        /* \"contracts/SaleContract.sol\":3558:3572  listing.tokens */\n      0x02\n      add\n      sload\n        /* \"contracts/SaleContract.sol\":3558:3576  listing.tokens > 0 */\n      gt\n        /* \"contracts/SaleContract.sol\":3550:3602  require(listing.tokens > 0, \"No tokens to withdraw\") */\n      tag_118\n      jumpi\n      mload(0x40)\n      0x08c379a000000000000000000000000000000000000000000000000000000000\n      dup2\n      mstore\n      0x04\n      add\n      tag_119\n      swap1\n      tag_120\n      jump\t// in\n    tag_119:\n      mload(0x40)\n      dup1\n      swap2\n      sub\n      swap1\n      revert\n    tag_118:\n        /* \"contracts/SaleContract.sol\":3613:3642  uint256 tokenAmountToWithdraw */\n      0x00\n        /* \"contracts/SaleContract.sol\":3645:3652  listing */\n      dup2\n        /* \"contracts/SaleContract.sol\":3645:3659  listing.tokens */\n      0x02\n      add\n      sload\n        /* \"contracts/SaleContract.sol\":3613:3659  uint256 tokenAmountToWithdraw = listing.tokens */\n      swap1\n      pop\n        /* \"contracts/SaleContract.sol\":3686:3687  0 */\n      0x00\n        /* \"contracts/SaleContract.sol\":3669:3676  listing */\n      dup3\n        /* \"contracts/SaleContract.sol\":3669:3683  listing.tokens */\n      0x02\n      add\n        /* \"contracts/SaleContract.sol\":3669:3687  listing.tokens = 0 */\n      dup2\n      swap1\n      sstore\n      pop\n        /* \"contracts/SaleContract.sol\":3698:3709  ERC20 token */\n      0x00\n        /* \"contracts/SaleContract.sol\":3718:3725  listing */\n      dup3\n        /* \"contracts/SaleContract.sol\":3718:3741  listing.contractAddress */\n      0x00\n      add\n      0x00\n      swap1\n      sload\n      swap1\n      0x0100\n      exp\n      swap1\n      div\n      0xffffffffffffffffffffffffffffffffffffffff\n      and\n        /* \"contracts/SaleContract.sol\":3698:3742  ERC20 token = ERC20(listing.contractAddress) */\n      swap1\n      pop\n        /* \"contracts/SaleContract.sol\":3752:3805  token.safeTransfer(msg.sender, tokenAmountToWithdraw) */\n      tag_121\n        /* \"contracts/SaleContract.sol\":3771:3781  msg.sender */\n      caller\n        /* \"contracts/SaleContract.sol\":3783:3804  tokenAmountToWithdraw */\n      dup4\n        /* \"contracts/SaleContract.sol\":3752:3757  token */\n      dup4\n        /* \"contracts/SaleContract.sol\":3752:3770  token.safeTransfer */\n      0xffffffffffffffffffffffffffffffffffffffff\n      and\n      tag_77\n      swap1\n        /* \"contracts/SaleContract.sol\":3752:3805  token.safeTransfer(msg.sender, tokenAmountToWithdraw) */\n      swap3\n      swap2\n      swap1\n      0xffffffff\n      and\n      jump\t// in\n    tag_121:\n        /* \"contracts/SaleContract.sol\":3322:3812  {... */\n      pop\n      pop\n      pop\n        /* \"@openzeppelin/contracts/utils/ReentrancyGuard.sol\":2542:2562  _nonReentrantAfter() */\n      tag_122\n        /* \"@openzeppelin/contracts/utils/ReentrancyGuard.sol\":2542:2560  _nonReentrantAfter */\n      tag_81\n        /* \"@openzeppelin/contracts/utils/ReentrancyGuard.sol\":2542:2562  _nonReentrantAfter() */\n      jump\t// in\n    tag_122:\n        /* \"contracts/SaleContract.sol\":3246:3812  function withdrawTokensFromListing(uint256 listingId) external nonReentrant {... */\n      pop\n      jump\t// out\n        /* \"@openzeppelin/contracts/utils/ReentrancyGuard.sol\":2575:2882  function _nonReentrantBefore() private {... */\n    tag_41:\n        /* \"@openzeppelin/contracts/utils/ReentrancyGuard.sol\":1899:1900  2 */\n      0x02\n        /* \"@openzeppelin/contracts/utils/ReentrancyGuard.sol\":2702:2709  _status */\n      sload(0x00)\n        /* \"@openzeppelin/contracts/utils/ReentrancyGuard.sol\":2702:2720  _status == ENTERED */\n      sub\n        /* \"@openzeppelin/contracts/utils/ReentrancyGuard.sol\":2698:2784  if (_status == ENTERED) {... */\n      tag_124\n      jumpi\n        /* \"@openzeppelin/contracts/utils/ReentrancyGuard.sol\":2743:2773  ReentrancyGuardReentrantCall() */\n      mload(0x40)\n      0x3ee5aeb500000000000000000000000000000000000000000000000000000000\n      dup2\n      mstore\n      0x04\n      add\n      mload(0x40)\n      dup1\n      swap2\n      sub\n      swap1\n      revert\n        /* \"@openzeppelin/contracts/utils/ReentrancyGuard.sol\":2698:2784  if (_status == ENTERED) {... */\n    tag_124:\n        /* \"@openzeppelin/contracts/utils/ReentrancyGuard.sol\":1899:1900  2 */\n      0x02\n        /* \"@openzeppelin/contracts/utils/ReentrancyGuard.sol\":2858:2865  _status */\n      0x00\n        /* \"@openzeppelin/contracts/utils/ReentrancyGuard.sol\":2858:2875  _status = ENTERED */\n      dup2\n      swap1\n      sstore\n      pop\n        /* \"@openzeppelin/contracts/utils/ReentrancyGuard.sol\":2575:2882  function _nonReentrantBefore() private {... */\n      jump\t// out\n        /* \"@openzeppelin/contracts/token/ERC20/utils/SafeERC20.sol\":1618:1806  function safeTransferFrom(IERC20 token, address from, address to, uint256 value) internal {... */\n    tag_72:\n        /* \"@openzeppelin/contracts/token/ERC20/utils/SafeERC20.sol\":1718:1799  _callOptionalReturn(token, abi.encodeCall(token.transferFrom, (from, to, value))) */\n      tag_126\n        /* \"@openzeppelin/contracts/token/ERC20/utils/SafeERC20.sol\":1738:1743  token */\n      dup5\n        /* \"@openzeppelin/contracts/token/ERC20/utils/SafeERC20.sol\":1760:1765  token */\n      dup6\n        /* \"@openzeppelin/contracts/token/ERC20/utils/SafeERC20.sol\":1760:1778  token.transferFrom */\n      0xffffffffffffffffffffffffffffffffffffffff\n      and\n      0x23b872dd\n        /* \"@openzeppelin/contracts/token/ERC20/utils/SafeERC20.sol\":1781:1785  from */\n      dup7\n        /* \"@openzeppelin/contracts/token/ERC20/utils/SafeERC20.sol\":1787:1789  to */\n      dup7\n        /* \"@openzeppelin/contracts/token/ERC20/utils/SafeERC20.sol\":1791:1796  value */\n      dup7\n        /* \"@openzeppelin/contracts/token/ERC20/utils/SafeERC20.sol\":1745:1798  abi.encodeCall(token.transferFrom, (from, to, value)) */\n      add(0x24, mload(0x40))\n      tag_127\n      swap4\n      swap3\n      swap2\n      swap1\n      tag_128\n      jump\t// in\n    tag_127:\n      mload(0x40)\n      0x20\n      dup2\n      dup4\n      sub\n      sub\n      dup2\n      mstore\n      swap1\n      0x40\n      mstore\n      swap2\n      pop\n      0xe0\n      shl\n      0x20\n      dup3\n      add\n      dup1\n      mload\n      0xffffffffffffffffffffffffffffffffffffffffffffffffffffffff\n      dup4\n      dup2\n      dup4\n      and\n      or\n      dup4\n      mstore\n      pop\n      pop\n      pop\n      pop\n        /* \"@openzeppelin/contracts/token/ERC20/utils/SafeERC20.sol\":1718:1737  _callOptionalReturn */\n      tag_129\n        /* \"@openzeppelin/contracts/token/ERC20/utils/SafeERC20.sol\":1718:1799  _callOptionalReturn(token, abi.encodeCall(token.transferFrom, (from, to, value))) */\n      jump\t// in\n    tag_126:\n        /* \"@openzeppelin/contracts/token/ERC20/utils/SafeERC20.sol\":1618:1806  function safeTransferFrom(IERC20 token, address from, address to, uint256 value) internal {... */\n      pop\n      pop\n      pop\n      pop\n      jump\t// out\n        /* \"@openzeppelin/contracts/token/ERC20/utils/SafeERC20.sol\":1219:1379  function safeTransfer(IERC20 token, address to, uint256 value) internal {... */\n    tag_77:\n        /* \"@openzeppelin/contracts/token/ERC20/utils/SafeERC20.sol\":1301:1372  _callOptionalReturn(token, abi.encodeCall(token.transfer, (to, value))) */\n      tag_131\n        /* \"@openzeppelin/contracts/token/ERC20/utils/SafeERC20.sol\":1321:1326  token */\n      dup4\n        /* \"@openzeppelin/contracts/token/ERC20/utils/SafeERC20.sol\":1343:1348  token */\n      dup5\n        /* \"@openzeppelin/contracts/token/ERC20/utils/SafeERC20.sol\":1343:1357  token.transfer */\n      0xffffffffffffffffffffffffffffffffffffffff\n      and\n      0xa9059cbb\n        /* \"@openzeppelin/contracts/token/ERC20/utils/SafeERC20.sol\":1360:1362  to */\n      dup6\n        /* \"@openzeppelin/contracts/token/ERC20/utils/SafeERC20.sol\":1364:1369  value */\n      dup6\n        /* \"@openzeppelin/contracts/token/ERC20/utils/SafeERC20.sol\":1328:1371  abi.encodeCall(token.transfer, (to, value)) */\n      add(0x24, mload(0x40))\n      tag_132\n      swap3\n      swap2\n      swap1\n      tag_133\n      jump\t// in\n    tag_132:\n      mload(0x40)\n      0x20\n      dup2\n      dup4\n      sub\n      sub\n      dup2\n      mstore\n      swap1\n      0x40\n      mstore\n      swap2\n      pop\n      0xe0\n      shl\n      0x20\n      dup3\n      add\n      dup1\n      mload\n      0xffffffffffffffffffffffffffffffffffffffffffffffffffffffff\n      dup4\n      dup2\n      dup4\n      and\n      or\n      dup4\n      mstore\n      pop\n      pop\n      pop\n      pop\n        /* \"@openzeppelin/contracts/token/ERC20/utils/SafeERC20.sol\":1301:1320  _callOptionalReturn */\n      tag_129\n        /* \"@openzeppelin/contracts/token/ERC20/utils/SafeERC20.sol\":1301:1372  _callOptionalReturn(token, abi.encodeCall(token.transfer, (to, value))) */\n      jump\t// in\n    tag_131:\n        /* \"@openzeppelin/contracts/token/ERC20/utils/SafeERC20.sol\":1219:1379  function safeTransfer(IERC20 token, address to, uint256 value) internal {... */\n      pop\n      pop\n      pop\n      jump\t// out\n        /* \"@openzeppelin/contracts/utils/ReentrancyGuard.sol\":2888:3096  function _nonReentrantAfter() private {... */\n    tag_81:\n        /* \"@openzeppelin/contracts/utils/ReentrancyGuard.sol\":1857:1858  1 */\n      0x01\n        /* \"@openzeppelin/contracts/utils/ReentrancyGuard.sol\":3068:3075  _status */\n      0x00\n        /* \"@openzeppelin/contracts/utils/ReentrancyGuard.sol\":3068:3089  _status = NOT_ENTERED */\n      dup2\n      swap1\n      sstore\n      pop\n        /* \"@openzeppelin/contracts/utils/ReentrancyGuard.sol\":2888:3096  function _nonReentrantAfter() private {... */\n      jump\t// out\n        /* \"@openzeppelin/contracts/token/ERC20/utils/SafeERC20.sol\":7686:8406  function _callOptionalReturn(IERC20 token, bytes memory data) private {... */\n    tag_129:\n        /* \"@openzeppelin/contracts/token/ERC20/utils/SafeERC20.sol\":7766:7784  uint256 returnSize */\n      0x00\n        /* \"@openzeppelin/contracts/token/ERC20/utils/SafeERC20.sol\":7794:7813  uint256 returnValue */\n      0x00\n        /* \"@openzeppelin/contracts/token/ERC20/utils/SafeERC20.sol\":7932:7936  0x20 */\n      0x20\n        /* \"@openzeppelin/contracts/token/ERC20/utils/SafeERC20.sol\":7929:7930  0 */\n      0x00\n        /* \"@openzeppelin/contracts/token/ERC20/utils/SafeERC20.sol\":7922:7926  data */\n      dup5\n        /* \"@openzeppelin/contracts/token/ERC20/utils/SafeERC20.sol\":7916:7927  mload(data) */\n      mload\n        /* \"@openzeppelin/contracts/token/ERC20/utils/SafeERC20.sol\":7909:7913  0x20 */\n      0x20\n        /* \"@openzeppelin/contracts/token/ERC20/utils/SafeERC20.sol\":7903:7907  data */\n      dup7\n        /* \"@openzeppelin/contracts/token/ERC20/utils/SafeERC20.sol\":7899:7914  add(data, 0x20) */\n      add\n        /* \"@openzeppelin/contracts/token/ERC20/utils/SafeERC20.sol\":7896:7897  0 */\n      0x00\n        /* \"@openzeppelin/contracts/token/ERC20/utils/SafeERC20.sol\":7889:7894  token */\n      dup9\n        /* \"@openzeppelin/contracts/token/ERC20/utils/SafeERC20.sol\":7882:7887  gas() */\n      gas\n        /* \"@openzeppelin/contracts/token/ERC20/utils/SafeERC20.sol\":7877:7937  call(gas(), token, 0, add(data, 0x20), mload(data), 0, 0x20) */\n      call\n        /* \"@openzeppelin/contracts/token/ERC20/utils/SafeERC20.sol\":7989:7996  success */\n      dup1\n        /* \"@openzeppelin/contracts/token/ERC20/utils/SafeERC20.sol\":7979:8155  if iszero(success) {... */\n      tag_136\n      jumpi\n        /* \"@openzeppelin/contracts/token/ERC20/utils/SafeERC20.sol\":8033:8037  0x40 */\n      0x40\n        /* \"@openzeppelin/contracts/token/ERC20/utils/SafeERC20.sol\":8027:8038  mload(0x40) */\n      mload\n        /* \"@openzeppelin/contracts/token/ERC20/utils/SafeERC20.sol\":8078:8094  returndatasize() */\n      returndatasize\n        /* \"@openzeppelin/contracts/token/ERC20/utils/SafeERC20.sol\":8075:8076  0 */\n      0x00\n        /* \"@openzeppelin/contracts/token/ERC20/utils/SafeERC20.sol\":8070:8073  ptr */\n      dup3\n        /* \"@openzeppelin/contracts/token/ERC20/utils/SafeERC20.sol\":8055:8095  returndatacopy(ptr, 0, returndatasize()) */\n      returndatacopy\n        /* \"@openzeppelin/contracts/token/ERC20/utils/SafeERC20.sol\":8124:8140  returndatasize() */\n      returndatasize\n        /* \"@openzeppelin/contracts/token/ERC20/utils/SafeERC20.sol\":8119:8122  ptr */\n      dup2\n        /* \"@openzeppelin/contracts/token/ERC20/utils/SafeERC20.sol\":8112:8141  revert(ptr, returndatasize()) */\n      revert\n        /* \"@openzeppelin/contracts/token/ERC20/utils/SafeERC20.sol\":7979:8155  if iszero(success) {... */\n    tag_136:\n        /* \"@openzeppelin/contracts/token/ERC20/utils/SafeERC20.sol\":8182:8198  returndatasize() */\n      returndatasize\n        /* \"@openzeppelin/contracts/token/ERC20/utils/SafeERC20.sol\":8168:8198  returnSize := returndatasize() */\n      swap3\n      pop\n        /* \"@openzeppelin/contracts/token/ERC20/utils/SafeERC20.sol\":8232:8233  0 */\n      0x00\n        /* \"@openzeppelin/contracts/token/ERC20/utils/SafeERC20.sol\":8226:8234  mload(0) */\n      mload\n        /* \"@openzeppelin/contracts/token/ERC20/utils/SafeERC20.sol\":8211:8234  returnValue := mload(0) */\n      swap2\n      pop\n        /* \"@openzeppelin/contracts/token/ERC20/utils/SafeERC20.sol\":7848:8244  {... */\n      pop\n        /* \"@openzeppelin/contracts/token/ERC20/utils/SafeERC20.sol\":8272:8273  0 */\n      0x00\n        /* \"@openzeppelin/contracts/token/ERC20/utils/SafeERC20.sol\":8258:8268  returnSize */\n      dup3\n        /* \"@openzeppelin/contracts/token/ERC20/utils/SafeERC20.sol\":8258:8273  returnSize == 0 */\n      eq\n        /* \"@openzeppelin/contracts/token/ERC20/utils/SafeERC20.sol\":8258:8326  returnSize == 0 ? address(token).code.length == 0 : returnValue != 1 */\n      tag_137\n      jumpi\n        /* \"@openzeppelin/contracts/token/ERC20/utils/SafeERC20.sol\":8325:8326  1 */\n      0x01\n        /* \"@openzeppelin/contracts/token/ERC20/utils/SafeERC20.sol\":8310:8321  returnValue */\n      dup2\n        /* \"@openzeppelin/contracts/token/ERC20/utils/SafeERC20.sol\":8310:8326  returnValue != 1 */\n      eq\n      iszero\n        /* \"@openzeppelin/contracts/token/ERC20/utils/SafeERC20.sol\":8258:8326  returnSize == 0 ? address(token).code.length == 0 : returnValue != 1 */\n      jump(tag_138)\n    tag_137:\n        /* \"@openzeppelin/contracts/token/ERC20/utils/SafeERC20.sol\":8306:8307  0 */\n      0x00\n        /* \"@openzeppelin/contracts/token/ERC20/utils/SafeERC20.sol\":8284:8289  token */\n      dup5\n        /* \"@openzeppelin/contracts/token/ERC20/utils/SafeERC20.sol\":8276:8302  address(token).code.length */\n      0xffffffffffffffffffffffffffffffffffffffff\n      and\n      extcodesize\n        /* \"@openzeppelin/contracts/token/ERC20/utils/SafeERC20.sol\":8276:8307  address(token).code.length == 0 */\n      eq\n        /* \"@openzeppelin/contracts/token/ERC20/utils/SafeERC20.sol\":8258:8326  returnSize == 0 ? address(token).code.length == 0 : returnValue != 1 */\n    tag_138:\n        /* \"@openzeppelin/contracts/token/ERC20/utils/SafeERC20.sol\":8254:8400  if (returnSize == 0 ? address(token).code.length == 0 : returnValue != 1) {... */\n      iszero\n      tag_139\n      jumpi\n        /* \"@openzeppelin/contracts/token/ERC20/utils/SafeERC20.sol\":8382:8387  token */\n      dup4\n        /* \"@openzeppelin/contracts/token/ERC20/utils/SafeERC20.sol\":8349:8389  SafeERC20FailedOperation(address(token)) */\n      mload(0x40)\n      0x5274afe700000000000000000000000000000000000000000000000000000000\n      dup2\n      mstore\n      0x04\n      add\n      tag_140\n      swap2\n      swap1\n      tag_14\n      jump\t// in\n    tag_140:\n      mload(0x40)\n      dup1\n      swap2\n      sub\n      swap1\n      revert\n        /* \"@openzeppelin/contracts/token/ERC20/utils/SafeERC20.sol\":8254:8400  if (returnSize == 0 ? address(token).code.length == 0 : returnValue != 1) {... */\n    tag_139:\n        /* \"@openzeppelin/contracts/token/ERC20/utils/SafeERC20.sol\":7756:8406  {... */\n      pop\n      pop\n        /* \"@openzeppelin/contracts/token/ERC20/utils/SafeERC20.sol\":7686:8406  function _callOptionalReturn(IERC20 token, bytes memory data) private {... */\n      pop\n      pop\n      jump\t// out\n        /* \"#utility.yul\":7:133   */\n    tag_141:\n        /* \"#utility.yul\":44:51   */\n      0x00\n        /* \"#utility.yul\":84:126   */\n      0xffffffffffffffffffffffffffffffffffffffff\n        /* \"#utility.yul\":77:82   */\n      dup3\n        /* \"#utility.yul\":73:127   */\n      and\n        /* \"#utility.yul\":62:127   */\n      swap1\n      pop\n        /* \"#utility.yul\":7:133   */\n      swap2\n      swap1\n      pop\n      jump\t// out\n        /* \"#utility.yul\":139:235   */\n    tag_142:\n        /* \"#utility.yul\":176:183   */\n      0x00\n        /* \"#utility.yul\":205:229   */\n      tag_188\n        /* \"#utility.yul\":223:228   */\n      dup3\n        /* \"#utility.yul\":205:229   */\n      tag_141\n      jump\t// in\n    tag_188:\n        /* \"#utility.yul\":194:229   */\n      swap1\n      pop\n        /* \"#utility.yul\":139:235   */\n      swap2\n      swap1\n      pop\n      jump\t// out\n        /* \"#utility.yul\":241:359   */\n    tag_143:\n        /* \"#utility.yul\":328:352   */\n      tag_190\n        /* \"#utility.yul\":346:351   */\n      dup2\n        /* \"#utility.yul\":328:352   */\n      tag_142\n      jump\t// in\n    tag_190:\n        /* \"#utility.yul\":323:326   */\n      dup3\n        /* \"#utility.yul\":316:353   */\n      mstore\n        /* \"#utility.yul\":241:359   */\n      pop\n      pop\n      jump\t// out\n        /* \"#utility.yul\":365:587   */\n    tag_14:\n        /* \"#utility.yul\":458:462   */\n      0x00\n        /* \"#utility.yul\":496:498   */\n      0x20\n        /* \"#utility.yul\":485:494   */\n      dup3\n        /* \"#utility.yul\":481:499   */\n      add\n        /* \"#utility.yul\":473:499   */\n      swap1\n      pop\n        /* \"#utility.yul\":509:580   */\n      tag_192\n        /* \"#utility.yul\":577:578   */\n      0x00\n        /* \"#utility.yul\":566:575   */\n      dup4\n        /* \"#utility.yul\":562:579   */\n      add\n        /* \"#utility.yul\":553:559   */\n      dup5\n        /* \"#utility.yul\":509:580   */\n      tag_143\n      jump\t// in\n    tag_192:\n        /* \"#utility.yul\":365:587   */\n      swap3\n      swap2\n      pop\n      pop\n      jump\t// out\n        /* \"#utility.yul\":593:670   */\n    tag_144:\n        /* \"#utility.yul\":630:637   */\n      0x00\n        /* \"#utility.yul\":659:664   */\n      dup2\n        /* \"#utility.yul\":648:664   */\n      swap1\n      pop\n        /* \"#utility.yul\":593:670   */\n      swap2\n      swap1\n      pop\n      jump\t// out\n        /* \"#utility.yul\":676:794   */\n    tag_145:\n        /* \"#utility.yul\":763:787   */\n      tag_195\n        /* \"#utility.yul\":781:786   */\n      dup2\n        /* \"#utility.yul\":763:787   */\n      tag_144\n      jump\t// in\n    tag_195:\n        /* \"#utility.yul\":758:761   */\n      dup3\n        /* \"#utility.yul\":751:788   */\n      mstore\n        /* \"#utility.yul\":676:794   */\n      pop\n      pop\n      jump\t// out\n        /* \"#utility.yul\":800:1022   */\n    tag_18:\n        /* \"#utility.yul\":893:897   */\n      0x00\n        /* \"#utility.yul\":931:933   */\n      0x20\n        /* \"#utility.yul\":920:929   */\n      dup3\n        /* \"#utility.yul\":916:934   */\n      add\n        /* \"#utility.yul\":908:934   */\n      swap1\n      pop\n        /* \"#utility.yul\":944:1015   */\n      tag_197\n        /* \"#utility.yul\":1012:1013   */\n      0x00\n        /* \"#utility.yul\":1001:1010   */\n      dup4\n        /* \"#utility.yul\":997:1014   */\n      add\n        /* \"#utility.yul\":988:994   */\n      dup5\n        /* \"#utility.yul\":944:1015   */\n      tag_145\n      jump\t// in\n    tag_197:\n        /* \"#utility.yul\":800:1022   */\n      swap3\n      swap2\n      pop\n      pop\n      jump\t// out\n        /* \"#utility.yul\":1109:1226   */\n    tag_147:\n        /* \"#utility.yul\":1218:1219   */\n      0x00\n        /* \"#utility.yul\":1215:1216   */\n      0x00\n        /* \"#utility.yul\":1208:1220   */\n      revert\n        /* \"#utility.yul\":1355:1477   */\n    tag_149:\n        /* \"#utility.yul\":1428:1452   */\n      tag_202\n        /* \"#utility.yul\":1446:1451   */\n      dup2\n        /* \"#utility.yul\":1428:1452   */\n      tag_144\n      jump\t// in\n    tag_202:\n        /* \"#utility.yul\":1421:1426   */\n      dup2\n        /* \"#utility.yul\":1418:1453   */\n      eq\n        /* \"#utility.yul\":1408:1471   */\n      tag_203\n      jumpi\n        /* \"#utility.yul\":1467:1468   */\n      0x00\n        /* \"#utility.yul\":1464:1465   */\n      0x00\n        /* \"#utility.yul\":1457:1469   */\n      revert\n        /* \"#utility.yul\":1408:1471   */\n    tag_203:\n        /* \"#utility.yul\":1355:1477   */\n      pop\n      jump\t// out\n        /* \"#utility.yul\":1483:1622   */\n    tag_150:\n        /* \"#utility.yul\":1529:1534   */\n      0x00\n        /* \"#utility.yul\":1567:1573   */\n      dup2\n        /* \"#utility.yul\":1554:1574   */\n      calldataload\n        /* \"#utility.yul\":1545:1574   */\n      swap1\n      pop\n        /* \"#utility.yul\":1583:1616   */\n      tag_205\n        /* \"#utility.yul\":1610:1615   */\n      dup2\n        /* \"#utility.yul\":1583:1616   */\n      tag_149\n      jump\t// in\n    tag_205:\n        /* \"#utility.yul\":1483:1622   */\n      swap3\n      swap2\n      pop\n      pop\n      jump\t// out\n        /* \"#utility.yul\":1628:1750   */\n    tag_151:\n        /* \"#utility.yul\":1701:1725   */\n      tag_207\n        /* \"#utility.yul\":1719:1724   */\n      dup2\n        /* \"#utility.yul\":1701:1725   */\n      tag_142\n      jump\t// in\n    tag_207:\n        /* \"#utility.yul\":1694:1699   */\n      dup2\n        /* \"#utility.yul\":1691:1726   */\n      eq\n        /* \"#utility.yul\":1681:1744   */\n      tag_208\n      jumpi\n        /* \"#utility.yul\":1740:1741   */\n      0x00\n        /* \"#utility.yul\":1737:1738   */\n      0x00\n        /* \"#utility.yul\":1730:1742   */\n      revert\n        /* \"#utility.yul\":1681:1744   */\n    tag_208:\n        /* \"#utility.yul\":1628:1750   */\n      pop\n      jump\t// out\n        /* \"#utility.yul\":1756:1895   */\n    tag_152:\n        /* \"#utility.yul\":1802:1807   */\n      0x00\n        /* \"#utility.yul\":1840:1846   */\n      dup2\n        /* \"#utility.yul\":1827:1847   */\n      calldataload\n        /* \"#utility.yul\":1818:1847   */\n      swap1\n      pop\n        /* \"#utility.yul\":1856:1889   */\n      tag_210\n        /* \"#utility.yul\":1883:1888   */\n      dup2\n        /* \"#utility.yul\":1856:1889   */\n      tag_151\n      jump\t// in\n    tag_210:\n        /* \"#utility.yul\":1756:1895   */\n      swap3\n      swap2\n      pop\n      pop\n      jump\t// out\n        /* \"#utility.yul\":1901:2666   */\n    tag_24:\n        /* \"#utility.yul\":1987:1993   */\n      0x00\n        /* \"#utility.yul\":1995:2001   */\n      0x00\n        /* \"#utility.yul\":2003:2009   */\n      0x00\n        /* \"#utility.yul\":2011:2017   */\n      0x00\n        /* \"#utility.yul\":2060:2063   */\n      0x80\n        /* \"#utility.yul\":2048:2057   */\n      dup6\n        /* \"#utility.yul\":2039:2046   */\n      dup8\n        /* \"#utility.yul\":2035:2058   */\n      sub\n        /* \"#utility.yul\":2031:2064   */\n      slt\n        /* \"#utility.yul\":2028:2148   */\n      iszero\n      tag_212\n      jumpi\n        /* \"#utility.yul\":2067:2146   */\n      tag_213\n      tag_147\n      jump\t// in\n    tag_213:\n        /* \"#utility.yul\":2028:2148   */\n    tag_212:\n        /* \"#utility.yul\":2187:2188   */\n      0x00\n        /* \"#utility.yul\":2212:2265   */\n      tag_214\n        /* \"#utility.yul\":2257:2264   */\n      dup8\n        /* \"#utility.yul\":2248:2254   */\n      dup3\n        /* \"#utility.yul\":2237:2246   */\n      dup9\n        /* \"#utility.yul\":2233:2255   */\n      add\n        /* \"#utility.yul\":2212:2265   */\n      tag_150\n      jump\t// in\n    tag_214:\n        /* \"#utility.yul\":2202:2265   */\n      swap5\n      pop\n        /* \"#utility.yul\":2158:2275   */\n      pop\n        /* \"#utility.yul\":2314:2316   */\n      0x20\n        /* \"#utility.yul\":2340:2393   */\n      tag_215\n        /* \"#utility.yul\":2385:2392   */\n      dup8\n        /* \"#utility.yul\":2376:2382   */\n      dup3\n        /* \"#utility.yul\":2365:2374   */\n      dup9\n        /* \"#utility.yul\":2361:2383   */\n      add\n        /* \"#utility.yul\":2340:2393   */\n      tag_150\n      jump\t// in\n    tag_215:\n        /* \"#utility.yul\":2330:2393   */\n      swap4\n      pop\n        /* \"#utility.yul\":2285:2403   */\n      pop\n        /* \"#utility.yul\":2442:2444   */\n      0x40\n        /* \"#utility.yul\":2468:2521   */\n      tag_216\n        /* \"#utility.yul\":2513:2520   */\n      dup8\n        /* \"#utility.yul\":2504:2510   */\n      dup3\n        /* \"#utility.yul\":2493:2502   */\n      dup9\n        /* \"#utility.yul\":2489:2511   */\n      add\n        /* \"#utility.yul\":2468:2521   */\n      tag_152\n      jump\t// in\n    tag_216:\n        /* \"#utility.yul\":2458:2521   */\n      swap3\n      pop\n        /* \"#utility.yul\":2413:2531   */\n      pop\n        /* \"#utility.yul\":2570:2572   */\n      0x60\n        /* \"#utility.yul\":2596:2649   */\n      tag_217\n        /* \"#utility.yul\":2641:2648   */\n      dup8\n        /* \"#utility.yul\":2632:2638   */\n      dup3\n        /* \"#utility.yul\":2621:2630   */\n      dup9\n        /* \"#utility.yul\":2617:2639   */\n      add\n        /* \"#utility.yul\":2596:2649   */\n      tag_150\n      jump\t// in\n    tag_217:\n        /* \"#utility.yul\":2586:2649   */\n      swap2\n      pop\n        /* \"#utility.yul\":2541:2659   */\n      pop\n        /* \"#utility.yul\":1901:2666   */\n      swap3\n      swap6\n      swap2\n      swap5\n      pop\n      swap3\n      pop\n      jump\t// out\n        /* \"#utility.yul\":2672:3437   */\n    tag_28:\n        /* \"#utility.yul\":2758:2764   */\n      0x00\n        /* \"#utility.yul\":2766:2772   */\n      0x00\n        /* \"#utility.yul\":2774:2780   */\n      0x00\n        /* \"#utility.yul\":2782:2788   */\n      0x00\n        /* \"#utility.yul\":2831:2834   */\n      0x80\n        /* \"#utility.yul\":2819:2828   */\n      dup6\n        /* \"#utility.yul\":2810:2817   */\n      dup8\n        /* \"#utility.yul\":2806:2829   */\n      sub\n        /* \"#utility.yul\":2802:2835   */\n      slt\n        /* \"#utility.yul\":2799:2919   */\n      iszero\n      tag_219\n      jumpi\n        /* \"#utility.yul\":2838:2917   */\n      tag_220\n      tag_147\n      jump\t// in\n    tag_220:\n        /* \"#utility.yul\":2799:2919   */\n    tag_219:\n        /* \"#utility.yul\":2958:2959   */\n      0x00\n        /* \"#utility.yul\":2983:3036   */\n      tag_221\n        /* \"#utility.yul\":3028:3035   */\n      dup8\n        /* \"#utility.yul\":3019:3025   */\n      dup3\n        /* \"#utility.yul\":3008:3017   */\n      dup9\n        /* \"#utility.yul\":3004:3026   */\n      add\n        /* \"#utility.yul\":2983:3036   */\n      tag_150\n      jump\t// in\n    tag_221:\n        /* \"#utility.yul\":2973:3036   */\n      swap5\n      pop\n        /* \"#utility.yul\":2929:3046   */\n      pop\n        /* \"#utility.yul\":3085:3087   */\n      0x20\n        /* \"#utility.yul\":3111:3164   */\n      tag_222\n        /* \"#utility.yul\":3156:3163   */\n      dup8\n        /* \"#utility.yul\":3147:3153   */\n      dup3\n        /* \"#utility.yul\":3136:3145   */\n      dup9\n        /* \"#utility.yul\":3132:3154   */\n      add\n        /* \"#utility.yul\":3111:3164   */\n      tag_152\n      jump\t// in\n    tag_222:\n        /* \"#utility.yul\":3101:3164   */\n      swap4\n      pop\n        /* \"#utility.yul\":3056:3174   */\n      pop\n        /* \"#utility.yul\":3213:3215   */\n      0x40\n        /* \"#utility.yul\":3239:3292   */\n      tag_223\n        /* \"#utility.yul\":3284:3291   */\n      dup8\n        /* \"#utility.yul\":3275:3281   */\n      dup3\n        /* \"#utility.yul\":3264:3273   */\n      dup9\n        /* \"#utility.yul\":3260:3282   */\n      add\n        /* \"#utility.yul\":3239:3292   */\n      tag_150\n      jump\t// in\n    tag_223:\n        /* \"#utility.yul\":3229:3292   */\n      swap3\n      pop\n        /* \"#utility.yul\":3184:3302   */\n      pop\n        /* \"#utility.yul\":3341:3343   */\n      0x60\n        /* \"#utility.yul\":3367:3420   */\n      tag_224\n        /* \"#utility.yul\":3412:3419   */\n      dup8\n        /* \"#utility.yul\":3403:3409   */\n      dup3\n        /* \"#utility.yul\":3392:3401   */\n      dup9\n        /* \"#utility.yul\":3388:3410   */\n      add\n        /* \"#utility.yul\":3367:3420   */\n      tag_150\n      jump\t// in\n    tag_224:\n        /* \"#utility.yul\":3357:3420   */\n      swap2\n      pop\n        /* \"#utility.yul\":3312:3430   */\n      pop\n        /* \"#utility.yul\":2672:3437   */\n      swap3\n      swap6\n      swap2\n      swap5\n      pop\n      swap3\n      pop\n      jump\t// out\n        /* \"#utility.yul\":3443:3772   */\n    tag_32:\n        /* \"#utility.yul\":3502:3508   */\n      0x00\n        /* \"#utility.yul\":3551:3553   */\n      0x20\n        /* \"#utility.yul\":3539:3548   */\n      dup3\n        /* \"#utility.yul\":3530:3537   */\n      dup5\n        /* \"#utility.yul\":3526:3549   */\n      sub\n        /* \"#utility.yul\":3522:3554   */\n      slt\n        /* \"#utility.yul\":3519:3638   */\n      iszero\n      tag_226\n      jumpi\n        /* \"#utility.yul\":3557:3636   */\n      tag_227\n      tag_147\n      jump\t// in\n    tag_227:\n        /* \"#utility.yul\":3519:3638   */\n    tag_226:\n        /* \"#utility.yul\":3677:3678   */\n      0x00\n        /* \"#utility.yul\":3702:3755   */\n      tag_228\n        /* \"#utility.yul\":3747:3754   */\n      dup5\n        /* \"#utility.yul\":3738:3744   */\n      dup3\n        /* \"#utility.yul\":3727:3736   */\n      dup6\n        /* \"#utility.yul\":3723:3745   */\n      add\n        /* \"#utility.yul\":3702:3755   */\n      tag_150\n      jump\t// in\n    tag_228:\n        /* \"#utility.yul\":3692:3755   */\n      swap2\n      pop\n        /* \"#utility.yul\":3648:3765   */\n      pop\n        /* \"#utility.yul\":3443:3772   */\n      swap3\n      swap2\n      pop\n      pop\n      jump\t// out\n        /* \"#utility.yul\":3778:4442   */\n    tag_35:\n        /* \"#utility.yul\":3983:3987   */\n      0x00\n        /* \"#utility.yul\":4021:4024   */\n      0xa0\n        /* \"#utility.yul\":4010:4019   */\n      dup3\n        /* \"#utility.yul\":4006:4025   */\n      add\n        /* \"#utility.yul\":3998:4025   */\n      swap1\n      pop\n        /* \"#utility.yul\":4035:4106   */\n      tag_230\n        /* \"#utility.yul\":4103:4104   */\n      0x00\n        /* \"#utility.yul\":4092:4101   */\n      dup4\n        /* \"#utility.yul\":4088:4105   */\n      add\n        /* \"#utility.yul\":4079:4085   */\n      dup9\n        /* \"#utility.yul\":4035:4106   */\n      tag_143\n      jump\t// in\n    tag_230:\n        /* \"#utility.yul\":4116:4188   */\n      tag_231\n        /* \"#utility.yul\":4184:4186   */\n      0x20\n        /* \"#utility.yul\":4173:4182   */\n      dup4\n        /* \"#utility.yul\":4169:4187   */\n      add\n        /* \"#utility.yul\":4160:4166   */\n      dup8\n        /* \"#utility.yul\":4116:4188   */\n      tag_145\n      jump\t// in\n    tag_231:\n        /* \"#utility.yul\":4198:4270   */\n      tag_232\n        /* \"#utility.yul\":4266:4268   */\n      0x40\n        /* \"#utility.yul\":4255:4264   */\n      dup4\n        /* \"#utility.yul\":4251:4269   */\n      add\n        /* \"#utility.yul\":4242:4248   */\n      dup7\n        /* \"#utility.yul\":4198:4270   */\n      tag_145\n      jump\t// in\n    tag_232:\n        /* \"#utility.yul\":4280:4352   */\n      tag_233\n        /* \"#utility.yul\":4348:4350   */\n      0x60\n        /* \"#utility.yul\":4337:4346   */\n      dup4\n        /* \"#utility.yul\":4333:4351   */\n      add\n        /* \"#utility.yul\":4324:4330   */\n      dup6\n        /* \"#utility.yul\":4280:4352   */\n      tag_143\n      jump\t// in\n    tag_233:\n        /* \"#utility.yul\":4362:4435   */\n      tag_234\n        /* \"#utility.yul\":4430:4433   */\n      0x80\n        /* \"#utility.yul\":4419:4428   */\n      dup4\n        /* \"#utility.yul\":4415:4434   */\n      add\n        /* \"#utility.yul\":4406:4412   */\n      dup5\n        /* \"#utility.yul\":4362:4435   */\n      tag_145\n      jump\t// in\n    tag_234:\n        /* \"#utility.yul\":3778:4442   */\n      swap7\n      swap6\n      pop\n      pop\n      pop\n      pop\n      pop\n      pop\n      jump\t// out\n        /* \"#utility.yul\":4448:4617   */\n    tag_153:\n        /* \"#utility.yul\":4532:4543   */\n      0x00\n        /* \"#utility.yul\":4566:4572   */\n      dup3\n        /* \"#utility.yul\":4561:4564   */\n      dup3\n        /* \"#utility.yul\":4554:4573   */\n      mstore\n        /* \"#utility.yul\":4606:4610   */\n      0x20\n        /* \"#utility.yul\":4601:4604   */\n      dup3\n        /* \"#utility.yul\":4597:4611   */\n      add\n        /* \"#utility.yul\":4582:4611   */\n      swap1\n      pop\n        /* \"#utility.yul\":4448:4617   */\n      swap3\n      swap2\n      pop\n      pop\n      jump\t// out\n        /* \"#utility.yul\":4623:4795   */\n    tag_154:\n        /* \"#utility.yul\":4763:4787   */\n      0x4c697374696e6720646f6573206e6f7420657869737400000000000000000000\n        /* \"#utility.yul\":4759:4760   */\n      0x00\n        /* \"#utility.yul\":4751:4757   */\n      dup3\n        /* \"#utility.yul\":4747:4761   */\n      add\n        /* \"#utility.yul\":4740:4788   */\n      mstore\n        /* \"#utility.yul\":4623:4795   */\n      pop\n      jump\t// out\n        /* \"#utility.yul\":4801:5167   */\n    tag_155:\n        /* \"#utility.yul\":4943:4946   */\n      0x00\n        /* \"#utility.yul\":4964:5031   */\n      tag_238\n        /* \"#utility.yul\":5028:5030   */\n      0x16\n        /* \"#utility.yul\":5023:5026   */\n      dup4\n        /* \"#utility.yul\":4964:5031   */\n      tag_153\n      jump\t// in\n    tag_238:\n        /* \"#utility.yul\":4957:5031   */\n      swap2\n      pop\n        /* \"#utility.yul\":5040:5133   */\n      tag_239\n        /* \"#utility.yul\":5129:5132   */\n      dup3\n        /* \"#utility.yul\":5040:5133   */\n      tag_154\n      jump\t// in\n    tag_239:\n        /* \"#utility.yul\":5158:5160   */\n      0x20\n        /* \"#utility.yul\":5153:5156   */\n      dup3\n        /* \"#utility.yul\":5149:5161   */\n      add\n        /* \"#utility.yul\":5142:5161   */\n      swap1\n      pop\n        /* \"#utility.yul\":4801:5167   */\n      swap2\n      swap1\n      pop\n      jump\t// out\n        /* \"#utility.yul\":5173:5592   */\n    tag_45:\n        /* \"#utility.yul\":5339:5343   */\n      0x00\n        /* \"#utility.yul\":5377:5379   */\n      0x20\n        /* \"#utility.yul\":5366:5375   */\n      dup3\n        /* \"#utility.yul\":5362:5380   */\n      add\n        /* \"#utility.yul\":5354:5380   */\n      swap1\n      pop\n        /* \"#utility.yul\":5426:5435   */\n      dup2\n        /* \"#utility.yul\":5420:5424   */\n      dup2\n        /* \"#utility.yul\":5416:5436   */\n      sub\n        /* \"#utility.yul\":5412:5413   */\n      0x00\n        /* \"#utility.yul\":5401:5410   */\n      dup4\n        /* \"#utility.yul\":5397:5414   */\n      add\n        /* \"#utility.yul\":5390:5437   */\n      mstore\n        /* \"#utility.yul\":5454:5585   */\n      tag_241\n        /* \"#utility.yul\":5580:5584   */\n      dup2\n        /* \"#utility.yul\":5454:5585   */\n      tag_155\n      jump\t// in\n    tag_241:\n        /* \"#utility.yul\":5446:5585   */\n      swap1\n      pop\n        /* \"#utility.yul\":5173:5592   */\n      swap2\n      swap1\n      pop\n      jump\t// out\n        /* \"#utility.yul\":5598:5767   */\n    tag_156:\n        /* \"#utility.yul\":5738:5759   */\n      0x4c697374696e6720686173206578706972656400000000000000000000000000\n        /* \"#utility.yul\":5734:5735   */\n      0x00\n        /* \"#utility.yul\":5726:5732   */\n      dup3\n        /* \"#utility.yul\":5722:5736   */\n      add\n        /* \"#utility.yul\":5715:5760   */\n      mstore\n        /* \"#utility.yul\":5598:5767   */\n      pop\n      jump\t// out\n        /* \"#utility.yul\":5773:6139   */\n    tag_157:\n        /* \"#utility.yul\":5915:5918   */\n      0x00\n        /* \"#utility.yul\":5936:6003   */\n      tag_244\n        /* \"#utility.yul\":6000:6002   */\n      0x13\n        /* \"#utility.yul\":5995:5998   */\n      dup4\n        /* \"#utility.yul\":5936:6003   */\n      tag_153\n      jump\t// in\n    tag_244:\n        /* \"#utility.yul\":5929:6003   */\n      swap2\n      pop\n        /* \"#utility.yul\":6012:6105   */\n      tag_245\n        /* \"#utility.yul\":6101:6104   */\n      dup3\n        /* \"#utility.yul\":6012:6105   */\n      tag_156\n      jump\t// in\n    tag_245:\n        /* \"#utility.yul\":6130:6132   */\n      0x20\n        /* \"#utility.yul\":6125:6128   */\n      dup3\n        /* \"#utility.yul\":6121:6133   */\n      add\n        /* \"#utility.yul\":6114:6133   */\n      swap1\n      pop\n        /* \"#utility.yul\":5773:6139   */\n      swap2\n      swap1\n      pop\n      jump\t// out\n        /* \"#utility.yul\":6145:6564   */\n    tag_48:\n        /* \"#utility.yul\":6311:6315   */\n      0x00\n        /* \"#utility.yul\":6349:6351   */\n      0x20\n        /* \"#utility.yul\":6338:6347   */\n      dup3\n        /* \"#utility.yul\":6334:6352   */\n      add\n        /* \"#utility.yul\":6326:6352   */\n      swap1\n      pop\n        /* \"#utility.yul\":6398:6407   */\n      dup2\n        /* \"#utility.yul\":6392:6396   */\n      dup2\n        /* \"#utility.yul\":6388:6408   */\n      sub\n        /* \"#utility.yul\":6384:6385   */\n      0x00\n        /* \"#utility.yul\":6373:6382   */\n      dup4\n        /* \"#utility.yul\":6369:6386   */\n      add\n        /* \"#utility.yul\":6362:6409   */\n      mstore\n        /* \"#utility.yul\":6426:6557   */\n      tag_247\n        /* \"#utility.yul\":6552:6556   */\n      dup2\n        /* \"#utility.yul\":6426:6557   */\n      tag_157\n      jump\t// in\n    tag_247:\n        /* \"#utility.yul\":6418:6557   */\n      swap1\n      pop\n        /* \"#utility.yul\":6145:6564   */\n      swap2\n      swap1\n      pop\n      jump\t// out\n        /* \"#utility.yul\":6570:6748   */\n    tag_158:\n        /* \"#utility.yul\":6710:6740   */\n      0x4e6f7420656e6f75676820746f6b656e7320696e206c697374696e6700000000\n        /* \"#utility.yul\":6706:6707   */\n      0x00\n        /* \"#utility.yul\":6698:6704   */\n      dup3\n        /* \"#utility.yul\":6694:6708   */\n      add\n        /* \"#utility.yul\":6687:6741   */\n      mstore\n        /* \"#utility.yul\":6570:6748   */\n      pop\n      jump\t// out\n        /* \"#utility.yul\":6754:7120   */\n    tag_159:\n        /* \"#utility.yul\":6896:6899   */\n      0x00\n        /* \"#utility.yul\":6917:6984   */\n      tag_250\n        /* \"#utility.yul\":6981:6983   */\n      0x1c\n        /* \"#utility.yul\":6976:6979   */\n      dup4\n        /* \"#utility.yul\":6917:6984   */\n      tag_153\n      jump\t// in\n    tag_250:\n        /* \"#utility.yul\":6910:6984   */\n      swap2\n      pop\n        /* \"#utility.yul\":6993:7086   */\n      tag_251\n        /* \"#utility.yul\":7082:7085   */\n      dup3\n        /* \"#utility.yul\":6993:7086   */\n      tag_158\n      jump\t// in\n    tag_251:\n        /* \"#utility.yul\":7111:7113   */\n      0x20\n        /* \"#utility.yul\":7106:7109   */\n      dup3\n        /* \"#utility.yul\":7102:7114   */\n      add\n        /* \"#utility.yul\":7095:7114   */\n      swap1\n      pop\n        /* \"#utility.yul\":6754:7120   */\n      swap2\n      swap1\n      pop\n      jump\t// out\n        /* \"#utility.yul\":7126:7545   */\n    tag_51:\n        /* \"#utility.yul\":7292:7296   */\n      0x00\n        /* \"#utility.yul\":7330:7332   */\n      0x20\n        /* \"#utility.yul\":7319:7328   */\n      dup3\n        /* \"#utility.yul\":7315:7333   */\n      add\n        /* \"#utility.yul\":7307:7333   */\n      swap1\n      pop\n        /* \"#utility.yul\":7379:7388   */\n      dup2\n        /* \"#utility.yul\":7373:7377   */\n      dup2\n        /* \"#utility.yul\":7369:7389   */\n      sub\n        /* \"#utility.yul\":7365:7366   */\n      0x00\n        /* \"#utility.yul\":7354:7363   */\n      dup4\n        /* \"#utility.yul\":7350:7367   */\n      add\n        /* \"#utility.yul\":7343:7390   */\n      mstore\n        /* \"#utility.yul\":7407:7538   */\n      tag_253\n        /* \"#utility.yul\":7533:7537   */\n      dup2\n        /* \"#utility.yul\":7407:7538   */\n      tag_159\n      jump\t// in\n    tag_253:\n        /* \"#utility.yul\":7399:7538   */\n      swap1\n      pop\n        /* \"#utility.yul\":7126:7545   */\n      swap2\n      swap1\n      pop\n      jump\t// out\n        /* \"#utility.yul\":7551:7731   */\n    tag_160:\n        /* \"#utility.yul\":7599:7676   */\n      0x4e487b7100000000000000000000000000000000000000000000000000000000\n        /* \"#utility.yul\":7596:7597   */\n      0x00\n        /* \"#utility.yul\":7589:7677   */\n      mstore\n        /* \"#utility.yul\":7696:7700   */\n      0x11\n        /* \"#utility.yul\":7693:7694   */\n      0x04\n        /* \"#utility.yul\":7686:7701   */\n      mstore\n        /* \"#utility.yul\":7720:7724   */\n      0x24\n        /* \"#utility.yul\":7717:7718   */\n      0x00\n        /* \"#utility.yul\":7710:7725   */\n      revert\n        /* \"#utility.yul\":7737:8147   */\n    tag_53:\n        /* \"#utility.yul\":7777:7784   */\n      0x00\n        /* \"#utility.yul\":7800:7820   */\n      tag_256\n        /* \"#utility.yul\":7818:7819   */\n      dup3\n        /* \"#utility.yul\":7800:7820   */\n      tag_144\n      jump\t// in\n    tag_256:\n        /* \"#utility.yul\":7795:7820   */\n      swap2\n      pop\n        /* \"#utility.yul\":7834:7854   */\n      tag_257\n        /* \"#utility.yul\":7852:7853   */\n      dup4\n        /* \"#utility.yul\":7834:7854   */\n      tag_144\n      jump\t// in\n    tag_257:\n        /* \"#utility.yul\":7829:7854   */\n      swap3\n      pop\n        /* \"#utility.yul\":7889:7890   */\n      dup3\n        /* \"#utility.yul\":7886:7887   */\n      dup3\n        /* \"#utility.yul\":7882:7891   */\n      mul\n        /* \"#utility.yul\":7911:7941   */\n      tag_258\n        /* \"#utility.yul\":7929:7940   */\n      dup2\n        /* \"#utility.yul\":7911:7941   */\n      tag_144\n      jump\t// in\n    tag_258:\n        /* \"#utility.yul\":7900:7941   */\n      swap2\n      pop\n        /* \"#utility.yul\":8090:8091   */\n      dup3\n        /* \"#utility.yul\":8081:8088   */\n      dup3\n        /* \"#utility.yul\":8077:8092   */\n      div\n        /* \"#utility.yul\":8074:8075   */\n      dup5\n        /* \"#utility.yul\":8071:8093   */\n      eq\n        /* \"#utility.yul\":8051:8052   */\n      dup4\n        /* \"#utility.yul\":8044:8053   */\n      iszero\n        /* \"#utility.yul\":8024:8107   */\n      or\n        /* \"#utility.yul\":8001:8140   */\n      tag_259\n      jumpi\n        /* \"#utility.yul\":8120:8138   */\n      tag_260\n      tag_160\n      jump\t// in\n    tag_260:\n        /* \"#utility.yul\":8001:8140   */\n    tag_259:\n        /* \"#utility.yul\":7785:8147   */\n      pop\n        /* \"#utility.yul\":7737:8147   */\n      swap3\n      swap2\n      pop\n      pop\n      jump\t// out\n        /* \"#utility.yul\":8153:8333   */\n    tag_161:\n        /* \"#utility.yul\":8201:8278   */\n      0x4e487b7100000000000000000000000000000000000000000000000000000000\n        /* \"#utility.yul\":8198:8199   */\n      0x00\n        /* \"#utility.yul\":8191:8279   */\n      mstore\n        /* \"#utility.yul\":8298:8302   */\n      0x12\n        /* \"#utility.yul\":8295:8296   */\n      0x04\n        /* \"#utility.yul\":8288:8303   */\n      mstore\n        /* \"#utility.yul\":8322:8326   */\n      0x24\n        /* \"#utility.yul\":8319:8320   */\n      0x00\n        /* \"#utility.yul\":8312:8327   */\n      revert\n        /* \"#utility.yul\":8339:8524   */\n    tag_56:\n        /* \"#utility.yul\":8379:8380   */\n      0x00\n        /* \"#utility.yul\":8396:8416   */\n      tag_263\n        /* \"#utility.yul\":8414:8415   */\n      dup3\n        /* \"#utility.yul\":8396:8416   */\n      tag_144\n      jump\t// in\n    tag_263:\n        /* \"#utility.yul\":8391:8416   */\n      swap2\n      pop\n        /* \"#utility.yul\":8430:8450   */\n      tag_264\n        /* \"#utility.yul\":8448:8449   */\n      dup4\n        /* \"#utility.yul\":8430:8450   */\n      tag_144\n      jump\t// in\n    tag_264:\n        /* \"#utility.yul\":8425:8450   */\n      swap3\n      pop\n        /* \"#utility.yul\":8469:8470   */\n      dup3\n        /* \"#utility.yul\":8459:8494   */\n      tag_265\n      jumpi\n        /* \"#utility.yul\":8474:8492   */\n      tag_266\n      tag_161\n      jump\t// in\n    tag_266:\n        /* \"#utility.yul\":8459:8494   */\n    tag_265:\n        /* \"#utility.yul\":8516:8517   */\n      dup3\n        /* \"#utility.yul\":8513:8514   */\n      dup3\n        /* \"#utility.yul\":8509:8518   */\n      div\n        /* \"#utility.yul\":8504:8518   */\n      swap1\n      pop\n        /* \"#utility.yul\":8339:8524   */\n      swap3\n      swap2\n      pop\n      pop\n      jump\t// out\n        /* \"#utility.yul\":8530:8721   */\n    tag_58:\n        /* \"#utility.yul\":8570:8573   */\n      0x00\n        /* \"#utility.yul\":8589:8609   */\n      tag_268\n        /* \"#utility.yul\":8607:8608   */\n      dup3\n        /* \"#utility.yul\":8589:8609   */\n      tag_144\n      jump\t// in\n    tag_268:\n        /* \"#utility.yul\":8584:8609   */\n      swap2\n      pop\n        /* \"#utility.yul\":8623:8643   */\n      tag_269\n        /* \"#utility.yul\":8641:8642   */\n      dup4\n        /* \"#utility.yul\":8623:8643   */\n      tag_144\n      jump\t// in\n    tag_269:\n        /* \"#utility.yul\":8618:8643   */\n      swap3\n      pop\n        /* \"#utility.yul\":8666:8667   */\n      dup3\n        /* \"#utility.yul\":8663:8664   */\n      dup3\n        /* \"#utility.yul\":8659:8668   */\n      add\n        /* \"#utility.yul\":8652:8668   */\n      swap1\n      pop\n        /* \"#utility.yul\":8687:8690   */\n      dup1\n        /* \"#utility.yul\":8684:8685   */\n      dup3\n        /* \"#utility.yul\":8681:8691   */\n      gt\n        /* \"#utility.yul\":8678:8714   */\n      iszero\n      tag_270\n      jumpi\n        /* \"#utility.yul\":8694:8712   */\n      tag_271\n      tag_160\n      jump\t// in\n    tag_271:\n        /* \"#utility.yul\":8678:8714   */\n    tag_270:\n        /* \"#utility.yul\":8530:8721   */\n      swap3\n      swap2\n      pop\n      pop\n      jump\t// out\n        /* \"#utility.yul\":8727:8901   */\n    tag_162:\n        /* \"#utility.yul\":8867:8893   */\n      0x496e636f7272656374207061796d656e7420616d6f756e740000000000000000\n        /* \"#utility.yul\":8863:8864   */\n      0x00\n        /* \"#utility.yul\":8855:8861   */\n      dup3\n        /* \"#utility.yul\":8851:8865   */\n      add\n        /* \"#utility.yul\":8844:8894   */\n      mstore\n        /* \"#utility.yul\":8727:8901   */\n      pop\n      jump\t// out\n        /* \"#utility.yul\":8907:9273   */\n    tag_163:\n        /* \"#utility.yul\":9049:9052   */\n      0x00\n        /* \"#utility.yul\":9070:9137   */\n      tag_274\n        /* \"#utility.yul\":9134:9136   */\n      0x18\n        /* \"#utility.yul\":9129:9132   */\n      dup4\n        /* \"#utility.yul\":9070:9137   */\n      tag_153\n      jump\t// in\n    tag_274:\n        /* \"#utility.yul\":9063:9137   */\n      swap2\n      pop\n        /* \"#utility.yul\":9146:9239   */\n      tag_275\n        /* \"#utility.yul\":9235:9238   */\n      dup3\n        /* \"#utility.yul\":9146:9239   */\n      tag_162\n      jump\t// in\n    tag_275:\n        /* \"#utility.yul\":9264:9266   */\n      0x20\n        /* \"#utility.yul\":9259:9262   */\n      dup3\n        /* \"#utility.yul\":9255:9267   */\n      add\n        /* \"#utility.yul\":9248:9267   */\n      swap1\n      pop\n        /* \"#utility.yul\":8907:9273   */\n      swap2\n      swap1\n      pop\n      jump\t// out\n        /* \"#utility.yul\":9279:9698   */\n    tag_61:\n        /* \"#utility.yul\":9445:9449   */\n      0x00\n        /* \"#utility.yul\":9483:9485   */\n      0x20\n        /* \"#utility.yul\":9472:9481   */\n      dup3\n        /* \"#utility.yul\":9468:9486   */\n      add\n        /* \"#utility.yul\":9460:9486   */\n      swap1\n      pop\n        /* \"#utility.yul\":9532:9541   */\n      dup2\n        /* \"#utility.yul\":9526:9530   */\n      dup2\n        /* \"#utility.yul\":9522:9542   */\n      sub\n        /* \"#utility.yul\":9518:9519   */\n      0x00\n        /* \"#utility.yul\":9507:9516   */\n      dup4\n        /* \"#utility.yul\":9503:9520   */\n      add\n        /* \"#utility.yul\":9496:9543   */\n      mstore\n        /* \"#utility.yul\":9560:9691   */\n      tag_277\n        /* \"#utility.yul\":9686:9690   */\n      dup2\n        /* \"#utility.yul\":9560:9691   */\n      tag_163\n      jump\t// in\n    tag_277:\n        /* \"#utility.yul\":9552:9691   */\n      swap1\n      pop\n        /* \"#utility.yul\":9279:9698   */\n      swap2\n      swap1\n      pop\n      jump\t// out\n        /* \"#utility.yul\":9704:10036   */\n    tag_63:\n        /* \"#utility.yul\":9825:9829   */\n      0x00\n        /* \"#utility.yul\":9863:9865   */\n      0x40\n        /* \"#utility.yul\":9852:9861   */\n      dup3\n        /* \"#utility.yul\":9848:9866   */\n      add\n        /* \"#utility.yul\":9840:9866   */\n      swap1\n      pop\n        /* \"#utility.yul\":9876:9947   */\n      tag_279\n        /* \"#utility.yul\":9944:9945   */\n      0x00\n        /* \"#utility.yul\":9933:9942   */\n      dup4\n        /* \"#utility.yul\":9929:9946   */\n      add\n        /* \"#utility.yul\":9920:9926   */\n      dup6\n        /* \"#utility.yul\":9876:9947   */\n      tag_143\n      jump\t// in\n    tag_279:\n        /* \"#utility.yul\":9957:10029   */\n      tag_280\n        /* \"#utility.yul\":10025:10027   */\n      0x20\n        /* \"#utility.yul\":10014:10023   */\n      dup4\n        /* \"#utility.yul\":10010:10028   */\n      add\n        /* \"#utility.yul\":10001:10007   */\n      dup5\n        /* \"#utility.yul\":9957:10029   */\n      tag_143\n      jump\t// in\n    tag_280:\n        /* \"#utility.yul\":9704:10036   */\n      swap4\n      swap3\n      pop\n      pop\n      pop\n      jump\t// out\n        /* \"#utility.yul\":10042:10185   */\n    tag_164:\n        /* \"#utility.yul\":10099:10104   */\n      0x00\n        /* \"#utility.yul\":10130:10136   */\n      dup2\n        /* \"#utility.yul\":10124:10137   */\n      mload\n        /* \"#utility.yul\":10115:10137   */\n      swap1\n      pop\n        /* \"#utility.yul\":10146:10179   */\n      tag_282\n        /* \"#utility.yul\":10173:10178   */\n      dup2\n        /* \"#utility.yul\":10146:10179   */\n      tag_149\n      jump\t// in\n    tag_282:\n        /* \"#utility.yul\":10042:10185   */\n      swap3\n      swap2\n      pop\n      pop\n      jump\t// out\n        /* \"#utility.yul\":10191:10542   */\n    tag_67:\n        /* \"#utility.yul\":10261:10267   */\n      0x00\n        /* \"#utility.yul\":10310:10312   */\n      0x20\n        /* \"#utility.yul\":10298:10307   */\n      dup3\n        /* \"#utility.yul\":10289:10296   */\n      dup5\n        /* \"#utility.yul\":10285:10308   */\n      sub\n        /* \"#utility.yul\":10281:10313   */\n      slt\n        /* \"#utility.yul\":10278:10397   */\n      iszero\n      tag_284\n      jumpi\n        /* \"#utility.yul\":10316:10395   */\n      tag_285\n      tag_147\n      jump\t// in\n    tag_285:\n        /* \"#utility.yul\":10278:10397   */\n    tag_284:\n        /* \"#utility.yul\":10436:10437   */\n      0x00\n        /* \"#utility.yul\":10461:10525   */\n      tag_286\n        /* \"#utility.yul\":10517:10524   */\n      dup5\n        /* \"#utility.yul\":10508:10514   */\n      dup3\n        /* \"#utility.yul\":10497:10506   */\n      dup6\n        /* \"#utility.yul\":10493:10515   */\n      add\n        /* \"#utility.yul\":10461:10525   */\n      tag_164\n      jump\t// in\n    tag_286:\n        /* \"#utility.yul\":10451:10525   */\n      swap2\n      pop\n        /* \"#utility.yul\":10407:10535   */\n      pop\n        /* \"#utility.yul\":10191:10542   */\n      swap3\n      swap2\n      pop\n      pop\n      jump\t// out\n        /* \"#utility.yul\":10548:10729   */\n    tag_165:\n        /* \"#utility.yul\":10688:10721   */\n      0x5061796d656e7420746f6b656e20616c6c6f77616e636520746f6f206c6f7700\n        /* \"#utility.yul\":10684:10685   */\n      0x00\n        /* \"#utility.yul\":10676:10682   */\n      dup3\n        /* \"#utility.yul\":10672:10686   */\n      add\n        /* \"#utility.yul\":10665:10722   */\n      mstore\n        /* \"#utility.yul\":10548:10729   */\n      pop\n      jump\t// out\n        /* \"#utility.yul\":10735:11101   */\n    tag_166:\n        /* \"#utility.yul\":10877:10880   */\n      0x00\n        /* \"#utility.yul\":10898:10965   */\n      tag_289\n        /* \"#utility.yul\":10962:10964   */\n      0x1f\n        /* \"#utility.yul\":10957:10960   */\n      dup4\n        /* \"#utility.yul\":10898:10965   */\n      tag_153\n      jump\t// in\n    tag_289:\n        /* \"#utility.yul\":10891:10965   */\n      swap2\n      pop\n        /* \"#utility.yul\":10974:11067   */\n      tag_290\n        /* \"#utility.yul\":11063:11066   */\n      dup3\n        /* \"#utility.yul\":10974:11067   */\n      tag_165\n      jump\t// in\n    tag_290:\n        /* \"#utility.yul\":11092:11094   */\n      0x20\n        /* \"#utility.yul\":11087:11090   */\n      dup3\n        /* \"#utility.yul\":11083:11095   */\n      add\n        /* \"#utility.yul\":11076:11095   */\n      swap1\n      pop\n        /* \"#utility.yul\":10735:11101   */\n      swap2\n      swap1\n      pop\n      jump\t// out\n        /* \"#utility.yul\":11107:11526   */\n    tag_70:\n        /* \"#utility.yul\":11273:11277   */\n      0x00\n        /* \"#utility.yul\":11311:11313   */\n      0x20\n        /* \"#utility.yul\":11300:11309   */\n      dup3\n        /* \"#utility.yul\":11296:11314   */\n      add\n        /* \"#utility.yul\":11288:11314   */\n      swap1\n      pop\n        /* \"#utility.yul\":11360:11369   */\n      dup2\n        /* \"#utility.yul\":11354:11358   */\n      dup2\n        /* \"#utility.yul\":11350:11370   */\n      sub\n        /* \"#utility.yul\":11346:11347   */\n      0x00\n        /* \"#utility.yul\":11335:11344   */\n      dup4\n        /* \"#utility.yul\":11331:11348   */\n      add\n        /* \"#utility.yul\":11324:11371   */\n      mstore\n        /* \"#utility.yul\":11388:11519   */\n      tag_292\n        /* \"#utility.yul\":11514:11518   */\n      dup2\n        /* \"#utility.yul\":11388:11519   */\n      tag_166\n      jump\t// in\n    tag_292:\n        /* \"#utility.yul\":11380:11519   */\n      swap1\n      pop\n        /* \"#utility.yul\":11107:11526   */\n      swap2\n      swap1\n      pop\n      jump\t// out\n        /* \"#utility.yul\":11532:11726   */\n    tag_75:\n        /* \"#utility.yul\":11572:11576   */\n      0x00\n        /* \"#utility.yul\":11592:11612   */\n      tag_294\n        /* \"#utility.yul\":11610:11611   */\n      dup3\n        /* \"#utility.yul\":11592:11612   */\n      tag_144\n      jump\t// in\n    tag_294:\n        /* \"#utility.yul\":11587:11612   */\n      swap2\n      pop\n        /* \"#utility.yul\":11626:11646   */\n      tag_295\n        /* \"#utility.yul\":11644:11645   */\n      dup4\n        /* \"#utility.yul\":11626:11646   */\n      tag_144\n      jump\t// in\n    tag_295:\n        /* \"#utility.yul\":11621:11646   */\n      swap3\n      pop\n        /* \"#utility.yul\":11670:11671   */\n      dup3\n        /* \"#utility.yul\":11667:11668   */\n      dup3\n        /* \"#utility.yul\":11663:11672   */\n      sub\n        /* \"#utility.yul\":11655:11672   */\n      swap1\n      pop\n        /* \"#utility.yul\":11694:11695   */\n      dup2\n        /* \"#utility.yul\":11688:11692   */\n      dup2\n        /* \"#utility.yul\":11685:11696   */\n      gt\n        /* \"#utility.yul\":11682:11719   */\n      iszero\n      tag_296\n      jumpi\n        /* \"#utility.yul\":11699:11717   */\n      tag_297\n      tag_160\n      jump\t// in\n    tag_297:\n        /* \"#utility.yul\":11682:11719   */\n    tag_296:\n        /* \"#utility.yul\":11532:11726   */\n      swap3\n      swap2\n      pop\n      pop\n      jump\t// out\n        /* \"#utility.yul\":11732:11822   */\n    tag_167:\n        /* \"#utility.yul\":11766:11773   */\n      0x00\n        /* \"#utility.yul\":11809:11814   */\n      dup2\n        /* \"#utility.yul\":11802:11815   */\n      iszero\n        /* \"#utility.yul\":11795:11816   */\n      iszero\n        /* \"#utility.yul\":11784:11816   */\n      swap1\n      pop\n        /* \"#utility.yul\":11732:11822   */\n      swap2\n      swap1\n      pop\n      jump\t// out\n        /* \"#utility.yul\":11828:11937   */\n    tag_168:\n        /* \"#utility.yul\":11909:11930   */\n      tag_300\n        /* \"#utility.yul\":11924:11929   */\n      dup2\n        /* \"#utility.yul\":11909:11930   */\n      tag_167\n      jump\t// in\n    tag_300:\n        /* \"#utility.yul\":11904:11907   */\n      dup3\n        /* \"#utility.yul\":11897:11931   */\n      mstore\n        /* \"#utility.yul\":11828:11937   */\n      pop\n      pop\n      jump\t// out\n        /* \"#utility.yul\":11943:12484   */\n    tag_79:\n        /* \"#utility.yul\":12114:12118   */\n      0x00\n        /* \"#utility.yul\":12152:12155   */\n      0x80\n        /* \"#utility.yul\":12141:12150   */\n      dup3\n        /* \"#utility.yul\":12137:12156   */\n      add\n        /* \"#utility.yul\":12129:12156   */\n      swap1\n      pop\n        /* \"#utility.yul\":12166:12237   */\n      tag_302\n        /* \"#utility.yul\":12234:12235   */\n      0x00\n        /* \"#utility.yul\":12223:12232   */\n      dup4\n        /* \"#utility.yul\":12219:12236   */\n      add\n        /* \"#utility.yul\":12210:12216   */\n      dup8\n        /* \"#utility.yul\":12166:12237   */\n      tag_145\n      jump\t// in\n    tag_302:\n        /* \"#utility.yul\":12247:12319   */\n      tag_303\n        /* \"#utility.yul\":12315:12317   */\n      0x20\n        /* \"#utility.yul\":12304:12313   */\n      dup4\n        /* \"#utility.yul\":12300:12318   */\n      add\n        /* \"#utility.yul\":12291:12297   */\n      dup7\n        /* \"#utility.yul\":12247:12319   */\n      tag_145\n      jump\t// in\n    tag_303:\n        /* \"#utility.yul\":12329:12401   */\n      tag_304\n        /* \"#utility.yul\":12397:12399   */\n      0x40\n        /* \"#utility.yul\":12386:12395   */\n      dup4\n        /* \"#utility.yul\":12382:12400   */\n      add\n        /* \"#utility.yul\":12373:12379   */\n      dup6\n        /* \"#utility.yul\":12329:12401   */\n      tag_145\n      jump\t// in\n    tag_304:\n        /* \"#utility.yul\":12411:12477   */\n      tag_305\n        /* \"#utility.yul\":12473:12475   */\n      0x60\n        /* \"#utility.yul\":12462:12471   */\n      dup4\n        /* \"#utility.yul\":12458:12476   */\n      add\n        /* \"#utility.yul\":12449:12455   */\n      dup5\n        /* \"#utility.yul\":12411:12477   */\n      tag_168\n      jump\t// in\n    tag_305:\n        /* \"#utility.yul\":11943:12484   */\n      swap6\n      swap5\n      pop\n      pop\n      pop\n      pop\n      pop\n      jump\t// out\n        /* \"#utility.yul\":12490:12671   */\n    tag_169:\n        /* \"#utility.yul\":12630:12663   */\n      0x5072696365206d7573742062652067726561746572207468616e207a65726f00\n        /* \"#utility.yul\":12626:12627   */\n      0x00\n        /* \"#utility.yul\":12618:12624   */\n      dup3\n        /* \"#utility.yul\":12614:12628   */\n      add\n        /* \"#utility.yul\":12607:12664   */\n      mstore\n        /* \"#utility.yul\":12490:12671   */\n      pop\n      jump\t// out\n        /* \"#utility.yul\":12677:13043   */\n    tag_170:\n        /* \"#utility.yul\":12819:12822   */\n      0x00\n        /* \"#utility.yul\":12840:12907   */\n      tag_308\n        /* \"#utility.yul\":12904:12906   */\n      0x1f\n        /* \"#utility.yul\":12899:12902   */\n      dup4\n        /* \"#utility.yul\":12840:12907   */\n      tag_153\n      jump\t// in\n    tag_308:\n        /* \"#utility.yul\":12833:12907   */\n      swap2\n      pop\n        /* \"#utility.yul\":12916:13009   */\n      tag_309\n        /* \"#utility.yul\":13005:13008   */\n      dup3\n        /* \"#utility.yul\":12916:13009   */\n      tag_169\n      jump\t// in\n    tag_309:\n        /* \"#utility.yul\":13034:13036   */\n      0x20\n        /* \"#utility.yul\":13029:13032   */\n      dup3\n        /* \"#utility.yul\":13025:13037   */\n      add\n        /* \"#utility.yul\":13018:13037   */\n      swap1\n      pop\n        /* \"#utility.yul\":12677:13043   */\n      swap2\n      swap1\n      pop\n      jump\t// out\n        /* \"#utility.yul\":13049:13468   */\n    tag_85:\n        /* \"#utility.yul\":13215:13219   */\n      0x00\n        /* \"#utility.yul\":13253:13255   */\n      0x20\n        /* \"#utility.yul\":13242:13251   */\n      dup3\n        /* \"#utility.yul\":13238:13256   */\n      add\n        /* \"#utility.yul\":13230:13256   */\n      swap1\n      pop\n        /* \"#utility.yul\":13302:13311   */\n      dup2\n        /* \"#utility.yul\":13296:13300   */\n      dup2\n        /* \"#utility.yul\":13292:13312   */\n      sub\n        /* \"#utility.yul\":13288:13289   */\n      0x00\n        /* \"#utility.yul\":13277:13286   */\n      dup4\n        /* \"#utility.yul\":13273:13290   */\n      add\n        /* \"#utility.yul\":13266:13313   */\n      mstore\n        /* \"#utility.yul\":13330:13461   */\n      tag_311\n        /* \"#utility.yul\":13456:13460   */\n      dup2\n        /* \"#utility.yul\":13330:13461   */\n      tag_170\n      jump\t// in\n    tag_311:\n        /* \"#utility.yul\":13322:13461   */\n      swap1\n      pop\n        /* \"#utility.yul\":13049:13468   */\n      swap2\n      swap1\n      pop\n      jump\t// out\n        /* \"#utility.yul\":13474:13656   */\n    tag_171:\n        /* \"#utility.yul\":13614:13648   */\n      0x546f6b656e73206d7573742062652067726561746572207468616e207a65726f\n        /* \"#utility.yul\":13610:13611   */\n      0x00\n        /* \"#utility.yul\":13602:13608   */\n      dup3\n        /* \"#utility.yul\":13598:13612   */\n      add\n        /* \"#utility.yul\":13591:13649   */\n      mstore\n        /* \"#utility.yul\":13474:13656   */\n      pop\n      jump\t// out\n        /* \"#utility.yul\":13662:14028   */\n    tag_172:\n        /* \"#utility.yul\":13804:13807   */\n      0x00\n        /* \"#utility.yul\":13825:13892   */\n      tag_314\n        /* \"#utility.yul\":13889:13891   */\n      0x20\n        /* \"#utility.yul\":13884:13887   */\n      dup4\n        /* \"#utility.yul\":13825:13892   */\n      tag_153\n      jump\t// in\n    tag_314:\n        /* \"#utility.yul\":13818:13892   */\n      swap2\n      pop\n        /* \"#utility.yul\":13901:13994   */\n      tag_315\n        /* \"#utility.yul\":13990:13993   */\n      dup3\n        /* \"#utility.yul\":13901:13994   */\n      tag_171\n      jump\t// in\n    tag_315:\n        /* \"#utility.yul\":14019:14021   */\n      0x20\n        /* \"#utility.yul\":14014:14017   */\n      dup3\n        /* \"#utility.yul\":14010:14022   */\n      add\n        /* \"#utility.yul\":14003:14022   */\n      swap1\n      pop\n        /* \"#utility.yul\":13662:14028   */\n      swap2\n      swap1\n      pop\n      jump\t// out\n        /* \"#utility.yul\":14034:14453   */\n    tag_88:\n        /* \"#utility.yul\":14200:14204   */\n      0x00\n        /* \"#utility.yul\":14238:14240   */\n      0x20\n        /* \"#utility.yul\":14227:14236   */\n      dup3\n        /* \"#utility.yul\":14223:14241   */\n      add\n        /* \"#utility.yul\":14215:14241   */\n      swap1\n      pop\n        /* \"#utility.yul\":14287:14296   */\n      dup2\n        /* \"#utility.yul\":14281:14285   */\n      dup2\n        /* \"#utility.yul\":14277:14297   */\n      sub\n        /* \"#utility.yul\":14273:14274   */\n      0x00\n        /* \"#utility.yul\":14262:14271   */\n      dup4\n        /* \"#utility.yul\":14258:14275   */\n      add\n        /* \"#utility.yul\":14251:14298   */\n      mstore\n        /* \"#utility.yul\":14315:14446   */\n      tag_317\n        /* \"#utility.yul\":14441:14445   */\n      dup2\n        /* \"#utility.yul\":14315:14446   */\n      tag_172\n      jump\t// in\n    tag_317:\n        /* \"#utility.yul\":14307:14446   */\n      swap1\n      pop\n        /* \"#utility.yul\":14034:14453   */\n      swap2\n      swap1\n      pop\n      jump\t// out\n        /* \"#utility.yul\":14459:14680   */\n    tag_173:\n        /* \"#utility.yul\":14599:14633   */\n      0x4475726174696f6e206d7573742062652067726561746572207468616e207a65\n        /* \"#utility.yul\":14595:14596   */\n      0x00\n        /* \"#utility.yul\":14587:14593   */\n      dup3\n        /* \"#utility.yul\":14583:14597   */\n      add\n        /* \"#utility.yul\":14576:14634   */\n      mstore\n        /* \"#utility.yul\":14668:14672   */\n      0x726f000000000000000000000000000000000000000000000000000000000000\n        /* \"#utility.yul\":14663:14665   */\n      0x20\n        /* \"#utility.yul\":14655:14661   */\n      dup3\n        /* \"#utility.yul\":14651:14666   */\n      add\n        /* \"#utility.yul\":14644:14673   */\n      mstore\n        /* \"#utility.yul\":14459:14680   */\n      pop\n      jump\t// out\n        /* \"#utility.yul\":14686:15052   */\n    tag_174:\n        /* \"#utility.yul\":14828:14831   */\n      0x00\n        /* \"#utility.yul\":14849:14916   */\n      tag_320\n        /* \"#utility.yul\":14913:14915   */\n      0x22\n        /* \"#utility.yul\":14908:14911   */\n      dup4\n        /* \"#utility.yul\":14849:14916   */\n      tag_153\n      jump\t// in\n    tag_320:\n        /* \"#utility.yul\":14842:14916   */\n      swap2\n      pop\n        /* \"#utility.yul\":14925:15018   */\n      tag_321\n        /* \"#utility.yul\":15014:15017   */\n      dup3\n        /* \"#utility.yul\":14925:15018   */\n      tag_173\n      jump\t// in\n    tag_321:\n        /* \"#utility.yul\":15043:15045   */\n      0x40\n        /* \"#utility.yul\":15038:15041   */\n      dup3\n        /* \"#utility.yul\":15034:15046   */\n      add\n        /* \"#utility.yul\":15027:15046   */\n      swap1\n      pop\n        /* \"#utility.yul\":14686:15052   */\n      swap2\n      swap1\n      pop\n      jump\t// out\n        /* \"#utility.yul\":15058:15477   */\n    tag_91:\n        /* \"#utility.yul\":15224:15228   */\n      0x00\n        /* \"#utility.yul\":15262:15264   */\n      0x20\n        /* \"#utility.yul\":15251:15260   */\n      dup3\n        /* \"#utility.yul\":15247:15265   */\n      add\n        /* \"#utility.yul\":15239:15265   */\n      swap1\n      pop\n        /* \"#utility.yul\":15311:15320   */\n      dup2\n        /* \"#utility.yul\":15305:15309   */\n      dup2\n        /* \"#utility.yul\":15301:15321   */\n      sub\n        /* \"#utility.yul\":15297:15298   */\n      0x00\n        /* \"#utility.yul\":15286:15295   */\n      dup4\n        /* \"#utility.yul\":15282:15299   */\n      add\n        /* \"#utility.yul\":15275:15322   */\n      mstore\n        /* \"#utility.yul\":15339:15470   */\n      tag_323\n        /* \"#utility.yul\":15465:15469   */\n      dup2\n        /* \"#utility.yul\":15339:15470   */\n      tag_174\n      jump\t// in\n    tag_323:\n        /* \"#utility.yul\":15331:15470   */\n      swap1\n      pop\n        /* \"#utility.yul\":15058:15477   */\n      swap2\n      swap1\n      pop\n      jump\t// out\n        /* \"#utility.yul\":15483:15657   */\n    tag_175:\n        /* \"#utility.yul\":15623:15649   */\n      0x496e76616c696420636f6e747261637420616464726573730000000000000000\n        /* \"#utility.yul\":15619:15620   */\n      0x00\n        /* \"#utility.yul\":15611:15617   */\n      dup3\n        /* \"#utility.yul\":15607:15621   */\n      add\n        /* \"#utility.yul\":15600:15650   */\n      mstore\n        /* \"#utility.yul\":15483:15657   */\n      pop\n      jump\t// out\n        /* \"#utility.yul\":15663:16029   */\n    tag_176:\n        /* \"#utility.yul\":15805:15808   */\n      0x00\n        /* \"#utility.yul\":15826:15893   */\n      tag_326\n        /* \"#utility.yul\":15890:15892   */\n      0x18\n        /* \"#utility.yul\":15885:15888   */\n      dup4\n        /* \"#utility.yul\":15826:15893   */\n      tag_153\n      jump\t// in\n    tag_326:\n        /* \"#utility.yul\":15819:15893   */\n      swap2\n      pop\n        /* \"#utility.yul\":15902:15995   */\n      tag_327\n        /* \"#utility.yul\":15991:15994   */\n      dup3\n        /* \"#utility.yul\":15902:15995   */\n      tag_175\n      jump\t// in\n    tag_327:\n        /* \"#utility.yul\":16020:16022   */\n      0x20\n        /* \"#utility.yul\":16015:16018   */\n      dup3\n        /* \"#utility.yul\":16011:16023   */\n      add\n        /* \"#utility.yul\":16004:16023   */\n      swap1\n      pop\n        /* \"#utility.yul\":15663:16029   */\n      swap2\n      swap1\n      pop\n      jump\t// out\n        /* \"#utility.yul\":16035:16454   */\n    tag_94:\n        /* \"#utility.yul\":16201:16205   */\n      0x00\n        /* \"#utility.yul\":16239:16241   */\n      0x20\n        /* \"#utility.yul\":16228:16237   */\n      dup3\n        /* \"#utility.yul\":16224:16242   */\n      add\n        /* \"#utility.yul\":16216:16242   */\n      swap1\n      pop\n        /* \"#utility.yul\":16288:16297   */\n      dup2\n        /* \"#utility.yul\":16282:16286   */\n      dup2\n        /* \"#utility.yul\":16278:16298   */\n      sub\n        /* \"#utility.yul\":16274:16275   */\n      0x00\n        /* \"#utility.yul\":16263:16272   */\n      dup4\n        /* \"#utility.yul\":16259:16276   */\n      add\n        /* \"#utility.yul\":16252:16299   */\n      mstore\n        /* \"#utility.yul\":16316:16447   */\n      tag_329\n        /* \"#utility.yul\":16442:16446   */\n      dup2\n        /* \"#utility.yul\":16316:16447   */\n      tag_176\n      jump\t// in\n    tag_329:\n        /* \"#utility.yul\":16308:16447   */\n      swap1\n      pop\n        /* \"#utility.yul\":16035:16454   */\n      swap2\n      swap1\n      pop\n      jump\t// out\n        /* \"#utility.yul\":16460:16633   */\n    tag_177:\n        /* \"#utility.yul\":16600:16625   */\n      0x546f6b656e20616c6c6f77616e636520746f6f206c6f77000000000000000000\n        /* \"#utility.yul\":16596:16597   */\n      0x00\n        /* \"#utility.yul\":16588:16594   */\n      dup3\n        /* \"#utility.yul\":16584:16598   */\n      add\n        /* \"#utility.yul\":16577:16626   */\n      mstore\n        /* \"#utility.yul\":16460:16633   */\n      pop\n      jump\t// out\n        /* \"#utility.yul\":16639:17005   */\n    tag_178:\n        /* \"#utility.yul\":16781:16784   */\n      0x00\n        /* \"#utility.yul\":16802:16869   */\n      tag_332\n        /* \"#utility.yul\":16866:16868   */\n      0x17\n        /* \"#utility.yul\":16861:16864   */\n      dup4\n        /* \"#utility.yul\":16802:16869   */\n      tag_153\n      jump\t// in\n    tag_332:\n        /* \"#utility.yul\":16795:16869   */\n      swap2\n      pop\n        /* \"#utility.yul\":16878:16971   */\n      tag_333\n        /* \"#utility.yul\":16967:16970   */\n      dup3\n        /* \"#utility.yul\":16878:16971   */\n      tag_177\n      jump\t// in\n    tag_333:\n        /* \"#utility.yul\":16996:16998   */\n      0x20\n        /* \"#utility.yul\":16991:16994   */\n      dup3\n        /* \"#utility.yul\":16987:16999   */\n      add\n        /* \"#utility.yul\":16980:16999   */\n      swap1\n      pop\n        /* \"#utility.yul\":16639:17005   */\n      swap2\n      swap1\n      pop\n      jump\t// out\n        /* \"#utility.yul\":17011:17430   */\n    tag_101:\n        /* \"#utility.yul\":17177:17181   */\n      0x00\n        /* \"#utility.yul\":17215:17217   */\n      0x20\n        /* \"#utility.yul\":17204:17213   */\n      dup3\n        /* \"#utility.yul\":17200:17218   */\n      add\n        /* \"#utility.yul\":17192:17218   */\n      swap1\n      pop\n        /* \"#utility.yul\":17264:17273   */\n      dup2\n        /* \"#utility.yul\":17258:17262   */\n      dup2\n        /* \"#utility.yul\":17254:17274   */\n      sub\n        /* \"#utility.yul\":17250:17251   */\n      0x00\n        /* \"#utility.yul\":17239:17248   */\n      dup4\n        /* \"#utility.yul\":17235:17252   */\n      add\n        /* \"#utility.yul\":17228:17275   */\n      mstore\n        /* \"#utility.yul\":17292:17423   */\n      tag_335\n        /* \"#utility.yul\":17418:17422   */\n      dup2\n        /* \"#utility.yul\":17292:17423   */\n      tag_178\n      jump\t// in\n    tag_335:\n        /* \"#utility.yul\":17284:17423   */\n      swap1\n      pop\n        /* \"#utility.yul\":17011:17430   */\n      swap2\n      swap1\n      pop\n      jump\t// out\n        /* \"#utility.yul\":17436:17669   */\n    tag_104:\n        /* \"#utility.yul\":17475:17478   */\n      0x00\n        /* \"#utility.yul\":17498:17522   */\n      tag_337\n        /* \"#utility.yul\":17516:17521   */\n      dup3\n        /* \"#utility.yul\":17498:17522   */\n      tag_144\n      jump\t// in\n    tag_337:\n        /* \"#utility.yul\":17489:17522   */\n      swap2\n      pop\n        /* \"#utility.yul\":17544:17610   */\n      0xffffffffffffffffffffffffffffffffffffffffffffffffffffffffffffffff\n        /* \"#utility.yul\":17537:17542   */\n      dup3\n        /* \"#utility.yul\":17534:17611   */\n      sub\n        /* \"#utility.yul\":17531:17634   */\n      tag_338\n      jumpi\n        /* \"#utility.yul\":17614:17632   */\n      tag_339\n      tag_160\n      jump\t// in\n    tag_339:\n        /* \"#utility.yul\":17531:17634   */\n    tag_338:\n        /* \"#utility.yul\":17661:17662   */\n      0x01\n        /* \"#utility.yul\":17654:17659   */\n      dup3\n        /* \"#utility.yul\":17650:17663   */\n      add\n        /* \"#utility.yul\":17643:17663   */\n      swap1\n      pop\n        /* \"#utility.yul\":17436:17669   */\n      swap2\n      swap1\n      pop\n      jump\t// out\n        /* \"#utility.yul\":17675:18228   */\n    tag_108:\n        /* \"#utility.yul\":17852:17856   */\n      0x00\n        /* \"#utility.yul\":17890:17893   */\n      0x80\n        /* \"#utility.yul\":17879:17888   */\n      dup3\n        /* \"#utility.yul\":17875:17894   */\n      add\n        /* \"#utility.yul\":17867:17894   */\n      swap1\n      pop\n        /* \"#utility.yul\":17904:17975   */\n      tag_341\n        /* \"#utility.yul\":17972:17973   */\n      0x00\n        /* \"#utility.yul\":17961:17970   */\n      dup4\n        /* \"#utility.yul\":17957:17974   */\n      add\n        /* \"#utility.yul\":17948:17954   */\n      dup8\n        /* \"#utility.yul\":17904:17975   */\n      tag_145\n      jump\t// in\n    tag_341:\n        /* \"#utility.yul\":17985:18057   */\n      tag_342\n        /* \"#utility.yul\":18053:18055   */\n      0x20\n        /* \"#utility.yul\":18042:18051   */\n      dup4\n        /* \"#utility.yul\":18038:18056   */\n      add\n        /* \"#utility.yul\":18029:18035   */\n      dup7\n        /* \"#utility.yul\":17985:18057   */\n      tag_145\n      jump\t// in\n    tag_342:\n        /* \"#utility.yul\":18067:18139   */\n      tag_343\n        /* \"#utility.yul\":18135:18137   */\n      0x40\n        /* \"#utility.yul\":18124:18133   */\n      dup4\n        /* \"#utility.yul\":18120:18138   */\n      add\n        /* \"#utility.yul\":18111:18117   */\n      dup6\n        /* \"#utility.yul\":18067:18139   */\n      tag_145\n      jump\t// in\n    tag_343:\n        /* \"#utility.yul\":18149:18221   */\n      tag_344\n        /* \"#utility.yul\":18217:18219   */\n      0x60\n        /* \"#utility.yul\":18206:18215   */\n      dup4\n        /* \"#utility.yul\":18202:18220   */\n      add\n        /* \"#utility.yul\":18193:18199   */\n      dup5\n        /* \"#utility.yul\":18149:18221   */\n      tag_145\n      jump\t// in\n    tag_344:\n        /* \"#utility.yul\":17675:18228   */\n      swap6\n      swap5\n      pop\n      pop\n      pop\n      pop\n      pop\n      jump\t// out\n        /* \"#utility.yul\":18234:18416   */\n    tag_179:\n        /* \"#utility.yul\":18374:18408   */\n      0x4f6e6c79206c697374696e672073656c6c65722063616e207769746864726177\n        /* \"#utility.yul\":18370:18371   */\n      0x00\n        /* \"#utility.yul\":18362:18368   */\n      dup3\n        /* \"#utility.yul\":18358:18372   */\n      add\n        /* \"#utility.yul\":18351:18409   */\n      mstore\n        /* \"#utility.yul\":18234:18416   */\n      pop\n      jump\t// out\n        /* \"#utility.yul\":18422:18788   */\n    tag_180:\n        /* \"#utility.yul\":18564:18567   */\n      0x00\n        /* \"#utility.yul\":18585:18652   */\n      tag_347\n        /* \"#utility.yul\":18649:18651   */\n      0x20\n        /* \"#utility.yul\":18644:18647   */\n      dup4\n        /* \"#utility.yul\":18585:18652   */\n      tag_153\n      jump\t// in\n    tag_347:\n        /* \"#utility.yul\":18578:18652   */\n      swap2\n      pop\n        /* \"#utility.yul\":18661:18754   */\n      tag_348\n        /* \"#utility.yul\":18750:18753   */\n      dup3\n        /* \"#utility.yul\":18661:18754   */\n      tag_179\n      jump\t// in\n    tag_348:\n        /* \"#utility.yul\":18779:18781   */\n      0x20\n        /* \"#utility.yul\":18774:18777   */\n      dup3\n        /* \"#utility.yul\":18770:18782   */\n      add\n        /* \"#utility.yul\":18763:18782   */\n      swap1\n      pop\n        /* \"#utility.yul\":18422:18788   */\n      swap2\n      swap1\n      pop\n      jump\t// out\n        /* \"#utility.yul\":18794:19213   */\n    tag_114:\n        /* \"#utility.yul\":18960:18964   */\n      0x00\n        /* \"#utility.yul\":18998:19000   */\n      0x20\n        /* \"#utility.yul\":18987:18996   */\n      dup3\n        /* \"#utility.yul\":18983:19001   */\n      add\n        /* \"#utility.yul\":18975:19001   */\n      swap1\n      pop\n        /* \"#utility.yul\":19047:19056   */\n      dup2\n        /* \"#utility.yul\":19041:19045   */\n      dup2\n        /* \"#utility.yul\":19037:19057   */\n      sub\n        /* \"#utility.yul\":19033:19034   */\n      0x00\n        /* \"#utility.yul\":19022:19031   */\n      dup4\n        /* \"#utility.yul\":19018:19035   */\n      add\n        /* \"#utility.yul\":19011:19058   */\n      mstore\n        /* \"#utility.yul\":19075:19206   */\n      tag_350\n        /* \"#utility.yul\":19201:19205   */\n      dup2\n        /* \"#utility.yul\":19075:19206   */\n      tag_180\n      jump\t// in\n    tag_350:\n        /* \"#utility.yul\":19067:19206   */\n      swap1\n      pop\n        /* \"#utility.yul\":18794:19213   */\n      swap2\n      swap1\n      pop\n      jump\t// out\n        /* \"#utility.yul\":19219:19390   */\n    tag_181:\n        /* \"#utility.yul\":19359:19382   */\n      0x4c697374696e6720686173206e6f7420656e6465640000000000000000000000\n        /* \"#utility.yul\":19355:19356   */\n      0x00\n        /* \"#utility.yul\":19347:19353   */\n      dup3\n        /* \"#utility.yul\":19343:19357   */\n      add\n        /* \"#utility.yul\":19336:19383   */\n      mstore\n        /* \"#utility.yul\":19219:19390   */\n      pop\n      jump\t// out\n        /* \"#utility.yul\":19396:19762   */\n    tag_182:\n        /* \"#utility.yul\":19538:19541   */\n      0x00\n        /* \"#utility.yul\":19559:19626   */\n      tag_353\n        /* \"#utility.yul\":19623:19625   */\n      0x15\n        /* \"#utility.yul\":19618:19621   */\n      dup4\n        /* \"#utility.yul\":19559:19626   */\n      tag_153\n      jump\t// in\n    tag_353:\n        /* \"#utility.yul\":19552:19626   */\n      swap2\n      pop\n        /* \"#utility.yul\":19635:19728   */\n      tag_354\n        /* \"#utility.yul\":19724:19727   */\n      dup3\n        /* \"#utility.yul\":19635:19728   */\n      tag_181\n      jump\t// in\n    tag_354:\n        /* \"#utility.yul\":19753:19755   */\n      0x20\n        /* \"#utility.yul\":19748:19751   */\n      dup3\n        /* \"#utility.yul\":19744:19756   */\n      add\n        /* \"#utility.yul\":19737:19756   */\n      swap1\n      pop\n        /* \"#utility.yul\":19396:19762   */\n      swap2\n      swap1\n      pop\n      jump\t// out\n        /* \"#utility.yul\":19768:20187   */\n    tag_117:\n        /* \"#utility.yul\":19934:19938   */\n      0x00\n        /* \"#utility.yul\":19972:19974   */\n      0x20\n        /* \"#utility.yul\":19961:19970   */\n      dup3\n        /* \"#utility.yul\":19957:19975   */\n      add\n        /* \"#utility.yul\":19949:19975   */\n      swap1\n      pop\n        /* \"#utility.yul\":20021:20030   */\n      dup2\n        /* \"#utility.yul\":20015:20019   */\n      dup2\n        /* \"#utility.yul\":20011:20031   */\n      sub\n        /* \"#utility.yul\":20007:20008   */\n      0x00\n        /* \"#utility.yul\":19996:20005   */\n      dup4\n        /* \"#utility.yul\":19992:20009   */\n      add\n        /* \"#utility.yul\":19985:20032   */\n      mstore\n        /* \"#utility.yul\":20049:20180   */\n      tag_356\n        /* \"#utility.yul\":20175:20179   */\n      dup2\n        /* \"#utility.yul\":20049:20180   */\n      tag_182\n      jump\t// in\n    tag_356:\n        /* \"#utility.yul\":20041:20180   */\n      swap1\n      pop\n        /* \"#utility.yul\":19768:20187   */\n      swap2\n      swap1\n      pop\n      jump\t// out\n        /* \"#utility.yul\":20193:20364   */\n    tag_183:\n        /* \"#utility.yul\":20333:20356   */\n      0x4e6f20746f6b656e7320746f2077697468647261770000000000000000000000\n        /* \"#utility.yul\":20329:20330   */\n      0x00\n        /* \"#utility.yul\":20321:20327   */\n      dup3\n        /* \"#utility.yul\":20317:20331   */\n      add\n        /* \"#utility.yul\":20310:20357   */\n      mstore\n        /* \"#utility.yul\":20193:20364   */\n      pop\n      jump\t// out\n        /* \"#utility.yul\":20370:20736   */\n    tag_184:\n        /* \"#utility.yul\":20512:20515   */\n      0x00\n        /* \"#utility.yul\":20533:20600   */\n      tag_359\n        /* \"#utility.yul\":20597:20599   */\n      0x15\n        /* \"#utility.yul\":20592:20595   */\n      dup4\n        /* \"#utility.yul\":20533:20600   */\n      tag_153\n      jump\t// in\n    tag_359:\n        /* \"#utility.yul\":20526:20600   */\n      swap2\n      pop\n        /* \"#utility.yul\":20609:20702   */\n      tag_360\n        /* \"#utility.yul\":20698:20701   */\n      dup3\n        /* \"#utility.yul\":20609:20702   */\n      tag_183\n      jump\t// in\n    tag_360:\n        /* \"#utility.yul\":20727:20729   */\n      0x20\n        /* \"#utility.yul\":20722:20725   */\n      dup3\n        /* \"#utility.yul\":20718:20730   */\n      add\n        /* \"#utility.yul\":20711:20730   */\n      swap1\n      pop\n        /* \"#utility.yul\":20370:20736   */\n      swap2\n      swap1\n      pop\n      jump\t// out\n        /* \"#utility.yul\":20742:21161   */\n    tag_120:\n        /* \"#utility.yul\":20908:20912   */\n      0x00\n        /* \"#utility.yul\":20946:20948   */\n      0x20\n        /* \"#utility.yul\":20935:20944   */\n      dup3\n        /* \"#utility.yul\":20931:20949   */\n      add\n        /* \"#utility.yul\":20923:20949   */\n      swap1\n      pop\n        /* \"#utility.yul\":20995:21004   */\n      dup2\n        /* \"#utility.yul\":20989:20993   */\n      dup2\n        /* \"#utility.yul\":20985:21005   */\n      sub\n        /* \"#utility.yul\":20981:20982   */\n      0x00\n        /* \"#utility.yul\":20970:20979   */\n      dup4\n        /* \"#utility.yul\":20966:20983   */\n      add\n        /* \"#utility.yul\":20959:21006   */\n      mstore\n        /* \"#utility.yul\":21023:21154   */\n      tag_362\n        /* \"#utility.yul\":21149:21153   */\n      dup2\n        /* \"#utility.yul\":21023:21154   */\n      tag_184\n      jump\t// in\n    tag_362:\n        /* \"#utility.yul\":21015:21154   */\n      swap1\n      pop\n        /* \"#utility.yul\":20742:21161   */\n      swap2\n      swap1\n      pop\n      jump\t// out\n        /* \"#utility.yul\":21167:21609   */\n    tag_128:\n        /* \"#utility.yul\":21316:21320   */\n      0x00\n        /* \"#utility.yul\":21354:21356   */\n      0x60\n        /* \"#utility.yul\":21343:21352   */\n      dup3\n        /* \"#utility.yul\":21339:21357   */\n      add\n        /* \"#utility.yul\":21331:21357   */\n      swap1\n      pop\n        /* \"#utility.yul\":21367:21438   */\n      tag_364\n        /* \"#utility.yul\":21435:21436   */\n      0x00\n        /* \"#utility.yul\":21424:21433   */\n      dup4\n        /* \"#utility.yul\":21420:21437   */\n      add\n        /* \"#utility.yul\":21411:21417   */\n      dup7\n        /* \"#utility.yul\":21367:21438   */\n      tag_143\n      jump\t// in\n    tag_364:\n        /* \"#utility.yul\":21448:21520   */\n      tag_365\n        /* \"#utility.yul\":21516:21518   */\n      0x20\n        /* \"#utility.yul\":21505:21514   */\n      dup4\n        /* \"#utility.yul\":21501:21519   */\n      add\n        /* \"#utility.yul\":21492:21498   */\n      dup6\n        /* \"#utility.yul\":21448:21520   */\n      tag_143\n      jump\t// in\n    tag_365:\n        /* \"#utility.yul\":21530:21602   */\n      tag_366\n        /* \"#utility.yul\":21598:21600   */\n      0x40\n        /* \"#utility.yul\":21587:21596   */\n      dup4\n        /* \"#utility.yul\":21583:21601   */\n      add\n        /* \"#utility.yul\":21574:21580   */\n      dup5\n        /* \"#utility.yul\":21530:21602   */\n      tag_145\n      jump\t// in\n    tag_366:\n        /* \"#utility.yul\":21167:21609   */\n      swap5\n      swap4\n      pop\n      pop\n      pop\n      pop\n      jump\t// out\n        /* \"#utility.yul\":21615:21947   */\n    tag_133:\n        /* \"#utility.yul\":21736:21740   */\n      0x00\n        /* \"#utility.yul\":21774:21776   */\n      0x40\n        /* \"#utility.yul\":21763:21772   */\n      dup3\n        /* \"#utility.yul\":21759:21777   */\n      add\n        /* \"#utility.yul\":21751:21777   */\n      swap1\n      pop\n        /* \"#utility.yul\":21787:21858   */\n      tag_368\n        /* \"#utility.yul\":21855:21856   */\n      0x00\n        /* \"#utility.yul\":21844:21853   */\n      dup4\n        /* \"#utility.yul\":21840:21857   */\n      add\n        /* \"#utility.yul\":21831:21837   */\n      dup6\n        /* \"#utility.yul\":21787:21858   */\n      tag_143\n      jump\t// in\n    tag_368:\n        /* \"#utility.yul\":21868:21940   */\n      tag_369\n        /* \"#utility.yul\":21936:21938   */\n      0x20\n        /* \"#utility.yul\":21925:21934   */\n      dup4\n        /* \"#utility.yul\":21921:21939   */\n      add\n        /* \"#utility.yul\":21912:21918   */\n      dup5\n        /* \"#utility.yul\":21868:21940   */\n      tag_145\n      jump\t// in\n    tag_369:\n        /* \"#utility.yul\":21615:21947   */\n      swap4\n      swap3\n      pop\n      pop\n      pop\n      jump\t// out\n\n    auxdata: 0xa26469706673582212207ade803c48215fba5856bee89e2abd1b054679d1faad224200c4f91e5a00fe7864736f6c634300081c0033\n}\n",
				"bytecode": {
					"linkReferences": {},
					"object": "6080604052348015600e575f5ffd5b5060015f8190555061179c806100235f395ff3fe608060405234801561000f575f5ffd5b506004361061007b575f3560e01c80637a82a87f116100595780637a82a87f146100d95780639ffae41b146100f5578063de74e57b14610111578063f25713bf146101455761007b565b806317c73ff01461007f5780631bf1de9b1461009d5780636c2c9c7d146100bb575b5f5ffd5b610087610161565b6040516100949190610d28565b60405180910390f35b6100a5610179565b6040516100b29190610d59565b60405180910390f35b6100c361017e565b6040516100d09190610d59565b60405180910390f35b6100f360048036038101906100ee9190610dca565b610184565b005b61010f600480360381019061010a9190610e2e565b610514565b005b61012b60048036038101906101269190610e92565b6108e7565b60405161013c959493929190610ebd565b60405180910390f35b61015f600480360381019061015a9190610e92565b610957565b005b73fcf8d2b098b3160654bbada1a8769483c71c288b81565b600a81565b60025481565b61018c610b00565b5f60015f8681526020019081526020015f2090505f8160020154116101e6576040517f08c379a00000000000000000000000000000000000000000000000000000000081526004016101dd90610f68565b60405180910390fd5b806004015442111561022d576040517f08c379a000000000000000000000000000000000000000000000000000000000815260040161022490610fd0565b60405180910390fd5b8381600201541015610274576040517f08c379a000000000000000000000000000000000000000000000000000000000815260040161026b90611038565b60405180910390fd5b5f8482600101546102859190611083565b90505f6064600a836102979190611083565b6102a191906110f1565b90505f81836102b09190611121565b90508085146102f4576040517f08c379a00000000000000000000000000000000000000000000000000000000081526004016102eb9061119e565b60405180910390fd5b5f869050858173ffffffffffffffffffffffffffffffffffffffff1663dd62ed3e33306040518363ffffffff1660e01b81526004016103349291906111bc565b602060405180830381865afa15801561034f573d5f5f3e3d5ffd5b505050506040513d601f19601f8201168201806040525081019061037391906111f7565b10156103b4576040517f08c379a00000000000000000000000000000000000000000000000000000000081526004016103ab9061126c565b60405180910390fd5b6103f53373fcf8d2b098b3160654bbada1a8769483c71c288b858473ffffffffffffffffffffffffffffffffffffffff16610b44909392919063ffffffff16565b61044533866003015f9054906101000a900473ffffffffffffffffffffffffffffffffffffffff16868473ffffffffffffffffffffffffffffffffffffffff16610b44909392919063ffffffff16565b87856002015f828254610458919061128a565b925050819055506104ac3389875f015f9054906101000a900473ffffffffffffffffffffffffffffffffffffffff1673ffffffffffffffffffffffffffffffffffffffff16610bc69092919063ffffffff16565b3373ffffffffffffffffffffffffffffffffffffffff167fdca20547336c56209d6bccbfed1076a61d517d52a47986a7086df1977b10daf58a8a8760016040516104f994939291906112d7565b60405180910390a2505050505061050e610c45565b50505050565b5f8411610556576040517f08c379a000000000000000000000000000000000000000000000000000000000815260040161054d90611364565b60405180910390fd5b5f8211610598576040517f08c379a000000000000000000000000000000000000000000000000000000000815260040161058f906113cc565b60405180910390fd5b5f81116105da576040517f08c379a00000000000000000000000000000000000000000000000000000000081526004016105d19061145a565b60405180910390fd5b5f73ffffffffffffffffffffffffffffffffffffffff168373ffffffffffffffffffffffffffffffffffffffff1603610648576040517f08c379a000000000000000000000000000000000000000000000000000000000815260040161063f906114c2565b60405180910390fd5b5f839050828173ffffffffffffffffffffffffffffffffffffffff1663dd62ed3e33306040518363ffffffff1660e01b81526004016106889291906111bc565b602060405180830381865afa1580156106a3573d5f5f3e3d5ffd5b505050506040513d601f19601f820116820180604052508101906106c791906111f7565b1015610708576040517f08c379a00000000000000000000000000000000000000000000000000000000081526004016106ff9061152a565b60405180910390fd5b6107353330858473ffffffffffffffffffffffffffffffffffffffff16610b44909392919063ffffffff16565b60025f81548092919061074790611548565b91905055506040518060a001604052808573ffffffffffffffffffffffffffffffffffffffff1681526020018681526020018481526020013373ffffffffffffffffffffffffffffffffffffffff16815260200183426107a79190611121565b81525060015f60025481526020019081526020015f205f820151815f015f6101000a81548173ffffffffffffffffffffffffffffffffffffffff021916908373ffffffffffffffffffffffffffffffffffffffff16021790555060208201518160010155604082015181600201556060820151816003015f6101000a81548173ffffffffffffffffffffffffffffffffffffffff021916908373ffffffffffffffffffffffffffffffffffffffff160217905550608082015181600401559050508373ffffffffffffffffffffffffffffffffffffffff163373ffffffffffffffffffffffffffffffffffffffff167fc8636a22d2315a33de4785339601bb7299ebc1e02cf0d9f22776c7692ee3803b600254888787426108c89190611121565b6040516108d8949392919061158f565b60405180910390a35050505050565b6001602052805f5260405f205f91509050805f015f9054906101000a900473ffffffffffffffffffffffffffffffffffffffff1690806001015490806002015490806003015f9054906101000a900473ffffffffffffffffffffffffffffffffffffffff16908060040154905085565b61095f610b00565b5f60015f8381526020019081526020015f209050806003015f9054906101000a900473ffffffffffffffffffffffffffffffffffffffff1673ffffffffffffffffffffffffffffffffffffffff163373ffffffffffffffffffffffffffffffffffffffff1614610a04576040517f08c379a00000000000000000000000000000000000000000000000000000000081526004016109fb9061161c565b60405180910390fd5b80600401544211610a4a576040517f08c379a0000000000000000000000000000000000000000000000000000000008152600401610a4190611684565b60405180910390fd5b5f816002015411610a90576040517f08c379a0000000000000000000000000000000000000000000000000000000008152600401610a87906116ec565b60405180910390fd5b5f816002015490505f82600201819055505f825f015f9054906101000a900473ffffffffffffffffffffffffffffffffffffffff169050610af233838373ffffffffffffffffffffffffffffffffffffffff16610bc69092919063ffffffff16565b505050610afd610c45565b50565b60025f5403610b3b576040517f3ee5aeb500000000000000000000000000000000000000000000000000000000815260040160405180910390fd5b60025f81905550565b610bc0848573ffffffffffffffffffffffffffffffffffffffff166323b872dd868686604051602401610b799392919061170a565b604051602081830303815290604052915060e01b6020820180517bffffffffffffffffffffffffffffffffffffffffffffffffffffffff8381831617835250505050610c4e565b50505050565b610c40838473ffffffffffffffffffffffffffffffffffffffff1663a9059cbb8585604051602401610bf992919061173f565b604051602081830303815290604052915060e01b6020820180517bffffffffffffffffffffffffffffffffffffffffffffffffffffffff8381831617835250505050610c4e565b505050565b60015f81905550565b5f5f60205f8451602086015f885af180610c6d576040513d5f823e3d81fd5b3d92505f519150505f8214610c86576001811415610ca1565b5f8473ffffffffffffffffffffffffffffffffffffffff163b145b15610ce357836040517f5274afe7000000000000000000000000000000000000000000000000000000008152600401610cda9190610d28565b60405180910390fd5b50505050565b5f73ffffffffffffffffffffffffffffffffffffffff82169050919050565b5f610d1282610ce9565b9050919050565b610d2281610d08565b82525050565b5f602082019050610d3b5f830184610d19565b92915050565b5f819050919050565b610d5381610d41565b82525050565b5f602082019050610d6c5f830184610d4a565b92915050565b5f5ffd5b610d7f81610d41565b8114610d89575f5ffd5b50565b5f81359050610d9a81610d76565b92915050565b610da981610d08565b8114610db3575f5ffd5b50565b5f81359050610dc481610da0565b92915050565b5f5f5f5f60808587031215610de257610de1610d72565b5b5f610def87828801610d8c565b9450506020610e0087828801610d8c565b9350506040610e1187828801610db6565b9250506060610e2287828801610d8c565b91505092959194509250565b5f5f5f5f60808587031215610e4657610e45610d72565b5b5f610e5387828801610d8c565b9450506020610e6487828801610db6565b9350506040610e7587828801610d8c565b9250506060610e8687828801610d8c565b91505092959194509250565b5f60208284031215610ea757610ea6610d72565b5b5f610eb484828501610d8c565b91505092915050565b5f60a082019050610ed05f830188610d19565b610edd6020830187610d4a565b610eea6040830186610d4a565b610ef76060830185610d19565b610f046080830184610d4a565b9695505050505050565b5f82825260208201905092915050565b7f4c697374696e6720646f6573206e6f74206578697374000000000000000000005f82015250565b5f610f52601683610f0e565b9150610f5d82610f1e565b602082019050919050565b5f6020820190508181035f830152610f7f81610f46565b9050919050565b7f4c697374696e67206861732065787069726564000000000000000000000000005f82015250565b5f610fba601383610f0e565b9150610fc582610f86565b602082019050919050565b5f6020820190508181035f830152610fe781610fae565b9050919050565b7f4e6f7420656e6f75676820746f6b656e7320696e206c697374696e67000000005f82015250565b5f611022601c83610f0e565b915061102d82610fee565b602082019050919050565b5f6020820190508181035f83015261104f81611016565b9050919050565b7f4e487b71000000000000000000000000000000000000000000000000000000005f52601160045260245ffd5b5f61108d82610d41565b915061109883610d41565b92508282026110a681610d41565b915082820484148315176110bd576110bc611056565b5b5092915050565b7f4e487b71000000000000000000000000000000000000000000000000000000005f52601260045260245ffd5b5f6110fb82610d41565b915061110683610d41565b925082611116576111156110c4565b5b828204905092915050565b5f61112b82610d41565b915061113683610d41565b925082820190508082111561114e5761114d611056565b5b92915050565b7f496e636f7272656374207061796d656e7420616d6f756e7400000000000000005f82015250565b5f611188601883610f0e565b915061119382611154565b602082019050919050565b5f6020820190508181035f8301526111b58161117c565b9050919050565b5f6040820190506111cf5f830185610d19565b6111dc6020830184610d19565b9392505050565b5f815190506111f181610d76565b92915050565b5f6020828403121561120c5761120b610d72565b5b5f611219848285016111e3565b91505092915050565b7f5061796d656e7420746f6b656e20616c6c6f77616e636520746f6f206c6f77005f82015250565b5f611256601f83610f0e565b915061126182611222565b602082019050919050565b5f6020820190508181035f8301526112838161124a565b9050919050565b5f61129482610d41565b915061129f83610d41565b92508282039050818111156112b7576112b6611056565b5b92915050565b5f8115159050919050565b6112d1816112bd565b82525050565b5f6080820190506112ea5f830187610d4a565b6112f76020830186610d4a565b6113046040830185610d4a565b61131160608301846112c8565b95945050505050565b7f5072696365206d7573742062652067726561746572207468616e207a65726f005f82015250565b5f61134e601f83610f0e565b91506113598261131a565b602082019050919050565b5f6020820190508181035f83015261137b81611342565b9050919050565b7f546f6b656e73206d7573742062652067726561746572207468616e207a65726f5f82015250565b5f6113b6602083610f0e565b91506113c182611382565b602082019050919050565b5f6020820190508181035f8301526113e3816113aa565b9050919050565b7f4475726174696f6e206d7573742062652067726561746572207468616e207a655f8201527f726f000000000000000000000000000000000000000000000000000000000000602082015250565b5f611444602283610f0e565b915061144f826113ea565b604082019050919050565b5f6020820190508181035f83015261147181611438565b9050919050565b7f496e76616c696420636f6e7472616374206164647265737300000000000000005f82015250565b5f6114ac601883610f0e565b91506114b782611478565b602082019050919050565b5f6020820190508181035f8301526114d9816114a0565b9050919050565b7f546f6b656e20616c6c6f77616e636520746f6f206c6f770000000000000000005f82015250565b5f611514601783610f0e565b915061151f826114e0565b602082019050919050565b5f6020820190508181035f83015261154181611508565b9050919050565b5f61155282610d41565b91507fffffffffffffffffffffffffffffffffffffffffffffffffffffffffffffffff820361158457611583611056565b5b600182019050919050565b5f6080820190506115a25f830187610d4a565b6115af6020830186610d4a565b6115bc6040830185610d4a565b6115c96060830184610d4a565b95945050505050565b7f4f6e6c79206c697374696e672073656c6c65722063616e2077697468647261775f82015250565b5f611606602083610f0e565b9150611611826115d2565b602082019050919050565b5f6020820190508181035f830152611633816115fa565b9050919050565b7f4c697374696e6720686173206e6f7420656e64656400000000000000000000005f82015250565b5f61166e601583610f0e565b91506116798261163a565b602082019050919050565b5f6020820190508181035f83015261169b81611662565b9050919050565b7f4e6f20746f6b656e7320746f20776974686472617700000000000000000000005f82015250565b5f6116d6601583610f0e565b91506116e1826116a2565b602082019050919050565b5f6020820190508181035f830152611703816116ca565b9050919050565b5f60608201905061171d5f830186610d19565b61172a6020830185610d19565b6117376040830184610d4a565b949350505050565b5f6040820190506117525f830185610d19565b61175f6020830184610d4a565b939250505056fea26469706673582212207ade803c48215fba5856bee89e2abd1b054679d1faad224200c4f91e5a00fe7864736f6c634300081c0033",
					"opcodes": "PUSH1 0x80 PUSH1 0x40 MSTORE CALLVALUE DUP1 ISZERO PUSH1 0xE JUMPI PUSH0 PUSH0 REVERT JUMPDEST POP PUSH1 0x1 PUSH0 DUP2 SWAP1 SSTORE POP PUSH2 0x179C DUP1 PUSH2 0x23 PUSH0 CODECOPY PUSH0 RETURN INVALID PUSH1 0x80 PUSH1 0x40 MSTORE CALLVALUE DUP1 ISZERO PUSH2 0xF JUMPI PUSH0 PUSH0 REVERT JUMPDEST POP PUSH1 0x4 CALLDATASIZE LT PUSH2 0x7B JUMPI PUSH0 CALLDATALOAD PUSH1 0xE0 SHR DUP1 PUSH4 0x7A82A87F GT PUSH2 0x59 JUMPI DUP1 PUSH4 0x7A82A87F EQ PUSH2 0xD9 JUMPI DUP1 PUSH4 0x9FFAE41B EQ PUSH2 0xF5 JUMPI DUP1 PUSH4 0xDE74E57B EQ PUSH2 0x111 JUMPI DUP1 PUSH4 0xF25713BF EQ PUSH2 0x145 JUMPI PUSH2 0x7B JUMP JUMPDEST DUP1 PUSH4 0x17C73FF0 EQ PUSH2 0x7F JUMPI DUP1 PUSH4 0x1BF1DE9B EQ PUSH2 0x9D JUMPI DUP1 PUSH4 0x6C2C9C7D EQ PUSH2 0xBB JUMPI JUMPDEST PUSH0 PUSH0 REVERT JUMPDEST PUSH2 0x87 PUSH2 0x161 JUMP JUMPDEST PUSH1 0x40 MLOAD PUSH2 0x94 SWAP2 SWAP1 PUSH2 0xD28 JUMP JUMPDEST PUSH1 0x40 MLOAD DUP1 SWAP2 SUB SWAP1 RETURN JUMPDEST PUSH2 0xA5 PUSH2 0x179 JUMP JUMPDEST PUSH1 0x40 MLOAD PUSH2 0xB2 SWAP2 SWAP1 PUSH2 0xD59 JUMP JUMPDEST PUSH1 0x40 MLOAD DUP1 SWAP2 SUB SWAP1 RETURN JUMPDEST PUSH2 0xC3 PUSH2 0x17E JUMP JUMPDEST PUSH1 0x40 MLOAD PUSH2 0xD0 SWAP2 SWAP1 PUSH2 0xD59 JUMP JUMPDEST PUSH1 0x40 MLOAD DUP1 SWAP2 SUB SWAP1 RETURN JUMPDEST PUSH2 0xF3 PUSH1 0x4 DUP1 CALLDATASIZE SUB DUP2 ADD SWAP1 PUSH2 0xEE SWAP2 SWAP1 PUSH2 0xDCA JUMP JUMPDEST PUSH2 0x184 JUMP JUMPDEST STOP JUMPDEST PUSH2 0x10F PUSH1 0x4 DUP1 CALLDATASIZE SUB DUP2 ADD SWAP1 PUSH2 0x10A SWAP2 SWAP1 PUSH2 0xE2E JUMP JUMPDEST PUSH2 0x514 JUMP JUMPDEST STOP JUMPDEST PUSH2 0x12B PUSH1 0x4 DUP1 CALLDATASIZE SUB DUP2 ADD SWAP1 PUSH2 0x126 SWAP2 SWAP1 PUSH2 0xE92 JUMP JUMPDEST PUSH2 0x8E7 JUMP JUMPDEST PUSH1 0x40 MLOAD PUSH2 0x13C SWAP6 SWAP5 SWAP4 SWAP3 SWAP2 SWAP1 PUSH2 0xEBD JUMP JUMPDEST PUSH1 0x40 MLOAD DUP1 SWAP2 SUB SWAP1 RETURN JUMPDEST PUSH2 0x15F PUSH1 0x4 DUP1 CALLDATASIZE SUB DUP2 ADD SWAP1 PUSH2 0x15A SWAP2 SWAP1 PUSH2 0xE92 JUMP JUMPDEST PUSH2 0x957 JUMP JUMPDEST STOP JUMPDEST PUSH20 0xFCF8D2B098B3160654BBADA1A8769483C71C288B DUP2 JUMP JUMPDEST PUSH1 0xA DUP2 JUMP JUMPDEST PUSH1 0x2 SLOAD DUP2 JUMP JUMPDEST PUSH2 0x18C PUSH2 0xB00 JUMP JUMPDEST PUSH0 PUSH1 0x1 PUSH0 DUP7 DUP2 MSTORE PUSH1 0x20 ADD SWAP1 DUP2 MSTORE PUSH1 0x20 ADD PUSH0 KECCAK256 SWAP1 POP PUSH0 DUP2 PUSH1 0x2 ADD SLOAD GT PUSH2 0x1E6 JUMPI PUSH1 0x40 MLOAD PUSH32 0x8C379A000000000000000000000000000000000000000000000000000000000 DUP2 MSTORE PUSH1 0x4 ADD PUSH2 0x1DD SWAP1 PUSH2 0xF68 JUMP JUMPDEST PUSH1 0x40 MLOAD DUP1 SWAP2 SUB SWAP1 REVERT JUMPDEST DUP1 PUSH1 0x4 ADD SLOAD TIMESTAMP GT ISZERO PUSH2 0x22D JUMPI PUSH1 0x40 MLOAD PUSH32 0x8C379A000000000000000000000000000000000000000000000000000000000 DUP2 MSTORE PUSH1 0x4 ADD PUSH2 0x224 SWAP1 PUSH2 0xFD0 JUMP JUMPDEST PUSH1 0x40 MLOAD DUP1 SWAP2 SUB SWAP1 REVERT JUMPDEST DUP4 DUP2 PUSH1 0x2 ADD SLOAD LT ISZERO PUSH2 0x274 JUMPI PUSH1 0x40 MLOAD PUSH32 0x8C379A000000000000000000000000000000000000000000000000000000000 DUP2 MSTORE PUSH1 0x4 ADD PUSH2 0x26B SWAP1 PUSH2 0x1038 JUMP JUMPDEST PUSH1 0x40 MLOAD DUP1 SWAP2 SUB SWAP1 REVERT JUMPDEST PUSH0 DUP5 DUP3 PUSH1 0x1 ADD SLOAD PUSH2 0x285 SWAP2 SWAP1 PUSH2 0x1083 JUMP JUMPDEST SWAP1 POP PUSH0 PUSH1 0x64 PUSH1 0xA DUP4 PUSH2 0x297 SWAP2 SWAP1 PUSH2 0x1083 JUMP JUMPDEST PUSH2 0x2A1 SWAP2 SWAP1 PUSH2 0x10F1 JUMP JUMPDEST SWAP1 POP PUSH0 DUP2 DUP4 PUSH2 0x2B0 SWAP2 SWAP1 PUSH2 0x1121 JUMP JUMPDEST SWAP1 POP DUP1 DUP6 EQ PUSH2 0x2F4 JUMPI PUSH1 0x40 MLOAD PUSH32 0x8C379A000000000000000000000000000000000000000000000000000000000 DUP2 MSTORE PUSH1 0x4 ADD PUSH2 0x2EB SWAP1 PUSH2 0x119E JUMP JUMPDEST PUSH1 0x40 MLOAD DUP1 SWAP2 SUB SWAP1 REVERT JUMPDEST PUSH0 DUP7 SWAP1 POP DUP6 DUP2 PUSH20 0xFFFFFFFFFFFFFFFFFFFFFFFFFFFFFFFFFFFFFFFF AND PUSH4 0xDD62ED3E CALLER ADDRESS PUSH1 0x40 MLOAD DUP4 PUSH4 0xFFFFFFFF AND PUSH1 0xE0 SHL DUP2 MSTORE PUSH1 0x4 ADD PUSH2 0x334 SWAP3 SWAP2 SWAP1 PUSH2 0x11BC JUMP JUMPDEST PUSH1 0x20 PUSH1 0x40 MLOAD DUP1 DUP4 SUB DUP2 DUP7 GAS STATICCALL ISZERO DUP1 ISZERO PUSH2 0x34F JUMPI RETURNDATASIZE PUSH0 PUSH0 RETURNDATACOPY RETURNDATASIZE PUSH0 REVERT JUMPDEST POP POP POP POP PUSH1 0x40 MLOAD RETURNDATASIZE PUSH1 0x1F NOT PUSH1 0x1F DUP3 ADD AND DUP3 ADD DUP1 PUSH1 0x40 MSTORE POP DUP2 ADD SWAP1 PUSH2 0x373 SWAP2 SWAP1 PUSH2 0x11F7 JUMP JUMPDEST LT ISZERO PUSH2 0x3B4 JUMPI PUSH1 0x40 MLOAD PUSH32 0x8C379A000000000000000000000000000000000000000000000000000000000 DUP2 MSTORE PUSH1 0x4 ADD PUSH2 0x3AB SWAP1 PUSH2 0x126C JUMP JUMPDEST PUSH1 0x40 MLOAD DUP1 SWAP2 SUB SWAP1 REVERT JUMPDEST PUSH2 0x3F5 CALLER PUSH20 0xFCF8D2B098B3160654BBADA1A8769483C71C288B DUP6 DUP5 PUSH20 0xFFFFFFFFFFFFFFFFFFFFFFFFFFFFFFFFFFFFFFFF AND PUSH2 0xB44 SWAP1 SWAP4 SWAP3 SWAP2 SWAP1 PUSH4 0xFFFFFFFF AND JUMP JUMPDEST PUSH2 0x445 CALLER DUP7 PUSH1 0x3 ADD PUSH0 SWAP1 SLOAD SWAP1 PUSH2 0x100 EXP SWAP1 DIV PUSH20 0xFFFFFFFFFFFFFFFFFFFFFFFFFFFFFFFFFFFFFFFF AND DUP7 DUP5 PUSH20 0xFFFFFFFFFFFFFFFFFFFFFFFFFFFFFFFFFFFFFFFF AND PUSH2 0xB44 SWAP1 SWAP4 SWAP3 SWAP2 SWAP1 PUSH4 0xFFFFFFFF AND JUMP JUMPDEST DUP8 DUP6 PUSH1 0x2 ADD PUSH0 DUP3 DUP3 SLOAD PUSH2 0x458 SWAP2 SWAP1 PUSH2 0x128A JUMP JUMPDEST SWAP3 POP POP DUP2 SWAP1 SSTORE POP PUSH2 0x4AC CALLER DUP10 DUP8 PUSH0 ADD PUSH0 SWAP1 SLOAD SWAP1 PUSH2 0x100 EXP SWAP1 DIV PUSH20 0xFFFFFFFFFFFFFFFFFFFFFFFFFFFFFFFFFFFFFFFF AND PUSH20 0xFFFFFFFFFFFFFFFFFFFFFFFFFFFFFFFFFFFFFFFF AND PUSH2 0xBC6 SWAP1 SWAP3 SWAP2 SWAP1 PUSH4 0xFFFFFFFF AND JUMP JUMPDEST CALLER PUSH20 0xFFFFFFFFFFFFFFFFFFFFFFFFFFFFFFFFFFFFFFFF AND PUSH32 0xDCA20547336C56209D6BCCBFED1076A61D517D52A47986A7086DF1977B10DAF5 DUP11 DUP11 DUP8 PUSH1 0x1 PUSH1 0x40 MLOAD PUSH2 0x4F9 SWAP5 SWAP4 SWAP3 SWAP2 SWAP1 PUSH2 0x12D7 JUMP JUMPDEST PUSH1 0x40 MLOAD DUP1 SWAP2 SUB SWAP1 LOG2 POP POP POP POP POP PUSH2 0x50E PUSH2 0xC45 JUMP JUMPDEST POP POP POP POP JUMP JUMPDEST PUSH0 DUP5 GT PUSH2 0x556 JUMPI PUSH1 0x40 MLOAD PUSH32 0x8C379A000000000000000000000000000000000000000000000000000000000 DUP2 MSTORE PUSH1 0x4 ADD PUSH2 0x54D SWAP1 PUSH2 0x1364 JUMP JUMPDEST PUSH1 0x40 MLOAD DUP1 SWAP2 SUB SWAP1 REVERT JUMPDEST PUSH0 DUP3 GT PUSH2 0x598 JUMPI PUSH1 0x40 MLOAD PUSH32 0x8C379A000000000000000000000000000000000000000000000000000000000 DUP2 MSTORE PUSH1 0x4 ADD PUSH2 0x58F SWAP1 PUSH2 0x13CC JUMP JUMPDEST PUSH1 0x40 MLOAD DUP1 SWAP2 SUB SWAP1 REVERT JUMPDEST PUSH0 DUP2 GT PUSH2 0x5DA JUMPI PUSH1 0x40 MLOAD PUSH32 0x8C379A000000000000000000000000000000000000000000000000000000000 DUP2 MSTORE PUSH1 0x4 ADD PUSH2 0x5D1 SWAP1 PUSH2 0x145A JUMP JUMPDEST PUSH1 0x40 MLOAD DUP1 SWAP2 SUB SWAP1 REVERT JUMPDEST PUSH0 PUSH20 0xFFFFFFFFFFFFFFFFFFFFFFFFFFFFFFFFFFFFFFFF AND DUP4 PUSH20 0xFFFFFFFFFFFFFFFFFFFFFFFFFFFFFFFFFFFFFFFF AND SUB PUSH2 0x648 JUMPI PUSH1 0x40 MLOAD PUSH32 0x8C379A000000000000000000000000000000000000000000000000000000000 DUP2 MSTORE PUSH1 0x4 ADD PUSH2 0x63F SWAP1 PUSH2 0x14C2 JUMP JUMPDEST PUSH1 0x40 MLOAD DUP1 SWAP2 SUB SWAP1 REVERT JUMPDEST PUSH0 DUP4 SWAP1 POP DUP3 DUP2 PUSH20 0xFFFFFFFFFFFFFFFFFFFFFFFFFFFFFFFFFFFFFFFF AND PUSH4 0xDD62ED3E CALLER ADDRESS PUSH1 0x40 MLOAD DUP4 PUSH4 0xFFFFFFFF AND PUSH1 0xE0 SHL DUP2 MSTORE PUSH1 0x4 ADD PUSH2 0x688 SWAP3 SWAP2 SWAP1 PUSH2 0x11BC JUMP JUMPDEST PUSH1 0x20 PUSH1 0x40 MLOAD DUP1 DUP4 SUB DUP2 DUP7 GAS STATICCALL ISZERO DUP1 ISZERO PUSH2 0x6A3 JUMPI RETURNDATASIZE PUSH0 PUSH0 RETURNDATACOPY RETURNDATASIZE PUSH0 REVERT JUMPDEST POP POP POP POP PUSH1 0x40 MLOAD RETURNDATASIZE PUSH1 0x1F NOT PUSH1 0x1F DUP3 ADD AND DUP3 ADD DUP1 PUSH1 0x40 MSTORE POP DUP2 ADD SWAP1 PUSH2 0x6C7 SWAP2 SWAP1 PUSH2 0x11F7 JUMP JUMPDEST LT ISZERO PUSH2 0x708 JUMPI PUSH1 0x40 MLOAD PUSH32 0x8C379A000000000000000000000000000000000000000000000000000000000 DUP2 MSTORE PUSH1 0x4 ADD PUSH2 0x6FF SWAP1 PUSH2 0x152A JUMP JUMPDEST PUSH1 0x40 MLOAD DUP1 SWAP2 SUB SWAP1 REVERT JUMPDEST PUSH2 0x735 CALLER ADDRESS DUP6 DUP5 PUSH20 0xFFFFFFFFFFFFFFFFFFFFFFFFFFFFFFFFFFFFFFFF AND PUSH2 0xB44 SWAP1 SWAP4 SWAP3 SWAP2 SWAP1 PUSH4 0xFFFFFFFF AND JUMP JUMPDEST PUSH1 0x2 PUSH0 DUP2 SLOAD DUP1 SWAP3 SWAP2 SWAP1 PUSH2 0x747 SWAP1 PUSH2 0x1548 JUMP JUMPDEST SWAP2 SWAP1 POP SSTORE POP PUSH1 0x40 MLOAD DUP1 PUSH1 0xA0 ADD PUSH1 0x40 MSTORE DUP1 DUP6 PUSH20 0xFFFFFFFFFFFFFFFFFFFFFFFFFFFFFFFFFFFFFFFF AND DUP2 MSTORE PUSH1 0x20 ADD DUP7 DUP2 MSTORE PUSH1 0x20 ADD DUP5 DUP2 MSTORE PUSH1 0x20 ADD CALLER PUSH20 0xFFFFFFFFFFFFFFFFFFFFFFFFFFFFFFFFFFFFFFFF AND DUP2 MSTORE PUSH1 0x20 ADD DUP4 TIMESTAMP PUSH2 0x7A7 SWAP2 SWAP1 PUSH2 0x1121 JUMP JUMPDEST DUP2 MSTORE POP PUSH1 0x1 PUSH0 PUSH1 0x2 SLOAD DUP2 MSTORE PUSH1 0x20 ADD SWAP1 DUP2 MSTORE PUSH1 0x20 ADD PUSH0 KECCAK256 PUSH0 DUP3 ADD MLOAD DUP2 PUSH0 ADD PUSH0 PUSH2 0x100 EXP DUP2 SLOAD DUP2 PUSH20 0xFFFFFFFFFFFFFFFFFFFFFFFFFFFFFFFFFFFFFFFF MUL NOT AND SWAP1 DUP4 PUSH20 0xFFFFFFFFFFFFFFFFFFFFFFFFFFFFFFFFFFFFFFFF AND MUL OR SWAP1 SSTORE POP PUSH1 0x20 DUP3 ADD MLOAD DUP2 PUSH1 0x1 ADD SSTORE PUSH1 0x40 DUP3 ADD MLOAD DUP2 PUSH1 0x2 ADD SSTORE PUSH1 0x60 DUP3 ADD MLOAD DUP2 PUSH1 0x3 ADD PUSH0 PUSH2 0x100 EXP DUP2 SLOAD DUP2 PUSH20 0xFFFFFFFFFFFFFFFFFFFFFFFFFFFFFFFFFFFFFFFF MUL NOT AND SWAP1 DUP4 PUSH20 0xFFFFFFFFFFFFFFFFFFFFFFFFFFFFFFFFFFFFFFFF AND MUL OR SWAP1 SSTORE POP PUSH1 0x80 DUP3 ADD MLOAD DUP2 PUSH1 0x4 ADD SSTORE SWAP1 POP POP DUP4 PUSH20 0xFFFFFFFFFFFFFFFFFFFFFFFFFFFFFFFFFFFFFFFF AND CALLER PUSH20 0xFFFFFFFFFFFFFFFFFFFFFFFFFFFFFFFFFFFFFFFF AND PUSH32 0xC8636A22D2315A33DE4785339601BB7299EBC1E02CF0D9F22776C7692EE3803B PUSH1 0x2 SLOAD DUP9 DUP8 DUP8 TIMESTAMP PUSH2 0x8C8 SWAP2 SWAP1 PUSH2 0x1121 JUMP JUMPDEST PUSH1 0x40 MLOAD PUSH2 0x8D8 SWAP5 SWAP4 SWAP3 SWAP2 SWAP1 PUSH2 0x158F JUMP JUMPDEST PUSH1 0x40 MLOAD DUP1 SWAP2 SUB SWAP1 LOG3 POP POP POP POP POP JUMP JUMPDEST PUSH1 0x1 PUSH1 0x20 MSTORE DUP1 PUSH0 MSTORE PUSH1 0x40 PUSH0 KECCAK256 PUSH0 SWAP2 POP SWAP1 POP DUP1 PUSH0 ADD PUSH0 SWAP1 SLOAD SWAP1 PUSH2 0x100 EXP SWAP1 DIV PUSH20 0xFFFFFFFFFFFFFFFFFFFFFFFFFFFFFFFFFFFFFFFF AND SWAP1 DUP1 PUSH1 0x1 ADD SLOAD SWAP1 DUP1 PUSH1 0x2 ADD SLOAD SWAP1 DUP1 PUSH1 0x3 ADD PUSH0 SWAP1 SLOAD SWAP1 PUSH2 0x100 EXP SWAP1 DIV PUSH20 0xFFFFFFFFFFFFFFFFFFFFFFFFFFFFFFFFFFFFFFFF AND SWAP1 DUP1 PUSH1 0x4 ADD SLOAD SWAP1 POP DUP6 JUMP JUMPDEST PUSH2 0x95F PUSH2 0xB00 JUMP JUMPDEST PUSH0 PUSH1 0x1 PUSH0 DUP4 DUP2 MSTORE PUSH1 0x20 ADD SWAP1 DUP2 MSTORE PUSH1 0x20 ADD PUSH0 KECCAK256 SWAP1 POP DUP1 PUSH1 0x3 ADD PUSH0 SWAP1 SLOAD SWAP1 PUSH2 0x100 EXP SWAP1 DIV PUSH20 0xFFFFFFFFFFFFFFFFFFFFFFFFFFFFFFFFFFFFFFFF AND PUSH20 0xFFFFFFFFFFFFFFFFFFFFFFFFFFFFFFFFFFFFFFFF AND CALLER PUSH20 0xFFFFFFFFFFFFFFFFFFFFFFFFFFFFFFFFFFFFFFFF AND EQ PUSH2 0xA04 JUMPI PUSH1 0x40 MLOAD PUSH32 0x8C379A000000000000000000000000000000000000000000000000000000000 DUP2 MSTORE PUSH1 0x4 ADD PUSH2 0x9FB SWAP1 PUSH2 0x161C JUMP JUMPDEST PUSH1 0x40 MLOAD DUP1 SWAP2 SUB SWAP1 REVERT JUMPDEST DUP1 PUSH1 0x4 ADD SLOAD TIMESTAMP GT PUSH2 0xA4A JUMPI PUSH1 0x40 MLOAD PUSH32 0x8C379A000000000000000000000000000000000000000000000000000000000 DUP2 MSTORE PUSH1 0x4 ADD PUSH2 0xA41 SWAP1 PUSH2 0x1684 JUMP JUMPDEST PUSH1 0x40 MLOAD DUP1 SWAP2 SUB SWAP1 REVERT JUMPDEST PUSH0 DUP2 PUSH1 0x2 ADD SLOAD GT PUSH2 0xA90 JUMPI PUSH1 0x40 MLOAD PUSH32 0x8C379A000000000000000000000000000000000000000000000000000000000 DUP2 MSTORE PUSH1 0x4 ADD PUSH2 0xA87 SWAP1 PUSH2 0x16EC JUMP JUMPDEST PUSH1 0x40 MLOAD DUP1 SWAP2 SUB SWAP1 REVERT JUMPDEST PUSH0 DUP2 PUSH1 0x2 ADD SLOAD SWAP1 POP PUSH0 DUP3 PUSH1 0x2 ADD DUP2 SWAP1 SSTORE POP PUSH0 DUP3 PUSH0 ADD PUSH0 SWAP1 SLOAD SWAP1 PUSH2 0x100 EXP SWAP1 DIV PUSH20 0xFFFFFFFFFFFFFFFFFFFFFFFFFFFFFFFFFFFFFFFF AND SWAP1 POP PUSH2 0xAF2 CALLER DUP4 DUP4 PUSH20 0xFFFFFFFFFFFFFFFFFFFFFFFFFFFFFFFFFFFFFFFF AND PUSH2 0xBC6 SWAP1 SWAP3 SWAP2 SWAP1 PUSH4 0xFFFFFFFF AND JUMP JUMPDEST POP POP POP PUSH2 0xAFD PUSH2 0xC45 JUMP JUMPDEST POP JUMP JUMPDEST PUSH1 0x2 PUSH0 SLOAD SUB PUSH2 0xB3B JUMPI PUSH1 0x40 MLOAD PUSH32 0x3EE5AEB500000000000000000000000000000000000000000000000000000000 DUP2 MSTORE PUSH1 0x4 ADD PUSH1 0x40 MLOAD DUP1 SWAP2 SUB SWAP1 REVERT JUMPDEST PUSH1 0x2 PUSH0 DUP2 SWAP1 SSTORE POP JUMP JUMPDEST PUSH2 0xBC0 DUP5 DUP6 PUSH20 0xFFFFFFFFFFFFFFFFFFFFFFFFFFFFFFFFFFFFFFFF AND PUSH4 0x23B872DD DUP7 DUP7 DUP7 PUSH1 0x40 MLOAD PUSH1 0x24 ADD PUSH2 0xB79 SWAP4 SWAP3 SWAP2 SWAP1 PUSH2 0x170A JUMP JUMPDEST PUSH1 0x40 MLOAD PUSH1 0x20 DUP2 DUP4 SUB SUB DUP2 MSTORE SWAP1 PUSH1 0x40 MSTORE SWAP2 POP PUSH1 0xE0 SHL PUSH1 0x20 DUP3 ADD DUP1 MLOAD PUSH28 0xFFFFFFFFFFFFFFFFFFFFFFFFFFFFFFFFFFFFFFFFFFFFFFFFFFFFFFFF DUP4 DUP2 DUP4 AND OR DUP4 MSTORE POP POP POP POP PUSH2 0xC4E JUMP JUMPDEST POP POP POP POP JUMP JUMPDEST PUSH2 0xC40 DUP4 DUP5 PUSH20 0xFFFFFFFFFFFFFFFFFFFFFFFFFFFFFFFFFFFFFFFF AND PUSH4 0xA9059CBB DUP6 DUP6 PUSH1 0x40 MLOAD PUSH1 0x24 ADD PUSH2 0xBF9 SWAP3 SWAP2 SWAP1 PUSH2 0x173F JUMP JUMPDEST PUSH1 0x40 MLOAD PUSH1 0x20 DUP2 DUP4 SUB SUB DUP2 MSTORE SWAP1 PUSH1 0x40 MSTORE SWAP2 POP PUSH1 0xE0 SHL PUSH1 0x20 DUP3 ADD DUP1 MLOAD PUSH28 0xFFFFFFFFFFFFFFFFFFFFFFFFFFFFFFFFFFFFFFFFFFFFFFFFFFFFFFFF DUP4 DUP2 DUP4 AND OR DUP4 MSTORE POP POP POP POP PUSH2 0xC4E JUMP JUMPDEST POP POP POP JUMP JUMPDEST PUSH1 0x1 PUSH0 DUP2 SWAP1 SSTORE POP JUMP JUMPDEST PUSH0 PUSH0 PUSH1 0x20 PUSH0 DUP5 MLOAD PUSH1 0x20 DUP7 ADD PUSH0 DUP9 GAS CALL DUP1 PUSH2 0xC6D JUMPI PUSH1 0x40 MLOAD RETURNDATASIZE PUSH0 DUP3 RETURNDATACOPY RETURNDATASIZE DUP2 REVERT JUMPDEST RETURNDATASIZE SWAP3 POP PUSH0 MLOAD SWAP2 POP POP PUSH0 DUP3 EQ PUSH2 0xC86 JUMPI PUSH1 0x1 DUP2 EQ ISZERO PUSH2 0xCA1 JUMP JUMPDEST PUSH0 DUP5 PUSH20 0xFFFFFFFFFFFFFFFFFFFFFFFFFFFFFFFFFFFFFFFF AND EXTCODESIZE EQ JUMPDEST ISZERO PUSH2 0xCE3 JUMPI DUP4 PUSH1 0x40 MLOAD PUSH32 0x5274AFE700000000000000000000000000000000000000000000000000000000 DUP2 MSTORE PUSH1 0x4 ADD PUSH2 0xCDA SWAP2 SWAP1 PUSH2 0xD28 JUMP JUMPDEST PUSH1 0x40 MLOAD DUP1 SWAP2 SUB SWAP1 REVERT JUMPDEST POP POP POP POP JUMP JUMPDEST PUSH0 PUSH20 0xFFFFFFFFFFFFFFFFFFFFFFFFFFFFFFFFFFFFFFFF DUP3 AND SWAP1 POP SWAP2 SWAP1 POP JUMP JUMPDEST PUSH0 PUSH2 0xD12 DUP3 PUSH2 0xCE9 JUMP JUMPDEST SWAP1 POP SWAP2 SWAP1 POP JUMP JUMPDEST PUSH2 0xD22 DUP2 PUSH2 0xD08 JUMP JUMPDEST DUP3 MSTORE POP POP JUMP JUMPDEST PUSH0 PUSH1 0x20 DUP3 ADD SWAP1 POP PUSH2 0xD3B PUSH0 DUP4 ADD DUP5 PUSH2 0xD19 JUMP JUMPDEST SWAP3 SWAP2 POP POP JUMP JUMPDEST PUSH0 DUP2 SWAP1 POP SWAP2 SWAP1 POP JUMP JUMPDEST PUSH2 0xD53 DUP2 PUSH2 0xD41 JUMP JUMPDEST DUP3 MSTORE POP POP JUMP JUMPDEST PUSH0 PUSH1 0x20 DUP3 ADD SWAP1 POP PUSH2 0xD6C PUSH0 DUP4 ADD DUP5 PUSH2 0xD4A JUMP JUMPDEST SWAP3 SWAP2 POP POP JUMP JUMPDEST PUSH0 PUSH0 REVERT JUMPDEST PUSH2 0xD7F DUP2 PUSH2 0xD41 JUMP JUMPDEST DUP2 EQ PUSH2 0xD89 JUMPI PUSH0 PUSH0 REVERT JUMPDEST POP JUMP JUMPDEST PUSH0 DUP2 CALLDATALOAD SWAP1 POP PUSH2 0xD9A DUP2 PUSH2 0xD76 JUMP JUMPDEST SWAP3 SWAP2 POP POP JUMP JUMPDEST PUSH2 0xDA9 DUP2 PUSH2 0xD08 JUMP JUMPDEST DUP2 EQ PUSH2 0xDB3 JUMPI PUSH0 PUSH0 REVERT JUMPDEST POP JUMP JUMPDEST PUSH0 DUP2 CALLDATALOAD SWAP1 POP PUSH2 0xDC4 DUP2 PUSH2 0xDA0 JUMP JUMPDEST SWAP3 SWAP2 POP POP JUMP JUMPDEST PUSH0 PUSH0 PUSH0 PUSH0 PUSH1 0x80 DUP6 DUP8 SUB SLT ISZERO PUSH2 0xDE2 JUMPI PUSH2 0xDE1 PUSH2 0xD72 JUMP JUMPDEST JUMPDEST PUSH0 PUSH2 0xDEF DUP8 DUP3 DUP9 ADD PUSH2 0xD8C JUMP JUMPDEST SWAP5 POP POP PUSH1 0x20 PUSH2 0xE00 DUP8 DUP3 DUP9 ADD PUSH2 0xD8C JUMP JUMPDEST SWAP4 POP POP PUSH1 0x40 PUSH2 0xE11 DUP8 DUP3 DUP9 ADD PUSH2 0xDB6 JUMP JUMPDEST SWAP3 POP POP PUSH1 0x60 PUSH2 0xE22 DUP8 DUP3 DUP9 ADD PUSH2 0xD8C JUMP JUMPDEST SWAP2 POP POP SWAP3 SWAP6 SWAP2 SWAP5 POP SWAP3 POP JUMP JUMPDEST PUSH0 PUSH0 PUSH0 PUSH0 PUSH1 0x80 DUP6 DUP8 SUB SLT ISZERO PUSH2 0xE46 JUMPI PUSH2 0xE45 PUSH2 0xD72 JUMP JUMPDEST JUMPDEST PUSH0 PUSH2 0xE53 DUP8 DUP3 DUP9 ADD PUSH2 0xD8C JUMP JUMPDEST SWAP5 POP POP PUSH1 0x20 PUSH2 0xE64 DUP8 DUP3 DUP9 ADD PUSH2 0xDB6 JUMP JUMPDEST SWAP4 POP POP PUSH1 0x40 PUSH2 0xE75 DUP8 DUP3 DUP9 ADD PUSH2 0xD8C JUMP JUMPDEST SWAP3 POP POP PUSH1 0x60 PUSH2 0xE86 DUP8 DUP3 DUP9 ADD PUSH2 0xD8C JUMP JUMPDEST SWAP2 POP POP SWAP3 SWAP6 SWAP2 SWAP5 POP SWAP3 POP JUMP JUMPDEST PUSH0 PUSH1 0x20 DUP3 DUP5 SUB SLT ISZERO PUSH2 0xEA7 JUMPI PUSH2 0xEA6 PUSH2 0xD72 JUMP JUMPDEST JUMPDEST PUSH0 PUSH2 0xEB4 DUP5 DUP3 DUP6 ADD PUSH2 0xD8C JUMP JUMPDEST SWAP2 POP POP SWAP3 SWAP2 POP POP JUMP JUMPDEST PUSH0 PUSH1 0xA0 DUP3 ADD SWAP1 POP PUSH2 0xED0 PUSH0 DUP4 ADD DUP9 PUSH2 0xD19 JUMP JUMPDEST PUSH2 0xEDD PUSH1 0x20 DUP4 ADD DUP8 PUSH2 0xD4A JUMP JUMPDEST PUSH2 0xEEA PUSH1 0x40 DUP4 ADD DUP7 PUSH2 0xD4A JUMP JUMPDEST PUSH2 0xEF7 PUSH1 0x60 DUP4 ADD DUP6 PUSH2 0xD19 JUMP JUMPDEST PUSH2 0xF04 PUSH1 0x80 DUP4 ADD DUP5 PUSH2 0xD4A JUMP JUMPDEST SWAP7 SWAP6 POP POP POP POP POP POP JUMP JUMPDEST PUSH0 DUP3 DUP3 MSTORE PUSH1 0x20 DUP3 ADD SWAP1 POP SWAP3 SWAP2 POP POP JUMP JUMPDEST PUSH32 0x4C697374696E6720646F6573206E6F7420657869737400000000000000000000 PUSH0 DUP3 ADD MSTORE POP JUMP JUMPDEST PUSH0 PUSH2 0xF52 PUSH1 0x16 DUP4 PUSH2 0xF0E JUMP JUMPDEST SWAP2 POP PUSH2 0xF5D DUP3 PUSH2 0xF1E JUMP JUMPDEST PUSH1 0x20 DUP3 ADD SWAP1 POP SWAP2 SWAP1 POP JUMP JUMPDEST PUSH0 PUSH1 0x20 DUP3 ADD SWAP1 POP DUP2 DUP2 SUB PUSH0 DUP4 ADD MSTORE PUSH2 0xF7F DUP2 PUSH2 0xF46 JUMP JUMPDEST SWAP1 POP SWAP2 SWAP1 POP JUMP JUMPDEST PUSH32 0x4C697374696E6720686173206578706972656400000000000000000000000000 PUSH0 DUP3 ADD MSTORE POP JUMP JUMPDEST PUSH0 PUSH2 0xFBA PUSH1 0x13 DUP4 PUSH2 0xF0E JUMP JUMPDEST SWAP2 POP PUSH2 0xFC5 DUP3 PUSH2 0xF86 JUMP JUMPDEST PUSH1 0x20 DUP3 ADD SWAP1 POP SWAP2 SWAP1 POP JUMP JUMPDEST PUSH0 PUSH1 0x20 DUP3 ADD SWAP1 POP DUP2 DUP2 SUB PUSH0 DUP4 ADD MSTORE PUSH2 0xFE7 DUP2 PUSH2 0xFAE JUMP JUMPDEST SWAP1 POP SWAP2 SWAP1 POP JUMP JUMPDEST PUSH32 0x4E6F7420656E6F75676820746F6B656E7320696E206C697374696E6700000000 PUSH0 DUP3 ADD MSTORE POP JUMP JUMPDEST PUSH0 PUSH2 0x1022 PUSH1 0x1C DUP4 PUSH2 0xF0E JUMP JUMPDEST SWAP2 POP PUSH2 0x102D DUP3 PUSH2 0xFEE JUMP JUMPDEST PUSH1 0x20 DUP3 ADD SWAP1 POP SWAP2 SWAP1 POP JUMP JUMPDEST PUSH0 PUSH1 0x20 DUP3 ADD SWAP1 POP DUP2 DUP2 SUB PUSH0 DUP4 ADD MSTORE PUSH2 0x104F DUP2 PUSH2 0x1016 JUMP JUMPDEST SWAP1 POP SWAP2 SWAP1 POP JUMP JUMPDEST PUSH32 0x4E487B7100000000000000000000000000000000000000000000000000000000 PUSH0 MSTORE PUSH1 0x11 PUSH1 0x4 MSTORE PUSH1 0x24 PUSH0 REVERT JUMPDEST PUSH0 PUSH2 0x108D DUP3 PUSH2 0xD41 JUMP JUMPDEST SWAP2 POP PUSH2 0x1098 DUP4 PUSH2 0xD41 JUMP JUMPDEST SWAP3 POP DUP3 DUP3 MUL PUSH2 0x10A6 DUP2 PUSH2 0xD41 JUMP JUMPDEST SWAP2 POP DUP3 DUP3 DIV DUP5 EQ DUP4 ISZERO OR PUSH2 0x10BD JUMPI PUSH2 0x10BC PUSH2 0x1056 JUMP JUMPDEST JUMPDEST POP SWAP3 SWAP2 POP POP JUMP JUMPDEST PUSH32 0x4E487B7100000000000000000000000000000000000000000000000000000000 PUSH0 MSTORE PUSH1 0x12 PUSH1 0x4 MSTORE PUSH1 0x24 PUSH0 REVERT JUMPDEST PUSH0 PUSH2 0x10FB DUP3 PUSH2 0xD41 JUMP JUMPDEST SWAP2 POP PUSH2 0x1106 DUP4 PUSH2 0xD41 JUMP JUMPDEST SWAP3 POP DUP3 PUSH2 0x1116 JUMPI PUSH2 0x1115 PUSH2 0x10C4 JUMP JUMPDEST JUMPDEST DUP3 DUP3 DIV SWAP1 POP SWAP3 SWAP2 POP POP JUMP JUMPDEST PUSH0 PUSH2 0x112B DUP3 PUSH2 0xD41 JUMP JUMPDEST SWAP2 POP PUSH2 0x1136 DUP4 PUSH2 0xD41 JUMP JUMPDEST SWAP3 POP DUP3 DUP3 ADD SWAP1 POP DUP1 DUP3 GT ISZERO PUSH2 0x114E JUMPI PUSH2 0x114D PUSH2 0x1056 JUMP JUMPDEST JUMPDEST SWAP3 SWAP2 POP POP JUMP JUMPDEST PUSH32 0x496E636F7272656374207061796D656E7420616D6F756E740000000000000000 PUSH0 DUP3 ADD MSTORE POP JUMP JUMPDEST PUSH0 PUSH2 0x1188 PUSH1 0x18 DUP4 PUSH2 0xF0E JUMP JUMPDEST SWAP2 POP PUSH2 0x1193 DUP3 PUSH2 0x1154 JUMP JUMPDEST PUSH1 0x20 DUP3 ADD SWAP1 POP SWAP2 SWAP1 POP JUMP JUMPDEST PUSH0 PUSH1 0x20 DUP3 ADD SWAP1 POP DUP2 DUP2 SUB PUSH0 DUP4 ADD MSTORE PUSH2 0x11B5 DUP2 PUSH2 0x117C JUMP JUMPDEST SWAP1 POP SWAP2 SWAP1 POP JUMP JUMPDEST PUSH0 PUSH1 0x40 DUP3 ADD SWAP1 POP PUSH2 0x11CF PUSH0 DUP4 ADD DUP6 PUSH2 0xD19 JUMP JUMPDEST PUSH2 0x11DC PUSH1 0x20 DUP4 ADD DUP5 PUSH2 0xD19 JUMP JUMPDEST SWAP4 SWAP3 POP POP POP JUMP JUMPDEST PUSH0 DUP2 MLOAD SWAP1 POP PUSH2 0x11F1 DUP2 PUSH2 0xD76 JUMP JUMPDEST SWAP3 SWAP2 POP POP JUMP JUMPDEST PUSH0 PUSH1 0x20 DUP3 DUP5 SUB SLT ISZERO PUSH2 0x120C JUMPI PUSH2 0x120B PUSH2 0xD72 JUMP JUMPDEST JUMPDEST PUSH0 PUSH2 0x1219 DUP5 DUP3 DUP6 ADD PUSH2 0x11E3 JUMP JUMPDEST SWAP2 POP POP SWAP3 SWAP2 POP POP JUMP JUMPDEST PUSH32 0x5061796D656E7420746F6B656E20616C6C6F77616E636520746F6F206C6F7700 PUSH0 DUP3 ADD MSTORE POP JUMP JUMPDEST PUSH0 PUSH2 0x1256 PUSH1 0x1F DUP4 PUSH2 0xF0E JUMP JUMPDEST SWAP2 POP PUSH2 0x1261 DUP3 PUSH2 0x1222 JUMP JUMPDEST PUSH1 0x20 DUP3 ADD SWAP1 POP SWAP2 SWAP1 POP JUMP JUMPDEST PUSH0 PUSH1 0x20 DUP3 ADD SWAP1 POP DUP2 DUP2 SUB PUSH0 DUP4 ADD MSTORE PUSH2 0x1283 DUP2 PUSH2 0x124A JUMP JUMPDEST SWAP1 POP SWAP2 SWAP1 POP JUMP JUMPDEST PUSH0 PUSH2 0x1294 DUP3 PUSH2 0xD41 JUMP JUMPDEST SWAP2 POP PUSH2 0x129F DUP4 PUSH2 0xD41 JUMP JUMPDEST SWAP3 POP DUP3 DUP3 SUB SWAP1 POP DUP2 DUP2 GT ISZERO PUSH2 0x12B7 JUMPI PUSH2 0x12B6 PUSH2 0x1056 JUMP JUMPDEST JUMPDEST SWAP3 SWAP2 POP POP JUMP JUMPDEST PUSH0 DUP2 ISZERO ISZERO SWAP1 POP SWAP2 SWAP1 POP JUMP JUMPDEST PUSH2 0x12D1 DUP2 PUSH2 0x12BD JUMP JUMPDEST DUP3 MSTORE POP POP JUMP JUMPDEST PUSH0 PUSH1 0x80 DUP3 ADD SWAP1 POP PUSH2 0x12EA PUSH0 DUP4 ADD DUP8 PUSH2 0xD4A JUMP JUMPDEST PUSH2 0x12F7 PUSH1 0x20 DUP4 ADD DUP7 PUSH2 0xD4A JUMP JUMPDEST PUSH2 0x1304 PUSH1 0x40 DUP4 ADD DUP6 PUSH2 0xD4A JUMP JUMPDEST PUSH2 0x1311 PUSH1 0x60 DUP4 ADD DUP5 PUSH2 0x12C8 JUMP JUMPDEST SWAP6 SWAP5 POP POP POP POP POP JUMP JUMPDEST PUSH32 0x5072696365206D7573742062652067726561746572207468616E207A65726F00 PUSH0 DUP3 ADD MSTORE POP JUMP JUMPDEST PUSH0 PUSH2 0x134E PUSH1 0x1F DUP4 PUSH2 0xF0E JUMP JUMPDEST SWAP2 POP PUSH2 0x1359 DUP3 PUSH2 0x131A JUMP JUMPDEST PUSH1 0x20 DUP3 ADD SWAP1 POP SWAP2 SWAP1 POP JUMP JUMPDEST PUSH0 PUSH1 0x20 DUP3 ADD SWAP1 POP DUP2 DUP2 SUB PUSH0 DUP4 ADD MSTORE PUSH2 0x137B DUP2 PUSH2 0x1342 JUMP JUMPDEST SWAP1 POP SWAP2 SWAP1 POP JUMP JUMPDEST PUSH32 0x546F6B656E73206D7573742062652067726561746572207468616E207A65726F PUSH0 DUP3 ADD MSTORE POP JUMP JUMPDEST PUSH0 PUSH2 0x13B6 PUSH1 0x20 DUP4 PUSH2 0xF0E JUMP JUMPDEST SWAP2 POP PUSH2 0x13C1 DUP3 PUSH2 0x1382 JUMP JUMPDEST PUSH1 0x20 DUP3 ADD SWAP1 POP SWAP2 SWAP1 POP JUMP JUMPDEST PUSH0 PUSH1 0x20 DUP3 ADD SWAP1 POP DUP2 DUP2 SUB PUSH0 DUP4 ADD MSTORE PUSH2 0x13E3 DUP2 PUSH2 0x13AA JUMP JUMPDEST SWAP1 POP SWAP2 SWAP1 POP JUMP JUMPDEST PUSH32 0x4475726174696F6E206D7573742062652067726561746572207468616E207A65 PUSH0 DUP3 ADD MSTORE PUSH32 0x726F000000000000000000000000000000000000000000000000000000000000 PUSH1 0x20 DUP3 ADD MSTORE POP JUMP JUMPDEST PUSH0 PUSH2 0x1444 PUSH1 0x22 DUP4 PUSH2 0xF0E JUMP JUMPDEST SWAP2 POP PUSH2 0x144F DUP3 PUSH2 0x13EA JUMP JUMPDEST PUSH1 0x40 DUP3 ADD SWAP1 POP SWAP2 SWAP1 POP JUMP JUMPDEST PUSH0 PUSH1 0x20 DUP3 ADD SWAP1 POP DUP2 DUP2 SUB PUSH0 DUP4 ADD MSTORE PUSH2 0x1471 DUP2 PUSH2 0x1438 JUMP JUMPDEST SWAP1 POP SWAP2 SWAP1 POP JUMP JUMPDEST PUSH32 0x496E76616C696420636F6E747261637420616464726573730000000000000000 PUSH0 DUP3 ADD MSTORE POP JUMP JUMPDEST PUSH0 PUSH2 0x14AC PUSH1 0x18 DUP4 PUSH2 0xF0E JUMP JUMPDEST SWAP2 POP PUSH2 0x14B7 DUP3 PUSH2 0x1478 JUMP JUMPDEST PUSH1 0x20 DUP3 ADD SWAP1 POP SWAP2 SWAP1 POP JUMP JUMPDEST PUSH0 PUSH1 0x20 DUP3 ADD SWAP1 POP DUP2 DUP2 SUB PUSH0 DUP4 ADD MSTORE PUSH2 0x14D9 DUP2 PUSH2 0x14A0 JUMP JUMPDEST SWAP1 POP SWAP2 SWAP1 POP JUMP JUMPDEST PUSH32 0x546F6B656E20616C6C6F77616E636520746F6F206C6F77000000000000000000 PUSH0 DUP3 ADD MSTORE POP JUMP JUMPDEST PUSH0 PUSH2 0x1514 PUSH1 0x17 DUP4 PUSH2 0xF0E JUMP JUMPDEST SWAP2 POP PUSH2 0x151F DUP3 PUSH2 0x14E0 JUMP JUMPDEST PUSH1 0x20 DUP3 ADD SWAP1 POP SWAP2 SWAP1 POP JUMP JUMPDEST PUSH0 PUSH1 0x20 DUP3 ADD SWAP1 POP DUP2 DUP2 SUB PUSH0 DUP4 ADD MSTORE PUSH2 0x1541 DUP2 PUSH2 0x1508 JUMP JUMPDEST SWAP1 POP SWAP2 SWAP1 POP JUMP JUMPDEST PUSH0 PUSH2 0x1552 DUP3 PUSH2 0xD41 JUMP JUMPDEST SWAP2 POP PUSH32 0xFFFFFFFFFFFFFFFFFFFFFFFFFFFFFFFFFFFFFFFFFFFFFFFFFFFFFFFFFFFFFFFF DUP3 SUB PUSH2 0x1584 JUMPI PUSH2 0x1583 PUSH2 0x1056 JUMP JUMPDEST JUMPDEST PUSH1 0x1 DUP3 ADD SWAP1 POP SWAP2 SWAP1 POP JUMP JUMPDEST PUSH0 PUSH1 0x80 DUP3 ADD SWAP1 POP PUSH2 0x15A2 PUSH0 DUP4 ADD DUP8 PUSH2 0xD4A JUMP JUMPDEST PUSH2 0x15AF PUSH1 0x20 DUP4 ADD DUP7 PUSH2 0xD4A JUMP JUMPDEST PUSH2 0x15BC PUSH1 0x40 DUP4 ADD DUP6 PUSH2 0xD4A JUMP JUMPDEST PUSH2 0x15C9 PUSH1 0x60 DUP4 ADD DUP5 PUSH2 0xD4A JUMP JUMPDEST SWAP6 SWAP5 POP POP POP POP POP JUMP JUMPDEST PUSH32 0x4F6E6C79206C697374696E672073656C6C65722063616E207769746864726177 PUSH0 DUP3 ADD MSTORE POP JUMP JUMPDEST PUSH0 PUSH2 0x1606 PUSH1 0x20 DUP4 PUSH2 0xF0E JUMP JUMPDEST SWAP2 POP PUSH2 0x1611 DUP3 PUSH2 0x15D2 JUMP JUMPDEST PUSH1 0x20 DUP3 ADD SWAP1 POP SWAP2 SWAP1 POP JUMP JUMPDEST PUSH0 PUSH1 0x20 DUP3 ADD SWAP1 POP DUP2 DUP2 SUB PUSH0 DUP4 ADD MSTORE PUSH2 0x1633 DUP2 PUSH2 0x15FA JUMP JUMPDEST SWAP1 POP SWAP2 SWAP1 POP JUMP JUMPDEST PUSH32 0x4C697374696E6720686173206E6F7420656E6465640000000000000000000000 PUSH0 DUP3 ADD MSTORE POP JUMP JUMPDEST PUSH0 PUSH2 0x166E PUSH1 0x15 DUP4 PUSH2 0xF0E JUMP JUMPDEST SWAP2 POP PUSH2 0x1679 DUP3 PUSH2 0x163A JUMP JUMPDEST PUSH1 0x20 DUP3 ADD SWAP1 POP SWAP2 SWAP1 POP JUMP JUMPDEST PUSH0 PUSH1 0x20 DUP3 ADD SWAP1 POP DUP2 DUP2 SUB PUSH0 DUP4 ADD MSTORE PUSH2 0x169B DUP2 PUSH2 0x1662 JUMP JUMPDEST SWAP1 POP SWAP2 SWAP1 POP JUMP JUMPDEST PUSH32 0x4E6F20746F6B656E7320746F2077697468647261770000000000000000000000 PUSH0 DUP3 ADD MSTORE POP JUMP JUMPDEST PUSH0 PUSH2 0x16D6 PUSH1 0x15 DUP4 PUSH2 0xF0E JUMP JUMPDEST SWAP2 POP PUSH2 0x16E1 DUP3 PUSH2 0x16A2 JUMP JUMPDEST PUSH1 0x20 DUP3 ADD SWAP1 POP SWAP2 SWAP1 POP JUMP JUMPDEST PUSH0 PUSH1 0x20 DUP3 ADD SWAP1 POP DUP2 DUP2 SUB PUSH0 DUP4 ADD MSTORE PUSH2 0x1703 DUP2 PUSH2 0x16CA JUMP JUMPDEST SWAP1 POP SWAP2 SWAP1 POP JUMP JUMPDEST PUSH0 PUSH1 0x60 DUP3 ADD SWAP1 POP PUSH2 0x171D PUSH0 DUP4 ADD DUP7 PUSH2 0xD19 JUMP JUMPDEST PUSH2 0x172A PUSH1 0x20 DUP4 ADD DUP6 PUSH2 0xD19 JUMP JUMPDEST PUSH2 0x1737 PUSH1 0x40 DUP4 ADD DUP5 PUSH2 0xD4A JUMP JUMPDEST SWAP5 SWAP4 POP POP POP POP JUMP JUMPDEST PUSH0 PUSH1 0x40 DUP3 ADD SWAP1 POP PUSH2 0x1752 PUSH0 DUP4 ADD DUP6 PUSH2 0xD19 JUMP JUMPDEST PUSH2 0x175F PUSH1 0x20 DUP4 ADD DUP5 PUSH2 0xD4A JUMP JUMPDEST SWAP4 SWAP3 POP POP POP JUMP INVALID LOG2 PUSH5 0x6970667358 0x22 SLT KECCAK256 PUSH27 0xDE803C48215FBA5856BEE89E2ABD1B054679D1FAAD224200C4F91E GAS STOP INVALID PUSH25 0x64736F6C634300081C00330000000000000000000000000000 "
				},
				"gasEstimates": {
					"creation": {
						"codeDepositCost": "1208800",
						"executionCost": "23365",
						"totalCost": "1232165"
					},
					"external": {
						"COMMISSION_PERCENTAGE()": "348",
						"COMMISSION_WALLET()": "374",
						"addListing(uint256,address,uint256,uint256)": "infinite",
						"buyTokensWithERC20(uint256,uint256,address,uint256)": "infinite",
						"listingCounter()": "2470",
						"listings(uint256)": "infinite",
						"withdrawTokensFromListing(uint256)": "infinite"
					}
				},
				"methodIdentifiers": {
					"COMMISSION_PERCENTAGE()": "1bf1de9b",
					"COMMISSION_WALLET()": "17c73ff0",
					"addListing(uint256,address,uint256,uint256)": "9ffae41b",
					"buyTokensWithERC20(uint256,uint256,address,uint256)": "7a82a87f",
					"listingCounter()": "6c2c9c7d",
					"listings(uint256)": "de74e57b",
					"withdrawTokensFromListing(uint256)": "f25713bf"
				}
			},
			"storageLayout": {
				"storage": [
					{
						"astId": 1295,
						"contract": "contracts/SaleContract.sol:SaleContract",
						"label": "_status",
						"offset": 0,
						"slot": "0",
						"type": "t_uint256"
					},
					{
						"astId": 1392,
						"contract": "contracts/SaleContract.sol:SaleContract",
						"label": "listings",
						"offset": 0,
						"slot": "1",
						"type": "t_mapping(t_uint256,t_struct(Listing)1387_storage)"
					},
					{
						"astId": 1394,
						"contract": "contracts/SaleContract.sol:SaleContract",
						"label": "listingCounter",
						"offset": 0,
						"slot": "2",
						"type": "t_uint256"
					}
				],
				"types": {
					"t_address": {
						"encoding": "inplace",
						"label": "address",
						"numberOfBytes": "20"
					},
					"t_mapping(t_uint256,t_struct(Listing)1387_storage)": {
						"encoding": "mapping",
						"key": "t_uint256",
						"label": "mapping(uint256 => struct SaleContract.Listing)",
						"numberOfBytes": "32",
						"value": "t_struct(Listing)1387_storage"
					},
					"t_struct(Listing)1387_storage": {
						"encoding": "inplace",
						"label": "struct SaleContract.Listing",
						"members": [
							{
								"astId": 1378,
								"contract": "contracts/SaleContract.sol:SaleContract",
								"label": "contractAddress",
								"offset": 0,
								"slot": "0",
								"type": "t_address"
							},
							{
								"astId": 1380,
								"contract": "contracts/SaleContract.sol:SaleContract",
								"label": "price",
								"offset": 0,
								"slot": "1",
								"type": "t_uint256"
							},
							{
								"astId": 1382,
								"contract": "contracts/SaleContract.sol:SaleContract",
								"label": "tokens",
								"offset": 0,
								"slot": "2",
								"type": "t_uint256"
							},
							{
								"astId": 1384,
								"contract": "contracts/SaleContract.sol:SaleContract",
								"label": "seller",
								"offset": 0,
								"slot": "3",
								"type": "t_address"
							},
							{
								"astId": 1386,
								"contract": "contracts/SaleContract.sol:SaleContract",
								"label": "expiration",
								"offset": 0,
								"slot": "4",
								"type": "t_uint256"
							}
						],
						"numberOfBytes": "160"
					},
					"t_uint256": {
						"encoding": "inplace",
						"label": "uint256",
						"numberOfBytes": "32"
					}
				}
			},
			"userdoc": {
				"kind": "user",
				"methods": {},
				"version": 1
			}
		}
	}
}