{
	"contracts/SaleContract.sol": {
		"SaleContract": {
			"abi": [
				{
					"inputs": [],
					"name": "COMMISSION_PERCENTAGE",
					"outputs": [
						{
							"internalType": "uint256",
							"name": "",
							"type": "uint256"
						}
					],
					"stateMutability": "view",
					"type": "function"
				},
				{
					"inputs": [],
					"name": "COMMISSION_WALLET",
					"outputs": [
						{
							"internalType": "address",
							"name": "",
							"type": "address"
						}
					],
					"stateMutability": "view",
					"type": "function"
				},
				{
					"inputs": [
						{
							"internalType": "uint256",
							"name": "price",
							"type": "uint256"
						},
						{
							"internalType": "address",
							"name": "contractAddress",
							"type": "address"
						},
						{
							"internalType": "uint256",
							"name": "tokens",
							"type": "uint256"
						},
						{
							"internalType": "uint256",
							"name": "duration",
							"type": "uint256"
						}
					],
					"name": "addListing",
					"outputs": [],
					"stateMutability": "nonpayable",
					"type": "function"
				},
				{
					"inputs": [
						{
							"internalType": "uint256",
							"name": "listingId",
							"type": "uint256"
						},
						{
							"internalType": "uint256",
							"name": "tokenAmount",
							"type": "uint256"
						}
					],
					"name": "buyTokens",
					"outputs": [],
					"stateMutability": "payable",
					"type": "function"
				},
				{
					"inputs": [
						{
							"internalType": "uint256",
							"name": "listingId",
							"type": "uint256"
						},
						{
							"internalType": "uint256",
							"name": "tokenAmount",
							"type": "uint256"
						},
						{
							"internalType": "address",
							"name": "paymentToken",
							"type": "address"
						},
						{
							"internalType": "uint256",
							"name": "paymentAmount",
							"type": "uint256"
						}
					],
					"name": "buyTokensWithERC20",
					"outputs": [],
					"stateMutability": "nonpayable",
					"type": "function"
				},
				{
					"inputs": [],
					"name": "listingCounter",
					"outputs": [
						{
							"internalType": "uint256",
							"name": "",
							"type": "uint256"
						}
					],
					"stateMutability": "view",
					"type": "function"
				},
				{
					"inputs": [
						{
							"internalType": "uint256",
							"name": "",
							"type": "uint256"
						}
					],
					"name": "listings",
					"outputs": [
						{
							"internalType": "address",
							"name": "contractAddress",
							"type": "address"
						},
						{
							"internalType": "uint256",
							"name": "price",
							"type": "uint256"
						},
						{
							"internalType": "uint256",
							"name": "tokens",
							"type": "uint256"
						},
						{
							"internalType": "address",
							"name": "seller",
							"type": "address"
						},
						{
							"internalType": "uint256",
							"name": "expiration",
							"type": "uint256"
						}
					],
					"stateMutability": "view",
					"type": "function"
				}
			],
			"devdoc": {
				"kind": "dev",
				"methods": {},
				"version": 1
			},
			"evm": {
				"assembly": "    /* \"contracts/SaleContract.sol\":135:3523  contract SaleContract {... */\n  mstore(0x40, 0x80)\n  callvalue\n  dup1\n  iszero\n  tag_1\n  jumpi\n  revert(0x00, 0x00)\ntag_1:\n  pop\n  dataSize(sub_0)\n  dup1\n  dataOffset(sub_0)\n  0x00\n  codecopy\n  0x00\n  return\nstop\n\nsub_0: assembly {\n        /* \"contracts/SaleContract.sol\":135:3523  contract SaleContract {... */\n      mstore(0x40, 0x80)\n      jumpi(tag_1, lt(calldatasize, 0x04))\n      shr(0xe0, calldataload(0x00))\n      dup1\n      0x7975ce28\n      gt\n      tag_9\n      jumpi\n      dup1\n      0x7975ce28\n      eq\n      tag_5\n      jumpi\n      dup1\n      0x7a82a87f\n      eq\n      tag_6\n      jumpi\n      dup1\n      0x9ffae41b\n      eq\n      tag_7\n      jumpi\n      dup1\n      0xde74e57b\n      eq\n      tag_8\n      jumpi\n      jump(tag_1)\n    tag_9:\n      dup1\n      0x17c73ff0\n      eq\n      tag_2\n      jumpi\n      dup1\n      0x1bf1de9b\n      eq\n      tag_3\n      jumpi\n      dup1\n      0x6c2c9c7d\n      eq\n      tag_4\n      jumpi\n    tag_1:\n      revert(0x00, 0x00)\n        /* \"contracts/SaleContract.sol\":408:494  address public constant COMMISSION_WALLET = 0xFCF8d2b098B3160654bbaDa1a8769483c71C288b */\n    tag_2:\n      callvalue\n      dup1\n      iszero\n      tag_10\n      jumpi\n      revert(0x00, 0x00)\n    tag_10:\n      pop\n      tag_11\n      tag_12\n      jump\t// in\n    tag_11:\n      mload(0x40)\n      tag_13\n      swap2\n      swap1\n      tag_14\n      jump\t// in\n    tag_13:\n      mload(0x40)\n      dup1\n      swap2\n      sub\n      swap1\n      return\n        /* \"contracts/SaleContract.sol\":500:550  uint256 public constant COMMISSION_PERCENTAGE = 10 */\n    tag_3:\n      callvalue\n      dup1\n      iszero\n      tag_15\n      jumpi\n      revert(0x00, 0x00)\n    tag_15:\n      pop\n      tag_16\n      tag_17\n      jump\t// in\n    tag_16:\n      mload(0x40)\n      tag_18\n      swap2\n      swap1\n      tag_19\n      jump\t// in\n    tag_18:\n      mload(0x40)\n      dup1\n      swap2\n      sub\n      swap1\n      return\n        /* \"contracts/SaleContract.sol\":373:402  uint256 public listingCounter */\n    tag_4:\n      callvalue\n      dup1\n      iszero\n      tag_20\n      jumpi\n      revert(0x00, 0x00)\n    tag_20:\n      pop\n      tag_21\n      tag_22\n      jump\t// in\n    tag_21:\n      mload(0x40)\n      tag_23\n      swap2\n      swap1\n      tag_19\n      jump\t// in\n    tag_23:\n      mload(0x40)\n      dup1\n      swap2\n      sub\n      swap1\n      return\n        /* \"contracts/SaleContract.sol\":1364:2277  function buyTokens(uint256 listingId, uint256 tokenAmount) public payable {... */\n    tag_5:\n      tag_24\n      0x04\n      dup1\n      calldatasize\n      sub\n      dup2\n      add\n      swap1\n      tag_25\n      swap2\n      swap1\n      tag_26\n      jump\t// in\n    tag_25:\n      tag_27\n      jump\t// in\n    tag_24:\n      stop\n        /* \"contracts/SaleContract.sol\":2283:3521  function buyTokensWithERC20(uint256 listingId, uint256 tokenAmount, address paymentToken, uint256 paymentAmount) public {... */\n    tag_6:\n      callvalue\n      dup1\n      iszero\n      tag_28\n      jumpi\n      revert(0x00, 0x00)\n    tag_28:\n      pop\n      tag_29\n      0x04\n      dup1\n      calldatasize\n      sub\n      dup2\n      add\n      swap1\n      tag_30\n      swap2\n      swap1\n      tag_31\n      jump\t// in\n    tag_30:\n      tag_32\n      jump\t// in\n    tag_29:\n      stop\n        /* \"contracts/SaleContract.sol\":557:1358  function addListing(uint256 price, address contractAddress, uint256 tokens, uint256 duration) public {... */\n    tag_7:\n      callvalue\n      dup1\n      iszero\n      tag_33\n      jumpi\n      revert(0x00, 0x00)\n    tag_33:\n      pop\n      tag_34\n      0x04\n      dup1\n      calldatasize\n      sub\n      dup2\n      add\n      swap1\n      tag_35\n      swap2\n      swap1\n      tag_36\n      jump\t// in\n    tag_35:\n      tag_37\n      jump\t// in\n    tag_34:\n      stop\n        /* \"contracts/SaleContract.sol\":323:367  mapping (uint256 => Listing) public listings */\n    tag_8:\n      callvalue\n      dup1\n      iszero\n      tag_38\n      jumpi\n      revert(0x00, 0x00)\n    tag_38:\n      pop\n      tag_39\n      0x04\n      dup1\n      calldatasize\n      sub\n      dup2\n      add\n      swap1\n      tag_40\n      swap2\n      swap1\n      tag_41\n      jump\t// in\n    tag_40:\n      tag_42\n      jump\t// in\n    tag_39:\n      mload(0x40)\n      tag_43\n      swap6\n      swap5\n      swap4\n      swap3\n      swap2\n      swap1\n      tag_44\n      jump\t// in\n    tag_43:\n      mload(0x40)\n      dup1\n      swap2\n      sub\n      swap1\n      return\n        /* \"contracts/SaleContract.sol\":408:494  address public constant COMMISSION_WALLET = 0xFCF8d2b098B3160654bbaDa1a8769483c71C288b */\n    tag_12:\n        /* \"contracts/SaleContract.sol\":452:494  0xFCF8d2b098B3160654bbaDa1a8769483c71C288b */\n      0xfcf8d2b098b3160654bbada1a8769483c71c288b\n        /* \"contracts/SaleContract.sol\":408:494  address public constant COMMISSION_WALLET = 0xFCF8d2b098B3160654bbaDa1a8769483c71C288b */\n      dup2\n      jump\t// out\n        /* \"contracts/SaleContract.sol\":500:550  uint256 public constant COMMISSION_PERCENTAGE = 10 */\n    tag_17:\n        /* \"contracts/SaleContract.sol\":548:550  10 */\n      0x0a\n        /* \"contracts/SaleContract.sol\":500:550  uint256 public constant COMMISSION_PERCENTAGE = 10 */\n      dup2\n      jump\t// out\n        /* \"contracts/SaleContract.sol\":373:402  uint256 public listingCounter */\n    tag_22:\n      sload(0x01)\n      dup2\n      jump\t// out\n        /* \"contracts/SaleContract.sol\":1364:2277  function buyTokens(uint256 listingId, uint256 tokenAmount) public payable {... */\n    tag_27:\n        /* \"contracts/SaleContract.sol\":1448:1471  Listing storage listing */\n      0x00\n        /* \"contracts/SaleContract.sol\":1474:1482  listings */\n      0x00\n        /* \"contracts/SaleContract.sol\":1474:1493  listings[listingId] */\n      0x00\n        /* \"contracts/SaleContract.sol\":1483:1492  listingId */\n      dup5\n        /* \"contracts/SaleContract.sol\":1474:1493  listings[listingId] */\n      dup2\n      mstore\n      0x20\n      add\n      swap1\n      dup2\n      mstore\n      0x20\n      add\n      0x00\n      keccak256\n        /* \"contracts/SaleContract.sol\":1448:1493  Listing storage listing = listings[listingId] */\n      swap1\n      pop\n        /* \"contracts/SaleContract.sol\":1528:1529  0 */\n      0x00\n        /* \"contracts/SaleContract.sol\":1511:1518  listing */\n      dup2\n        /* \"contracts/SaleContract.sol\":1511:1525  listing.tokens */\n      0x02\n      add\n      sload\n        /* \"contracts/SaleContract.sol\":1511:1529  listing.tokens > 0 */\n      gt\n        /* \"contracts/SaleContract.sol\":1503:1556  require(listing.tokens > 0, \"Listing does not exist\") */\n      tag_46\n      jumpi\n      mload(0x40)\n      0x08c379a000000000000000000000000000000000000000000000000000000000\n      dup2\n      mstore\n      0x04\n      add\n      tag_47\n      swap1\n      tag_48\n      jump\t// in\n    tag_47:\n      mload(0x40)\n      dup1\n      swap2\n      sub\n      swap1\n      revert\n    tag_46:\n        /* \"contracts/SaleContract.sol\":1593:1600  listing */\n      dup1\n        /* \"contracts/SaleContract.sol\":1593:1611  listing.expiration */\n      0x04\n      add\n      sload\n        /* \"contracts/SaleContract.sol\":1574:1589  block.timestamp */\n      timestamp\n        /* \"contracts/SaleContract.sol\":1574:1611  block.timestamp <= listing.expiration */\n      gt\n      iszero\n        /* \"contracts/SaleContract.sol\":1566:1635  require(block.timestamp <= listing.expiration, \"Listing has expired\") */\n      tag_49\n      jumpi\n      mload(0x40)\n      0x08c379a000000000000000000000000000000000000000000000000000000000\n      dup2\n      mstore\n      0x04\n      add\n      tag_50\n      swap1\n      tag_51\n      jump\t// in\n    tag_50:\n      mload(0x40)\n      dup1\n      swap2\n      sub\n      swap1\n      revert\n    tag_49:\n        /* \"contracts/SaleContract.sol\":1671:1682  tokenAmount */\n      dup2\n        /* \"contracts/SaleContract.sol\":1653:1660  listing */\n      dup2\n        /* \"contracts/SaleContract.sol\":1653:1667  listing.tokens */\n      0x02\n      add\n      sload\n        /* \"contracts/SaleContract.sol\":1653:1682  listing.tokens >= tokenAmount */\n      lt\n      iszero\n        /* \"contracts/SaleContract.sol\":1645:1730  require(listing.tokens >= tokenAmount, \"Token amount is greater than tokens on sale\") */\n      tag_52\n      jumpi\n      mload(0x40)\n      0x08c379a000000000000000000000000000000000000000000000000000000000\n      dup2\n      mstore\n      0x04\n      add\n      tag_53\n      swap1\n      tag_54\n      jump\t// in\n    tag_53:\n      mload(0x40)\n      dup1\n      swap2\n      sub\n      swap1\n      revert\n    tag_52:\n        /* \"contracts/SaleContract.sol\":1749:1767  uint256 totalPrice */\n      0x00\n        /* \"contracts/SaleContract.sol\":1786:1797  tokenAmount */\n      dup3\n        /* \"contracts/SaleContract.sol\":1770:1777  listing */\n      dup3\n        /* \"contracts/SaleContract.sol\":1770:1783  listing.price */\n      0x01\n      add\n      sload\n        /* \"contracts/SaleContract.sol\":1770:1797  listing.price * tokenAmount */\n      tag_55\n      swap2\n      swap1\n      tag_56\n      jump\t// in\n    tag_55:\n        /* \"contracts/SaleContract.sol\":1749:1797  uint256 totalPrice = listing.price * tokenAmount */\n      swap1\n      pop\n        /* \"contracts/SaleContract.sol\":1828:1838  totalPrice */\n      dup1\n        /* \"contracts/SaleContract.sol\":1815:1824  msg.value */\n      callvalue\n        /* \"contracts/SaleContract.sol\":1815:1838  msg.value == totalPrice */\n      eq\n        /* \"contracts/SaleContract.sol\":1807:1863  require(msg.value == totalPrice, \"Incorrect value sent\") */\n      tag_57\n      jumpi\n      mload(0x40)\n      0x08c379a000000000000000000000000000000000000000000000000000000000\n      dup2\n      mstore\n      0x04\n      add\n      tag_58\n      swap1\n      tag_59\n      jump\t// in\n    tag_58:\n      mload(0x40)\n      dup1\n      swap2\n      sub\n      swap1\n      revert\n    tag_57:\n        /* \"contracts/SaleContract.sol\":1874:1892  uint256 commission */\n      0x00\n        /* \"contracts/SaleContract.sol\":1934:1937  100 */\n      0x64\n        /* \"contracts/SaleContract.sol\":548:550  10 */\n      0x0a\n        /* \"contracts/SaleContract.sol\":1896:1906  totalPrice */\n      dup4\n        /* \"contracts/SaleContract.sol\":1896:1930  totalPrice * COMMISSION_PERCENTAGE */\n      tag_60\n      swap2\n      swap1\n      tag_56\n      jump\t// in\n    tag_60:\n        /* \"contracts/SaleContract.sol\":1895:1937  (totalPrice * COMMISSION_PERCENTAGE) / 100 */\n      tag_61\n      swap2\n      swap1\n      tag_62\n      jump\t// in\n    tag_61:\n        /* \"contracts/SaleContract.sol\":1874:1937  uint256 commission = (totalPrice * COMMISSION_PERCENTAGE) / 100 */\n      swap1\n      pop\n        /* \"contracts/SaleContract.sol\":1947:1967  uint256 sellerAmount */\n      0x00\n        /* \"contracts/SaleContract.sol\":1983:1993  commission */\n      dup2\n        /* \"contracts/SaleContract.sol\":1970:1980  totalPrice */\n      dup4\n        /* \"contracts/SaleContract.sol\":1970:1993  totalPrice - commission */\n      tag_63\n      swap2\n      swap1\n      tag_64\n      jump\t// in\n    tag_63:\n        /* \"contracts/SaleContract.sol\":1947:1993  uint256 sellerAmount = totalPrice - commission */\n      swap1\n      pop\n        /* \"contracts/SaleContract.sol\":2038:2049  tokenAmount */\n      dup5\n        /* \"contracts/SaleContract.sol\":2021:2028  listing */\n      dup5\n        /* \"contracts/SaleContract.sol\":2021:2035  listing.tokens */\n      0x02\n      add\n      sload\n        /* \"contracts/SaleContract.sol\":2021:2049  listing.tokens - tokenAmount */\n      tag_65\n      swap2\n      swap1\n      tag_64\n      jump\t// in\n    tag_65:\n        /* \"contracts/SaleContract.sol\":2004:2011  listing */\n      dup5\n        /* \"contracts/SaleContract.sol\":2004:2018  listing.tokens */\n      0x02\n      add\n        /* \"contracts/SaleContract.sol\":2004:2049  listing.tokens = listing.tokens - tokenAmount */\n      dup2\n      swap1\n      sstore\n      pop\n        /* \"contracts/SaleContract.sol\":2073:2080  listing */\n      dup4\n        /* \"contracts/SaleContract.sol\":2073:2096  listing.contractAddress */\n      0x00\n      add\n      0x00\n      swap1\n      sload\n      swap1\n      0x0100\n      exp\n      swap1\n      div\n      0xffffffffffffffffffffffffffffffffffffffff\n      and\n        /* \"contracts/SaleContract.sol\":2067:2106  ERC20(listing.contractAddress).transfer */\n      0xffffffffffffffffffffffffffffffffffffffff\n      and\n      0xa9059cbb\n        /* \"contracts/SaleContract.sol\":2107:2117  msg.sender */\n      caller\n        /* \"contracts/SaleContract.sol\":2119:2130  tokenAmount */\n      dup8\n        /* \"contracts/SaleContract.sol\":2067:2131  ERC20(listing.contractAddress).transfer(msg.sender, tokenAmount) */\n      mload(0x40)\n      dup4\n      0xffffffff\n      and\n      0xe0\n      shl\n      dup2\n      mstore\n      0x04\n      add\n      tag_66\n      swap3\n      swap2\n      swap1\n      tag_67\n      jump\t// in\n    tag_66:\n      0x20\n      mload(0x40)\n      dup1\n      dup4\n      sub\n      dup2\n      0x00\n      dup8\n      gas\n      call\n      iszero\n      dup1\n      iszero\n      tag_69\n      jumpi\n      returndatacopy(0x00, 0x00, returndatasize)\n      revert(0x00, returndatasize)\n    tag_69:\n      pop\n      pop\n      pop\n      pop\n      mload(0x40)\n      returndatasize\n      not(0x1f)\n      0x1f\n      dup3\n      add\n      and\n      dup3\n      add\n      dup1\n      0x40\n      mstore\n      pop\n      dup2\n      add\n      swap1\n      tag_70\n      swap2\n      swap1\n      tag_71\n      jump\t// in\n    tag_70:\n        /* \"contracts/SaleContract.sol\":2059:2157  require(ERC20(listing.contractAddress).transfer(msg.sender, tokenAmount), \"Token transfer failed\") */\n      tag_72\n      jumpi\n      mload(0x40)\n      0x08c379a000000000000000000000000000000000000000000000000000000000\n      dup2\n      mstore\n      0x04\n      add\n      tag_73\n      swap1\n      tag_74\n      jump\t// in\n    tag_73:\n      mload(0x40)\n      dup1\n      swap2\n      sub\n      swap1\n      revert\n    tag_72:\n        /* \"contracts/SaleContract.sol\":452:494  0xFCF8d2b098B3160654bbaDa1a8769483c71C288b */\n      0xfcf8d2b098b3160654bbada1a8769483c71c288b\n        /* \"contracts/SaleContract.sol\":2167:2202  payable(COMMISSION_WALLET).transfer */\n      0xffffffffffffffffffffffffffffffffffffffff\n      and\n        /* \"contracts/SaleContract.sol\":2167:2214  payable(COMMISSION_WALLET).transfer(commission) */\n      0x08fc\n        /* \"contracts/SaleContract.sol\":2203:2213  commission */\n      dup4\n        /* \"contracts/SaleContract.sol\":2167:2214  payable(COMMISSION_WALLET).transfer(commission) */\n      swap1\n      dup2\n      iszero\n      mul\n      swap1\n      mload(0x40)\n      0x00\n      mload(0x40)\n      dup1\n      dup4\n      sub\n      dup2\n      dup6\n      dup9\n      dup9\n      call\n      swap4\n      pop\n      pop\n      pop\n      pop\n      iszero\n      dup1\n      iszero\n      tag_76\n      jumpi\n      returndatacopy(0x00, 0x00, returndatasize)\n      revert(0x00, returndatasize)\n    tag_76:\n      pop\n        /* \"contracts/SaleContract.sol\":2232:2239  listing */\n      dup4\n        /* \"contracts/SaleContract.sol\":2232:2246  listing.seller */\n      0x03\n      add\n      0x00\n      swap1\n      sload\n      swap1\n      0x0100\n      exp\n      swap1\n      div\n      0xffffffffffffffffffffffffffffffffffffffff\n      and\n        /* \"contracts/SaleContract.sol\":2224:2256  payable(listing.seller).transfer */\n      0xffffffffffffffffffffffffffffffffffffffff\n      and\n        /* \"contracts/SaleContract.sol\":2224:2270  payable(listing.seller).transfer(sellerAmount) */\n      0x08fc\n        /* \"contracts/SaleContract.sol\":2257:2269  sellerAmount */\n      dup3\n        /* \"contracts/SaleContract.sol\":2224:2270  payable(listing.seller).transfer(sellerAmount) */\n      swap1\n      dup2\n      iszero\n      mul\n      swap1\n      mload(0x40)\n      0x00\n      mload(0x40)\n      dup1\n      dup4\n      sub\n      dup2\n      dup6\n      dup9\n      dup9\n      call\n      swap4\n      pop\n      pop\n      pop\n      pop\n      iszero\n      dup1\n      iszero\n      tag_78\n      jumpi\n      returndatacopy(0x00, 0x00, returndatasize)\n      revert(0x00, returndatasize)\n    tag_78:\n      pop\n        /* \"contracts/SaleContract.sol\":1438:2277  {... */\n      pop\n      pop\n      pop\n      pop\n        /* \"contracts/SaleContract.sol\":1364:2277  function buyTokens(uint256 listingId, uint256 tokenAmount) public payable {... */\n      pop\n      pop\n      jump\t// out\n        /* \"contracts/SaleContract.sol\":2283:3521  function buyTokensWithERC20(uint256 listingId, uint256 tokenAmount, address paymentToken, uint256 paymentAmount) public {... */\n    tag_32:\n        /* \"contracts/SaleContract.sol\":2413:2436  Listing storage listing */\n      0x00\n        /* \"contracts/SaleContract.sol\":2439:2447  listings */\n      0x00\n        /* \"contracts/SaleContract.sol\":2439:2458  listings[listingId] */\n      0x00\n        /* \"contracts/SaleContract.sol\":2448:2457  listingId */\n      dup7\n        /* \"contracts/SaleContract.sol\":2439:2458  listings[listingId] */\n      dup2\n      mstore\n      0x20\n      add\n      swap1\n      dup2\n      mstore\n      0x20\n      add\n      0x00\n      keccak256\n        /* \"contracts/SaleContract.sol\":2413:2458  Listing storage listing = listings[listingId] */\n      swap1\n      pop\n        /* \"contracts/SaleContract.sol\":2493:2494  0 */\n      0x00\n        /* \"contracts/SaleContract.sol\":2476:2483  listing */\n      dup2\n        /* \"contracts/SaleContract.sol\":2476:2490  listing.tokens */\n      0x02\n      add\n      sload\n        /* \"contracts/SaleContract.sol\":2476:2494  listing.tokens > 0 */\n      gt\n        /* \"contracts/SaleContract.sol\":2468:2521  require(listing.tokens > 0, \"Listing does not exist\") */\n      tag_80\n      jumpi\n      mload(0x40)\n      0x08c379a000000000000000000000000000000000000000000000000000000000\n      dup2\n      mstore\n      0x04\n      add\n      tag_81\n      swap1\n      tag_48\n      jump\t// in\n    tag_81:\n      mload(0x40)\n      dup1\n      swap2\n      sub\n      swap1\n      revert\n    tag_80:\n        /* \"contracts/SaleContract.sol\":2558:2565  listing */\n      dup1\n        /* \"contracts/SaleContract.sol\":2558:2576  listing.expiration */\n      0x04\n      add\n      sload\n        /* \"contracts/SaleContract.sol\":2539:2554  block.timestamp */\n      timestamp\n        /* \"contracts/SaleContract.sol\":2539:2576  block.timestamp <= listing.expiration */\n      gt\n      iszero\n        /* \"contracts/SaleContract.sol\":2531:2600  require(block.timestamp <= listing.expiration, \"Listing has expired\") */\n      tag_82\n      jumpi\n      mload(0x40)\n      0x08c379a000000000000000000000000000000000000000000000000000000000\n      dup2\n      mstore\n      0x04\n      add\n      tag_83\n      swap1\n      tag_51\n      jump\t// in\n    tag_83:\n      mload(0x40)\n      dup1\n      swap2\n      sub\n      swap1\n      revert\n    tag_82:\n        /* \"contracts/SaleContract.sol\":2636:2647  tokenAmount */\n      dup4\n        /* \"contracts/SaleContract.sol\":2618:2625  listing */\n      dup2\n        /* \"contracts/SaleContract.sol\":2618:2632  listing.tokens */\n      0x02\n      add\n      sload\n        /* \"contracts/SaleContract.sol\":2618:2647  listing.tokens >= tokenAmount */\n      lt\n      iszero\n        /* \"contracts/SaleContract.sol\":2610:2695  require(listing.tokens >= tokenAmount, \"Token amount is greater than tokens on sale\") */\n      tag_84\n      jumpi\n      mload(0x40)\n      0x08c379a000000000000000000000000000000000000000000000000000000000\n      dup2\n      mstore\n      0x04\n      add\n      tag_85\n      swap1\n      tag_54\n      jump\t// in\n    tag_85:\n      mload(0x40)\n      dup1\n      swap2\n      sub\n      swap1\n      revert\n    tag_84:\n        /* \"contracts/SaleContract.sol\":2714:2732  uint256 totalPrice */\n      0x00\n        /* \"contracts/SaleContract.sol\":2751:2762  tokenAmount */\n      dup5\n        /* \"contracts/SaleContract.sol\":2735:2742  listing */\n      dup3\n        /* \"contracts/SaleContract.sol\":2735:2748  listing.price */\n      0x01\n      add\n      sload\n        /* \"contracts/SaleContract.sol\":2735:2762  listing.price * tokenAmount */\n      tag_86\n      swap2\n      swap1\n      tag_56\n      jump\t// in\n    tag_86:\n        /* \"contracts/SaleContract.sol\":2714:2762  uint256 totalPrice = listing.price * tokenAmount */\n      swap1\n      pop\n        /* \"contracts/SaleContract.sol\":2797:2807  totalPrice */\n      dup1\n        /* \"contracts/SaleContract.sol\":2780:2793  paymentAmount */\n      dup4\n        /* \"contracts/SaleContract.sol\":2780:2807  paymentAmount == totalPrice */\n      eq\n        /* \"contracts/SaleContract.sol\":2772:2836  require(paymentAmount == totalPrice, \"Incorrect payment amount\") */\n      tag_87\n      jumpi\n      mload(0x40)\n      0x08c379a000000000000000000000000000000000000000000000000000000000\n      dup2\n      mstore\n      0x04\n      add\n      tag_88\n      swap1\n      tag_89\n      jump\t// in\n    tag_88:\n      mload(0x40)\n      dup1\n      swap2\n      sub\n      swap1\n      revert\n    tag_87:\n        /* \"contracts/SaleContract.sol\":2847:2865  uint256 commission */\n      0x00\n        /* \"contracts/SaleContract.sol\":2910:2913  100 */\n      0x64\n        /* \"contracts/SaleContract.sol\":548:550  10 */\n      0x0a\n        /* \"contracts/SaleContract.sol\":2869:2882  paymentAmount */\n      dup6\n        /* \"contracts/SaleContract.sol\":2869:2906  paymentAmount * COMMISSION_PERCENTAGE */\n      tag_90\n      swap2\n      swap1\n      tag_56\n      jump\t// in\n    tag_90:\n        /* \"contracts/SaleContract.sol\":2868:2913  (paymentAmount * COMMISSION_PERCENTAGE) / 100 */\n      tag_91\n      swap2\n      swap1\n      tag_62\n      jump\t// in\n    tag_91:\n        /* \"contracts/SaleContract.sol\":2847:2913  uint256 commission = (paymentAmount * COMMISSION_PERCENTAGE) / 100 */\n      swap1\n      pop\n        /* \"contracts/SaleContract.sol\":2923:2943  uint256 sellerAmount */\n      0x00\n        /* \"contracts/SaleContract.sol\":2962:2972  commission */\n      dup2\n        /* \"contracts/SaleContract.sol\":2946:2959  paymentAmount */\n      dup6\n        /* \"contracts/SaleContract.sol\":2946:2972  paymentAmount - commission */\n      tag_92\n      swap2\n      swap1\n      tag_64\n      jump\t// in\n    tag_92:\n        /* \"contracts/SaleContract.sol\":2923:2972  uint256 sellerAmount = paymentAmount - commission */\n      swap1\n      pop\n        /* \"contracts/SaleContract.sol\":3051:3064  paymentAmount */\n      dup5\n        /* \"contracts/SaleContract.sol\":2997:3009  paymentToken */\n      dup7\n        /* \"contracts/SaleContract.sol\":2991:3020  ERC20(paymentToken).allowance */\n      0xffffffffffffffffffffffffffffffffffffffff\n      and\n      0xdd62ed3e\n        /* \"contracts/SaleContract.sol\":3021:3031  msg.sender */\n      caller\n        /* \"contracts/SaleContract.sol\":3041:3045  this */\n      address\n        /* \"contracts/SaleContract.sol\":2991:3047  ERC20(paymentToken).allowance(msg.sender, address(this)) */\n      mload(0x40)\n      dup4\n      0xffffffff\n      and\n      0xe0\n      shl\n      dup2\n      mstore\n      0x04\n      add\n      tag_93\n      swap3\n      swap2\n      swap1\n      tag_94\n      jump\t// in\n    tag_93:\n      0x20\n      mload(0x40)\n      dup1\n      dup4\n      sub\n      dup2\n      dup7\n      gas\n      staticcall\n      iszero\n      dup1\n      iszero\n      tag_96\n      jumpi\n      returndatacopy(0x00, 0x00, returndatasize)\n      revert(0x00, returndatasize)\n    tag_96:\n      pop\n      pop\n      pop\n      pop\n      mload(0x40)\n      returndatasize\n      not(0x1f)\n      0x1f\n      dup3\n      add\n      and\n      dup3\n      add\n      dup1\n      0x40\n      mstore\n      pop\n      dup2\n      add\n      swap1\n      tag_97\n      swap2\n      swap1\n      tag_98\n      jump\t// in\n    tag_97:\n        /* \"contracts/SaleContract.sol\":2991:3064  ERC20(paymentToken).allowance(msg.sender, address(this)) >= paymentAmount */\n      lt\n      iszero\n        /* \"contracts/SaleContract.sol\":2983:3100  require(ERC20(paymentToken).allowance(msg.sender, address(this)) >= paymentAmount, \"Payment token allowance too low\") */\n      tag_99\n      jumpi\n      mload(0x40)\n      0x08c379a000000000000000000000000000000000000000000000000000000000\n      dup2\n      mstore\n      0x04\n      add\n      tag_100\n      swap1\n      tag_101\n      jump\t// in\n    tag_100:\n      mload(0x40)\n      dup1\n      swap2\n      sub\n      swap1\n      revert\n    tag_99:\n        /* \"contracts/SaleContract.sol\":3124:3136  paymentToken */\n      dup6\n        /* \"contracts/SaleContract.sol\":3118:3150  ERC20(paymentToken).transferFrom */\n      0xffffffffffffffffffffffffffffffffffffffff\n      and\n      0x23b872dd\n        /* \"contracts/SaleContract.sol\":3151:3161  msg.sender */\n      caller\n        /* \"contracts/SaleContract.sol\":452:494  0xFCF8d2b098B3160654bbaDa1a8769483c71C288b */\n      0xfcf8d2b098b3160654bbada1a8769483c71c288b\n        /* \"contracts/SaleContract.sol\":3182:3192  commission */\n      dup6\n        /* \"contracts/SaleContract.sol\":3118:3193  ERC20(paymentToken).transferFrom(msg.sender, COMMISSION_WALLET, commission) */\n      mload(0x40)\n      dup5\n      0xffffffff\n      and\n      0xe0\n      shl\n      dup2\n      mstore\n      0x04\n      add\n      tag_102\n      swap4\n      swap3\n      swap2\n      swap1\n      tag_103\n      jump\t// in\n    tag_102:\n      0x20\n      mload(0x40)\n      dup1\n      dup4\n      sub\n      dup2\n      0x00\n      dup8\n      gas\n      call\n      iszero\n      dup1\n      iszero\n      tag_105\n      jumpi\n      returndatacopy(0x00, 0x00, returndatasize)\n      revert(0x00, returndatasize)\n    tag_105:\n      pop\n      pop\n      pop\n      pop\n      mload(0x40)\n      returndatasize\n      not(0x1f)\n      0x1f\n      dup3\n      add\n      and\n      dup3\n      add\n      dup1\n      0x40\n      mstore\n      pop\n      dup2\n      add\n      swap1\n      tag_106\n      swap2\n      swap1\n      tag_71\n      jump\t// in\n    tag_106:\n        /* \"contracts/SaleContract.sol\":3110:3224  require(ERC20(paymentToken).transferFrom(msg.sender, COMMISSION_WALLET, commission), \"Commission transfer failed\") */\n      tag_107\n      jumpi\n      mload(0x40)\n      0x08c379a000000000000000000000000000000000000000000000000000000000\n      dup2\n      mstore\n      0x04\n      add\n      tag_108\n      swap1\n      tag_109\n      jump\t// in\n    tag_108:\n      mload(0x40)\n      dup1\n      swap2\n      sub\n      swap1\n      revert\n    tag_107:\n        /* \"contracts/SaleContract.sol\":3248:3260  paymentToken */\n      dup6\n        /* \"contracts/SaleContract.sol\":3242:3274  ERC20(paymentToken).transferFrom */\n      0xffffffffffffffffffffffffffffffffffffffff\n      and\n      0x23b872dd\n        /* \"contracts/SaleContract.sol\":3275:3285  msg.sender */\n      caller\n        /* \"contracts/SaleContract.sol\":3287:3294  listing */\n      dup7\n        /* \"contracts/SaleContract.sol\":3287:3301  listing.seller */\n      0x03\n      add\n      0x00\n      swap1\n      sload\n      swap1\n      0x0100\n      exp\n      swap1\n      div\n      0xffffffffffffffffffffffffffffffffffffffff\n      and\n        /* \"contracts/SaleContract.sol\":3303:3315  sellerAmount */\n      dup5\n        /* \"contracts/SaleContract.sol\":3242:3316  ERC20(paymentToken).transferFrom(msg.sender, listing.seller, sellerAmount) */\n      mload(0x40)\n      dup5\n      0xffffffff\n      and\n      0xe0\n      shl\n      dup2\n      mstore\n      0x04\n      add\n      tag_110\n      swap4\n      swap3\n      swap2\n      swap1\n      tag_103\n      jump\t// in\n    tag_110:\n      0x20\n      mload(0x40)\n      dup1\n      dup4\n      sub\n      dup2\n      0x00\n      dup8\n      gas\n      call\n      iszero\n      dup1\n      iszero\n      tag_112\n      jumpi\n      returndatacopy(0x00, 0x00, returndatasize)\n      revert(0x00, returndatasize)\n    tag_112:\n      pop\n      pop\n      pop\n      pop\n      mload(0x40)\n      returndatasize\n      not(0x1f)\n      0x1f\n      dup3\n      add\n      and\n      dup3\n      add\n      dup1\n      0x40\n      mstore\n      pop\n      dup2\n      add\n      swap1\n      tag_113\n      swap2\n      swap1\n      tag_71\n      jump\t// in\n    tag_113:\n        /* \"contracts/SaleContract.sol\":3234:3350  require(ERC20(paymentToken).transferFrom(msg.sender, listing.seller, sellerAmount), \"Payment token transfer failed\") */\n      tag_114\n      jumpi\n      mload(0x40)\n      0x08c379a000000000000000000000000000000000000000000000000000000000\n      dup2\n      mstore\n      0x04\n      add\n      tag_115\n      swap1\n      tag_116\n      jump\t// in\n    tag_115:\n      mload(0x40)\n      dup1\n      swap2\n      sub\n      swap1\n      revert\n    tag_114:\n        /* \"contracts/SaleContract.sol\":3395:3406  tokenAmount */\n      dup7\n        /* \"contracts/SaleContract.sol\":3378:3385  listing */\n      dup5\n        /* \"contracts/SaleContract.sol\":3378:3392  listing.tokens */\n      0x02\n      add\n      sload\n        /* \"contracts/SaleContract.sol\":3378:3406  listing.tokens - tokenAmount */\n      tag_117\n      swap2\n      swap1\n      tag_64\n      jump\t// in\n    tag_117:\n        /* \"contracts/SaleContract.sol\":3361:3368  listing */\n      dup5\n        /* \"contracts/SaleContract.sol\":3361:3375  listing.tokens */\n      0x02\n      add\n        /* \"contracts/SaleContract.sol\":3361:3406  listing.tokens = listing.tokens - tokenAmount */\n      dup2\n      swap1\n      sstore\n      pop\n        /* \"contracts/SaleContract.sol\":3430:3437  listing */\n      dup4\n        /* \"contracts/SaleContract.sol\":3430:3453  listing.contractAddress */\n      0x00\n      add\n      0x00\n      swap1\n      sload\n      swap1\n      0x0100\n      exp\n      swap1\n      div\n      0xffffffffffffffffffffffffffffffffffffffff\n      and\n        /* \"contracts/SaleContract.sol\":3424:3463  ERC20(listing.contractAddress).transfer */\n      0xffffffffffffffffffffffffffffffffffffffff\n      and\n      0xa9059cbb\n        /* \"contracts/SaleContract.sol\":3464:3474  msg.sender */\n      caller\n        /* \"contracts/SaleContract.sol\":3476:3487  tokenAmount */\n      dup10\n        /* \"contracts/SaleContract.sol\":3424:3488  ERC20(listing.contractAddress).transfer(msg.sender, tokenAmount) */\n      mload(0x40)\n      dup4\n      0xffffffff\n      and\n      0xe0\n      shl\n      dup2\n      mstore\n      0x04\n      add\n      tag_118\n      swap3\n      swap2\n      swap1\n      tag_67\n      jump\t// in\n    tag_118:\n      0x20\n      mload(0x40)\n      dup1\n      dup4\n      sub\n      dup2\n      0x00\n      dup8\n      gas\n      call\n      iszero\n      dup1\n      iszero\n      tag_120\n      jumpi\n      returndatacopy(0x00, 0x00, returndatasize)\n      revert(0x00, returndatasize)\n    tag_120:\n      pop\n      pop\n      pop\n      pop\n      mload(0x40)\n      returndatasize\n      not(0x1f)\n      0x1f\n      dup3\n      add\n      and\n      dup3\n      add\n      dup1\n      0x40\n      mstore\n      pop\n      dup2\n      add\n      swap1\n      tag_121\n      swap2\n      swap1\n      tag_71\n      jump\t// in\n    tag_121:\n        /* \"contracts/SaleContract.sol\":3416:3514  require(ERC20(listing.contractAddress).transfer(msg.sender, tokenAmount), \"Token transfer failed\") */\n      tag_122\n      jumpi\n      mload(0x40)\n      0x08c379a000000000000000000000000000000000000000000000000000000000\n      dup2\n      mstore\n      0x04\n      add\n      tag_123\n      swap1\n      tag_74\n      jump\t// in\n    tag_123:\n      mload(0x40)\n      dup1\n      swap2\n      sub\n      swap1\n      revert\n    tag_122:\n        /* \"contracts/SaleContract.sol\":2403:3521  {... */\n      pop\n      pop\n      pop\n      pop\n        /* \"contracts/SaleContract.sol\":2283:3521  function buyTokensWithERC20(uint256 listingId, uint256 tokenAmount, address paymentToken, uint256 paymentAmount) public {... */\n      pop\n      pop\n      pop\n      pop\n      jump\t// out\n        /* \"contracts/SaleContract.sol\":557:1358  function addListing(uint256 price, address contractAddress, uint256 tokens, uint256 duration) public {... */\n    tag_37:\n        /* \"contracts/SaleContract.sol\":684:685  0 */\n      0x00\n        /* \"contracts/SaleContract.sol\":676:681  price */\n      dup5\n        /* \"contracts/SaleContract.sol\":676:685  price > 0 */\n      gt\n        /* \"contracts/SaleContract.sol\":668:721  require(price > 0, \"Price must be greater than zero\") */\n      tag_125\n      jumpi\n      mload(0x40)\n      0x08c379a000000000000000000000000000000000000000000000000000000000\n      dup2\n      mstore\n      0x04\n      add\n      tag_126\n      swap1\n      tag_127\n      jump\t// in\n    tag_126:\n      mload(0x40)\n      dup1\n      swap2\n      sub\n      swap1\n      revert\n    tag_125:\n        /* \"contracts/SaleContract.sol\":748:749  0 */\n      0x00\n        /* \"contracts/SaleContract.sol\":739:745  tokens */\n      dup3\n        /* \"contracts/SaleContract.sol\":739:749  tokens > 0 */\n      gt\n        /* \"contracts/SaleContract.sol\":731:786  require(tokens > 0, \"Tokens must be greater than zero\") */\n      tag_128\n      jumpi\n      mload(0x40)\n      0x08c379a000000000000000000000000000000000000000000000000000000000\n      dup2\n      mstore\n      0x04\n      add\n      tag_129\n      swap1\n      tag_130\n      jump\t// in\n    tag_129:\n      mload(0x40)\n      dup1\n      swap2\n      sub\n      swap1\n      revert\n    tag_128:\n        /* \"contracts/SaleContract.sol\":815:816  0 */\n      0x00\n        /* \"contracts/SaleContract.sol\":804:812  duration */\n      dup2\n        /* \"contracts/SaleContract.sol\":804:816  duration > 0 */\n      gt\n        /* \"contracts/SaleContract.sol\":796:855  require(duration > 0, \"Duration must be greater than zero\") */\n      tag_131\n      jumpi\n      mload(0x40)\n      0x08c379a000000000000000000000000000000000000000000000000000000000\n      dup2\n      mstore\n      0x04\n      add\n      tag_132\n      swap1\n      tag_133\n      jump\t// in\n    tag_132:\n      mload(0x40)\n      dup1\n      swap2\n      sub\n      swap1\n      revert\n    tag_131:\n        /* \"contracts/SaleContract.sol\":936:942  tokens */\n      dup2\n        /* \"contracts/SaleContract.sol\":879:894  contractAddress */\n      dup4\n        /* \"contracts/SaleContract.sol\":873:905  ERC20(contractAddress).allowance */\n      0xffffffffffffffffffffffffffffffffffffffff\n      and\n      0xdd62ed3e\n        /* \"contracts/SaleContract.sol\":906:916  msg.sender */\n      caller\n        /* \"contracts/SaleContract.sol\":926:930  this */\n      address\n        /* \"contracts/SaleContract.sol\":873:932  ERC20(contractAddress).allowance(msg.sender, address(this)) */\n      mload(0x40)\n      dup4\n      0xffffffff\n      and\n      0xe0\n      shl\n      dup2\n      mstore\n      0x04\n      add\n      tag_134\n      swap3\n      swap2\n      swap1\n      tag_94\n      jump\t// in\n    tag_134:\n      0x20\n      mload(0x40)\n      dup1\n      dup4\n      sub\n      dup2\n      dup7\n      gas\n      staticcall\n      iszero\n      dup1\n      iszero\n      tag_136\n      jumpi\n      returndatacopy(0x00, 0x00, returndatasize)\n      revert(0x00, returndatasize)\n    tag_136:\n      pop\n      pop\n      pop\n      pop\n      mload(0x40)\n      returndatasize\n      not(0x1f)\n      0x1f\n      dup3\n      add\n      and\n      dup3\n      add\n      dup1\n      0x40\n      mstore\n      pop\n      dup2\n      add\n      swap1\n      tag_137\n      swap2\n      swap1\n      tag_98\n      jump\t// in\n    tag_137:\n        /* \"contracts/SaleContract.sol\":873:942  ERC20(contractAddress).allowance(msg.sender, address(this)) >= tokens */\n      lt\n      iszero\n        /* \"contracts/SaleContract.sol\":865:970  require(ERC20(contractAddress).allowance(msg.sender, address(this)) >= tokens, \"Token allowance too low\") */\n      tag_138\n      jumpi\n      mload(0x40)\n      0x08c379a000000000000000000000000000000000000000000000000000000000\n      dup2\n      mstore\n      0x04\n      add\n      tag_139\n      swap1\n      tag_140\n      jump\t// in\n    tag_139:\n      mload(0x40)\n      dup1\n      swap2\n      sub\n      swap1\n      revert\n    tag_138:\n        /* \"contracts/SaleContract.sol\":994:1009  contractAddress */\n      dup3\n        /* \"contracts/SaleContract.sol\":988:1023  ERC20(contractAddress).transferFrom */\n      0xffffffffffffffffffffffffffffffffffffffff\n      and\n      0x23b872dd\n        /* \"contracts/SaleContract.sol\":1024:1034  msg.sender */\n      caller\n        /* \"contracts/SaleContract.sol\":1044:1048  this */\n      address\n        /* \"contracts/SaleContract.sol\":1051:1057  tokens */\n      dup6\n        /* \"contracts/SaleContract.sol\":988:1058  ERC20(contractAddress).transferFrom(msg.sender, address(this), tokens) */\n      mload(0x40)\n      dup5\n      0xffffffff\n      and\n      0xe0\n      shl\n      dup2\n      mstore\n      0x04\n      add\n      tag_141\n      swap4\n      swap3\n      swap2\n      swap1\n      tag_103\n      jump\t// in\n    tag_141:\n      0x20\n      mload(0x40)\n      dup1\n      dup4\n      sub\n      dup2\n      0x00\n      dup8\n      gas\n      call\n      iszero\n      dup1\n      iszero\n      tag_143\n      jumpi\n      returndatacopy(0x00, 0x00, returndatasize)\n      revert(0x00, returndatasize)\n    tag_143:\n      pop\n      pop\n      pop\n      pop\n      mload(0x40)\n      returndatasize\n      not(0x1f)\n      0x1f\n      dup3\n      add\n      and\n      dup3\n      add\n      dup1\n      0x40\n      mstore\n      pop\n      dup2\n      add\n      swap1\n      tag_144\n      swap2\n      swap1\n      tag_71\n      jump\t// in\n    tag_144:\n        /* \"contracts/SaleContract.sol\":980:1084  require(ERC20(contractAddress).transferFrom(msg.sender, address(this), tokens), \"Token transfer failed\") */\n      tag_145\n      jumpi\n      mload(0x40)\n      0x08c379a000000000000000000000000000000000000000000000000000000000\n      dup2\n      mstore\n      0x04\n      add\n      tag_146\n      swap1\n      tag_74\n      jump\t// in\n    tag_146:\n      mload(0x40)\n      dup1\n      swap2\n      sub\n      swap1\n      revert\n    tag_145:\n        /* \"contracts/SaleContract.sol\":1095:1109  listingCounter */\n      0x01\n      0x00\n        /* \"contracts/SaleContract.sol\":1095:1111  listingCounter++ */\n      dup2\n      sload\n      dup1\n      swap3\n      swap2\n      swap1\n      tag_147\n      swap1\n      tag_148\n      jump\t// in\n    tag_147:\n      swap2\n      swap1\n      pop\n      sstore\n      pop\n        /* \"contracts/SaleContract.sol\":1148:1351  Listing({... */\n      mload(0x40)\n      dup1\n      0xa0\n      add\n      0x40\n      mstore\n      dup1\n        /* \"contracts/SaleContract.sol\":1187:1202  contractAddress */\n      dup5\n        /* \"contracts/SaleContract.sol\":1148:1351  Listing({... */\n      0xffffffffffffffffffffffffffffffffffffffff\n      and\n      dup2\n      mstore\n      0x20\n      add\n        /* \"contracts/SaleContract.sol\":1223:1228  price */\n      dup6\n        /* \"contracts/SaleContract.sol\":1148:1351  Listing({... */\n      dup2\n      mstore\n      0x20\n      add\n        /* \"contracts/SaleContract.sol\":1250:1256  tokens */\n      dup4\n        /* \"contracts/SaleContract.sol\":1148:1351  Listing({... */\n      dup2\n      mstore\n      0x20\n      add\n        /* \"contracts/SaleContract.sol\":1278:1288  msg.sender */\n      caller\n        /* \"contracts/SaleContract.sol\":1148:1351  Listing({... */\n      0xffffffffffffffffffffffffffffffffffffffff\n      and\n      dup2\n      mstore\n      0x20\n      add\n        /* \"contracts/SaleContract.sol\":1332:1340  duration */\n      dup3\n        /* \"contracts/SaleContract.sol\":1314:1329  block.timestamp */\n      timestamp\n        /* \"contracts/SaleContract.sol\":1314:1340  block.timestamp + duration */\n      tag_149\n      swap2\n      swap1\n      tag_150\n      jump\t// in\n    tag_149:\n        /* \"contracts/SaleContract.sol\":1148:1351  Listing({... */\n      dup2\n      mstore\n      pop\n        /* \"contracts/SaleContract.sol\":1121:1129  listings */\n      0x00\n        /* \"contracts/SaleContract.sol\":1121:1145  listings[listingCounter] */\n      0x00\n        /* \"contracts/SaleContract.sol\":1130:1144  listingCounter */\n      sload(0x01)\n        /* \"contracts/SaleContract.sol\":1121:1145  listings[listingCounter] */\n      dup2\n      mstore\n      0x20\n      add\n      swap1\n      dup2\n      mstore\n      0x20\n      add\n      0x00\n      keccak256\n        /* \"contracts/SaleContract.sol\":1121:1351  listings[listingCounter] = Listing({... */\n      0x00\n      dup3\n      add\n      mload\n      dup2\n      0x00\n      add\n      exp(0x0100, 0x00)\n      dup2\n      sload\n      dup2\n      0xffffffffffffffffffffffffffffffffffffffff\n      mul\n      not\n      and\n      swap1\n      dup4\n      0xffffffffffffffffffffffffffffffffffffffff\n      and\n      mul\n      or\n      swap1\n      sstore\n      pop\n      0x20\n      dup3\n      add\n      mload\n      dup2\n      0x01\n      add\n      sstore\n      0x40\n      dup3\n      add\n      mload\n      dup2\n      0x02\n      add\n      sstore\n      0x60\n      dup3\n      add\n      mload\n      dup2\n      0x03\n      add\n      exp(0x0100, 0x00)\n      dup2\n      sload\n      dup2\n      0xffffffffffffffffffffffffffffffffffffffff\n      mul\n      not\n      and\n      swap1\n      dup4\n      0xffffffffffffffffffffffffffffffffffffffff\n      and\n      mul\n      or\n      swap1\n      sstore\n      pop\n      0x80\n      dup3\n      add\n      mload\n      dup2\n      0x04\n      add\n      sstore\n      swap1\n      pop\n      pop\n        /* \"contracts/SaleContract.sol\":557:1358  function addListing(uint256 price, address contractAddress, uint256 tokens, uint256 duration) public {... */\n      pop\n      pop\n      pop\n      pop\n      jump\t// out\n        /* \"contracts/SaleContract.sol\":323:367  mapping (uint256 => Listing) public listings */\n    tag_42:\n      mstore(0x20, 0x00)\n      dup1\n      0x00\n      mstore\n      keccak256(0x00, 0x40)\n      0x00\n      swap2\n      pop\n      swap1\n      pop\n      dup1\n      0x00\n      add\n      0x00\n      swap1\n      sload\n      swap1\n      0x0100\n      exp\n      swap1\n      div\n      0xffffffffffffffffffffffffffffffffffffffff\n      and\n      swap1\n      dup1\n      0x01\n      add\n      sload\n      swap1\n      dup1\n      0x02\n      add\n      sload\n      swap1\n      dup1\n      0x03\n      add\n      0x00\n      swap1\n      sload\n      swap1\n      0x0100\n      exp\n      swap1\n      div\n      0xffffffffffffffffffffffffffffffffffffffff\n      and\n      swap1\n      dup1\n      0x04\n      add\n      sload\n      swap1\n      pop\n      dup6\n      jump\t// out\n        /* \"#utility.yul\":7:133   */\n    tag_151:\n        /* \"#utility.yul\":44:51   */\n      0x00\n        /* \"#utility.yul\":84:126   */\n      0xffffffffffffffffffffffffffffffffffffffff\n        /* \"#utility.yul\":77:82   */\n      dup3\n        /* \"#utility.yul\":73:127   */\n      and\n        /* \"#utility.yul\":62:127   */\n      swap1\n      pop\n        /* \"#utility.yul\":7:133   */\n      swap2\n      swap1\n      pop\n      jump\t// out\n        /* \"#utility.yul\":139:235   */\n    tag_152:\n        /* \"#utility.yul\":176:183   */\n      0x00\n        /* \"#utility.yul\":205:229   */\n      tag_199\n        /* \"#utility.yul\":223:228   */\n      dup3\n        /* \"#utility.yul\":205:229   */\n      tag_151\n      jump\t// in\n    tag_199:\n        /* \"#utility.yul\":194:229   */\n      swap1\n      pop\n        /* \"#utility.yul\":139:235   */\n      swap2\n      swap1\n      pop\n      jump\t// out\n        /* \"#utility.yul\":241:359   */\n    tag_153:\n        /* \"#utility.yul\":328:352   */\n      tag_201\n        /* \"#utility.yul\":346:351   */\n      dup2\n        /* \"#utility.yul\":328:352   */\n      tag_152\n      jump\t// in\n    tag_201:\n        /* \"#utility.yul\":323:326   */\n      dup3\n        /* \"#utility.yul\":316:353   */\n      mstore\n        /* \"#utility.yul\":241:359   */\n      pop\n      pop\n      jump\t// out\n        /* \"#utility.yul\":365:587   */\n    tag_14:\n        /* \"#utility.yul\":458:462   */\n      0x00\n        /* \"#utility.yul\":496:498   */\n      0x20\n        /* \"#utility.yul\":485:494   */\n      dup3\n        /* \"#utility.yul\":481:499   */\n      add\n        /* \"#utility.yul\":473:499   */\n      swap1\n      pop\n        /* \"#utility.yul\":509:580   */\n      tag_203\n        /* \"#utility.yul\":577:578   */\n      0x00\n        /* \"#utility.yul\":566:575   */\n      dup4\n        /* \"#utility.yul\":562:579   */\n      add\n        /* \"#utility.yul\":553:559   */\n      dup5\n        /* \"#utility.yul\":509:580   */\n      tag_153\n      jump\t// in\n    tag_203:\n        /* \"#utility.yul\":365:587   */\n      swap3\n      swap2\n      pop\n      pop\n      jump\t// out\n        /* \"#utility.yul\":593:670   */\n    tag_154:\n        /* \"#utility.yul\":630:637   */\n      0x00\n        /* \"#utility.yul\":659:664   */\n      dup2\n        /* \"#utility.yul\":648:664   */\n      swap1\n      pop\n        /* \"#utility.yul\":593:670   */\n      swap2\n      swap1\n      pop\n      jump\t// out\n        /* \"#utility.yul\":676:794   */\n    tag_155:\n        /* \"#utility.yul\":763:787   */\n      tag_206\n        /* \"#utility.yul\":781:786   */\n      dup2\n        /* \"#utility.yul\":763:787   */\n      tag_154\n      jump\t// in\n    tag_206:\n        /* \"#utility.yul\":758:761   */\n      dup3\n        /* \"#utility.yul\":751:788   */\n      mstore\n        /* \"#utility.yul\":676:794   */\n      pop\n      pop\n      jump\t// out\n        /* \"#utility.yul\":800:1022   */\n    tag_19:\n        /* \"#utility.yul\":893:897   */\n      0x00\n        /* \"#utility.yul\":931:933   */\n      0x20\n        /* \"#utility.yul\":920:929   */\n      dup3\n        /* \"#utility.yul\":916:934   */\n      add\n        /* \"#utility.yul\":908:934   */\n      swap1\n      pop\n        /* \"#utility.yul\":944:1015   */\n      tag_208\n        /* \"#utility.yul\":1012:1013   */\n      0x00\n        /* \"#utility.yul\":1001:1010   */\n      dup4\n        /* \"#utility.yul\":997:1014   */\n      add\n        /* \"#utility.yul\":988:994   */\n      dup5\n        /* \"#utility.yul\":944:1015   */\n      tag_155\n      jump\t// in\n    tag_208:\n        /* \"#utility.yul\":800:1022   */\n      swap3\n      swap2\n      pop\n      pop\n      jump\t// out\n        /* \"#utility.yul\":1109:1226   */\n    tag_157:\n        /* \"#utility.yul\":1218:1219   */\n      0x00\n        /* \"#utility.yul\":1215:1216   */\n      0x00\n        /* \"#utility.yul\":1208:1220   */\n      revert\n        /* \"#utility.yul\":1355:1477   */\n    tag_159:\n        /* \"#utility.yul\":1428:1452   */\n      tag_213\n        /* \"#utility.yul\":1446:1451   */\n      dup2\n        /* \"#utility.yul\":1428:1452   */\n      tag_154\n      jump\t// in\n    tag_213:\n        /* \"#utility.yul\":1421:1426   */\n      dup2\n        /* \"#utility.yul\":1418:1453   */\n      eq\n        /* \"#utility.yul\":1408:1471   */\n      tag_214\n      jumpi\n        /* \"#utility.yul\":1467:1468   */\n      0x00\n        /* \"#utility.yul\":1464:1465   */\n      0x00\n        /* \"#utility.yul\":1457:1469   */\n      revert\n        /* \"#utility.yul\":1408:1471   */\n    tag_214:\n        /* \"#utility.yul\":1355:1477   */\n      pop\n      jump\t// out\n        /* \"#utility.yul\":1483:1622   */\n    tag_160:\n        /* \"#utility.yul\":1529:1534   */\n      0x00\n        /* \"#utility.yul\":1567:1573   */\n      dup2\n        /* \"#utility.yul\":1554:1574   */\n      calldataload\n        /* \"#utility.yul\":1545:1574   */\n      swap1\n      pop\n        /* \"#utility.yul\":1583:1616   */\n      tag_216\n        /* \"#utility.yul\":1610:1615   */\n      dup2\n        /* \"#utility.yul\":1583:1616   */\n      tag_159\n      jump\t// in\n    tag_216:\n        /* \"#utility.yul\":1483:1622   */\n      swap3\n      swap2\n      pop\n      pop\n      jump\t// out\n        /* \"#utility.yul\":1628:2102   */\n    tag_26:\n        /* \"#utility.yul\":1696:1702   */\n      0x00\n        /* \"#utility.yul\":1704:1710   */\n      0x00\n        /* \"#utility.yul\":1753:1755   */\n      0x40\n        /* \"#utility.yul\":1741:1750   */\n      dup4\n        /* \"#utility.yul\":1732:1739   */\n      dup6\n        /* \"#utility.yul\":1728:1751   */\n      sub\n        /* \"#utility.yul\":1724:1756   */\n      slt\n        /* \"#utility.yul\":1721:1840   */\n      iszero\n      tag_218\n      jumpi\n        /* \"#utility.yul\":1759:1838   */\n      tag_219\n      tag_157\n      jump\t// in\n    tag_219:\n        /* \"#utility.yul\":1721:1840   */\n    tag_218:\n        /* \"#utility.yul\":1879:1880   */\n      0x00\n        /* \"#utility.yul\":1904:1957   */\n      tag_220\n        /* \"#utility.yul\":1949:1956   */\n      dup6\n        /* \"#utility.yul\":1940:1946   */\n      dup3\n        /* \"#utility.yul\":1929:1938   */\n      dup7\n        /* \"#utility.yul\":1925:1947   */\n      add\n        /* \"#utility.yul\":1904:1957   */\n      tag_160\n      jump\t// in\n    tag_220:\n        /* \"#utility.yul\":1894:1957   */\n      swap3\n      pop\n        /* \"#utility.yul\":1850:1967   */\n      pop\n        /* \"#utility.yul\":2006:2008   */\n      0x20\n        /* \"#utility.yul\":2032:2085   */\n      tag_221\n        /* \"#utility.yul\":2077:2084   */\n      dup6\n        /* \"#utility.yul\":2068:2074   */\n      dup3\n        /* \"#utility.yul\":2057:2066   */\n      dup7\n        /* \"#utility.yul\":2053:2075   */\n      add\n        /* \"#utility.yul\":2032:2085   */\n      tag_160\n      jump\t// in\n    tag_221:\n        /* \"#utility.yul\":2022:2085   */\n      swap2\n      pop\n        /* \"#utility.yul\":1977:2095   */\n      pop\n        /* \"#utility.yul\":1628:2102   */\n      swap3\n      pop\n      swap3\n      swap1\n      pop\n      jump\t// out\n        /* \"#utility.yul\":2108:2230   */\n    tag_161:\n        /* \"#utility.yul\":2181:2205   */\n      tag_223\n        /* \"#utility.yul\":2199:2204   */\n      dup2\n        /* \"#utility.yul\":2181:2205   */\n      tag_152\n      jump\t// in\n    tag_223:\n        /* \"#utility.yul\":2174:2179   */\n      dup2\n        /* \"#utility.yul\":2171:2206   */\n      eq\n        /* \"#utility.yul\":2161:2224   */\n      tag_224\n      jumpi\n        /* \"#utility.yul\":2220:2221   */\n      0x00\n        /* \"#utility.yul\":2217:2218   */\n      0x00\n        /* \"#utility.yul\":2210:2222   */\n      revert\n        /* \"#utility.yul\":2161:2224   */\n    tag_224:\n        /* \"#utility.yul\":2108:2230   */\n      pop\n      jump\t// out\n        /* \"#utility.yul\":2236:2375   */\n    tag_162:\n        /* \"#utility.yul\":2282:2287   */\n      0x00\n        /* \"#utility.yul\":2320:2326   */\n      dup2\n        /* \"#utility.yul\":2307:2327   */\n      calldataload\n        /* \"#utility.yul\":2298:2327   */\n      swap1\n      pop\n        /* \"#utility.yul\":2336:2369   */\n      tag_226\n        /* \"#utility.yul\":2363:2368   */\n      dup2\n        /* \"#utility.yul\":2336:2369   */\n      tag_161\n      jump\t// in\n    tag_226:\n        /* \"#utility.yul\":2236:2375   */\n      swap3\n      swap2\n      pop\n      pop\n      jump\t// out\n        /* \"#utility.yul\":2381:3146   */\n    tag_31:\n        /* \"#utility.yul\":2467:2473   */\n      0x00\n        /* \"#utility.yul\":2475:2481   */\n      0x00\n        /* \"#utility.yul\":2483:2489   */\n      0x00\n        /* \"#utility.yul\":2491:2497   */\n      0x00\n        /* \"#utility.yul\":2540:2543   */\n      0x80\n        /* \"#utility.yul\":2528:2537   */\n      dup6\n        /* \"#utility.yul\":2519:2526   */\n      dup8\n        /* \"#utility.yul\":2515:2538   */\n      sub\n        /* \"#utility.yul\":2511:2544   */\n      slt\n        /* \"#utility.yul\":2508:2628   */\n      iszero\n      tag_228\n      jumpi\n        /* \"#utility.yul\":2547:2626   */\n      tag_229\n      tag_157\n      jump\t// in\n    tag_229:\n        /* \"#utility.yul\":2508:2628   */\n    tag_228:\n        /* \"#utility.yul\":2667:2668   */\n      0x00\n        /* \"#utility.yul\":2692:2745   */\n      tag_230\n        /* \"#utility.yul\":2737:2744   */\n      dup8\n        /* \"#utility.yul\":2728:2734   */\n      dup3\n        /* \"#utility.yul\":2717:2726   */\n      dup9\n        /* \"#utility.yul\":2713:2735   */\n      add\n        /* \"#utility.yul\":2692:2745   */\n      tag_160\n      jump\t// in\n    tag_230:\n        /* \"#utility.yul\":2682:2745   */\n      swap5\n      pop\n        /* \"#utility.yul\":2638:2755   */\n      pop\n        /* \"#utility.yul\":2794:2796   */\n      0x20\n        /* \"#utility.yul\":2820:2873   */\n      tag_231\n        /* \"#utility.yul\":2865:2872   */\n      dup8\n        /* \"#utility.yul\":2856:2862   */\n      dup3\n        /* \"#utility.yul\":2845:2854   */\n      dup9\n        /* \"#utility.yul\":2841:2863   */\n      add\n        /* \"#utility.yul\":2820:2873   */\n      tag_160\n      jump\t// in\n    tag_231:\n        /* \"#utility.yul\":2810:2873   */\n      swap4\n      pop\n        /* \"#utility.yul\":2765:2883   */\n      pop\n        /* \"#utility.yul\":2922:2924   */\n      0x40\n        /* \"#utility.yul\":2948:3001   */\n      tag_232\n        /* \"#utility.yul\":2993:3000   */\n      dup8\n        /* \"#utility.yul\":2984:2990   */\n      dup3\n        /* \"#utility.yul\":2973:2982   */\n      dup9\n        /* \"#utility.yul\":2969:2991   */\n      add\n        /* \"#utility.yul\":2948:3001   */\n      tag_162\n      jump\t// in\n    tag_232:\n        /* \"#utility.yul\":2938:3001   */\n      swap3\n      pop\n        /* \"#utility.yul\":2893:3011   */\n      pop\n        /* \"#utility.yul\":3050:3052   */\n      0x60\n        /* \"#utility.yul\":3076:3129   */\n      tag_233\n        /* \"#utility.yul\":3121:3128   */\n      dup8\n        /* \"#utility.yul\":3112:3118   */\n      dup3\n        /* \"#utility.yul\":3101:3110   */\n      dup9\n        /* \"#utility.yul\":3097:3119   */\n      add\n        /* \"#utility.yul\":3076:3129   */\n      tag_160\n      jump\t// in\n    tag_233:\n        /* \"#utility.yul\":3066:3129   */\n      swap2\n      pop\n        /* \"#utility.yul\":3021:3139   */\n      pop\n        /* \"#utility.yul\":2381:3146   */\n      swap3\n      swap6\n      swap2\n      swap5\n      pop\n      swap3\n      pop\n      jump\t// out\n        /* \"#utility.yul\":3152:3917   */\n    tag_36:\n        /* \"#utility.yul\":3238:3244   */\n      0x00\n        /* \"#utility.yul\":3246:3252   */\n      0x00\n        /* \"#utility.yul\":3254:3260   */\n      0x00\n        /* \"#utility.yul\":3262:3268   */\n      0x00\n        /* \"#utility.yul\":3311:3314   */\n      0x80\n        /* \"#utility.yul\":3299:3308   */\n      dup6\n        /* \"#utility.yul\":3290:3297   */\n      dup8\n        /* \"#utility.yul\":3286:3309   */\n      sub\n        /* \"#utility.yul\":3282:3315   */\n      slt\n        /* \"#utility.yul\":3279:3399   */\n      iszero\n      tag_235\n      jumpi\n        /* \"#utility.yul\":3318:3397   */\n      tag_236\n      tag_157\n      jump\t// in\n    tag_236:\n        /* \"#utility.yul\":3279:3399   */\n    tag_235:\n        /* \"#utility.yul\":3438:3439   */\n      0x00\n        /* \"#utility.yul\":3463:3516   */\n      tag_237\n        /* \"#utility.yul\":3508:3515   */\n      dup8\n        /* \"#utility.yul\":3499:3505   */\n      dup3\n        /* \"#utility.yul\":3488:3497   */\n      dup9\n        /* \"#utility.yul\":3484:3506   */\n      add\n        /* \"#utility.yul\":3463:3516   */\n      tag_160\n      jump\t// in\n    tag_237:\n        /* \"#utility.yul\":3453:3516   */\n      swap5\n      pop\n        /* \"#utility.yul\":3409:3526   */\n      pop\n        /* \"#utility.yul\":3565:3567   */\n      0x20\n        /* \"#utility.yul\":3591:3644   */\n      tag_238\n        /* \"#utility.yul\":3636:3643   */\n      dup8\n        /* \"#utility.yul\":3627:3633   */\n      dup3\n        /* \"#utility.yul\":3616:3625   */\n      dup9\n        /* \"#utility.yul\":3612:3634   */\n      add\n        /* \"#utility.yul\":3591:3644   */\n      tag_162\n      jump\t// in\n    tag_238:\n        /* \"#utility.yul\":3581:3644   */\n      swap4\n      pop\n        /* \"#utility.yul\":3536:3654   */\n      pop\n        /* \"#utility.yul\":3693:3695   */\n      0x40\n        /* \"#utility.yul\":3719:3772   */\n      tag_239\n        /* \"#utility.yul\":3764:3771   */\n      dup8\n        /* \"#utility.yul\":3755:3761   */\n      dup3\n        /* \"#utility.yul\":3744:3753   */\n      dup9\n        /* \"#utility.yul\":3740:3762   */\n      add\n        /* \"#utility.yul\":3719:3772   */\n      tag_160\n      jump\t// in\n    tag_239:\n        /* \"#utility.yul\":3709:3772   */\n      swap3\n      pop\n        /* \"#utility.yul\":3664:3782   */\n      pop\n        /* \"#utility.yul\":3821:3823   */\n      0x60\n        /* \"#utility.yul\":3847:3900   */\n      tag_240\n        /* \"#utility.yul\":3892:3899   */\n      dup8\n        /* \"#utility.yul\":3883:3889   */\n      dup3\n        /* \"#utility.yul\":3872:3881   */\n      dup9\n        /* \"#utility.yul\":3868:3890   */\n      add\n        /* \"#utility.yul\":3847:3900   */\n      tag_160\n      jump\t// in\n    tag_240:\n        /* \"#utility.yul\":3837:3900   */\n      swap2\n      pop\n        /* \"#utility.yul\":3792:3910   */\n      pop\n        /* \"#utility.yul\":3152:3917   */\n      swap3\n      swap6\n      swap2\n      swap5\n      pop\n      swap3\n      pop\n      jump\t// out\n        /* \"#utility.yul\":3923:4252   */\n    tag_41:\n        /* \"#utility.yul\":3982:3988   */\n      0x00\n        /* \"#utility.yul\":4031:4033   */\n      0x20\n        /* \"#utility.yul\":4019:4028   */\n      dup3\n        /* \"#utility.yul\":4010:4017   */\n      dup5\n        /* \"#utility.yul\":4006:4029   */\n      sub\n        /* \"#utility.yul\":4002:4034   */\n      slt\n        /* \"#utility.yul\":3999:4118   */\n      iszero\n      tag_242\n      jumpi\n        /* \"#utility.yul\":4037:4116   */\n      tag_243\n      tag_157\n      jump\t// in\n    tag_243:\n        /* \"#utility.yul\":3999:4118   */\n    tag_242:\n        /* \"#utility.yul\":4157:4158   */\n      0x00\n        /* \"#utility.yul\":4182:4235   */\n      tag_244\n        /* \"#utility.yul\":4227:4234   */\n      dup5\n        /* \"#utility.yul\":4218:4224   */\n      dup3\n        /* \"#utility.yul\":4207:4216   */\n      dup6\n        /* \"#utility.yul\":4203:4225   */\n      add\n        /* \"#utility.yul\":4182:4235   */\n      tag_160\n      jump\t// in\n    tag_244:\n        /* \"#utility.yul\":4172:4235   */\n      swap2\n      pop\n        /* \"#utility.yul\":4128:4245   */\n      pop\n        /* \"#utility.yul\":3923:4252   */\n      swap3\n      swap2\n      pop\n      pop\n      jump\t// out\n        /* \"#utility.yul\":4258:4922   */\n    tag_44:\n        /* \"#utility.yul\":4463:4467   */\n      0x00\n        /* \"#utility.yul\":4501:4504   */\n      0xa0\n        /* \"#utility.yul\":4490:4499   */\n      dup3\n        /* \"#utility.yul\":4486:4505   */\n      add\n        /* \"#utility.yul\":4478:4505   */\n      swap1\n      pop\n        /* \"#utility.yul\":4515:4586   */\n      tag_246\n        /* \"#utility.yul\":4583:4584   */\n      0x00\n        /* \"#utility.yul\":4572:4581   */\n      dup4\n        /* \"#utility.yul\":4568:4585   */\n      add\n        /* \"#utility.yul\":4559:4565   */\n      dup9\n        /* \"#utility.yul\":4515:4586   */\n      tag_153\n      jump\t// in\n    tag_246:\n        /* \"#utility.yul\":4596:4668   */\n      tag_247\n        /* \"#utility.yul\":4664:4666   */\n      0x20\n        /* \"#utility.yul\":4653:4662   */\n      dup4\n        /* \"#utility.yul\":4649:4667   */\n      add\n        /* \"#utility.yul\":4640:4646   */\n      dup8\n        /* \"#utility.yul\":4596:4668   */\n      tag_155\n      jump\t// in\n    tag_247:\n        /* \"#utility.yul\":4678:4750   */\n      tag_248\n        /* \"#utility.yul\":4746:4748   */\n      0x40\n        /* \"#utility.yul\":4735:4744   */\n      dup4\n        /* \"#utility.yul\":4731:4749   */\n      add\n        /* \"#utility.yul\":4722:4728   */\n      dup7\n        /* \"#utility.yul\":4678:4750   */\n      tag_155\n      jump\t// in\n    tag_248:\n        /* \"#utility.yul\":4760:4832   */\n      tag_249\n        /* \"#utility.yul\":4828:4830   */\n      0x60\n        /* \"#utility.yul\":4817:4826   */\n      dup4\n        /* \"#utility.yul\":4813:4831   */\n      add\n        /* \"#utility.yul\":4804:4810   */\n      dup6\n        /* \"#utility.yul\":4760:4832   */\n      tag_153\n      jump\t// in\n    tag_249:\n        /* \"#utility.yul\":4842:4915   */\n      tag_250\n        /* \"#utility.yul\":4910:4913   */\n      0x80\n        /* \"#utility.yul\":4899:4908   */\n      dup4\n        /* \"#utility.yul\":4895:4914   */\n      add\n        /* \"#utility.yul\":4886:4892   */\n      dup5\n        /* \"#utility.yul\":4842:4915   */\n      tag_155\n      jump\t// in\n    tag_250:\n        /* \"#utility.yul\":4258:4922   */\n      swap7\n      swap6\n      pop\n      pop\n      pop\n      pop\n      pop\n      pop\n      jump\t// out\n        /* \"#utility.yul\":4928:5097   */\n    tag_163:\n        /* \"#utility.yul\":5012:5023   */\n      0x00\n        /* \"#utility.yul\":5046:5052   */\n      dup3\n        /* \"#utility.yul\":5041:5044   */\n      dup3\n        /* \"#utility.yul\":5034:5053   */\n      mstore\n        /* \"#utility.yul\":5086:5090   */\n      0x20\n        /* \"#utility.yul\":5081:5084   */\n      dup3\n        /* \"#utility.yul\":5077:5091   */\n      add\n        /* \"#utility.yul\":5062:5091   */\n      swap1\n      pop\n        /* \"#utility.yul\":4928:5097   */\n      swap3\n      swap2\n      pop\n      pop\n      jump\t// out\n        /* \"#utility.yul\":5103:5275   */\n    tag_164:\n        /* \"#utility.yul\":5243:5267   */\n      0x4c697374696e6720646f6573206e6f7420657869737400000000000000000000\n        /* \"#utility.yul\":5239:5240   */\n      0x00\n        /* \"#utility.yul\":5231:5237   */\n      dup3\n        /* \"#utility.yul\":5227:5241   */\n      add\n        /* \"#utility.yul\":5220:5268   */\n      mstore\n        /* \"#utility.yul\":5103:5275   */\n      pop\n      jump\t// out\n        /* \"#utility.yul\":5281:5647   */\n    tag_165:\n        /* \"#utility.yul\":5423:5426   */\n      0x00\n        /* \"#utility.yul\":5444:5511   */\n      tag_254\n        /* \"#utility.yul\":5508:5510   */\n      0x16\n        /* \"#utility.yul\":5503:5506   */\n      dup4\n        /* \"#utility.yul\":5444:5511   */\n      tag_163\n      jump\t// in\n    tag_254:\n        /* \"#utility.yul\":5437:5511   */\n      swap2\n      pop\n        /* \"#utility.yul\":5520:5613   */\n      tag_255\n        /* \"#utility.yul\":5609:5612   */\n      dup3\n        /* \"#utility.yul\":5520:5613   */\n      tag_164\n      jump\t// in\n    tag_255:\n        /* \"#utility.yul\":5638:5640   */\n      0x20\n        /* \"#utility.yul\":5633:5636   */\n      dup3\n        /* \"#utility.yul\":5629:5641   */\n      add\n        /* \"#utility.yul\":5622:5641   */\n      swap1\n      pop\n        /* \"#utility.yul\":5281:5647   */\n      swap2\n      swap1\n      pop\n      jump\t// out\n        /* \"#utility.yul\":5653:6072   */\n    tag_48:\n        /* \"#utility.yul\":5819:5823   */\n      0x00\n        /* \"#utility.yul\":5857:5859   */\n      0x20\n        /* \"#utility.yul\":5846:5855   */\n      dup3\n        /* \"#utility.yul\":5842:5860   */\n      add\n        /* \"#utility.yul\":5834:5860   */\n      swap1\n      pop\n        /* \"#utility.yul\":5906:5915   */\n      dup2\n        /* \"#utility.yul\":5900:5904   */\n      dup2\n        /* \"#utility.yul\":5896:5916   */\n      sub\n        /* \"#utility.yul\":5892:5893   */\n      0x00\n        /* \"#utility.yul\":5881:5890   */\n      dup4\n        /* \"#utility.yul\":5877:5894   */\n      add\n        /* \"#utility.yul\":5870:5917   */\n      mstore\n        /* \"#utility.yul\":5934:6065   */\n      tag_257\n        /* \"#utility.yul\":6060:6064   */\n      dup2\n        /* \"#utility.yul\":5934:6065   */\n      tag_165\n      jump\t// in\n    tag_257:\n        /* \"#utility.yul\":5926:6065   */\n      swap1\n      pop\n        /* \"#utility.yul\":5653:6072   */\n      swap2\n      swap1\n      pop\n      jump\t// out\n        /* \"#utility.yul\":6078:6247   */\n    tag_166:\n        /* \"#utility.yul\":6218:6239   */\n      0x4c697374696e6720686173206578706972656400000000000000000000000000\n        /* \"#utility.yul\":6214:6215   */\n      0x00\n        /* \"#utility.yul\":6206:6212   */\n      dup3\n        /* \"#utility.yul\":6202:6216   */\n      add\n        /* \"#utility.yul\":6195:6240   */\n      mstore\n        /* \"#utility.yul\":6078:6247   */\n      pop\n      jump\t// out\n        /* \"#utility.yul\":6253:6619   */\n    tag_167:\n        /* \"#utility.yul\":6395:6398   */\n      0x00\n        /* \"#utility.yul\":6416:6483   */\n      tag_260\n        /* \"#utility.yul\":6480:6482   */\n      0x13\n        /* \"#utility.yul\":6475:6478   */\n      dup4\n        /* \"#utility.yul\":6416:6483   */\n      tag_163\n      jump\t// in\n    tag_260:\n        /* \"#utility.yul\":6409:6483   */\n      swap2\n      pop\n        /* \"#utility.yul\":6492:6585   */\n      tag_261\n        /* \"#utility.yul\":6581:6584   */\n      dup3\n        /* \"#utility.yul\":6492:6585   */\n      tag_166\n      jump\t// in\n    tag_261:\n        /* \"#utility.yul\":6610:6612   */\n      0x20\n        /* \"#utility.yul\":6605:6608   */\n      dup3\n        /* \"#utility.yul\":6601:6613   */\n      add\n        /* \"#utility.yul\":6594:6613   */\n      swap1\n      pop\n        /* \"#utility.yul\":6253:6619   */\n      swap2\n      swap1\n      pop\n      jump\t// out\n        /* \"#utility.yul\":6625:7044   */\n    tag_51:\n        /* \"#utility.yul\":6791:6795   */\n      0x00\n        /* \"#utility.yul\":6829:6831   */\n      0x20\n        /* \"#utility.yul\":6818:6827   */\n      dup3\n        /* \"#utility.yul\":6814:6832   */\n      add\n        /* \"#utility.yul\":6806:6832   */\n      swap1\n      pop\n        /* \"#utility.yul\":6878:6887   */\n      dup2\n        /* \"#utility.yul\":6872:6876   */\n      dup2\n        /* \"#utility.yul\":6868:6888   */\n      sub\n        /* \"#utility.yul\":6864:6865   */\n      0x00\n        /* \"#utility.yul\":6853:6862   */\n      dup4\n        /* \"#utility.yul\":6849:6866   */\n      add\n        /* \"#utility.yul\":6842:6889   */\n      mstore\n        /* \"#utility.yul\":6906:7037   */\n      tag_263\n        /* \"#utility.yul\":7032:7036   */\n      dup2\n        /* \"#utility.yul\":6906:7037   */\n      tag_167\n      jump\t// in\n    tag_263:\n        /* \"#utility.yul\":6898:7037   */\n      swap1\n      pop\n        /* \"#utility.yul\":6625:7044   */\n      swap2\n      swap1\n      pop\n      jump\t// out\n        /* \"#utility.yul\":7050:7280   */\n    tag_168:\n        /* \"#utility.yul\":7190:7224   */\n      0x546f6b656e20616d6f756e742069732067726561746572207468616e20746f6b\n        /* \"#utility.yul\":7186:7187   */\n      0x00\n        /* \"#utility.yul\":7178:7184   */\n      dup3\n        /* \"#utility.yul\":7174:7188   */\n      add\n        /* \"#utility.yul\":7167:7225   */\n      mstore\n        /* \"#utility.yul\":7259:7272   */\n      0x656e73206f6e2073616c65000000000000000000000000000000000000000000\n        /* \"#utility.yul\":7254:7256   */\n      0x20\n        /* \"#utility.yul\":7246:7252   */\n      dup3\n        /* \"#utility.yul\":7242:7257   */\n      add\n        /* \"#utility.yul\":7235:7273   */\n      mstore\n        /* \"#utility.yul\":7050:7280   */\n      pop\n      jump\t// out\n        /* \"#utility.yul\":7286:7652   */\n    tag_169:\n        /* \"#utility.yul\":7428:7431   */\n      0x00\n        /* \"#utility.yul\":7449:7516   */\n      tag_266\n        /* \"#utility.yul\":7513:7515   */\n      0x2b\n        /* \"#utility.yul\":7508:7511   */\n      dup4\n        /* \"#utility.yul\":7449:7516   */\n      tag_163\n      jump\t// in\n    tag_266:\n        /* \"#utility.yul\":7442:7516   */\n      swap2\n      pop\n        /* \"#utility.yul\":7525:7618   */\n      tag_267\n        /* \"#utility.yul\":7614:7617   */\n      dup3\n        /* \"#utility.yul\":7525:7618   */\n      tag_168\n      jump\t// in\n    tag_267:\n        /* \"#utility.yul\":7643:7645   */\n      0x40\n        /* \"#utility.yul\":7638:7641   */\n      dup3\n        /* \"#utility.yul\":7634:7646   */\n      add\n        /* \"#utility.yul\":7627:7646   */\n      swap1\n      pop\n        /* \"#utility.yul\":7286:7652   */\n      swap2\n      swap1\n      pop\n      jump\t// out\n        /* \"#utility.yul\":7658:8077   */\n    tag_54:\n        /* \"#utility.yul\":7824:7828   */\n      0x00\n        /* \"#utility.yul\":7862:7864   */\n      0x20\n        /* \"#utility.yul\":7851:7860   */\n      dup3\n        /* \"#utility.yul\":7847:7865   */\n      add\n        /* \"#utility.yul\":7839:7865   */\n      swap1\n      pop\n        /* \"#utility.yul\":7911:7920   */\n      dup2\n        /* \"#utility.yul\":7905:7909   */\n      dup2\n        /* \"#utility.yul\":7901:7921   */\n      sub\n        /* \"#utility.yul\":7897:7898   */\n      0x00\n        /* \"#utility.yul\":7886:7895   */\n      dup4\n        /* \"#utility.yul\":7882:7899   */\n      add\n        /* \"#utility.yul\":7875:7922   */\n      mstore\n        /* \"#utility.yul\":7939:8070   */\n      tag_269\n        /* \"#utility.yul\":8065:8069   */\n      dup2\n        /* \"#utility.yul\":7939:8070   */\n      tag_169\n      jump\t// in\n    tag_269:\n        /* \"#utility.yul\":7931:8070   */\n      swap1\n      pop\n        /* \"#utility.yul\":7658:8077   */\n      swap2\n      swap1\n      pop\n      jump\t// out\n        /* \"#utility.yul\":8083:8263   */\n    tag_170:\n        /* \"#utility.yul\":8131:8208   */\n      0x4e487b7100000000000000000000000000000000000000000000000000000000\n        /* \"#utility.yul\":8128:8129   */\n      0x00\n        /* \"#utility.yul\":8121:8209   */\n      mstore\n        /* \"#utility.yul\":8228:8232   */\n      0x11\n        /* \"#utility.yul\":8225:8226   */\n      0x04\n        /* \"#utility.yul\":8218:8233   */\n      mstore\n        /* \"#utility.yul\":8252:8256   */\n      0x24\n        /* \"#utility.yul\":8249:8250   */\n      0x00\n        /* \"#utility.yul\":8242:8257   */\n      revert\n        /* \"#utility.yul\":8269:8679   */\n    tag_56:\n        /* \"#utility.yul\":8309:8316   */\n      0x00\n        /* \"#utility.yul\":8332:8352   */\n      tag_272\n        /* \"#utility.yul\":8350:8351   */\n      dup3\n        /* \"#utility.yul\":8332:8352   */\n      tag_154\n      jump\t// in\n    tag_272:\n        /* \"#utility.yul\":8327:8352   */\n      swap2\n      pop\n        /* \"#utility.yul\":8366:8386   */\n      tag_273\n        /* \"#utility.yul\":8384:8385   */\n      dup4\n        /* \"#utility.yul\":8366:8386   */\n      tag_154\n      jump\t// in\n    tag_273:\n        /* \"#utility.yul\":8361:8386   */\n      swap3\n      pop\n        /* \"#utility.yul\":8421:8422   */\n      dup3\n        /* \"#utility.yul\":8418:8419   */\n      dup3\n        /* \"#utility.yul\":8414:8423   */\n      mul\n        /* \"#utility.yul\":8443:8473   */\n      tag_274\n        /* \"#utility.yul\":8461:8472   */\n      dup2\n        /* \"#utility.yul\":8443:8473   */\n      tag_154\n      jump\t// in\n    tag_274:\n        /* \"#utility.yul\":8432:8473   */\n      swap2\n      pop\n        /* \"#utility.yul\":8622:8623   */\n      dup3\n        /* \"#utility.yul\":8613:8620   */\n      dup3\n        /* \"#utility.yul\":8609:8624   */\n      div\n        /* \"#utility.yul\":8606:8607   */\n      dup5\n        /* \"#utility.yul\":8603:8625   */\n      eq\n        /* \"#utility.yul\":8583:8584   */\n      dup4\n        /* \"#utility.yul\":8576:8585   */\n      iszero\n        /* \"#utility.yul\":8556:8639   */\n      or\n        /* \"#utility.yul\":8533:8672   */\n      tag_275\n      jumpi\n        /* \"#utility.yul\":8652:8670   */\n      tag_276\n      tag_170\n      jump\t// in\n    tag_276:\n        /* \"#utility.yul\":8533:8672   */\n    tag_275:\n        /* \"#utility.yul\":8317:8679   */\n      pop\n        /* \"#utility.yul\":8269:8679   */\n      swap3\n      swap2\n      pop\n      pop\n      jump\t// out\n        /* \"#utility.yul\":8685:8855   */\n    tag_171:\n        /* \"#utility.yul\":8825:8847   */\n      0x496e636f72726563742076616c75652073656e74000000000000000000000000\n        /* \"#utility.yul\":8821:8822   */\n      0x00\n        /* \"#utility.yul\":8813:8819   */\n      dup3\n        /* \"#utility.yul\":8809:8823   */\n      add\n        /* \"#utility.yul\":8802:8848   */\n      mstore\n        /* \"#utility.yul\":8685:8855   */\n      pop\n      jump\t// out\n        /* \"#utility.yul\":8861:9227   */\n    tag_172:\n        /* \"#utility.yul\":9003:9006   */\n      0x00\n        /* \"#utility.yul\":9024:9091   */\n      tag_279\n        /* \"#utility.yul\":9088:9090   */\n      0x14\n        /* \"#utility.yul\":9083:9086   */\n      dup4\n        /* \"#utility.yul\":9024:9091   */\n      tag_163\n      jump\t// in\n    tag_279:\n        /* \"#utility.yul\":9017:9091   */\n      swap2\n      pop\n        /* \"#utility.yul\":9100:9193   */\n      tag_280\n        /* \"#utility.yul\":9189:9192   */\n      dup3\n        /* \"#utility.yul\":9100:9193   */\n      tag_171\n      jump\t// in\n    tag_280:\n        /* \"#utility.yul\":9218:9220   */\n      0x20\n        /* \"#utility.yul\":9213:9216   */\n      dup3\n        /* \"#utility.yul\":9209:9221   */\n      add\n        /* \"#utility.yul\":9202:9221   */\n      swap1\n      pop\n        /* \"#utility.yul\":8861:9227   */\n      swap2\n      swap1\n      pop\n      jump\t// out\n        /* \"#utility.yul\":9233:9652   */\n    tag_59:\n        /* \"#utility.yul\":9399:9403   */\n      0x00\n        /* \"#utility.yul\":9437:9439   */\n      0x20\n        /* \"#utility.yul\":9426:9435   */\n      dup3\n        /* \"#utility.yul\":9422:9440   */\n      add\n        /* \"#utility.yul\":9414:9440   */\n      swap1\n      pop\n        /* \"#utility.yul\":9486:9495   */\n      dup2\n        /* \"#utility.yul\":9480:9484   */\n      dup2\n        /* \"#utility.yul\":9476:9496   */\n      sub\n        /* \"#utility.yul\":9472:9473   */\n      0x00\n        /* \"#utility.yul\":9461:9470   */\n      dup4\n        /* \"#utility.yul\":9457:9474   */\n      add\n        /* \"#utility.yul\":9450:9497   */\n      mstore\n        /* \"#utility.yul\":9514:9645   */\n      tag_282\n        /* \"#utility.yul\":9640:9644   */\n      dup2\n        /* \"#utility.yul\":9514:9645   */\n      tag_172\n      jump\t// in\n    tag_282:\n        /* \"#utility.yul\":9506:9645   */\n      swap1\n      pop\n        /* \"#utility.yul\":9233:9652   */\n      swap2\n      swap1\n      pop\n      jump\t// out\n        /* \"#utility.yul\":9658:9838   */\n    tag_173:\n        /* \"#utility.yul\":9706:9783   */\n      0x4e487b7100000000000000000000000000000000000000000000000000000000\n        /* \"#utility.yul\":9703:9704   */\n      0x00\n        /* \"#utility.yul\":9696:9784   */\n      mstore\n        /* \"#utility.yul\":9803:9807   */\n      0x12\n        /* \"#utility.yul\":9800:9801   */\n      0x04\n        /* \"#utility.yul\":9793:9808   */\n      mstore\n        /* \"#utility.yul\":9827:9831   */\n      0x24\n        /* \"#utility.yul\":9824:9825   */\n      0x00\n        /* \"#utility.yul\":9817:9832   */\n      revert\n        /* \"#utility.yul\":9844:10029   */\n    tag_62:\n        /* \"#utility.yul\":9884:9885   */\n      0x00\n        /* \"#utility.yul\":9901:9921   */\n      tag_285\n        /* \"#utility.yul\":9919:9920   */\n      dup3\n        /* \"#utility.yul\":9901:9921   */\n      tag_154\n      jump\t// in\n    tag_285:\n        /* \"#utility.yul\":9896:9921   */\n      swap2\n      pop\n        /* \"#utility.yul\":9935:9955   */\n      tag_286\n        /* \"#utility.yul\":9953:9954   */\n      dup4\n        /* \"#utility.yul\":9935:9955   */\n      tag_154\n      jump\t// in\n    tag_286:\n        /* \"#utility.yul\":9930:9955   */\n      swap3\n      pop\n        /* \"#utility.yul\":9974:9975   */\n      dup3\n        /* \"#utility.yul\":9964:9999   */\n      tag_287\n      jumpi\n        /* \"#utility.yul\":9979:9997   */\n      tag_288\n      tag_173\n      jump\t// in\n    tag_288:\n        /* \"#utility.yul\":9964:9999   */\n    tag_287:\n        /* \"#utility.yul\":10021:10022   */\n      dup3\n        /* \"#utility.yul\":10018:10019   */\n      dup3\n        /* \"#utility.yul\":10014:10023   */\n      div\n        /* \"#utility.yul\":10009:10023   */\n      swap1\n      pop\n        /* \"#utility.yul\":9844:10029   */\n      swap3\n      swap2\n      pop\n      pop\n      jump\t// out\n        /* \"#utility.yul\":10035:10229   */\n    tag_64:\n        /* \"#utility.yul\":10075:10079   */\n      0x00\n        /* \"#utility.yul\":10095:10115   */\n      tag_290\n        /* \"#utility.yul\":10113:10114   */\n      dup3\n        /* \"#utility.yul\":10095:10115   */\n      tag_154\n      jump\t// in\n    tag_290:\n        /* \"#utility.yul\":10090:10115   */\n      swap2\n      pop\n        /* \"#utility.yul\":10129:10149   */\n      tag_291\n        /* \"#utility.yul\":10147:10148   */\n      dup4\n        /* \"#utility.yul\":10129:10149   */\n      tag_154\n      jump\t// in\n    tag_291:\n        /* \"#utility.yul\":10124:10149   */\n      swap3\n      pop\n        /* \"#utility.yul\":10173:10174   */\n      dup3\n        /* \"#utility.yul\":10170:10171   */\n      dup3\n        /* \"#utility.yul\":10166:10175   */\n      sub\n        /* \"#utility.yul\":10158:10175   */\n      swap1\n      pop\n        /* \"#utility.yul\":10197:10198   */\n      dup2\n        /* \"#utility.yul\":10191:10195   */\n      dup2\n        /* \"#utility.yul\":10188:10199   */\n      gt\n        /* \"#utility.yul\":10185:10222   */\n      iszero\n      tag_292\n      jumpi\n        /* \"#utility.yul\":10202:10220   */\n      tag_293\n      tag_170\n      jump\t// in\n    tag_293:\n        /* \"#utility.yul\":10185:10222   */\n    tag_292:\n        /* \"#utility.yul\":10035:10229   */\n      swap3\n      swap2\n      pop\n      pop\n      jump\t// out\n        /* \"#utility.yul\":10235:10567   */\n    tag_67:\n        /* \"#utility.yul\":10356:10360   */\n      0x00\n        /* \"#utility.yul\":10394:10396   */\n      0x40\n        /* \"#utility.yul\":10383:10392   */\n      dup3\n        /* \"#utility.yul\":10379:10397   */\n      add\n        /* \"#utility.yul\":10371:10397   */\n      swap1\n      pop\n        /* \"#utility.yul\":10407:10478   */\n      tag_295\n        /* \"#utility.yul\":10475:10476   */\n      0x00\n        /* \"#utility.yul\":10464:10473   */\n      dup4\n        /* \"#utility.yul\":10460:10477   */\n      add\n        /* \"#utility.yul\":10451:10457   */\n      dup6\n        /* \"#utility.yul\":10407:10478   */\n      tag_153\n      jump\t// in\n    tag_295:\n        /* \"#utility.yul\":10488:10560   */\n      tag_296\n        /* \"#utility.yul\":10556:10558   */\n      0x20\n        /* \"#utility.yul\":10545:10554   */\n      dup4\n        /* \"#utility.yul\":10541:10559   */\n      add\n        /* \"#utility.yul\":10532:10538   */\n      dup5\n        /* \"#utility.yul\":10488:10560   */\n      tag_155\n      jump\t// in\n    tag_296:\n        /* \"#utility.yul\":10235:10567   */\n      swap4\n      swap3\n      pop\n      pop\n      pop\n      jump\t// out\n        /* \"#utility.yul\":10573:10663   */\n    tag_174:\n        /* \"#utility.yul\":10607:10614   */\n      0x00\n        /* \"#utility.yul\":10650:10655   */\n      dup2\n        /* \"#utility.yul\":10643:10656   */\n      iszero\n        /* \"#utility.yul\":10636:10657   */\n      iszero\n        /* \"#utility.yul\":10625:10657   */\n      swap1\n      pop\n        /* \"#utility.yul\":10573:10663   */\n      swap2\n      swap1\n      pop\n      jump\t// out\n        /* \"#utility.yul\":10669:10785   */\n    tag_175:\n        /* \"#utility.yul\":10739:10760   */\n      tag_299\n        /* \"#utility.yul\":10754:10759   */\n      dup2\n        /* \"#utility.yul\":10739:10760   */\n      tag_174\n      jump\t// in\n    tag_299:\n        /* \"#utility.yul\":10732:10737   */\n      dup2\n        /* \"#utility.yul\":10729:10761   */\n      eq\n        /* \"#utility.yul\":10719:10779   */\n      tag_300\n      jumpi\n        /* \"#utility.yul\":10775:10776   */\n      0x00\n        /* \"#utility.yul\":10772:10773   */\n      0x00\n        /* \"#utility.yul\":10765:10777   */\n      revert\n        /* \"#utility.yul\":10719:10779   */\n    tag_300:\n        /* \"#utility.yul\":10669:10785   */\n      pop\n      jump\t// out\n        /* \"#utility.yul\":10791:10928   */\n    tag_176:\n        /* \"#utility.yul\":10845:10850   */\n      0x00\n        /* \"#utility.yul\":10876:10882   */\n      dup2\n        /* \"#utility.yul\":10870:10883   */\n      mload\n        /* \"#utility.yul\":10861:10883   */\n      swap1\n      pop\n        /* \"#utility.yul\":10892:10922   */\n      tag_302\n        /* \"#utility.yul\":10916:10921   */\n      dup2\n        /* \"#utility.yul\":10892:10922   */\n      tag_175\n      jump\t// in\n    tag_302:\n        /* \"#utility.yul\":10791:10928   */\n      swap3\n      swap2\n      pop\n      pop\n      jump\t// out\n        /* \"#utility.yul\":10934:11279   */\n    tag_71:\n        /* \"#utility.yul\":11001:11007   */\n      0x00\n        /* \"#utility.yul\":11050:11052   */\n      0x20\n        /* \"#utility.yul\":11038:11047   */\n      dup3\n        /* \"#utility.yul\":11029:11036   */\n      dup5\n        /* \"#utility.yul\":11025:11048   */\n      sub\n        /* \"#utility.yul\":11021:11053   */\n      slt\n        /* \"#utility.yul\":11018:11137   */\n      iszero\n      tag_304\n      jumpi\n        /* \"#utility.yul\":11056:11135   */\n      tag_305\n      tag_157\n      jump\t// in\n    tag_305:\n        /* \"#utility.yul\":11018:11137   */\n    tag_304:\n        /* \"#utility.yul\":11176:11177   */\n      0x00\n        /* \"#utility.yul\":11201:11262   */\n      tag_306\n        /* \"#utility.yul\":11254:11261   */\n      dup5\n        /* \"#utility.yul\":11245:11251   */\n      dup3\n        /* \"#utility.yul\":11234:11243   */\n      dup6\n        /* \"#utility.yul\":11230:11252   */\n      add\n        /* \"#utility.yul\":11201:11262   */\n      tag_176\n      jump\t// in\n    tag_306:\n        /* \"#utility.yul\":11191:11262   */\n      swap2\n      pop\n        /* \"#utility.yul\":11147:11272   */\n      pop\n        /* \"#utility.yul\":10934:11279   */\n      swap3\n      swap2\n      pop\n      pop\n      jump\t// out\n        /* \"#utility.yul\":11285:11456   */\n    tag_177:\n        /* \"#utility.yul\":11425:11448   */\n      0x546f6b656e207472616e73666572206661696c65640000000000000000000000\n        /* \"#utility.yul\":11421:11422   */\n      0x00\n        /* \"#utility.yul\":11413:11419   */\n      dup3\n        /* \"#utility.yul\":11409:11423   */\n      add\n        /* \"#utility.yul\":11402:11449   */\n      mstore\n        /* \"#utility.yul\":11285:11456   */\n      pop\n      jump\t// out\n        /* \"#utility.yul\":11462:11828   */\n    tag_178:\n        /* \"#utility.yul\":11604:11607   */\n      0x00\n        /* \"#utility.yul\":11625:11692   */\n      tag_309\n        /* \"#utility.yul\":11689:11691   */\n      0x15\n        /* \"#utility.yul\":11684:11687   */\n      dup4\n        /* \"#utility.yul\":11625:11692   */\n      tag_163\n      jump\t// in\n    tag_309:\n        /* \"#utility.yul\":11618:11692   */\n      swap2\n      pop\n        /* \"#utility.yul\":11701:11794   */\n      tag_310\n        /* \"#utility.yul\":11790:11793   */\n      dup3\n        /* \"#utility.yul\":11701:11794   */\n      tag_177\n      jump\t// in\n    tag_310:\n        /* \"#utility.yul\":11819:11821   */\n      0x20\n        /* \"#utility.yul\":11814:11817   */\n      dup3\n        /* \"#utility.yul\":11810:11822   */\n      add\n        /* \"#utility.yul\":11803:11822   */\n      swap1\n      pop\n        /* \"#utility.yul\":11462:11828   */\n      swap2\n      swap1\n      pop\n      jump\t// out\n        /* \"#utility.yul\":11834:12253   */\n    tag_74:\n        /* \"#utility.yul\":12000:12004   */\n      0x00\n        /* \"#utility.yul\":12038:12040   */\n      0x20\n        /* \"#utility.yul\":12027:12036   */\n      dup3\n        /* \"#utility.yul\":12023:12041   */\n      add\n        /* \"#utility.yul\":12015:12041   */\n      swap1\n      pop\n        /* \"#utility.yul\":12087:12096   */\n      dup2\n        /* \"#utility.yul\":12081:12085   */\n      dup2\n        /* \"#utility.yul\":12077:12097   */\n      sub\n        /* \"#utility.yul\":12073:12074   */\n      0x00\n        /* \"#utility.yul\":12062:12071   */\n      dup4\n        /* \"#utility.yul\":12058:12075   */\n      add\n        /* \"#utility.yul\":12051:12098   */\n      mstore\n        /* \"#utility.yul\":12115:12246   */\n      tag_312\n        /* \"#utility.yul\":12241:12245   */\n      dup2\n        /* \"#utility.yul\":12115:12246   */\n      tag_178\n      jump\t// in\n    tag_312:\n        /* \"#utility.yul\":12107:12246   */\n      swap1\n      pop\n        /* \"#utility.yul\":11834:12253   */\n      swap2\n      swap1\n      pop\n      jump\t// out\n        /* \"#utility.yul\":12259:12433   */\n    tag_179:\n        /* \"#utility.yul\":12399:12425   */\n      0x496e636f7272656374207061796d656e7420616d6f756e740000000000000000\n        /* \"#utility.yul\":12395:12396   */\n      0x00\n        /* \"#utility.yul\":12387:12393   */\n      dup3\n        /* \"#utility.yul\":12383:12397   */\n      add\n        /* \"#utility.yul\":12376:12426   */\n      mstore\n        /* \"#utility.yul\":12259:12433   */\n      pop\n      jump\t// out\n        /* \"#utility.yul\":12439:12805   */\n    tag_180:\n        /* \"#utility.yul\":12581:12584   */\n      0x00\n        /* \"#utility.yul\":12602:12669   */\n      tag_315\n        /* \"#utility.yul\":12666:12668   */\n      0x18\n        /* \"#utility.yul\":12661:12664   */\n      dup4\n        /* \"#utility.yul\":12602:12669   */\n      tag_163\n      jump\t// in\n    tag_315:\n        /* \"#utility.yul\":12595:12669   */\n      swap2\n      pop\n        /* \"#utility.yul\":12678:12771   */\n      tag_316\n        /* \"#utility.yul\":12767:12770   */\n      dup3\n        /* \"#utility.yul\":12678:12771   */\n      tag_179\n      jump\t// in\n    tag_316:\n        /* \"#utility.yul\":12796:12798   */\n      0x20\n        /* \"#utility.yul\":12791:12794   */\n      dup3\n        /* \"#utility.yul\":12787:12799   */\n      add\n        /* \"#utility.yul\":12780:12799   */\n      swap1\n      pop\n        /* \"#utility.yul\":12439:12805   */\n      swap2\n      swap1\n      pop\n      jump\t// out\n        /* \"#utility.yul\":12811:13230   */\n    tag_89:\n        /* \"#utility.yul\":12977:12981   */\n      0x00\n        /* \"#utility.yul\":13015:13017   */\n      0x20\n        /* \"#utility.yul\":13004:13013   */\n      dup3\n        /* \"#utility.yul\":13000:13018   */\n      add\n        /* \"#utility.yul\":12992:13018   */\n      swap1\n      pop\n        /* \"#utility.yul\":13064:13073   */\n      dup2\n        /* \"#utility.yul\":13058:13062   */\n      dup2\n        /* \"#utility.yul\":13054:13074   */\n      sub\n        /* \"#utility.yul\":13050:13051   */\n      0x00\n        /* \"#utility.yul\":13039:13048   */\n      dup4\n        /* \"#utility.yul\":13035:13052   */\n      add\n        /* \"#utility.yul\":13028:13075   */\n      mstore\n        /* \"#utility.yul\":13092:13223   */\n      tag_318\n        /* \"#utility.yul\":13218:13222   */\n      dup2\n        /* \"#utility.yul\":13092:13223   */\n      tag_180\n      jump\t// in\n    tag_318:\n        /* \"#utility.yul\":13084:13223   */\n      swap1\n      pop\n        /* \"#utility.yul\":12811:13230   */\n      swap2\n      swap1\n      pop\n      jump\t// out\n        /* \"#utility.yul\":13236:13568   */\n    tag_94:\n        /* \"#utility.yul\":13357:13361   */\n      0x00\n        /* \"#utility.yul\":13395:13397   */\n      0x40\n        /* \"#utility.yul\":13384:13393   */\n      dup3\n        /* \"#utility.yul\":13380:13398   */\n      add\n        /* \"#utility.yul\":13372:13398   */\n      swap1\n      pop\n        /* \"#utility.yul\":13408:13479   */\n      tag_320\n        /* \"#utility.yul\":13476:13477   */\n      0x00\n        /* \"#utility.yul\":13465:13474   */\n      dup4\n        /* \"#utility.yul\":13461:13478   */\n      add\n        /* \"#utility.yul\":13452:13458   */\n      dup6\n        /* \"#utility.yul\":13408:13479   */\n      tag_153\n      jump\t// in\n    tag_320:\n        /* \"#utility.yul\":13489:13561   */\n      tag_321\n        /* \"#utility.yul\":13557:13559   */\n      0x20\n        /* \"#utility.yul\":13546:13555   */\n      dup4\n        /* \"#utility.yul\":13542:13560   */\n      add\n        /* \"#utility.yul\":13533:13539   */\n      dup5\n        /* \"#utility.yul\":13489:13561   */\n      tag_153\n      jump\t// in\n    tag_321:\n        /* \"#utility.yul\":13236:13568   */\n      swap4\n      swap3\n      pop\n      pop\n      pop\n      jump\t// out\n        /* \"#utility.yul\":13574:13717   */\n    tag_181:\n        /* \"#utility.yul\":13631:13636   */\n      0x00\n        /* \"#utility.yul\":13662:13668   */\n      dup2\n        /* \"#utility.yul\":13656:13669   */\n      mload\n        /* \"#utility.yul\":13647:13669   */\n      swap1\n      pop\n        /* \"#utility.yul\":13678:13711   */\n      tag_323\n        /* \"#utility.yul\":13705:13710   */\n      dup2\n        /* \"#utility.yul\":13678:13711   */\n      tag_159\n      jump\t// in\n    tag_323:\n        /* \"#utility.yul\":13574:13717   */\n      swap3\n      swap2\n      pop\n      pop\n      jump\t// out\n        /* \"#utility.yul\":13723:14074   */\n    tag_98:\n        /* \"#utility.yul\":13793:13799   */\n      0x00\n        /* \"#utility.yul\":13842:13844   */\n      0x20\n        /* \"#utility.yul\":13830:13839   */\n      dup3\n        /* \"#utility.yul\":13821:13828   */\n      dup5\n        /* \"#utility.yul\":13817:13840   */\n      sub\n        /* \"#utility.yul\":13813:13845   */\n      slt\n        /* \"#utility.yul\":13810:13929   */\n      iszero\n      tag_325\n      jumpi\n        /* \"#utility.yul\":13848:13927   */\n      tag_326\n      tag_157\n      jump\t// in\n    tag_326:\n        /* \"#utility.yul\":13810:13929   */\n    tag_325:\n        /* \"#utility.yul\":13968:13969   */\n      0x00\n        /* \"#utility.yul\":13993:14057   */\n      tag_327\n        /* \"#utility.yul\":14049:14056   */\n      dup5\n        /* \"#utility.yul\":14040:14046   */\n      dup3\n        /* \"#utility.yul\":14029:14038   */\n      dup6\n        /* \"#utility.yul\":14025:14047   */\n      add\n        /* \"#utility.yul\":13993:14057   */\n      tag_181\n      jump\t// in\n    tag_327:\n        /* \"#utility.yul\":13983:14057   */\n      swap2\n      pop\n        /* \"#utility.yul\":13939:14067   */\n      pop\n        /* \"#utility.yul\":13723:14074   */\n      swap3\n      swap2\n      pop\n      pop\n      jump\t// out\n        /* \"#utility.yul\":14080:14261   */\n    tag_182:\n        /* \"#utility.yul\":14220:14253   */\n      0x5061796d656e7420746f6b656e20616c6c6f77616e636520746f6f206c6f7700\n        /* \"#utility.yul\":14216:14217   */\n      0x00\n        /* \"#utility.yul\":14208:14214   */\n      dup3\n        /* \"#utility.yul\":14204:14218   */\n      add\n        /* \"#utility.yul\":14197:14254   */\n      mstore\n        /* \"#utility.yul\":14080:14261   */\n      pop\n      jump\t// out\n        /* \"#utility.yul\":14267:14633   */\n    tag_183:\n        /* \"#utility.yul\":14409:14412   */\n      0x00\n        /* \"#utility.yul\":14430:14497   */\n      tag_330\n        /* \"#utility.yul\":14494:14496   */\n      0x1f\n        /* \"#utility.yul\":14489:14492   */\n      dup4\n        /* \"#utility.yul\":14430:14497   */\n      tag_163\n      jump\t// in\n    tag_330:\n        /* \"#utility.yul\":14423:14497   */\n      swap2\n      pop\n        /* \"#utility.yul\":14506:14599   */\n      tag_331\n        /* \"#utility.yul\":14595:14598   */\n      dup3\n        /* \"#utility.yul\":14506:14599   */\n      tag_182\n      jump\t// in\n    tag_331:\n        /* \"#utility.yul\":14624:14626   */\n      0x20\n        /* \"#utility.yul\":14619:14622   */\n      dup3\n        /* \"#utility.yul\":14615:14627   */\n      add\n        /* \"#utility.yul\":14608:14627   */\n      swap1\n      pop\n        /* \"#utility.yul\":14267:14633   */\n      swap2\n      swap1\n      pop\n      jump\t// out\n        /* \"#utility.yul\":14639:15058   */\n    tag_101:\n        /* \"#utility.yul\":14805:14809   */\n      0x00\n        /* \"#utility.yul\":14843:14845   */\n      0x20\n        /* \"#utility.yul\":14832:14841   */\n      dup3\n        /* \"#utility.yul\":14828:14846   */\n      add\n        /* \"#utility.yul\":14820:14846   */\n      swap1\n      pop\n        /* \"#utility.yul\":14892:14901   */\n      dup2\n        /* \"#utility.yul\":14886:14890   */\n      dup2\n        /* \"#utility.yul\":14882:14902   */\n      sub\n        /* \"#utility.yul\":14878:14879   */\n      0x00\n        /* \"#utility.yul\":14867:14876   */\n      dup4\n        /* \"#utility.yul\":14863:14880   */\n      add\n        /* \"#utility.yul\":14856:14903   */\n      mstore\n        /* \"#utility.yul\":14920:15051   */\n      tag_333\n        /* \"#utility.yul\":15046:15050   */\n      dup2\n        /* \"#utility.yul\":14920:15051   */\n      tag_183\n      jump\t// in\n    tag_333:\n        /* \"#utility.yul\":14912:15051   */\n      swap1\n      pop\n        /* \"#utility.yul\":14639:15058   */\n      swap2\n      swap1\n      pop\n      jump\t// out\n        /* \"#utility.yul\":15064:15506   */\n    tag_103:\n        /* \"#utility.yul\":15213:15217   */\n      0x00\n        /* \"#utility.yul\":15251:15253   */\n      0x60\n        /* \"#utility.yul\":15240:15249   */\n      dup3\n        /* \"#utility.yul\":15236:15254   */\n      add\n        /* \"#utility.yul\":15228:15254   */\n      swap1\n      pop\n        /* \"#utility.yul\":15264:15335   */\n      tag_335\n        /* \"#utility.yul\":15332:15333   */\n      0x00\n        /* \"#utility.yul\":15321:15330   */\n      dup4\n        /* \"#utility.yul\":15317:15334   */\n      add\n        /* \"#utility.yul\":15308:15314   */\n      dup7\n        /* \"#utility.yul\":15264:15335   */\n      tag_153\n      jump\t// in\n    tag_335:\n        /* \"#utility.yul\":15345:15417   */\n      tag_336\n        /* \"#utility.yul\":15413:15415   */\n      0x20\n        /* \"#utility.yul\":15402:15411   */\n      dup4\n        /* \"#utility.yul\":15398:15416   */\n      add\n        /* \"#utility.yul\":15389:15395   */\n      dup6\n        /* \"#utility.yul\":15345:15417   */\n      tag_153\n      jump\t// in\n    tag_336:\n        /* \"#utility.yul\":15427:15499   */\n      tag_337\n        /* \"#utility.yul\":15495:15497   */\n      0x40\n        /* \"#utility.yul\":15484:15493   */\n      dup4\n        /* \"#utility.yul\":15480:15498   */\n      add\n        /* \"#utility.yul\":15471:15477   */\n      dup5\n        /* \"#utility.yul\":15427:15499   */\n      tag_155\n      jump\t// in\n    tag_337:\n        /* \"#utility.yul\":15064:15506   */\n      swap5\n      swap4\n      pop\n      pop\n      pop\n      pop\n      jump\t// out\n        /* \"#utility.yul\":15512:15688   */\n    tag_184:\n        /* \"#utility.yul\":15652:15680   */\n      0x436f6d6d697373696f6e207472616e73666572206661696c6564000000000000\n        /* \"#utility.yul\":15648:15649   */\n      0x00\n        /* \"#utility.yul\":15640:15646   */\n      dup3\n        /* \"#utility.yul\":15636:15650   */\n      add\n        /* \"#utility.yul\":15629:15681   */\n      mstore\n        /* \"#utility.yul\":15512:15688   */\n      pop\n      jump\t// out\n        /* \"#utility.yul\":15694:16060   */\n    tag_185:\n        /* \"#utility.yul\":15836:15839   */\n      0x00\n        /* \"#utility.yul\":15857:15924   */\n      tag_340\n        /* \"#utility.yul\":15921:15923   */\n      0x1a\n        /* \"#utility.yul\":15916:15919   */\n      dup4\n        /* \"#utility.yul\":15857:15924   */\n      tag_163\n      jump\t// in\n    tag_340:\n        /* \"#utility.yul\":15850:15924   */\n      swap2\n      pop\n        /* \"#utility.yul\":15933:16026   */\n      tag_341\n        /* \"#utility.yul\":16022:16025   */\n      dup3\n        /* \"#utility.yul\":15933:16026   */\n      tag_184\n      jump\t// in\n    tag_341:\n        /* \"#utility.yul\":16051:16053   */\n      0x20\n        /* \"#utility.yul\":16046:16049   */\n      dup3\n        /* \"#utility.yul\":16042:16054   */\n      add\n        /* \"#utility.yul\":16035:16054   */\n      swap1\n      pop\n        /* \"#utility.yul\":15694:16060   */\n      swap2\n      swap1\n      pop\n      jump\t// out\n        /* \"#utility.yul\":16066:16485   */\n    tag_109:\n        /* \"#utility.yul\":16232:16236   */\n      0x00\n        /* \"#utility.yul\":16270:16272   */\n      0x20\n        /* \"#utility.yul\":16259:16268   */\n      dup3\n        /* \"#utility.yul\":16255:16273   */\n      add\n        /* \"#utility.yul\":16247:16273   */\n      swap1\n      pop\n        /* \"#utility.yul\":16319:16328   */\n      dup2\n        /* \"#utility.yul\":16313:16317   */\n      dup2\n        /* \"#utility.yul\":16309:16329   */\n      sub\n        /* \"#utility.yul\":16305:16306   */\n      0x00\n        /* \"#utility.yul\":16294:16303   */\n      dup4\n        /* \"#utility.yul\":16290:16307   */\n      add\n        /* \"#utility.yul\":16283:16330   */\n      mstore\n        /* \"#utility.yul\":16347:16478   */\n      tag_343\n        /* \"#utility.yul\":16473:16477   */\n      dup2\n        /* \"#utility.yul\":16347:16478   */\n      tag_185\n      jump\t// in\n    tag_343:\n        /* \"#utility.yul\":16339:16478   */\n      swap1\n      pop\n        /* \"#utility.yul\":16066:16485   */\n      swap2\n      swap1\n      pop\n      jump\t// out\n        /* \"#utility.yul\":16491:16670   */\n    tag_186:\n        /* \"#utility.yul\":16631:16662   */\n      0x5061796d656e7420746f6b656e207472616e73666572206661696c6564000000\n        /* \"#utility.yul\":16627:16628   */\n      0x00\n        /* \"#utility.yul\":16619:16625   */\n      dup3\n        /* \"#utility.yul\":16615:16629   */\n      add\n        /* \"#utility.yul\":16608:16663   */\n      mstore\n        /* \"#utility.yul\":16491:16670   */\n      pop\n      jump\t// out\n        /* \"#utility.yul\":16676:17042   */\n    tag_187:\n        /* \"#utility.yul\":16818:16821   */\n      0x00\n        /* \"#utility.yul\":16839:16906   */\n      tag_346\n        /* \"#utility.yul\":16903:16905   */\n      0x1d\n        /* \"#utility.yul\":16898:16901   */\n      dup4\n        /* \"#utility.yul\":16839:16906   */\n      tag_163\n      jump\t// in\n    tag_346:\n        /* \"#utility.yul\":16832:16906   */\n      swap2\n      pop\n        /* \"#utility.yul\":16915:17008   */\n      tag_347\n        /* \"#utility.yul\":17004:17007   */\n      dup3\n        /* \"#utility.yul\":16915:17008   */\n      tag_186\n      jump\t// in\n    tag_347:\n        /* \"#utility.yul\":17033:17035   */\n      0x20\n        /* \"#utility.yul\":17028:17031   */\n      dup3\n        /* \"#utility.yul\":17024:17036   */\n      add\n        /* \"#utility.yul\":17017:17036   */\n      swap1\n      pop\n        /* \"#utility.yul\":16676:17042   */\n      swap2\n      swap1\n      pop\n      jump\t// out\n        /* \"#utility.yul\":17048:17467   */\n    tag_116:\n        /* \"#utility.yul\":17214:17218   */\n      0x00\n        /* \"#utility.yul\":17252:17254   */\n      0x20\n        /* \"#utility.yul\":17241:17250   */\n      dup3\n        /* \"#utility.yul\":17237:17255   */\n      add\n        /* \"#utility.yul\":17229:17255   */\n      swap1\n      pop\n        /* \"#utility.yul\":17301:17310   */\n      dup2\n        /* \"#utility.yul\":17295:17299   */\n      dup2\n        /* \"#utility.yul\":17291:17311   */\n      sub\n        /* \"#utility.yul\":17287:17288   */\n      0x00\n        /* \"#utility.yul\":17276:17285   */\n      dup4\n        /* \"#utility.yul\":17272:17289   */\n      add\n        /* \"#utility.yul\":17265:17312   */\n      mstore\n        /* \"#utility.yul\":17329:17460   */\n      tag_349\n        /* \"#utility.yul\":17455:17459   */\n      dup2\n        /* \"#utility.yul\":17329:17460   */\n      tag_187\n      jump\t// in\n    tag_349:\n        /* \"#utility.yul\":17321:17460   */\n      swap1\n      pop\n        /* \"#utility.yul\":17048:17467   */\n      swap2\n      swap1\n      pop\n      jump\t// out\n        /* \"#utility.yul\":17473:17654   */\n    tag_188:\n        /* \"#utility.yul\":17613:17646   */\n      0x5072696365206d7573742062652067726561746572207468616e207a65726f00\n        /* \"#utility.yul\":17609:17610   */\n      0x00\n        /* \"#utility.yul\":17601:17607   */\n      dup3\n        /* \"#utility.yul\":17597:17611   */\n      add\n        /* \"#utility.yul\":17590:17647   */\n      mstore\n        /* \"#utility.yul\":17473:17654   */\n      pop\n      jump\t// out\n        /* \"#utility.yul\":17660:18026   */\n    tag_189:\n        /* \"#utility.yul\":17802:17805   */\n      0x00\n        /* \"#utility.yul\":17823:17890   */\n      tag_352\n        /* \"#utility.yul\":17887:17889   */\n      0x1f\n        /* \"#utility.yul\":17882:17885   */\n      dup4\n        /* \"#utility.yul\":17823:17890   */\n      tag_163\n      jump\t// in\n    tag_352:\n        /* \"#utility.yul\":17816:17890   */\n      swap2\n      pop\n        /* \"#utility.yul\":17899:17992   */\n      tag_353\n        /* \"#utility.yul\":17988:17991   */\n      dup3\n        /* \"#utility.yul\":17899:17992   */\n      tag_188\n      jump\t// in\n    tag_353:\n        /* \"#utility.yul\":18017:18019   */\n      0x20\n        /* \"#utility.yul\":18012:18015   */\n      dup3\n        /* \"#utility.yul\":18008:18020   */\n      add\n        /* \"#utility.yul\":18001:18020   */\n      swap1\n      pop\n        /* \"#utility.yul\":17660:18026   */\n      swap2\n      swap1\n      pop\n      jump\t// out\n        /* \"#utility.yul\":18032:18451   */\n    tag_127:\n        /* \"#utility.yul\":18198:18202   */\n      0x00\n        /* \"#utility.yul\":18236:18238   */\n      0x20\n        /* \"#utility.yul\":18225:18234   */\n      dup3\n        /* \"#utility.yul\":18221:18239   */\n      add\n        /* \"#utility.yul\":18213:18239   */\n      swap1\n      pop\n        /* \"#utility.yul\":18285:18294   */\n      dup2\n        /* \"#utility.yul\":18279:18283   */\n      dup2\n        /* \"#utility.yul\":18275:18295   */\n      sub\n        /* \"#utility.yul\":18271:18272   */\n      0x00\n        /* \"#utility.yul\":18260:18269   */\n      dup4\n        /* \"#utility.yul\":18256:18273   */\n      add\n        /* \"#utility.yul\":18249:18296   */\n      mstore\n        /* \"#utility.yul\":18313:18444   */\n      tag_355\n        /* \"#utility.yul\":18439:18443   */\n      dup2\n        /* \"#utility.yul\":18313:18444   */\n      tag_189\n      jump\t// in\n    tag_355:\n        /* \"#utility.yul\":18305:18444   */\n      swap1\n      pop\n        /* \"#utility.yul\":18032:18451   */\n      swap2\n      swap1\n      pop\n      jump\t// out\n        /* \"#utility.yul\":18457:18639   */\n    tag_190:\n        /* \"#utility.yul\":18597:18631   */\n      0x546f6b656e73206d7573742062652067726561746572207468616e207a65726f\n        /* \"#utility.yul\":18593:18594   */\n      0x00\n        /* \"#utility.yul\":18585:18591   */\n      dup3\n        /* \"#utility.yul\":18581:18595   */\n      add\n        /* \"#utility.yul\":18574:18632   */\n      mstore\n        /* \"#utility.yul\":18457:18639   */\n      pop\n      jump\t// out\n        /* \"#utility.yul\":18645:19011   */\n    tag_191:\n        /* \"#utility.yul\":18787:18790   */\n      0x00\n        /* \"#utility.yul\":18808:18875   */\n      tag_358\n        /* \"#utility.yul\":18872:18874   */\n      0x20\n        /* \"#utility.yul\":18867:18870   */\n      dup4\n        /* \"#utility.yul\":18808:18875   */\n      tag_163\n      jump\t// in\n    tag_358:\n        /* \"#utility.yul\":18801:18875   */\n      swap2\n      pop\n        /* \"#utility.yul\":18884:18977   */\n      tag_359\n        /* \"#utility.yul\":18973:18976   */\n      dup3\n        /* \"#utility.yul\":18884:18977   */\n      tag_190\n      jump\t// in\n    tag_359:\n        /* \"#utility.yul\":19002:19004   */\n      0x20\n        /* \"#utility.yul\":18997:19000   */\n      dup3\n        /* \"#utility.yul\":18993:19005   */\n      add\n        /* \"#utility.yul\":18986:19005   */\n      swap1\n      pop\n        /* \"#utility.yul\":18645:19011   */\n      swap2\n      swap1\n      pop\n      jump\t// out\n        /* \"#utility.yul\":19017:19436   */\n    tag_130:\n        /* \"#utility.yul\":19183:19187   */\n      0x00\n        /* \"#utility.yul\":19221:19223   */\n      0x20\n        /* \"#utility.yul\":19210:19219   */\n      dup3\n        /* \"#utility.yul\":19206:19224   */\n      add\n        /* \"#utility.yul\":19198:19224   */\n      swap1\n      pop\n        /* \"#utility.yul\":19270:19279   */\n      dup2\n        /* \"#utility.yul\":19264:19268   */\n      dup2\n        /* \"#utility.yul\":19260:19280   */\n      sub\n        /* \"#utility.yul\":19256:19257   */\n      0x00\n        /* \"#utility.yul\":19245:19254   */\n      dup4\n        /* \"#utility.yul\":19241:19258   */\n      add\n        /* \"#utility.yul\":19234:19281   */\n      mstore\n        /* \"#utility.yul\":19298:19429   */\n      tag_361\n        /* \"#utility.yul\":19424:19428   */\n      dup2\n        /* \"#utility.yul\":19298:19429   */\n      tag_191\n      jump\t// in\n    tag_361:\n        /* \"#utility.yul\":19290:19429   */\n      swap1\n      pop\n        /* \"#utility.yul\":19017:19436   */\n      swap2\n      swap1\n      pop\n      jump\t// out\n        /* \"#utility.yul\":19442:19663   */\n    tag_192:\n        /* \"#utility.yul\":19582:19616   */\n      0x4475726174696f6e206d7573742062652067726561746572207468616e207a65\n        /* \"#utility.yul\":19578:19579   */\n      0x00\n        /* \"#utility.yul\":19570:19576   */\n      dup3\n        /* \"#utility.yul\":19566:19580   */\n      add\n        /* \"#utility.yul\":19559:19617   */\n      mstore\n        /* \"#utility.yul\":19651:19655   */\n      0x726f000000000000000000000000000000000000000000000000000000000000\n        /* \"#utility.yul\":19646:19648   */\n      0x20\n        /* \"#utility.yul\":19638:19644   */\n      dup3\n        /* \"#utility.yul\":19634:19649   */\n      add\n        /* \"#utility.yul\":19627:19656   */\n      mstore\n        /* \"#utility.yul\":19442:19663   */\n      pop\n      jump\t// out\n        /* \"#utility.yul\":19669:20035   */\n    tag_193:\n        /* \"#utility.yul\":19811:19814   */\n      0x00\n        /* \"#utility.yul\":19832:19899   */\n      tag_364\n        /* \"#utility.yul\":19896:19898   */\n      0x22\n        /* \"#utility.yul\":19891:19894   */\n      dup4\n        /* \"#utility.yul\":19832:19899   */\n      tag_163\n      jump\t// in\n    tag_364:\n        /* \"#utility.yul\":19825:19899   */\n      swap2\n      pop\n        /* \"#utility.yul\":19908:20001   */\n      tag_365\n        /* \"#utility.yul\":19997:20000   */\n      dup3\n        /* \"#utility.yul\":19908:20001   */\n      tag_192\n      jump\t// in\n    tag_365:\n        /* \"#utility.yul\":20026:20028   */\n      0x40\n        /* \"#utility.yul\":20021:20024   */\n      dup3\n        /* \"#utility.yul\":20017:20029   */\n      add\n        /* \"#utility.yul\":20010:20029   */\n      swap1\n      pop\n        /* \"#utility.yul\":19669:20035   */\n      swap2\n      swap1\n      pop\n      jump\t// out\n        /* \"#utility.yul\":20041:20460   */\n    tag_133:\n        /* \"#utility.yul\":20207:20211   */\n      0x00\n        /* \"#utility.yul\":20245:20247   */\n      0x20\n        /* \"#utility.yul\":20234:20243   */\n      dup3\n        /* \"#utility.yul\":20230:20248   */\n      add\n        /* \"#utility.yul\":20222:20248   */\n      swap1\n      pop\n        /* \"#utility.yul\":20294:20303   */\n      dup2\n        /* \"#utility.yul\":20288:20292   */\n      dup2\n        /* \"#utility.yul\":20284:20304   */\n      sub\n        /* \"#utility.yul\":20280:20281   */\n      0x00\n        /* \"#utility.yul\":20269:20278   */\n      dup4\n        /* \"#utility.yul\":20265:20282   */\n      add\n        /* \"#utility.yul\":20258:20305   */\n      mstore\n        /* \"#utility.yul\":20322:20453   */\n      tag_367\n        /* \"#utility.yul\":20448:20452   */\n      dup2\n        /* \"#utility.yul\":20322:20453   */\n      tag_193\n      jump\t// in\n    tag_367:\n        /* \"#utility.yul\":20314:20453   */\n      swap1\n      pop\n        /* \"#utility.yul\":20041:20460   */\n      swap2\n      swap1\n      pop\n      jump\t// out\n        /* \"#utility.yul\":20466:20639   */\n    tag_194:\n        /* \"#utility.yul\":20606:20631   */\n      0x546f6b656e20616c6c6f77616e636520746f6f206c6f77000000000000000000\n        /* \"#utility.yul\":20602:20603   */\n      0x00\n        /* \"#utility.yul\":20594:20600   */\n      dup3\n        /* \"#utility.yul\":20590:20604   */\n      add\n        /* \"#utility.yul\":20583:20632   */\n      mstore\n        /* \"#utility.yul\":20466:20639   */\n      pop\n      jump\t// out\n        /* \"#utility.yul\":20645:21011   */\n    tag_195:\n        /* \"#utility.yul\":20787:20790   */\n      0x00\n        /* \"#utility.yul\":20808:20875   */\n      tag_370\n        /* \"#utility.yul\":20872:20874   */\n      0x17\n        /* \"#utility.yul\":20867:20870   */\n      dup4\n        /* \"#utility.yul\":20808:20875   */\n      tag_163\n      jump\t// in\n    tag_370:\n        /* \"#utility.yul\":20801:20875   */\n      swap2\n      pop\n        /* \"#utility.yul\":20884:20977   */\n      tag_371\n        /* \"#utility.yul\":20973:20976   */\n      dup3\n        /* \"#utility.yul\":20884:20977   */\n      tag_194\n      jump\t// in\n    tag_371:\n        /* \"#utility.yul\":21002:21004   */\n      0x20\n        /* \"#utility.yul\":20997:21000   */\n      dup3\n        /* \"#utility.yul\":20993:21005   */\n      add\n        /* \"#utility.yul\":20986:21005   */\n      swap1\n      pop\n        /* \"#utility.yul\":20645:21011   */\n      swap2\n      swap1\n      pop\n      jump\t// out\n        /* \"#utility.yul\":21017:21436   */\n    tag_140:\n        /* \"#utility.yul\":21183:21187   */\n      0x00\n        /* \"#utility.yul\":21221:21223   */\n      0x20\n        /* \"#utility.yul\":21210:21219   */\n      dup3\n        /* \"#utility.yul\":21206:21224   */\n      add\n        /* \"#utility.yul\":21198:21224   */\n      swap1\n      pop\n        /* \"#utility.yul\":21270:21279   */\n      dup2\n        /* \"#utility.yul\":21264:21268   */\n      dup2\n        /* \"#utility.yul\":21260:21280   */\n      sub\n        /* \"#utility.yul\":21256:21257   */\n      0x00\n        /* \"#utility.yul\":21245:21254   */\n      dup4\n        /* \"#utility.yul\":21241:21258   */\n      add\n        /* \"#utility.yul\":21234:21281   */\n      mstore\n        /* \"#utility.yul\":21298:21429   */\n      tag_373\n        /* \"#utility.yul\":21424:21428   */\n      dup2\n        /* \"#utility.yul\":21298:21429   */\n      tag_195\n      jump\t// in\n    tag_373:\n        /* \"#utility.yul\":21290:21429   */\n      swap1\n      pop\n        /* \"#utility.yul\":21017:21436   */\n      swap2\n      swap1\n      pop\n      jump\t// out\n        /* \"#utility.yul\":21442:21675   */\n    tag_148:\n        /* \"#utility.yul\":21481:21484   */\n      0x00\n        /* \"#utility.yul\":21504:21528   */\n      tag_375\n        /* \"#utility.yul\":21522:21527   */\n      dup3\n        /* \"#utility.yul\":21504:21528   */\n      tag_154\n      jump\t// in\n    tag_375:\n        /* \"#utility.yul\":21495:21528   */\n      swap2\n      pop\n        /* \"#utility.yul\":21550:21616   */\n      0xffffffffffffffffffffffffffffffffffffffffffffffffffffffffffffffff\n        /* \"#utility.yul\":21543:21548   */\n      dup3\n        /* \"#utility.yul\":21540:21617   */\n      sub\n        /* \"#utility.yul\":21537:21640   */\n      tag_376\n      jumpi\n        /* \"#utility.yul\":21620:21638   */\n      tag_377\n      tag_170\n      jump\t// in\n    tag_377:\n        /* \"#utility.yul\":21537:21640   */\n    tag_376:\n        /* \"#utility.yul\":21667:21668   */\n      0x01\n        /* \"#utility.yul\":21660:21665   */\n      dup3\n        /* \"#utility.yul\":21656:21669   */\n      add\n        /* \"#utility.yul\":21649:21669   */\n      swap1\n      pop\n        /* \"#utility.yul\":21442:21675   */\n      swap2\n      swap1\n      pop\n      jump\t// out\n        /* \"#utility.yul\":21681:21872   */\n    tag_150:\n        /* \"#utility.yul\":21721:21724   */\n      0x00\n        /* \"#utility.yul\":21740:21760   */\n      tag_379\n        /* \"#utility.yul\":21758:21759   */\n      dup3\n        /* \"#utility.yul\":21740:21760   */\n      tag_154\n      jump\t// in\n    tag_379:\n        /* \"#utility.yul\":21735:21760   */\n      swap2\n      pop\n        /* \"#utility.yul\":21774:21794   */\n      tag_380\n        /* \"#utility.yul\":21792:21793   */\n      dup4\n        /* \"#utility.yul\":21774:21794   */\n      tag_154\n      jump\t// in\n    tag_380:\n        /* \"#utility.yul\":21769:21794   */\n      swap3\n      pop\n        /* \"#utility.yul\":21817:21818   */\n      dup3\n        /* \"#utility.yul\":21814:21815   */\n      dup3\n        /* \"#utility.yul\":21810:21819   */\n      add\n        /* \"#utility.yul\":21803:21819   */\n      swap1\n      pop\n        /* \"#utility.yul\":21838:21841   */\n      dup1\n        /* \"#utility.yul\":21835:21836   */\n      dup3\n        /* \"#utility.yul\":21832:21842   */\n      gt\n        /* \"#utility.yul\":21829:21865   */\n      iszero\n      tag_381\n      jumpi\n        /* \"#utility.yul\":21845:21863   */\n      tag_382\n      tag_170\n      jump\t// in\n    tag_382:\n        /* \"#utility.yul\":21829:21865   */\n    tag_381:\n        /* \"#utility.yul\":21681:21872   */\n      swap3\n      swap2\n      pop\n      pop\n      jump\t// out\n\n    auxdata: 0xa264697066735822122066ece59cf0048f266d5dbd0339e6a0c701006a8c1afdc591624a26fd4dd875f464736f6c634300081c0033\n}\n",
				"bytecode": {
					"linkReferences": {},
					"object": "6080604052348015600e575f5ffd5b5061186e8061001c5f395ff3fe60806040526004361061006f575f3560e01c80637975ce281161004d5780637975ce28146100f15780637a82a87f1461010d5780639ffae41b14610135578063de74e57b1461015d5761006f565b806317c73ff0146100735780631bf1de9b1461009d5780636c2c9c7d146100c7575b5f5ffd5b34801561007e575f5ffd5b5061008761019d565b6040516100949190610dd6565b60405180910390f35b3480156100a8575f5ffd5b506100b16101b5565b6040516100be9190610e07565b60405180910390f35b3480156100d2575f5ffd5b506100db6101ba565b6040516100e89190610e07565b60405180910390f35b61010b60048036038101906101069190610e4e565b6101c0565b005b348015610118575f5ffd5b50610133600480360381019061012e9190610eb6565b6104e2565b005b348015610140575f5ffd5b5061015b60048036038101906101569190610f1a565b6109b2565b005b348015610168575f5ffd5b50610183600480360381019061017e9190610f7e565b610d28565b604051610194959493929190610fa9565b60405180910390f35b73fcf8d2b098b3160654bbada1a8769483c71c288b81565b600a81565b60015481565b5f5f5f8481526020019081526020015f2090505f816002015411610219576040517f08c379a000000000000000000000000000000000000000000000000000000000815260040161021090611054565b60405180910390fd5b8060040154421115610260576040517f08c379a0000000000000000000000000000000000000000000000000000000008152600401610257906110bc565b60405180910390fd5b81816002015410156102a7576040517f08c379a000000000000000000000000000000000000000000000000000000000815260040161029e9061114a565b60405180910390fd5b5f8282600101546102b89190611195565b90508034146102fc576040517f08c379a00000000000000000000000000000000000000000000000000000000081526004016102f390611220565b60405180910390fd5b5f6064600a8361030c9190611195565b610316919061126b565b90505f8183610325919061129b565b9050848460020154610337919061129b565b8460020181905550835f015f9054906101000a900473ffffffffffffffffffffffffffffffffffffffff1673ffffffffffffffffffffffffffffffffffffffff1663a9059cbb33876040518363ffffffff1660e01b815260040161039c9291906112ce565b6020604051808303815f875af11580156103b8573d5f5f3e3d5ffd5b505050506040513d601f19601f820116820180604052508101906103dc919061132a565b61041b576040517f08c379a00000000000000000000000000000000000000000000000000000000081526004016104129061139f565b60405180910390fd5b73fcf8d2b098b3160654bbada1a8769483c71c288b73ffffffffffffffffffffffffffffffffffffffff166108fc8390811502906040515f60405180830381858888f19350505050158015610472573d5f5f3e3d5ffd5b50836003015f9054906101000a900473ffffffffffffffffffffffffffffffffffffffff1673ffffffffffffffffffffffffffffffffffffffff166108fc8290811502906040515f60405180830381858888f193505050501580156104d9573d5f5f3e3d5ffd5b50505050505050565b5f5f5f8681526020019081526020015f2090505f81600201541161053b576040517f08c379a000000000000000000000000000000000000000000000000000000000815260040161053290611054565b60405180910390fd5b8060040154421115610582576040517f08c379a0000000000000000000000000000000000000000000000000000000008152600401610579906110bc565b60405180910390fd5b83816002015410156105c9576040517f08c379a00000000000000000000000000000000000000000000000000000000081526004016105c09061114a565b60405180910390fd5b5f8482600101546105da9190611195565b905080831461061e576040517f08c379a000000000000000000000000000000000000000000000000000000000815260040161061590611407565b60405180910390fd5b5f6064600a8561062e9190611195565b610638919061126b565b90505f8185610647919061129b565b9050848673ffffffffffffffffffffffffffffffffffffffff1663dd62ed3e33306040518363ffffffff1660e01b8152600401610685929190611425565b602060405180830381865afa1580156106a0573d5f5f3e3d5ffd5b505050506040513d601f19601f820116820180604052508101906106c49190611460565b1015610705576040517f08c379a00000000000000000000000000000000000000000000000000000000081526004016106fc906114d5565b60405180910390fd5b8573ffffffffffffffffffffffffffffffffffffffff166323b872dd3373fcf8d2b098b3160654bbada1a8769483c71c288b856040518463ffffffff1660e01b8152600401610756939291906114f3565b6020604051808303815f875af1158015610772573d5f5f3e3d5ffd5b505050506040513d601f19601f82011682018060405250810190610796919061132a565b6107d5576040517f08c379a00000000000000000000000000000000000000000000000000000000081526004016107cc90611572565b60405180910390fd5b8573ffffffffffffffffffffffffffffffffffffffff166323b872dd33866003015f9054906101000a900473ffffffffffffffffffffffffffffffffffffffff16846040518463ffffffff1660e01b8152600401610835939291906114f3565b6020604051808303815f875af1158015610851573d5f5f3e3d5ffd5b505050506040513d601f19601f82011682018060405250810190610875919061132a565b6108b4576040517f08c379a00000000000000000000000000000000000000000000000000000000081526004016108ab906115da565b60405180910390fd5b8684600201546108c4919061129b565b8460020181905550835f015f9054906101000a900473ffffffffffffffffffffffffffffffffffffffff1673ffffffffffffffffffffffffffffffffffffffff1663a9059cbb33896040518363ffffffff1660e01b81526004016109299291906112ce565b6020604051808303815f875af1158015610945573d5f5f3e3d5ffd5b505050506040513d601f19601f82011682018060405250810190610969919061132a565b6109a8576040517f08c379a000000000000000000000000000000000000000000000000000000000815260040161099f9061139f565b60405180910390fd5b5050505050505050565b5f84116109f4576040517f08c379a00000000000000000000000000000000000000000000000000000000081526004016109eb90611642565b60405180910390fd5b5f8211610a36576040517f08c379a0000000000000000000000000000000000000000000000000000000008152600401610a2d906116aa565b60405180910390fd5b5f8111610a78576040517f08c379a0000000000000000000000000000000000000000000000000000000008152600401610a6f90611738565b60405180910390fd5b818373ffffffffffffffffffffffffffffffffffffffff1663dd62ed3e33306040518363ffffffff1660e01b8152600401610ab4929190611425565b602060405180830381865afa158015610acf573d5f5f3e3d5ffd5b505050506040513d601f19601f82011682018060405250810190610af39190611460565b1015610b34576040517f08c379a0000000000000000000000000000000000000000000000000000000008152600401610b2b906117a0565b60405180910390fd5b8273ffffffffffffffffffffffffffffffffffffffff166323b872dd3330856040518463ffffffff1660e01b8152600401610b71939291906114f3565b6020604051808303815f875af1158015610b8d573d5f5f3e3d5ffd5b505050506040513d601f19601f82011682018060405250810190610bb1919061132a565b610bf0576040517f08c379a0000000000000000000000000000000000000000000000000000000008152600401610be79061139f565b60405180910390fd5b60015f815480929190610c02906117be565b91905055506040518060a001604052808473ffffffffffffffffffffffffffffffffffffffff1681526020018581526020018381526020013373ffffffffffffffffffffffffffffffffffffffff1681526020018242610c629190611805565b8152505f5f60015481526020019081526020015f205f820151815f015f6101000a81548173ffffffffffffffffffffffffffffffffffffffff021916908373ffffffffffffffffffffffffffffffffffffffff16021790555060208201518160010155604082015181600201556060820151816003015f6101000a81548173ffffffffffffffffffffffffffffffffffffffff021916908373ffffffffffffffffffffffffffffffffffffffff1602179055506080820151816004015590505050505050565b5f602052805f5260405f205f91509050805f015f9054906101000a900473ffffffffffffffffffffffffffffffffffffffff1690806001015490806002015490806003015f9054906101000a900473ffffffffffffffffffffffffffffffffffffffff16908060040154905085565b5f73ffffffffffffffffffffffffffffffffffffffff82169050919050565b5f610dc082610d97565b9050919050565b610dd081610db6565b82525050565b5f602082019050610de95f830184610dc7565b92915050565b5f819050919050565b610e0181610def565b82525050565b5f602082019050610e1a5f830184610df8565b92915050565b5f5ffd5b610e2d81610def565b8114610e37575f5ffd5b50565b5f81359050610e4881610e24565b92915050565b5f5f60408385031215610e6457610e63610e20565b5b5f610e7185828601610e3a565b9250506020610e8285828601610e3a565b9150509250929050565b610e9581610db6565b8114610e9f575f5ffd5b50565b5f81359050610eb081610e8c565b92915050565b5f5f5f5f60808587031215610ece57610ecd610e20565b5b5f610edb87828801610e3a565b9450506020610eec87828801610e3a565b9350506040610efd87828801610ea2565b9250506060610f0e87828801610e3a565b91505092959194509250565b5f5f5f5f60808587031215610f3257610f31610e20565b5b5f610f3f87828801610e3a565b9450506020610f5087828801610ea2565b9350506040610f6187828801610e3a565b9250506060610f7287828801610e3a565b91505092959194509250565b5f60208284031215610f9357610f92610e20565b5b5f610fa084828501610e3a565b91505092915050565b5f60a082019050610fbc5f830188610dc7565b610fc96020830187610df8565b610fd66040830186610df8565b610fe36060830185610dc7565b610ff06080830184610df8565b9695505050505050565b5f82825260208201905092915050565b7f4c697374696e6720646f6573206e6f74206578697374000000000000000000005f82015250565b5f61103e601683610ffa565b91506110498261100a565b602082019050919050565b5f6020820190508181035f83015261106b81611032565b9050919050565b7f4c697374696e67206861732065787069726564000000000000000000000000005f82015250565b5f6110a6601383610ffa565b91506110b182611072565b602082019050919050565b5f6020820190508181035f8301526110d38161109a565b9050919050565b7f546f6b656e20616d6f756e742069732067726561746572207468616e20746f6b5f8201527f656e73206f6e2073616c65000000000000000000000000000000000000000000602082015250565b5f611134602b83610ffa565b915061113f826110da565b604082019050919050565b5f6020820190508181035f83015261116181611128565b9050919050565b7f4e487b71000000000000000000000000000000000000000000000000000000005f52601160045260245ffd5b5f61119f82610def565b91506111aa83610def565b92508282026111b881610def565b915082820484148315176111cf576111ce611168565b5b5092915050565b7f496e636f72726563742076616c75652073656e740000000000000000000000005f82015250565b5f61120a601483610ffa565b9150611215826111d6565b602082019050919050565b5f6020820190508181035f830152611237816111fe565b9050919050565b7f4e487b71000000000000000000000000000000000000000000000000000000005f52601260045260245ffd5b5f61127582610def565b915061128083610def565b9250826112905761128f61123e565b5b828204905092915050565b5f6112a582610def565b91506112b083610def565b92508282039050818111156112c8576112c7611168565b5b92915050565b5f6040820190506112e15f830185610dc7565b6112ee6020830184610df8565b9392505050565b5f8115159050919050565b611309816112f5565b8114611313575f5ffd5b50565b5f8151905061132481611300565b92915050565b5f6020828403121561133f5761133e610e20565b5b5f61134c84828501611316565b91505092915050565b7f546f6b656e207472616e73666572206661696c656400000000000000000000005f82015250565b5f611389601583610ffa565b915061139482611355565b602082019050919050565b5f6020820190508181035f8301526113b68161137d565b9050919050565b7f496e636f7272656374207061796d656e7420616d6f756e7400000000000000005f82015250565b5f6113f1601883610ffa565b91506113fc826113bd565b602082019050919050565b5f6020820190508181035f83015261141e816113e5565b9050919050565b5f6040820190506114385f830185610dc7565b6114456020830184610dc7565b9392505050565b5f8151905061145a81610e24565b92915050565b5f6020828403121561147557611474610e20565b5b5f6114828482850161144c565b91505092915050565b7f5061796d656e7420746f6b656e20616c6c6f77616e636520746f6f206c6f77005f82015250565b5f6114bf601f83610ffa565b91506114ca8261148b565b602082019050919050565b5f6020820190508181035f8301526114ec816114b3565b9050919050565b5f6060820190506115065f830186610dc7565b6115136020830185610dc7565b6115206040830184610df8565b949350505050565b7f436f6d6d697373696f6e207472616e73666572206661696c65640000000000005f82015250565b5f61155c601a83610ffa565b915061156782611528565b602082019050919050565b5f6020820190508181035f83015261158981611550565b9050919050565b7f5061796d656e7420746f6b656e207472616e73666572206661696c65640000005f82015250565b5f6115c4601d83610ffa565b91506115cf82611590565b602082019050919050565b5f6020820190508181035f8301526115f1816115b8565b9050919050565b7f5072696365206d7573742062652067726561746572207468616e207a65726f005f82015250565b5f61162c601f83610ffa565b9150611637826115f8565b602082019050919050565b5f6020820190508181035f83015261165981611620565b9050919050565b7f546f6b656e73206d7573742062652067726561746572207468616e207a65726f5f82015250565b5f611694602083610ffa565b915061169f82611660565b602082019050919050565b5f6020820190508181035f8301526116c181611688565b9050919050565b7f4475726174696f6e206d7573742062652067726561746572207468616e207a655f8201527f726f000000000000000000000000000000000000000000000000000000000000602082015250565b5f611722602283610ffa565b915061172d826116c8565b604082019050919050565b5f6020820190508181035f83015261174f81611716565b9050919050565b7f546f6b656e20616c6c6f77616e636520746f6f206c6f770000000000000000005f82015250565b5f61178a601783610ffa565b915061179582611756565b602082019050919050565b5f6020820190508181035f8301526117b78161177e565b9050919050565b5f6117c882610def565b91507fffffffffffffffffffffffffffffffffffffffffffffffffffffffffffffffff82036117fa576117f9611168565b5b600182019050919050565b5f61180f82610def565b915061181a83610def565b925082820190508082111561183257611831611168565b5b9291505056fea264697066735822122066ece59cf0048f266d5dbd0339e6a0c701006a8c1afdc591624a26fd4dd875f464736f6c634300081c0033",
					"opcodes": "PUSH1 0x80 PUSH1 0x40 MSTORE CALLVALUE DUP1 ISZERO PUSH1 0xE JUMPI PUSH0 PUSH0 REVERT JUMPDEST POP PUSH2 0x186E DUP1 PUSH2 0x1C PUSH0 CODECOPY PUSH0 RETURN INVALID PUSH1 0x80 PUSH1 0x40 MSTORE PUSH1 0x4 CALLDATASIZE LT PUSH2 0x6F JUMPI PUSH0 CALLDATALOAD PUSH1 0xE0 SHR DUP1 PUSH4 0x7975CE28 GT PUSH2 0x4D JUMPI DUP1 PUSH4 0x7975CE28 EQ PUSH2 0xF1 JUMPI DUP1 PUSH4 0x7A82A87F EQ PUSH2 0x10D JUMPI DUP1 PUSH4 0x9FFAE41B EQ PUSH2 0x135 JUMPI DUP1 PUSH4 0xDE74E57B EQ PUSH2 0x15D JUMPI PUSH2 0x6F JUMP JUMPDEST DUP1 PUSH4 0x17C73FF0 EQ PUSH2 0x73 JUMPI DUP1 PUSH4 0x1BF1DE9B EQ PUSH2 0x9D JUMPI DUP1 PUSH4 0x6C2C9C7D EQ PUSH2 0xC7 JUMPI JUMPDEST PUSH0 PUSH0 REVERT JUMPDEST CALLVALUE DUP1 ISZERO PUSH2 0x7E JUMPI PUSH0 PUSH0 REVERT JUMPDEST POP PUSH2 0x87 PUSH2 0x19D JUMP JUMPDEST PUSH1 0x40 MLOAD PUSH2 0x94 SWAP2 SWAP1 PUSH2 0xDD6 JUMP JUMPDEST PUSH1 0x40 MLOAD DUP1 SWAP2 SUB SWAP1 RETURN JUMPDEST CALLVALUE DUP1 ISZERO PUSH2 0xA8 JUMPI PUSH0 PUSH0 REVERT JUMPDEST POP PUSH2 0xB1 PUSH2 0x1B5 JUMP JUMPDEST PUSH1 0x40 MLOAD PUSH2 0xBE SWAP2 SWAP1 PUSH2 0xE07 JUMP JUMPDEST PUSH1 0x40 MLOAD DUP1 SWAP2 SUB SWAP1 RETURN JUMPDEST CALLVALUE DUP1 ISZERO PUSH2 0xD2 JUMPI PUSH0 PUSH0 REVERT JUMPDEST POP PUSH2 0xDB PUSH2 0x1BA JUMP JUMPDEST PUSH1 0x40 MLOAD PUSH2 0xE8 SWAP2 SWAP1 PUSH2 0xE07 JUMP JUMPDEST PUSH1 0x40 MLOAD DUP1 SWAP2 SUB SWAP1 RETURN JUMPDEST PUSH2 0x10B PUSH1 0x4 DUP1 CALLDATASIZE SUB DUP2 ADD SWAP1 PUSH2 0x106 SWAP2 SWAP1 PUSH2 0xE4E JUMP JUMPDEST PUSH2 0x1C0 JUMP JUMPDEST STOP JUMPDEST CALLVALUE DUP1 ISZERO PUSH2 0x118 JUMPI PUSH0 PUSH0 REVERT JUMPDEST POP PUSH2 0x133 PUSH1 0x4 DUP1 CALLDATASIZE SUB DUP2 ADD SWAP1 PUSH2 0x12E SWAP2 SWAP1 PUSH2 0xEB6 JUMP JUMPDEST PUSH2 0x4E2 JUMP JUMPDEST STOP JUMPDEST CALLVALUE DUP1 ISZERO PUSH2 0x140 JUMPI PUSH0 PUSH0 REVERT JUMPDEST POP PUSH2 0x15B PUSH1 0x4 DUP1 CALLDATASIZE SUB DUP2 ADD SWAP1 PUSH2 0x156 SWAP2 SWAP1 PUSH2 0xF1A JUMP JUMPDEST PUSH2 0x9B2 JUMP JUMPDEST STOP JUMPDEST CALLVALUE DUP1 ISZERO PUSH2 0x168 JUMPI PUSH0 PUSH0 REVERT JUMPDEST POP PUSH2 0x183 PUSH1 0x4 DUP1 CALLDATASIZE SUB DUP2 ADD SWAP1 PUSH2 0x17E SWAP2 SWAP1 PUSH2 0xF7E JUMP JUMPDEST PUSH2 0xD28 JUMP JUMPDEST PUSH1 0x40 MLOAD PUSH2 0x194 SWAP6 SWAP5 SWAP4 SWAP3 SWAP2 SWAP1 PUSH2 0xFA9 JUMP JUMPDEST PUSH1 0x40 MLOAD DUP1 SWAP2 SUB SWAP1 RETURN JUMPDEST PUSH20 0xFCF8D2B098B3160654BBADA1A8769483C71C288B DUP2 JUMP JUMPDEST PUSH1 0xA DUP2 JUMP JUMPDEST PUSH1 0x1 SLOAD DUP2 JUMP JUMPDEST PUSH0 PUSH0 PUSH0 DUP5 DUP2 MSTORE PUSH1 0x20 ADD SWAP1 DUP2 MSTORE PUSH1 0x20 ADD PUSH0 KECCAK256 SWAP1 POP PUSH0 DUP2 PUSH1 0x2 ADD SLOAD GT PUSH2 0x219 JUMPI PUSH1 0x40 MLOAD PUSH32 0x8C379A000000000000000000000000000000000000000000000000000000000 DUP2 MSTORE PUSH1 0x4 ADD PUSH2 0x210 SWAP1 PUSH2 0x1054 JUMP JUMPDEST PUSH1 0x40 MLOAD DUP1 SWAP2 SUB SWAP1 REVERT JUMPDEST DUP1 PUSH1 0x4 ADD SLOAD TIMESTAMP GT ISZERO PUSH2 0x260 JUMPI PUSH1 0x40 MLOAD PUSH32 0x8C379A000000000000000000000000000000000000000000000000000000000 DUP2 MSTORE PUSH1 0x4 ADD PUSH2 0x257 SWAP1 PUSH2 0x10BC JUMP JUMPDEST PUSH1 0x40 MLOAD DUP1 SWAP2 SUB SWAP1 REVERT JUMPDEST DUP2 DUP2 PUSH1 0x2 ADD SLOAD LT ISZERO PUSH2 0x2A7 JUMPI PUSH1 0x40 MLOAD PUSH32 0x8C379A000000000000000000000000000000000000000000000000000000000 DUP2 MSTORE PUSH1 0x4 ADD PUSH2 0x29E SWAP1 PUSH2 0x114A JUMP JUMPDEST PUSH1 0x40 MLOAD DUP1 SWAP2 SUB SWAP1 REVERT JUMPDEST PUSH0 DUP3 DUP3 PUSH1 0x1 ADD SLOAD PUSH2 0x2B8 SWAP2 SWAP1 PUSH2 0x1195 JUMP JUMPDEST SWAP1 POP DUP1 CALLVALUE EQ PUSH2 0x2FC JUMPI PUSH1 0x40 MLOAD PUSH32 0x8C379A000000000000000000000000000000000000000000000000000000000 DUP2 MSTORE PUSH1 0x4 ADD PUSH2 0x2F3 SWAP1 PUSH2 0x1220 JUMP JUMPDEST PUSH1 0x40 MLOAD DUP1 SWAP2 SUB SWAP1 REVERT JUMPDEST PUSH0 PUSH1 0x64 PUSH1 0xA DUP4 PUSH2 0x30C SWAP2 SWAP1 PUSH2 0x1195 JUMP JUMPDEST PUSH2 0x316 SWAP2 SWAP1 PUSH2 0x126B JUMP JUMPDEST SWAP1 POP PUSH0 DUP2 DUP4 PUSH2 0x325 SWAP2 SWAP1 PUSH2 0x129B JUMP JUMPDEST SWAP1 POP DUP5 DUP5 PUSH1 0x2 ADD SLOAD PUSH2 0x337 SWAP2 SWAP1 PUSH2 0x129B JUMP JUMPDEST DUP5 PUSH1 0x2 ADD DUP2 SWAP1 SSTORE POP DUP4 PUSH0 ADD PUSH0 SWAP1 SLOAD SWAP1 PUSH2 0x100 EXP SWAP1 DIV PUSH20 0xFFFFFFFFFFFFFFFFFFFFFFFFFFFFFFFFFFFFFFFF AND PUSH20 0xFFFFFFFFFFFFFFFFFFFFFFFFFFFFFFFFFFFFFFFF AND PUSH4 0xA9059CBB CALLER DUP8 PUSH1 0x40 MLOAD DUP4 PUSH4 0xFFFFFFFF AND PUSH1 0xE0 SHL DUP2 MSTORE PUSH1 0x4 ADD PUSH2 0x39C SWAP3 SWAP2 SWAP1 PUSH2 0x12CE JUMP JUMPDEST PUSH1 0x20 PUSH1 0x40 MLOAD DUP1 DUP4 SUB DUP2 PUSH0 DUP8 GAS CALL ISZERO DUP1 ISZERO PUSH2 0x3B8 JUMPI RETURNDATASIZE PUSH0 PUSH0 RETURNDATACOPY RETURNDATASIZE PUSH0 REVERT JUMPDEST POP POP POP POP PUSH1 0x40 MLOAD RETURNDATASIZE PUSH1 0x1F NOT PUSH1 0x1F DUP3 ADD AND DUP3 ADD DUP1 PUSH1 0x40 MSTORE POP DUP2 ADD SWAP1 PUSH2 0x3DC SWAP2 SWAP1 PUSH2 0x132A JUMP JUMPDEST PUSH2 0x41B JUMPI PUSH1 0x40 MLOAD PUSH32 0x8C379A000000000000000000000000000000000000000000000000000000000 DUP2 MSTORE PUSH1 0x4 ADD PUSH2 0x412 SWAP1 PUSH2 0x139F JUMP JUMPDEST PUSH1 0x40 MLOAD DUP1 SWAP2 SUB SWAP1 REVERT JUMPDEST PUSH20 0xFCF8D2B098B3160654BBADA1A8769483C71C288B PUSH20 0xFFFFFFFFFFFFFFFFFFFFFFFFFFFFFFFFFFFFFFFF AND PUSH2 0x8FC DUP4 SWAP1 DUP2 ISZERO MUL SWAP1 PUSH1 0x40 MLOAD PUSH0 PUSH1 0x40 MLOAD DUP1 DUP4 SUB DUP2 DUP6 DUP9 DUP9 CALL SWAP4 POP POP POP POP ISZERO DUP1 ISZERO PUSH2 0x472 JUMPI RETURNDATASIZE PUSH0 PUSH0 RETURNDATACOPY RETURNDATASIZE PUSH0 REVERT JUMPDEST POP DUP4 PUSH1 0x3 ADD PUSH0 SWAP1 SLOAD SWAP1 PUSH2 0x100 EXP SWAP1 DIV PUSH20 0xFFFFFFFFFFFFFFFFFFFFFFFFFFFFFFFFFFFFFFFF AND PUSH20 0xFFFFFFFFFFFFFFFFFFFFFFFFFFFFFFFFFFFFFFFF AND PUSH2 0x8FC DUP3 SWAP1 DUP2 ISZERO MUL SWAP1 PUSH1 0x40 MLOAD PUSH0 PUSH1 0x40 MLOAD DUP1 DUP4 SUB DUP2 DUP6 DUP9 DUP9 CALL SWAP4 POP POP POP POP ISZERO DUP1 ISZERO PUSH2 0x4D9 JUMPI RETURNDATASIZE PUSH0 PUSH0 RETURNDATACOPY RETURNDATASIZE PUSH0 REVERT JUMPDEST POP POP POP POP POP POP POP JUMP JUMPDEST PUSH0 PUSH0 PUSH0 DUP7 DUP2 MSTORE PUSH1 0x20 ADD SWAP1 DUP2 MSTORE PUSH1 0x20 ADD PUSH0 KECCAK256 SWAP1 POP PUSH0 DUP2 PUSH1 0x2 ADD SLOAD GT PUSH2 0x53B JUMPI PUSH1 0x40 MLOAD PUSH32 0x8C379A000000000000000000000000000000000000000000000000000000000 DUP2 MSTORE PUSH1 0x4 ADD PUSH2 0x532 SWAP1 PUSH2 0x1054 JUMP JUMPDEST PUSH1 0x40 MLOAD DUP1 SWAP2 SUB SWAP1 REVERT JUMPDEST DUP1 PUSH1 0x4 ADD SLOAD TIMESTAMP GT ISZERO PUSH2 0x582 JUMPI PUSH1 0x40 MLOAD PUSH32 0x8C379A000000000000000000000000000000000000000000000000000000000 DUP2 MSTORE PUSH1 0x4 ADD PUSH2 0x579 SWAP1 PUSH2 0x10BC JUMP JUMPDEST PUSH1 0x40 MLOAD DUP1 SWAP2 SUB SWAP1 REVERT JUMPDEST DUP4 DUP2 PUSH1 0x2 ADD SLOAD LT ISZERO PUSH2 0x5C9 JUMPI PUSH1 0x40 MLOAD PUSH32 0x8C379A000000000000000000000000000000000000000000000000000000000 DUP2 MSTORE PUSH1 0x4 ADD PUSH2 0x5C0 SWAP1 PUSH2 0x114A JUMP JUMPDEST PUSH1 0x40 MLOAD DUP1 SWAP2 SUB SWAP1 REVERT JUMPDEST PUSH0 DUP5 DUP3 PUSH1 0x1 ADD SLOAD PUSH2 0x5DA SWAP2 SWAP1 PUSH2 0x1195 JUMP JUMPDEST SWAP1 POP DUP1 DUP4 EQ PUSH2 0x61E JUMPI PUSH1 0x40 MLOAD PUSH32 0x8C379A000000000000000000000000000000000000000000000000000000000 DUP2 MSTORE PUSH1 0x4 ADD PUSH2 0x615 SWAP1 PUSH2 0x1407 JUMP JUMPDEST PUSH1 0x40 MLOAD DUP1 SWAP2 SUB SWAP1 REVERT JUMPDEST PUSH0 PUSH1 0x64 PUSH1 0xA DUP6 PUSH2 0x62E SWAP2 SWAP1 PUSH2 0x1195 JUMP JUMPDEST PUSH2 0x638 SWAP2 SWAP1 PUSH2 0x126B JUMP JUMPDEST SWAP1 POP PUSH0 DUP2 DUP6 PUSH2 0x647 SWAP2 SWAP1 PUSH2 0x129B JUMP JUMPDEST SWAP1 POP DUP5 DUP7 PUSH20 0xFFFFFFFFFFFFFFFFFFFFFFFFFFFFFFFFFFFFFFFF AND PUSH4 0xDD62ED3E CALLER ADDRESS PUSH1 0x40 MLOAD DUP4 PUSH4 0xFFFFFFFF AND PUSH1 0xE0 SHL DUP2 MSTORE PUSH1 0x4 ADD PUSH2 0x685 SWAP3 SWAP2 SWAP1 PUSH2 0x1425 JUMP JUMPDEST PUSH1 0x20 PUSH1 0x40 MLOAD DUP1 DUP4 SUB DUP2 DUP7 GAS STATICCALL ISZERO DUP1 ISZERO PUSH2 0x6A0 JUMPI RETURNDATASIZE PUSH0 PUSH0 RETURNDATACOPY RETURNDATASIZE PUSH0 REVERT JUMPDEST POP POP POP POP PUSH1 0x40 MLOAD RETURNDATASIZE PUSH1 0x1F NOT PUSH1 0x1F DUP3 ADD AND DUP3 ADD DUP1 PUSH1 0x40 MSTORE POP DUP2 ADD SWAP1 PUSH2 0x6C4 SWAP2 SWAP1 PUSH2 0x1460 JUMP JUMPDEST LT ISZERO PUSH2 0x705 JUMPI PUSH1 0x40 MLOAD PUSH32 0x8C379A000000000000000000000000000000000000000000000000000000000 DUP2 MSTORE PUSH1 0x4 ADD PUSH2 0x6FC SWAP1 PUSH2 0x14D5 JUMP JUMPDEST PUSH1 0x40 MLOAD DUP1 SWAP2 SUB SWAP1 REVERT JUMPDEST DUP6 PUSH20 0xFFFFFFFFFFFFFFFFFFFFFFFFFFFFFFFFFFFFFFFF AND PUSH4 0x23B872DD CALLER PUSH20 0xFCF8D2B098B3160654BBADA1A8769483C71C288B DUP6 PUSH1 0x40 MLOAD DUP5 PUSH4 0xFFFFFFFF AND PUSH1 0xE0 SHL DUP2 MSTORE PUSH1 0x4 ADD PUSH2 0x756 SWAP4 SWAP3 SWAP2 SWAP1 PUSH2 0x14F3 JUMP JUMPDEST PUSH1 0x20 PUSH1 0x40 MLOAD DUP1 DUP4 SUB DUP2 PUSH0 DUP8 GAS CALL ISZERO DUP1 ISZERO PUSH2 0x772 JUMPI RETURNDATASIZE PUSH0 PUSH0 RETURNDATACOPY RETURNDATASIZE PUSH0 REVERT JUMPDEST POP POP POP POP PUSH1 0x40 MLOAD RETURNDATASIZE PUSH1 0x1F NOT PUSH1 0x1F DUP3 ADD AND DUP3 ADD DUP1 PUSH1 0x40 MSTORE POP DUP2 ADD SWAP1 PUSH2 0x796 SWAP2 SWAP1 PUSH2 0x132A JUMP JUMPDEST PUSH2 0x7D5 JUMPI PUSH1 0x40 MLOAD PUSH32 0x8C379A000000000000000000000000000000000000000000000000000000000 DUP2 MSTORE PUSH1 0x4 ADD PUSH2 0x7CC SWAP1 PUSH2 0x1572 JUMP JUMPDEST PUSH1 0x40 MLOAD DUP1 SWAP2 SUB SWAP1 REVERT JUMPDEST DUP6 PUSH20 0xFFFFFFFFFFFFFFFFFFFFFFFFFFFFFFFFFFFFFFFF AND PUSH4 0x23B872DD CALLER DUP7 PUSH1 0x3 ADD PUSH0 SWAP1 SLOAD SWAP1 PUSH2 0x100 EXP SWAP1 DIV PUSH20 0xFFFFFFFFFFFFFFFFFFFFFFFFFFFFFFFFFFFFFFFF AND DUP5 PUSH1 0x40 MLOAD DUP5 PUSH4 0xFFFFFFFF AND PUSH1 0xE0 SHL DUP2 MSTORE PUSH1 0x4 ADD PUSH2 0x835 SWAP4 SWAP3 SWAP2 SWAP1 PUSH2 0x14F3 JUMP JUMPDEST PUSH1 0x20 PUSH1 0x40 MLOAD DUP1 DUP4 SUB DUP2 PUSH0 DUP8 GAS CALL ISZERO DUP1 ISZERO PUSH2 0x851 JUMPI RETURNDATASIZE PUSH0 PUSH0 RETURNDATACOPY RETURNDATASIZE PUSH0 REVERT JUMPDEST POP POP POP POP PUSH1 0x40 MLOAD RETURNDATASIZE PUSH1 0x1F NOT PUSH1 0x1F DUP3 ADD AND DUP3 ADD DUP1 PUSH1 0x40 MSTORE POP DUP2 ADD SWAP1 PUSH2 0x875 SWAP2 SWAP1 PUSH2 0x132A JUMP JUMPDEST PUSH2 0x8B4 JUMPI PUSH1 0x40 MLOAD PUSH32 0x8C379A000000000000000000000000000000000000000000000000000000000 DUP2 MSTORE PUSH1 0x4 ADD PUSH2 0x8AB SWAP1 PUSH2 0x15DA JUMP JUMPDEST PUSH1 0x40 MLOAD DUP1 SWAP2 SUB SWAP1 REVERT JUMPDEST DUP7 DUP5 PUSH1 0x2 ADD SLOAD PUSH2 0x8C4 SWAP2 SWAP1 PUSH2 0x129B JUMP JUMPDEST DUP5 PUSH1 0x2 ADD DUP2 SWAP1 SSTORE POP DUP4 PUSH0 ADD PUSH0 SWAP1 SLOAD SWAP1 PUSH2 0x100 EXP SWAP1 DIV PUSH20 0xFFFFFFFFFFFFFFFFFFFFFFFFFFFFFFFFFFFFFFFF AND PUSH20 0xFFFFFFFFFFFFFFFFFFFFFFFFFFFFFFFFFFFFFFFF AND PUSH4 0xA9059CBB CALLER DUP10 PUSH1 0x40 MLOAD DUP4 PUSH4 0xFFFFFFFF AND PUSH1 0xE0 SHL DUP2 MSTORE PUSH1 0x4 ADD PUSH2 0x929 SWAP3 SWAP2 SWAP1 PUSH2 0x12CE JUMP JUMPDEST PUSH1 0x20 PUSH1 0x40 MLOAD DUP1 DUP4 SUB DUP2 PUSH0 DUP8 GAS CALL ISZERO DUP1 ISZERO PUSH2 0x945 JUMPI RETURNDATASIZE PUSH0 PUSH0 RETURNDATACOPY RETURNDATASIZE PUSH0 REVERT JUMPDEST POP POP POP POP PUSH1 0x40 MLOAD RETURNDATASIZE PUSH1 0x1F NOT PUSH1 0x1F DUP3 ADD AND DUP3 ADD DUP1 PUSH1 0x40 MSTORE POP DUP2 ADD SWAP1 PUSH2 0x969 SWAP2 SWAP1 PUSH2 0x132A JUMP JUMPDEST PUSH2 0x9A8 JUMPI PUSH1 0x40 MLOAD PUSH32 0x8C379A000000000000000000000000000000000000000000000000000000000 DUP2 MSTORE PUSH1 0x4 ADD PUSH2 0x99F SWAP1 PUSH2 0x139F JUMP JUMPDEST PUSH1 0x40 MLOAD DUP1 SWAP2 SUB SWAP1 REVERT JUMPDEST POP POP POP POP POP POP POP POP JUMP JUMPDEST PUSH0 DUP5 GT PUSH2 0x9F4 JUMPI PUSH1 0x40 MLOAD PUSH32 0x8C379A000000000000000000000000000000000000000000000000000000000 DUP2 MSTORE PUSH1 0x4 ADD PUSH2 0x9EB SWAP1 PUSH2 0x1642 JUMP JUMPDEST PUSH1 0x40 MLOAD DUP1 SWAP2 SUB SWAP1 REVERT JUMPDEST PUSH0 DUP3 GT PUSH2 0xA36 JUMPI PUSH1 0x40 MLOAD PUSH32 0x8C379A000000000000000000000000000000000000000000000000000000000 DUP2 MSTORE PUSH1 0x4 ADD PUSH2 0xA2D SWAP1 PUSH2 0x16AA JUMP JUMPDEST PUSH1 0x40 MLOAD DUP1 SWAP2 SUB SWAP1 REVERT JUMPDEST PUSH0 DUP2 GT PUSH2 0xA78 JUMPI PUSH1 0x40 MLOAD PUSH32 0x8C379A000000000000000000000000000000000000000000000000000000000 DUP2 MSTORE PUSH1 0x4 ADD PUSH2 0xA6F SWAP1 PUSH2 0x1738 JUMP JUMPDEST PUSH1 0x40 MLOAD DUP1 SWAP2 SUB SWAP1 REVERT JUMPDEST DUP2 DUP4 PUSH20 0xFFFFFFFFFFFFFFFFFFFFFFFFFFFFFFFFFFFFFFFF AND PUSH4 0xDD62ED3E CALLER ADDRESS PUSH1 0x40 MLOAD DUP4 PUSH4 0xFFFFFFFF AND PUSH1 0xE0 SHL DUP2 MSTORE PUSH1 0x4 ADD PUSH2 0xAB4 SWAP3 SWAP2 SWAP1 PUSH2 0x1425 JUMP JUMPDEST PUSH1 0x20 PUSH1 0x40 MLOAD DUP1 DUP4 SUB DUP2 DUP7 GAS STATICCALL ISZERO DUP1 ISZERO PUSH2 0xACF JUMPI RETURNDATASIZE PUSH0 PUSH0 RETURNDATACOPY RETURNDATASIZE PUSH0 REVERT JUMPDEST POP POP POP POP PUSH1 0x40 MLOAD RETURNDATASIZE PUSH1 0x1F NOT PUSH1 0x1F DUP3 ADD AND DUP3 ADD DUP1 PUSH1 0x40 MSTORE POP DUP2 ADD SWAP1 PUSH2 0xAF3 SWAP2 SWAP1 PUSH2 0x1460 JUMP JUMPDEST LT ISZERO PUSH2 0xB34 JUMPI PUSH1 0x40 MLOAD PUSH32 0x8C379A000000000000000000000000000000000000000000000000000000000 DUP2 MSTORE PUSH1 0x4 ADD PUSH2 0xB2B SWAP1 PUSH2 0x17A0 JUMP JUMPDEST PUSH1 0x40 MLOAD DUP1 SWAP2 SUB SWAP1 REVERT JUMPDEST DUP3 PUSH20 0xFFFFFFFFFFFFFFFFFFFFFFFFFFFFFFFFFFFFFFFF AND PUSH4 0x23B872DD CALLER ADDRESS DUP6 PUSH1 0x40 MLOAD DUP5 PUSH4 0xFFFFFFFF AND PUSH1 0xE0 SHL DUP2 MSTORE PUSH1 0x4 ADD PUSH2 0xB71 SWAP4 SWAP3 SWAP2 SWAP1 PUSH2 0x14F3 JUMP JUMPDEST PUSH1 0x20 PUSH1 0x40 MLOAD DUP1 DUP4 SUB DUP2 PUSH0 DUP8 GAS CALL ISZERO DUP1 ISZERO PUSH2 0xB8D JUMPI RETURNDATASIZE PUSH0 PUSH0 RETURNDATACOPY RETURNDATASIZE PUSH0 REVERT JUMPDEST POP POP POP POP PUSH1 0x40 MLOAD RETURNDATASIZE PUSH1 0x1F NOT PUSH1 0x1F DUP3 ADD AND DUP3 ADD DUP1 PUSH1 0x40 MSTORE POP DUP2 ADD SWAP1 PUSH2 0xBB1 SWAP2 SWAP1 PUSH2 0x132A JUMP JUMPDEST PUSH2 0xBF0 JUMPI PUSH1 0x40 MLOAD PUSH32 0x8C379A000000000000000000000000000000000000000000000000000000000 DUP2 MSTORE PUSH1 0x4 ADD PUSH2 0xBE7 SWAP1 PUSH2 0x139F JUMP JUMPDEST PUSH1 0x40 MLOAD DUP1 SWAP2 SUB SWAP1 REVERT JUMPDEST PUSH1 0x1 PUSH0 DUP2 SLOAD DUP1 SWAP3 SWAP2 SWAP1 PUSH2 0xC02 SWAP1 PUSH2 0x17BE JUMP JUMPDEST SWAP2 SWAP1 POP SSTORE POP PUSH1 0x40 MLOAD DUP1 PUSH1 0xA0 ADD PUSH1 0x40 MSTORE DUP1 DUP5 PUSH20 0xFFFFFFFFFFFFFFFFFFFFFFFFFFFFFFFFFFFFFFFF AND DUP2 MSTORE PUSH1 0x20 ADD DUP6 DUP2 MSTORE PUSH1 0x20 ADD DUP4 DUP2 MSTORE PUSH1 0x20 ADD CALLER PUSH20 0xFFFFFFFFFFFFFFFFFFFFFFFFFFFFFFFFFFFFFFFF AND DUP2 MSTORE PUSH1 0x20 ADD DUP3 TIMESTAMP PUSH2 0xC62 SWAP2 SWAP1 PUSH2 0x1805 JUMP JUMPDEST DUP2 MSTORE POP PUSH0 PUSH0 PUSH1 0x1 SLOAD DUP2 MSTORE PUSH1 0x20 ADD SWAP1 DUP2 MSTORE PUSH1 0x20 ADD PUSH0 KECCAK256 PUSH0 DUP3 ADD MLOAD DUP2 PUSH0 ADD PUSH0 PUSH2 0x100 EXP DUP2 SLOAD DUP2 PUSH20 0xFFFFFFFFFFFFFFFFFFFFFFFFFFFFFFFFFFFFFFFF MUL NOT AND SWAP1 DUP4 PUSH20 0xFFFFFFFFFFFFFFFFFFFFFFFFFFFFFFFFFFFFFFFF AND MUL OR SWAP1 SSTORE POP PUSH1 0x20 DUP3 ADD MLOAD DUP2 PUSH1 0x1 ADD SSTORE PUSH1 0x40 DUP3 ADD MLOAD DUP2 PUSH1 0x2 ADD SSTORE PUSH1 0x60 DUP3 ADD MLOAD DUP2 PUSH1 0x3 ADD PUSH0 PUSH2 0x100 EXP DUP2 SLOAD DUP2 PUSH20 0xFFFFFFFFFFFFFFFFFFFFFFFFFFFFFFFFFFFFFFFF MUL NOT AND SWAP1 DUP4 PUSH20 0xFFFFFFFFFFFFFFFFFFFFFFFFFFFFFFFFFFFFFFFF AND MUL OR SWAP1 SSTORE POP PUSH1 0x80 DUP3 ADD MLOAD DUP2 PUSH1 0x4 ADD SSTORE SWAP1 POP POP POP POP POP POP JUMP JUMPDEST PUSH0 PUSH1 0x20 MSTORE DUP1 PUSH0 MSTORE PUSH1 0x40 PUSH0 KECCAK256 PUSH0 SWAP2 POP SWAP1 POP DUP1 PUSH0 ADD PUSH0 SWAP1 SLOAD SWAP1 PUSH2 0x100 EXP SWAP1 DIV PUSH20 0xFFFFFFFFFFFFFFFFFFFFFFFFFFFFFFFFFFFFFFFF AND SWAP1 DUP1 PUSH1 0x1 ADD SLOAD SWAP1 DUP1 PUSH1 0x2 ADD SLOAD SWAP1 DUP1 PUSH1 0x3 ADD PUSH0 SWAP1 SLOAD SWAP1 PUSH2 0x100 EXP SWAP1 DIV PUSH20 0xFFFFFFFFFFFFFFFFFFFFFFFFFFFFFFFFFFFFFFFF AND SWAP1 DUP1 PUSH1 0x4 ADD SLOAD SWAP1 POP DUP6 JUMP JUMPDEST PUSH0 PUSH20 0xFFFFFFFFFFFFFFFFFFFFFFFFFFFFFFFFFFFFFFFF DUP3 AND SWAP1 POP SWAP2 SWAP1 POP JUMP JUMPDEST PUSH0 PUSH2 0xDC0 DUP3 PUSH2 0xD97 JUMP JUMPDEST SWAP1 POP SWAP2 SWAP1 POP JUMP JUMPDEST PUSH2 0xDD0 DUP2 PUSH2 0xDB6 JUMP JUMPDEST DUP3 MSTORE POP POP JUMP JUMPDEST PUSH0 PUSH1 0x20 DUP3 ADD SWAP1 POP PUSH2 0xDE9 PUSH0 DUP4 ADD DUP5 PUSH2 0xDC7 JUMP JUMPDEST SWAP3 SWAP2 POP POP JUMP JUMPDEST PUSH0 DUP2 SWAP1 POP SWAP2 SWAP1 POP JUMP JUMPDEST PUSH2 0xE01 DUP2 PUSH2 0xDEF JUMP JUMPDEST DUP3 MSTORE POP POP JUMP JUMPDEST PUSH0 PUSH1 0x20 DUP3 ADD SWAP1 POP PUSH2 0xE1A PUSH0 DUP4 ADD DUP5 PUSH2 0xDF8 JUMP JUMPDEST SWAP3 SWAP2 POP POP JUMP JUMPDEST PUSH0 PUSH0 REVERT JUMPDEST PUSH2 0xE2D DUP2 PUSH2 0xDEF JUMP JUMPDEST DUP2 EQ PUSH2 0xE37 JUMPI PUSH0 PUSH0 REVERT JUMPDEST POP JUMP JUMPDEST PUSH0 DUP2 CALLDATALOAD SWAP1 POP PUSH2 0xE48 DUP2 PUSH2 0xE24 JUMP JUMPDEST SWAP3 SWAP2 POP POP JUMP JUMPDEST PUSH0 PUSH0 PUSH1 0x40 DUP4 DUP6 SUB SLT ISZERO PUSH2 0xE64 JUMPI PUSH2 0xE63 PUSH2 0xE20 JUMP JUMPDEST JUMPDEST PUSH0 PUSH2 0xE71 DUP6 DUP3 DUP7 ADD PUSH2 0xE3A JUMP JUMPDEST SWAP3 POP POP PUSH1 0x20 PUSH2 0xE82 DUP6 DUP3 DUP7 ADD PUSH2 0xE3A JUMP JUMPDEST SWAP2 POP POP SWAP3 POP SWAP3 SWAP1 POP JUMP JUMPDEST PUSH2 0xE95 DUP2 PUSH2 0xDB6 JUMP JUMPDEST DUP2 EQ PUSH2 0xE9F JUMPI PUSH0 PUSH0 REVERT JUMPDEST POP JUMP JUMPDEST PUSH0 DUP2 CALLDATALOAD SWAP1 POP PUSH2 0xEB0 DUP2 PUSH2 0xE8C JUMP JUMPDEST SWAP3 SWAP2 POP POP JUMP JUMPDEST PUSH0 PUSH0 PUSH0 PUSH0 PUSH1 0x80 DUP6 DUP8 SUB SLT ISZERO PUSH2 0xECE JUMPI PUSH2 0xECD PUSH2 0xE20 JUMP JUMPDEST JUMPDEST PUSH0 PUSH2 0xEDB DUP8 DUP3 DUP9 ADD PUSH2 0xE3A JUMP JUMPDEST SWAP5 POP POP PUSH1 0x20 PUSH2 0xEEC DUP8 DUP3 DUP9 ADD PUSH2 0xE3A JUMP JUMPDEST SWAP4 POP POP PUSH1 0x40 PUSH2 0xEFD DUP8 DUP3 DUP9 ADD PUSH2 0xEA2 JUMP JUMPDEST SWAP3 POP POP PUSH1 0x60 PUSH2 0xF0E DUP8 DUP3 DUP9 ADD PUSH2 0xE3A JUMP JUMPDEST SWAP2 POP POP SWAP3 SWAP6 SWAP2 SWAP5 POP SWAP3 POP JUMP JUMPDEST PUSH0 PUSH0 PUSH0 PUSH0 PUSH1 0x80 DUP6 DUP8 SUB SLT ISZERO PUSH2 0xF32 JUMPI PUSH2 0xF31 PUSH2 0xE20 JUMP JUMPDEST JUMPDEST PUSH0 PUSH2 0xF3F DUP8 DUP3 DUP9 ADD PUSH2 0xE3A JUMP JUMPDEST SWAP5 POP POP PUSH1 0x20 PUSH2 0xF50 DUP8 DUP3 DUP9 ADD PUSH2 0xEA2 JUMP JUMPDEST SWAP4 POP POP PUSH1 0x40 PUSH2 0xF61 DUP8 DUP3 DUP9 ADD PUSH2 0xE3A JUMP JUMPDEST SWAP3 POP POP PUSH1 0x60 PUSH2 0xF72 DUP8 DUP3 DUP9 ADD PUSH2 0xE3A JUMP JUMPDEST SWAP2 POP POP SWAP3 SWAP6 SWAP2 SWAP5 POP SWAP3 POP JUMP JUMPDEST PUSH0 PUSH1 0x20 DUP3 DUP5 SUB SLT ISZERO PUSH2 0xF93 JUMPI PUSH2 0xF92 PUSH2 0xE20 JUMP JUMPDEST JUMPDEST PUSH0 PUSH2 0xFA0 DUP5 DUP3 DUP6 ADD PUSH2 0xE3A JUMP JUMPDEST SWAP2 POP POP SWAP3 SWAP2 POP POP JUMP JUMPDEST PUSH0 PUSH1 0xA0 DUP3 ADD SWAP1 POP PUSH2 0xFBC PUSH0 DUP4 ADD DUP9 PUSH2 0xDC7 JUMP JUMPDEST PUSH2 0xFC9 PUSH1 0x20 DUP4 ADD DUP8 PUSH2 0xDF8 JUMP JUMPDEST PUSH2 0xFD6 PUSH1 0x40 DUP4 ADD DUP7 PUSH2 0xDF8 JUMP JUMPDEST PUSH2 0xFE3 PUSH1 0x60 DUP4 ADD DUP6 PUSH2 0xDC7 JUMP JUMPDEST PUSH2 0xFF0 PUSH1 0x80 DUP4 ADD DUP5 PUSH2 0xDF8 JUMP JUMPDEST SWAP7 SWAP6 POP POP POP POP POP POP JUMP JUMPDEST PUSH0 DUP3 DUP3 MSTORE PUSH1 0x20 DUP3 ADD SWAP1 POP SWAP3 SWAP2 POP POP JUMP JUMPDEST PUSH32 0x4C697374696E6720646F6573206E6F7420657869737400000000000000000000 PUSH0 DUP3 ADD MSTORE POP JUMP JUMPDEST PUSH0 PUSH2 0x103E PUSH1 0x16 DUP4 PUSH2 0xFFA JUMP JUMPDEST SWAP2 POP PUSH2 0x1049 DUP3 PUSH2 0x100A JUMP JUMPDEST PUSH1 0x20 DUP3 ADD SWAP1 POP SWAP2 SWAP1 POP JUMP JUMPDEST PUSH0 PUSH1 0x20 DUP3 ADD SWAP1 POP DUP2 DUP2 SUB PUSH0 DUP4 ADD MSTORE PUSH2 0x106B DUP2 PUSH2 0x1032 JUMP JUMPDEST SWAP1 POP SWAP2 SWAP1 POP JUMP JUMPDEST PUSH32 0x4C697374696E6720686173206578706972656400000000000000000000000000 PUSH0 DUP3 ADD MSTORE POP JUMP JUMPDEST PUSH0 PUSH2 0x10A6 PUSH1 0x13 DUP4 PUSH2 0xFFA JUMP JUMPDEST SWAP2 POP PUSH2 0x10B1 DUP3 PUSH2 0x1072 JUMP JUMPDEST PUSH1 0x20 DUP3 ADD SWAP1 POP SWAP2 SWAP1 POP JUMP JUMPDEST PUSH0 PUSH1 0x20 DUP3 ADD SWAP1 POP DUP2 DUP2 SUB PUSH0 DUP4 ADD MSTORE PUSH2 0x10D3 DUP2 PUSH2 0x109A JUMP JUMPDEST SWAP1 POP SWAP2 SWAP1 POP JUMP JUMPDEST PUSH32 0x546F6B656E20616D6F756E742069732067726561746572207468616E20746F6B PUSH0 DUP3 ADD MSTORE PUSH32 0x656E73206F6E2073616C65000000000000000000000000000000000000000000 PUSH1 0x20 DUP3 ADD MSTORE POP JUMP JUMPDEST PUSH0 PUSH2 0x1134 PUSH1 0x2B DUP4 PUSH2 0xFFA JUMP JUMPDEST SWAP2 POP PUSH2 0x113F DUP3 PUSH2 0x10DA JUMP JUMPDEST PUSH1 0x40 DUP3 ADD SWAP1 POP SWAP2 SWAP1 POP JUMP JUMPDEST PUSH0 PUSH1 0x20 DUP3 ADD SWAP1 POP DUP2 DUP2 SUB PUSH0 DUP4 ADD MSTORE PUSH2 0x1161 DUP2 PUSH2 0x1128 JUMP JUMPDEST SWAP1 POP SWAP2 SWAP1 POP JUMP JUMPDEST PUSH32 0x4E487B7100000000000000000000000000000000000000000000000000000000 PUSH0 MSTORE PUSH1 0x11 PUSH1 0x4 MSTORE PUSH1 0x24 PUSH0 REVERT JUMPDEST PUSH0 PUSH2 0x119F DUP3 PUSH2 0xDEF JUMP JUMPDEST SWAP2 POP PUSH2 0x11AA DUP4 PUSH2 0xDEF JUMP JUMPDEST SWAP3 POP DUP3 DUP3 MUL PUSH2 0x11B8 DUP2 PUSH2 0xDEF JUMP JUMPDEST SWAP2 POP DUP3 DUP3 DIV DUP5 EQ DUP4 ISZERO OR PUSH2 0x11CF JUMPI PUSH2 0x11CE PUSH2 0x1168 JUMP JUMPDEST JUMPDEST POP SWAP3 SWAP2 POP POP JUMP JUMPDEST PUSH32 0x496E636F72726563742076616C75652073656E74000000000000000000000000 PUSH0 DUP3 ADD MSTORE POP JUMP JUMPDEST PUSH0 PUSH2 0x120A PUSH1 0x14 DUP4 PUSH2 0xFFA JUMP JUMPDEST SWAP2 POP PUSH2 0x1215 DUP3 PUSH2 0x11D6 JUMP JUMPDEST PUSH1 0x20 DUP3 ADD SWAP1 POP SWAP2 SWAP1 POP JUMP JUMPDEST PUSH0 PUSH1 0x20 DUP3 ADD SWAP1 POP DUP2 DUP2 SUB PUSH0 DUP4 ADD MSTORE PUSH2 0x1237 DUP2 PUSH2 0x11FE JUMP JUMPDEST SWAP1 POP SWAP2 SWAP1 POP JUMP JUMPDEST PUSH32 0x4E487B7100000000000000000000000000000000000000000000000000000000 PUSH0 MSTORE PUSH1 0x12 PUSH1 0x4 MSTORE PUSH1 0x24 PUSH0 REVERT JUMPDEST PUSH0 PUSH2 0x1275 DUP3 PUSH2 0xDEF JUMP JUMPDEST SWAP2 POP PUSH2 0x1280 DUP4 PUSH2 0xDEF JUMP JUMPDEST SWAP3 POP DUP3 PUSH2 0x1290 JUMPI PUSH2 0x128F PUSH2 0x123E JUMP JUMPDEST JUMPDEST DUP3 DUP3 DIV SWAP1 POP SWAP3 SWAP2 POP POP JUMP JUMPDEST PUSH0 PUSH2 0x12A5 DUP3 PUSH2 0xDEF JUMP JUMPDEST SWAP2 POP PUSH2 0x12B0 DUP4 PUSH2 0xDEF JUMP JUMPDEST SWAP3 POP DUP3 DUP3 SUB SWAP1 POP DUP2 DUP2 GT ISZERO PUSH2 0x12C8 JUMPI PUSH2 0x12C7 PUSH2 0x1168 JUMP JUMPDEST JUMPDEST SWAP3 SWAP2 POP POP JUMP JUMPDEST PUSH0 PUSH1 0x40 DUP3 ADD SWAP1 POP PUSH2 0x12E1 PUSH0 DUP4 ADD DUP6 PUSH2 0xDC7 JUMP JUMPDEST PUSH2 0x12EE PUSH1 0x20 DUP4 ADD DUP5 PUSH2 0xDF8 JUMP JUMPDEST SWAP4 SWAP3 POP POP POP JUMP JUMPDEST PUSH0 DUP2 ISZERO ISZERO SWAP1 POP SWAP2 SWAP1 POP JUMP JUMPDEST PUSH2 0x1309 DUP2 PUSH2 0x12F5 JUMP JUMPDEST DUP2 EQ PUSH2 0x1313 JUMPI PUSH0 PUSH0 REVERT JUMPDEST POP JUMP JUMPDEST PUSH0 DUP2 MLOAD SWAP1 POP PUSH2 0x1324 DUP2 PUSH2 0x1300 JUMP JUMPDEST SWAP3 SWAP2 POP POP JUMP JUMPDEST PUSH0 PUSH1 0x20 DUP3 DUP5 SUB SLT ISZERO PUSH2 0x133F JUMPI PUSH2 0x133E PUSH2 0xE20 JUMP JUMPDEST JUMPDEST PUSH0 PUSH2 0x134C DUP5 DUP3 DUP6 ADD PUSH2 0x1316 JUMP JUMPDEST SWAP2 POP POP SWAP3 SWAP2 POP POP JUMP JUMPDEST PUSH32 0x546F6B656E207472616E73666572206661696C65640000000000000000000000 PUSH0 DUP3 ADD MSTORE POP JUMP JUMPDEST PUSH0 PUSH2 0x1389 PUSH1 0x15 DUP4 PUSH2 0xFFA JUMP JUMPDEST SWAP2 POP PUSH2 0x1394 DUP3 PUSH2 0x1355 JUMP JUMPDEST PUSH1 0x20 DUP3 ADD SWAP1 POP SWAP2 SWAP1 POP JUMP JUMPDEST PUSH0 PUSH1 0x20 DUP3 ADD SWAP1 POP DUP2 DUP2 SUB PUSH0 DUP4 ADD MSTORE PUSH2 0x13B6 DUP2 PUSH2 0x137D JUMP JUMPDEST SWAP1 POP SWAP2 SWAP1 POP JUMP JUMPDEST PUSH32 0x496E636F7272656374207061796D656E7420616D6F756E740000000000000000 PUSH0 DUP3 ADD MSTORE POP JUMP JUMPDEST PUSH0 PUSH2 0x13F1 PUSH1 0x18 DUP4 PUSH2 0xFFA JUMP JUMPDEST SWAP2 POP PUSH2 0x13FC DUP3 PUSH2 0x13BD JUMP JUMPDEST PUSH1 0x20 DUP3 ADD SWAP1 POP SWAP2 SWAP1 POP JUMP JUMPDEST PUSH0 PUSH1 0x20 DUP3 ADD SWAP1 POP DUP2 DUP2 SUB PUSH0 DUP4 ADD MSTORE PUSH2 0x141E DUP2 PUSH2 0x13E5 JUMP JUMPDEST SWAP1 POP SWAP2 SWAP1 POP JUMP JUMPDEST PUSH0 PUSH1 0x40 DUP3 ADD SWAP1 POP PUSH2 0x1438 PUSH0 DUP4 ADD DUP6 PUSH2 0xDC7 JUMP JUMPDEST PUSH2 0x1445 PUSH1 0x20 DUP4 ADD DUP5 PUSH2 0xDC7 JUMP JUMPDEST SWAP4 SWAP3 POP POP POP JUMP JUMPDEST PUSH0 DUP2 MLOAD SWAP1 POP PUSH2 0x145A DUP2 PUSH2 0xE24 JUMP JUMPDEST SWAP3 SWAP2 POP POP JUMP JUMPDEST PUSH0 PUSH1 0x20 DUP3 DUP5 SUB SLT ISZERO PUSH2 0x1475 JUMPI PUSH2 0x1474 PUSH2 0xE20 JUMP JUMPDEST JUMPDEST PUSH0 PUSH2 0x1482 DUP5 DUP3 DUP6 ADD PUSH2 0x144C JUMP JUMPDEST SWAP2 POP POP SWAP3 SWAP2 POP POP JUMP JUMPDEST PUSH32 0x5061796D656E7420746F6B656E20616C6C6F77616E636520746F6F206C6F7700 PUSH0 DUP3 ADD MSTORE POP JUMP JUMPDEST PUSH0 PUSH2 0x14BF PUSH1 0x1F DUP4 PUSH2 0xFFA JUMP JUMPDEST SWAP2 POP PUSH2 0x14CA DUP3 PUSH2 0x148B JUMP JUMPDEST PUSH1 0x20 DUP3 ADD SWAP1 POP SWAP2 SWAP1 POP JUMP JUMPDEST PUSH0 PUSH1 0x20 DUP3 ADD SWAP1 POP DUP2 DUP2 SUB PUSH0 DUP4 ADD MSTORE PUSH2 0x14EC DUP2 PUSH2 0x14B3 JUMP JUMPDEST SWAP1 POP SWAP2 SWAP1 POP JUMP JUMPDEST PUSH0 PUSH1 0x60 DUP3 ADD SWAP1 POP PUSH2 0x1506 PUSH0 DUP4 ADD DUP7 PUSH2 0xDC7 JUMP JUMPDEST PUSH2 0x1513 PUSH1 0x20 DUP4 ADD DUP6 PUSH2 0xDC7 JUMP JUMPDEST PUSH2 0x1520 PUSH1 0x40 DUP4 ADD DUP5 PUSH2 0xDF8 JUMP JUMPDEST SWAP5 SWAP4 POP POP POP POP JUMP JUMPDEST PUSH32 0x436F6D6D697373696F6E207472616E73666572206661696C6564000000000000 PUSH0 DUP3 ADD MSTORE POP JUMP JUMPDEST PUSH0 PUSH2 0x155C PUSH1 0x1A DUP4 PUSH2 0xFFA JUMP JUMPDEST SWAP2 POP PUSH2 0x1567 DUP3 PUSH2 0x1528 JUMP JUMPDEST PUSH1 0x20 DUP3 ADD SWAP1 POP SWAP2 SWAP1 POP JUMP JUMPDEST PUSH0 PUSH1 0x20 DUP3 ADD SWAP1 POP DUP2 DUP2 SUB PUSH0 DUP4 ADD MSTORE PUSH2 0x1589 DUP2 PUSH2 0x1550 JUMP JUMPDEST SWAP1 POP SWAP2 SWAP1 POP JUMP JUMPDEST PUSH32 0x5061796D656E7420746F6B656E207472616E73666572206661696C6564000000 PUSH0 DUP3 ADD MSTORE POP JUMP JUMPDEST PUSH0 PUSH2 0x15C4 PUSH1 0x1D DUP4 PUSH2 0xFFA JUMP JUMPDEST SWAP2 POP PUSH2 0x15CF DUP3 PUSH2 0x1590 JUMP JUMPDEST PUSH1 0x20 DUP3 ADD SWAP1 POP SWAP2 SWAP1 POP JUMP JUMPDEST PUSH0 PUSH1 0x20 DUP3 ADD SWAP1 POP DUP2 DUP2 SUB PUSH0 DUP4 ADD MSTORE PUSH2 0x15F1 DUP2 PUSH2 0x15B8 JUMP JUMPDEST SWAP1 POP SWAP2 SWAP1 POP JUMP JUMPDEST PUSH32 0x5072696365206D7573742062652067726561746572207468616E207A65726F00 PUSH0 DUP3 ADD MSTORE POP JUMP JUMPDEST PUSH0 PUSH2 0x162C PUSH1 0x1F DUP4 PUSH2 0xFFA JUMP JUMPDEST SWAP2 POP PUSH2 0x1637 DUP3 PUSH2 0x15F8 JUMP JUMPDEST PUSH1 0x20 DUP3 ADD SWAP1 POP SWAP2 SWAP1 POP JUMP JUMPDEST PUSH0 PUSH1 0x20 DUP3 ADD SWAP1 POP DUP2 DUP2 SUB PUSH0 DUP4 ADD MSTORE PUSH2 0x1659 DUP2 PUSH2 0x1620 JUMP JUMPDEST SWAP1 POP SWAP2 SWAP1 POP JUMP JUMPDEST PUSH32 0x546F6B656E73206D7573742062652067726561746572207468616E207A65726F PUSH0 DUP3 ADD MSTORE POP JUMP JUMPDEST PUSH0 PUSH2 0x1694 PUSH1 0x20 DUP4 PUSH2 0xFFA JUMP JUMPDEST SWAP2 POP PUSH2 0x169F DUP3 PUSH2 0x1660 JUMP JUMPDEST PUSH1 0x20 DUP3 ADD SWAP1 POP SWAP2 SWAP1 POP JUMP JUMPDEST PUSH0 PUSH1 0x20 DUP3 ADD SWAP1 POP DUP2 DUP2 SUB PUSH0 DUP4 ADD MSTORE PUSH2 0x16C1 DUP2 PUSH2 0x1688 JUMP JUMPDEST SWAP1 POP SWAP2 SWAP1 POP JUMP JUMPDEST PUSH32 0x4475726174696F6E206D7573742062652067726561746572207468616E207A65 PUSH0 DUP3 ADD MSTORE PUSH32 0x726F000000000000000000000000000000000000000000000000000000000000 PUSH1 0x20 DUP3 ADD MSTORE POP JUMP JUMPDEST PUSH0 PUSH2 0x1722 PUSH1 0x22 DUP4 PUSH2 0xFFA JUMP JUMPDEST SWAP2 POP PUSH2 0x172D DUP3 PUSH2 0x16C8 JUMP JUMPDEST PUSH1 0x40 DUP3 ADD SWAP1 POP SWAP2 SWAP1 POP JUMP JUMPDEST PUSH0 PUSH1 0x20 DUP3 ADD SWAP1 POP DUP2 DUP2 SUB PUSH0 DUP4 ADD MSTORE PUSH2 0x174F DUP2 PUSH2 0x1716 JUMP JUMPDEST SWAP1 POP SWAP2 SWAP1 POP JUMP JUMPDEST PUSH32 0x546F6B656E20616C6C6F77616E636520746F6F206C6F77000000000000000000 PUSH0 DUP3 ADD MSTORE POP JUMP JUMPDEST PUSH0 PUSH2 0x178A PUSH1 0x17 DUP4 PUSH2 0xFFA JUMP JUMPDEST SWAP2 POP PUSH2 0x1795 DUP3 PUSH2 0x1756 JUMP JUMPDEST PUSH1 0x20 DUP3 ADD SWAP1 POP SWAP2 SWAP1 POP JUMP JUMPDEST PUSH0 PUSH1 0x20 DUP3 ADD SWAP1 POP DUP2 DUP2 SUB PUSH0 DUP4 ADD MSTORE PUSH2 0x17B7 DUP2 PUSH2 0x177E JUMP JUMPDEST SWAP1 POP SWAP2 SWAP1 POP JUMP JUMPDEST PUSH0 PUSH2 0x17C8 DUP3 PUSH2 0xDEF JUMP JUMPDEST SWAP2 POP PUSH32 0xFFFFFFFFFFFFFFFFFFFFFFFFFFFFFFFFFFFFFFFFFFFFFFFFFFFFFFFFFFFFFFFF DUP3 SUB PUSH2 0x17FA JUMPI PUSH2 0x17F9 PUSH2 0x1168 JUMP JUMPDEST JUMPDEST PUSH1 0x1 DUP3 ADD SWAP1 POP SWAP2 SWAP1 POP JUMP JUMPDEST PUSH0 PUSH2 0x180F DUP3 PUSH2 0xDEF JUMP JUMPDEST SWAP2 POP PUSH2 0x181A DUP4 PUSH2 0xDEF JUMP JUMPDEST SWAP3 POP DUP3 DUP3 ADD SWAP1 POP DUP1 DUP3 GT ISZERO PUSH2 0x1832 JUMPI PUSH2 0x1831 PUSH2 0x1168 JUMP JUMPDEST JUMPDEST SWAP3 SWAP2 POP POP JUMP INVALID LOG2 PUSH5 0x6970667358 0x22 SLT KECCAK256 PUSH7 0xECE59CF0048F26 PUSH14 0x5DBD0339E6A0C701006A8C1AFDC5 SWAP2 PUSH3 0x4A26FD 0x4D 0xD8 PUSH22 0xF464736F6C634300081C003300000000000000000000 "
				},
				"gasEstimates": {
					"creation": {
						"codeDepositCost": "1250800",
						"executionCost": "1300",
						"totalCost": "1252100"
					},
					"external": {
						"COMMISSION_PERCENTAGE()": "348",
						"COMMISSION_WALLET()": "374",
						"addListing(uint256,address,uint256,uint256)": "infinite",
						"buyTokens(uint256,uint256)": "infinite",
						"buyTokensWithERC20(uint256,uint256,address,uint256)": "infinite",
						"listingCounter()": "2470",
						"listings(uint256)": "infinite"
					}
				},
				"methodIdentifiers": {
					"COMMISSION_PERCENTAGE()": "1bf1de9b",
					"COMMISSION_WALLET()": "17c73ff0",
					"addListing(uint256,address,uint256,uint256)": "9ffae41b",
					"buyTokens(uint256,uint256)": "7975ce28",
					"buyTokensWithERC20(uint256,uint256,address,uint256)": "7a82a87f",
					"listingCounter()": "6c2c9c7d",
					"listings(uint256)": "de74e57b"
				}
			},
			"storageLayout": {
				"storage": [
					{
						"astId": 805,
						"contract": "contracts/SaleContract.sol:SaleContract",
						"label": "listings",
						"offset": 0,
						"slot": "0",
						"type": "t_mapping(t_uint256,t_struct(Listing)800_storage)"
					},
					{
						"astId": 807,
						"contract": "contracts/SaleContract.sol:SaleContract",
						"label": "listingCounter",
						"offset": 0,
						"slot": "1",
						"type": "t_uint256"
					}
				],
				"types": {
					"t_address": {
						"encoding": "inplace",
						"label": "address",
						"numberOfBytes": "20"
					},
					"t_mapping(t_uint256,t_struct(Listing)800_storage)": {
						"encoding": "mapping",
						"key": "t_uint256",
						"label": "mapping(uint256 => struct SaleContract.Listing)",
						"numberOfBytes": "32",
						"value": "t_struct(Listing)800_storage"
					},
					"t_struct(Listing)800_storage": {
						"encoding": "inplace",
						"label": "struct SaleContract.Listing",
						"members": [
							{
								"astId": 791,
								"contract": "contracts/SaleContract.sol:SaleContract",
								"label": "contractAddress",
								"offset": 0,
								"slot": "0",
								"type": "t_address"
							},
							{
								"astId": 793,
								"contract": "contracts/SaleContract.sol:SaleContract",
								"label": "price",
								"offset": 0,
								"slot": "1",
								"type": "t_uint256"
							},
							{
								"astId": 795,
								"contract": "contracts/SaleContract.sol:SaleContract",
								"label": "tokens",
								"offset": 0,
								"slot": "2",
								"type": "t_uint256"
							},
							{
								"astId": 797,
								"contract": "contracts/SaleContract.sol:SaleContract",
								"label": "seller",
								"offset": 0,
								"slot": "3",
								"type": "t_address"
							},
							{
								"astId": 799,
								"contract": "contracts/SaleContract.sol:SaleContract",
								"label": "expiration",
								"offset": 0,
								"slot": "4",
								"type": "t_uint256"
							}
						],
						"numberOfBytes": "160"
					},
					"t_uint256": {
						"encoding": "inplace",
						"label": "uint256",
						"numberOfBytes": "32"
					}
				}
			},
			"userdoc": {
				"kind": "user",
				"methods": {},
				"version": 1
			}
		}
	}
}