{
	"contracts/SaleContract.sol": {
		"SaleContract": {
			"abi": [
				{
					"inputs": [],
					"stateMutability": "nonpayable",
					"type": "constructor"
				},
				{
					"inputs": [
						{
							"internalType": "address",
							"name": "owner",
							"type": "address"
						}
					],
					"name": "OwnableInvalidOwner",
					"type": "error"
				},
				{
					"inputs": [
						{
							"internalType": "address",
							"name": "account",
							"type": "address"
						}
					],
					"name": "OwnableUnauthorizedAccount",
					"type": "error"
				},
				{
					"inputs": [],
					"name": "ReentrancyGuardReentrantCall",
					"type": "error"
				},
				{
					"inputs": [
						{
							"internalType": "address",
							"name": "token",
							"type": "address"
						}
					],
					"name": "SafeERC20FailedOperation",
					"type": "error"
				},
				{
					"anonymous": false,
					"inputs": [
						{
							"indexed": false,
							"internalType": "uint256",
							"name": "listingId",
							"type": "uint256"
						},
						{
							"indexed": true,
							"internalType": "address",
							"name": "seller",
							"type": "address"
						},
						{
							"indexed": true,
							"internalType": "address",
							"name": "contractAddress",
							"type": "address"
						},
						{
							"indexed": false,
							"internalType": "uint256",
							"name": "price",
							"type": "uint256"
						},
						{
							"indexed": false,
							"internalType": "uint256",
							"name": "tokens",
							"type": "uint256"
						},
						{
							"indexed": false,
							"internalType": "uint256",
							"name": "expiration",
							"type": "uint256"
						}
					],
					"name": "ListingAdded",
					"type": "event"
				},
				{
					"anonymous": false,
					"inputs": [
						{
							"indexed": true,
							"internalType": "address",
							"name": "previousOwner",
							"type": "address"
						},
						{
							"indexed": true,
							"internalType": "address",
							"name": "newOwner",
							"type": "address"
						}
					],
					"name": "OwnershipTransferred",
					"type": "event"
				},
				{
					"anonymous": false,
					"inputs": [
						{
							"indexed": false,
							"internalType": "uint256",
							"name": "listingId",
							"type": "uint256"
						},
						{
							"indexed": true,
							"internalType": "address",
							"name": "buyer",
							"type": "address"
						},
						{
							"indexed": false,
							"internalType": "uint256",
							"name": "tokenAmount",
							"type": "uint256"
						},
						{
							"indexed": false,
							"internalType": "uint256",
							"name": "price",
							"type": "uint256"
						},
						{
							"indexed": false,
							"internalType": "bool",
							"name": "withERC20",
							"type": "bool"
						}
					],
					"name": "TokensPurchased",
					"type": "event"
				},
				{
					"inputs": [],
					"name": "COMMISSION_PERCENTAGE",
					"outputs": [
						{
							"internalType": "uint256",
							"name": "",
							"type": "uint256"
						}
					],
					"stateMutability": "view",
					"type": "function"
				},
				{
					"inputs": [],
					"name": "COMMISSION_WALLET",
					"outputs": [
						{
							"internalType": "address",
							"name": "",
							"type": "address"
						}
					],
					"stateMutability": "view",
					"type": "function"
				},
				{
					"inputs": [],
					"name": "MELS_ADDRESS",
					"outputs": [
						{
							"internalType": "address",
							"name": "",
							"type": "address"
						}
					],
					"stateMutability": "view",
					"type": "function"
				},
				{
					"inputs": [
						{
							"internalType": "uint256",
							"name": "price",
							"type": "uint256"
						},
						{
							"internalType": "address",
							"name": "contractAddress",
							"type": "address"
						},
						{
							"internalType": "uint256",
							"name": "tokens",
							"type": "uint256"
						},
						{
							"internalType": "uint256",
							"name": "duration",
							"type": "uint256"
						}
					],
					"name": "addListing",
					"outputs": [],
					"stateMutability": "nonpayable",
					"type": "function"
				},
				{
					"inputs": [
						{
							"internalType": "uint256",
							"name": "listingId",
							"type": "uint256"
						},
						{
							"internalType": "uint256",
							"name": "tokenAmount",
							"type": "uint256"
						},
						{
							"internalType": "uint256",
							"name": "paymentAmount",
							"type": "uint256"
						}
					],
					"name": "buyTokensWithERC20",
					"outputs": [],
					"stateMutability": "nonpayable",
					"type": "function"
				},
				{
					"inputs": [],
					"name": "listingCounter",
					"outputs": [
						{
							"internalType": "uint256",
							"name": "",
							"type": "uint256"
						}
					],
					"stateMutability": "view",
					"type": "function"
				},
				{
					"inputs": [
						{
							"internalType": "uint256",
							"name": "",
							"type": "uint256"
						}
					],
					"name": "listings",
					"outputs": [
						{
							"internalType": "address",
							"name": "contractAddress",
							"type": "address"
						},
						{
							"internalType": "uint256",
							"name": "price",
							"type": "uint256"
						},
						{
							"internalType": "uint256",
							"name": "tokens",
							"type": "uint256"
						},
						{
							"internalType": "address",
							"name": "seller",
							"type": "address"
						},
						{
							"internalType": "uint256",
							"name": "expiration",
							"type": "uint256"
						}
					],
					"stateMutability": "view",
					"type": "function"
				},
				{
					"inputs": [],
					"name": "owner",
					"outputs": [
						{
							"internalType": "address",
							"name": "",
							"type": "address"
						}
					],
					"stateMutability": "view",
					"type": "function"
				},
				{
					"inputs": [],
					"name": "renounceOwnership",
					"outputs": [],
					"stateMutability": "nonpayable",
					"type": "function"
				},
				{
					"inputs": [
						{
							"internalType": "address",
							"name": "newWallet",
							"type": "address"
						}
					],
					"name": "setCommissionWallet",
					"outputs": [],
					"stateMutability": "nonpayable",
					"type": "function"
				},
				{
					"inputs": [
						{
							"internalType": "address",
							"name": "newOwner",
							"type": "address"
						}
					],
					"name": "transferOwnership",
					"outputs": [],
					"stateMutability": "nonpayable",
					"type": "function"
				},
				{
					"inputs": [
						{
							"internalType": "uint256",
							"name": "listingId",
							"type": "uint256"
						}
					],
					"name": "withdrawTokensFromListing",
					"outputs": [],
					"stateMutability": "nonpayable",
					"type": "function"
				}
			],
			"devdoc": {
				"errors": {
					"OwnableInvalidOwner(address)": [
						{
							"details": "The owner is not a valid owner account. (eg. `address(0)`)"
						}
					],
					"OwnableUnauthorizedAccount(address)": [
						{
							"details": "The caller account is not authorized to perform an operation."
						}
					],
					"ReentrancyGuardReentrantCall()": [
						{
							"details": "Unauthorized reentrant call."
						}
					],
					"SafeERC20FailedOperation(address)": [
						{
							"details": "An operation with an ERC-20 token failed."
						}
					]
				},
				"kind": "dev",
				"methods": {
					"owner()": {
						"details": "Returns the address of the current owner."
					},
					"renounceOwnership()": {
						"details": "Leaves the contract without owner. It will not be possible to call `onlyOwner` functions. Can only be called by the current owner. NOTE: Renouncing ownership will leave the contract without an owner, thereby disabling any functionality that is only available to the owner."
					},
					"transferOwnership(address)": {
						"details": "Transfers ownership of the contract to a new account (`newOwner`). Can only be called by the current owner."
					}
				},
				"version": 1
			},
			"evm": {
				"assembly": "    /* \"contracts/SaleContract.sol\":309:4164  contract SaleContract is ReentrancyGuard, Ownable {... */\n  mstore(0x40, 0x80)\n    /* \"contracts/SaleContract.sol\":720:762  0xFCF8d2b098B3160654bbaDa1a8769483c71C288b */\n  0xfcf8d2b098b3160654bbada1a8769483c71c288b\n    /* \"contracts/SaleContract.sol\":685:762  address public COMMISSION_WALLET = 0xFCF8d2b098B3160654bbaDa1a8769483c71C288b */\n  0x04\n  exp(0x0100, 0x00)\n  dup2\n  sload\n  dup2\n  0xffffffffffffffffffffffffffffffffffffffff\n  mul\n  not\n  and\n  swap1\n  dup4\n  0xffffffffffffffffffffffffffffffffffffffff\n  and\n  mul\n  or\n  swap1\n  sstore\n  pop\n    /* \"contracts/SaleContract.sol\":397:435  constructor () Ownable(msg.sender) { } */\n  callvalue\n  dup1\n  iszero\n  tag_1\n  jumpi\n  revert(0x00, 0x00)\ntag_1:\n  pop\n    /* \"contracts/SaleContract.sol\":420:430  msg.sender */\n  caller\n    /* \"@openzeppelin/contracts/utils/ReentrancyGuard.sol\":1857:1858  1 */\n  0x01\n    /* \"@openzeppelin/contracts/utils/ReentrancyGuard.sol\":2061:2068  _status */\n  0x00\n    /* \"@openzeppelin/contracts/utils/ReentrancyGuard.sol\":2061:2082  _status = NOT_ENTERED */\n  dup2\n  swap1\n  sstore\n  pop\n    /* \"@openzeppelin/contracts/access/Ownable.sol\":1297:1298  0 */\n  0x00\n    /* \"@openzeppelin/contracts/access/Ownable.sol\":1273:1299  initialOwner == address(0) */\n  0xffffffffffffffffffffffffffffffffffffffff\n  and\n    /* \"@openzeppelin/contracts/access/Ownable.sol\":1273:1285  initialOwner */\n  dup2\n    /* \"@openzeppelin/contracts/access/Ownable.sol\":1273:1299  initialOwner == address(0) */\n  0xffffffffffffffffffffffffffffffffffffffff\n  and\n  sub\n    /* \"@openzeppelin/contracts/access/Ownable.sol\":1269:1364  if (initialOwner == address(0)) {... */\n  tag_7\n  jumpi\n    /* \"@openzeppelin/contracts/access/Ownable.sol\":1350:1351  0 */\n  0x00\n    /* \"@openzeppelin/contracts/access/Ownable.sol\":1322:1353  OwnableInvalidOwner(address(0)) */\n  mload(0x40)\n  0x1e4fbdf700000000000000000000000000000000000000000000000000000000\n  dup2\n  mstore\n  0x04\n  add\n  tag_8\n  swap2\n  swap1\n  tag_9\n  jump\t// in\ntag_8:\n  mload(0x40)\n  dup1\n  swap2\n  sub\n  swap1\n  revert\n    /* \"@openzeppelin/contracts/access/Ownable.sol\":1269:1364  if (initialOwner == address(0)) {... */\ntag_7:\n    /* \"@openzeppelin/contracts/access/Ownable.sol\":1373:1405  _transferOwnership(initialOwner) */\n  tag_10\n    /* \"@openzeppelin/contracts/access/Ownable.sol\":1392:1404  initialOwner */\n  dup2\n    /* \"@openzeppelin/contracts/access/Ownable.sol\":1373:1391  _transferOwnership */\n  shl(0x20, tag_11)\n    /* \"@openzeppelin/contracts/access/Ownable.sol\":1373:1405  _transferOwnership(initialOwner) */\n  0x20\n  shr\n  jump\t// in\ntag_10:\n    /* \"@openzeppelin/contracts/access/Ownable.sol\":1225:1412  constructor(address initialOwner) {... */\n  pop\n    /* \"contracts/SaleContract.sol\":309:4164  contract SaleContract is ReentrancyGuard, Ownable {... */\n  jump(tag_13)\n    /* \"@openzeppelin/contracts/access/Ownable.sol\":2912:3099  function _transferOwnership(address newOwner) internal virtual {... */\ntag_11:\n    /* \"@openzeppelin/contracts/access/Ownable.sol\":2985:3001  address oldOwner */\n  0x00\n    /* \"@openzeppelin/contracts/access/Ownable.sol\":3004:3010  _owner */\n  0x01\n  0x00\n  swap1\n  sload\n  swap1\n  0x0100\n  exp\n  swap1\n  div\n  0xffffffffffffffffffffffffffffffffffffffff\n  and\n    /* \"@openzeppelin/contracts/access/Ownable.sol\":2985:3010  address oldOwner = _owner */\n  swap1\n  pop\n    /* \"@openzeppelin/contracts/access/Ownable.sol\":3029:3037  newOwner */\n  dup2\n    /* \"@openzeppelin/contracts/access/Ownable.sol\":3020:3026  _owner */\n  0x01\n  0x00\n    /* \"@openzeppelin/contracts/access/Ownable.sol\":3020:3037  _owner = newOwner */\n  0x0100\n  exp\n  dup2\n  sload\n  dup2\n  0xffffffffffffffffffffffffffffffffffffffff\n  mul\n  not\n  and\n  swap1\n  dup4\n  0xffffffffffffffffffffffffffffffffffffffff\n  and\n  mul\n  or\n  swap1\n  sstore\n  pop\n    /* \"@openzeppelin/contracts/access/Ownable.sol\":3083:3091  newOwner */\n  dup2\n    /* \"@openzeppelin/contracts/access/Ownable.sol\":3052:3092  OwnershipTransferred(oldOwner, newOwner) */\n  0xffffffffffffffffffffffffffffffffffffffff\n  and\n    /* \"@openzeppelin/contracts/access/Ownable.sol\":3073:3081  oldOwner */\n  dup2\n    /* \"@openzeppelin/contracts/access/Ownable.sol\":3052:3092  OwnershipTransferred(oldOwner, newOwner) */\n  0xffffffffffffffffffffffffffffffffffffffff\n  and\n  0x8be0079c531659141344cd1fd0a4f28419497f9722a3daafe3b4186f6b6457e0\n  mload(0x40)\n  mload(0x40)\n  dup1\n  swap2\n  sub\n  swap1\n  log3\n    /* \"@openzeppelin/contracts/access/Ownable.sol\":2975:3099  {... */\n  pop\n    /* \"@openzeppelin/contracts/access/Ownable.sol\":2912:3099  function _transferOwnership(address newOwner) internal virtual {... */\n  pop\n  jump\t// out\n    /* \"#utility.yul\":7:133   */\ntag_15:\n    /* \"#utility.yul\":44:51   */\n  0x00\n    /* \"#utility.yul\":84:126   */\n  0xffffffffffffffffffffffffffffffffffffffff\n    /* \"#utility.yul\":77:82   */\n  dup3\n    /* \"#utility.yul\":73:127   */\n  and\n    /* \"#utility.yul\":62:127   */\n  swap1\n  pop\n    /* \"#utility.yul\":7:133   */\n  swap2\n  swap1\n  pop\n  jump\t// out\n    /* \"#utility.yul\":139:235   */\ntag_16:\n    /* \"#utility.yul\":176:183   */\n  0x00\n    /* \"#utility.yul\":205:229   */\n  tag_21\n    /* \"#utility.yul\":223:228   */\n  dup3\n    /* \"#utility.yul\":205:229   */\n  tag_15\n  jump\t// in\ntag_21:\n    /* \"#utility.yul\":194:229   */\n  swap1\n  pop\n    /* \"#utility.yul\":139:235   */\n  swap2\n  swap1\n  pop\n  jump\t// out\n    /* \"#utility.yul\":241:359   */\ntag_17:\n    /* \"#utility.yul\":328:352   */\n  tag_23\n    /* \"#utility.yul\":346:351   */\n  dup2\n    /* \"#utility.yul\":328:352   */\n  tag_16\n  jump\t// in\ntag_23:\n    /* \"#utility.yul\":323:326   */\n  dup3\n    /* \"#utility.yul\":316:353   */\n  mstore\n    /* \"#utility.yul\":241:359   */\n  pop\n  pop\n  jump\t// out\n    /* \"#utility.yul\":365:587   */\ntag_9:\n    /* \"#utility.yul\":458:462   */\n  0x00\n    /* \"#utility.yul\":496:498   */\n  0x20\n    /* \"#utility.yul\":485:494   */\n  dup3\n    /* \"#utility.yul\":481:499   */\n  add\n    /* \"#utility.yul\":473:499   */\n  swap1\n  pop\n    /* \"#utility.yul\":509:580   */\n  tag_25\n    /* \"#utility.yul\":577:578   */\n  0x00\n    /* \"#utility.yul\":566:575   */\n  dup4\n    /* \"#utility.yul\":562:579   */\n  add\n    /* \"#utility.yul\":553:559   */\n  dup5\n    /* \"#utility.yul\":509:580   */\n  tag_17\n  jump\t// in\ntag_25:\n    /* \"#utility.yul\":365:587   */\n  swap3\n  swap2\n  pop\n  pop\n  jump\t// out\n    /* \"contracts/SaleContract.sol\":309:4164  contract SaleContract is ReentrancyGuard, Ownable {... */\ntag_13:\n  dataSize(sub_0)\n  dup1\n  dataOffset(sub_0)\n  0x00\n  codecopy\n  0x00\n  return\nstop\n\nsub_0: assembly {\n        /* \"contracts/SaleContract.sol\":309:4164  contract SaleContract is ReentrancyGuard, Ownable {... */\n      mstore(0x40, 0x80)\n      callvalue\n      dup1\n      iszero\n      tag_1\n      jumpi\n      revert(0x00, 0x00)\n    tag_1:\n      pop\n      jumpi(tag_2, lt(calldatasize, 0x04))\n      shr(0xe0, calldataload(0x00))\n      dup1\n      0x7d60b6ce\n      gt\n      tag_15\n      jumpi\n      dup1\n      0x7d60b6ce\n      eq\n      tag_9\n      jumpi\n      dup1\n      0x8da5cb5b\n      eq\n      tag_10\n      jumpi\n      dup1\n      0x9ffae41b\n      eq\n      tag_11\n      jumpi\n      dup1\n      0xde74e57b\n      eq\n      tag_12\n      jumpi\n      dup1\n      0xf25713bf\n      eq\n      tag_13\n      jumpi\n      dup1\n      0xf2fde38b\n      eq\n      tag_14\n      jumpi\n      jump(tag_2)\n    tag_15:\n      dup1\n      0x17c73ff0\n      eq\n      tag_3\n      jumpi\n      dup1\n      0x1bf1de9b\n      eq\n      tag_4\n      jumpi\n      dup1\n      0x24f56afa\n      eq\n      tag_5\n      jumpi\n      dup1\n      0x27722e62\n      eq\n      tag_6\n      jumpi\n      dup1\n      0x6c2c9c7d\n      eq\n      tag_7\n      jumpi\n      dup1\n      0x715018a6\n      eq\n      tag_8\n      jumpi\n    tag_2:\n      revert(0x00, 0x00)\n        /* \"contracts/SaleContract.sol\":685:762  address public COMMISSION_WALLET = 0xFCF8d2b098B3160654bbaDa1a8769483c71C288b */\n    tag_3:\n      tag_16\n      tag_17\n      jump\t// in\n    tag_16:\n      mload(0x40)\n      tag_18\n      swap2\n      swap1\n      tag_19\n      jump\t// in\n    tag_18:\n      mload(0x40)\n      dup1\n      swap2\n      sub\n      swap1\n      return\n        /* \"contracts/SaleContract.sol\":768:818  uint256 public constant COMMISSION_PERCENTAGE = 10 */\n    tag_4:\n      tag_20\n      tag_21\n      jump\t// in\n    tag_20:\n      mload(0x40)\n      tag_22\n      swap2\n      swap1\n      tag_23\n      jump\t// in\n    tag_22:\n      mload(0x40)\n      dup1\n      swap2\n      sub\n      swap1\n      return\n        /* \"contracts/SaleContract.sol\":2170:3409  function buyTokensWithERC20(... */\n    tag_5:\n      tag_24\n      0x04\n      dup1\n      calldatasize\n      sub\n      dup2\n      add\n      swap1\n      tag_25\n      swap2\n      swap1\n      tag_26\n      jump\t// in\n    tag_25:\n      tag_27\n      jump\t// in\n    tag_24:\n      stop\n        /* \"contracts/SaleContract.sol\":824:905  address public constant MELS_ADDRESS = 0x5FDAF637Aed59B2e6d384d9e84D8ac5cF03c6697 */\n    tag_6:\n      tag_28\n      tag_29\n      jump\t// in\n    tag_28:\n      mload(0x40)\n      tag_30\n      swap2\n      swap1\n      tag_19\n      jump\t// in\n    tag_30:\n      mload(0x40)\n      dup1\n      swap2\n      sub\n      swap1\n      return\n        /* \"contracts/SaleContract.sol\":650:679  uint256 public listingCounter */\n    tag_7:\n      tag_31\n      tag_32\n      jump\t// in\n    tag_31:\n      mload(0x40)\n      tag_33\n      swap2\n      swap1\n      tag_23\n      jump\t// in\n    tag_33:\n      mload(0x40)\n      dup1\n      swap2\n      sub\n      swap1\n      return\n        /* \"@openzeppelin/contracts/access/Ownable.sol\":2293:2394  function renounceOwnership() public virtual onlyOwner {... */\n    tag_8:\n      tag_34\n      tag_35\n      jump\t// in\n    tag_34:\n      stop\n        /* \"contracts/SaleContract.sol\":3987:4161  function setCommissionWallet(address newWallet) external onlyOwner {... */\n    tag_9:\n      tag_36\n      0x04\n      dup1\n      calldatasize\n      sub\n      dup2\n      add\n      swap1\n      tag_37\n      swap2\n      swap1\n      tag_38\n      jump\t// in\n    tag_37:\n      tag_39\n      jump\t// in\n    tag_36:\n      stop\n        /* \"@openzeppelin/contracts/access/Ownable.sol\":1638:1723  function owner() public view virtual returns (address) {... */\n    tag_10:\n      tag_40\n      tag_41\n      jump\t// in\n    tag_40:\n      mload(0x40)\n      tag_42\n      swap2\n      swap1\n      tag_19\n      jump\t// in\n    tag_42:\n      mload(0x40)\n      dup1\n      swap2\n      sub\n      swap1\n      return\n        /* \"contracts/SaleContract.sol\":1185:2164  function addListing(uint256 price, address contractAddress, uint256 tokens, uint256 duration) external {... */\n    tag_11:\n      tag_43\n      0x04\n      dup1\n      calldatasize\n      sub\n      dup2\n      add\n      swap1\n      tag_44\n      swap2\n      swap1\n      tag_45\n      jump\t// in\n    tag_44:\n      tag_46\n      jump\t// in\n    tag_43:\n      stop\n        /* \"contracts/SaleContract.sol\":601:644  mapping(uint256 => Listing) public listings */\n    tag_12:\n      tag_47\n      0x04\n      dup1\n      calldatasize\n      sub\n      dup2\n      add\n      swap1\n      tag_48\n      swap2\n      swap1\n      tag_49\n      jump\t// in\n    tag_48:\n      tag_50\n      jump\t// in\n    tag_47:\n      mload(0x40)\n      tag_51\n      swap6\n      swap5\n      swap4\n      swap3\n      swap2\n      swap1\n      tag_52\n      jump\t// in\n    tag_51:\n      mload(0x40)\n      dup1\n      swap2\n      sub\n      swap1\n      return\n        /* \"contracts/SaleContract.sol\":3415:3981  function withdrawTokensFromListing(uint256 listingId) external nonReentrant {... */\n    tag_13:\n      tag_53\n      0x04\n      dup1\n      calldatasize\n      sub\n      dup2\n      add\n      swap1\n      tag_54\n      swap2\n      swap1\n      tag_49\n      jump\t// in\n    tag_54:\n      tag_55\n      jump\t// in\n    tag_53:\n      stop\n        /* \"@openzeppelin/contracts/access/Ownable.sol\":2543:2758  function transferOwnership(address newOwner) public virtual onlyOwner {... */\n    tag_14:\n      tag_56\n      0x04\n      dup1\n      calldatasize\n      sub\n      dup2\n      add\n      swap1\n      tag_57\n      swap2\n      swap1\n      tag_38\n      jump\t// in\n    tag_57:\n      tag_58\n      jump\t// in\n    tag_56:\n      stop\n        /* \"contracts/SaleContract.sol\":685:762  address public COMMISSION_WALLET = 0xFCF8d2b098B3160654bbaDa1a8769483c71C288b */\n    tag_17:\n      0x04\n      0x00\n      swap1\n      sload\n      swap1\n      0x0100\n      exp\n      swap1\n      div\n      0xffffffffffffffffffffffffffffffffffffffff\n      and\n      dup2\n      jump\t// out\n        /* \"contracts/SaleContract.sol\":768:818  uint256 public constant COMMISSION_PERCENTAGE = 10 */\n    tag_21:\n        /* \"contracts/SaleContract.sol\":816:818  10 */\n      0x0a\n        /* \"contracts/SaleContract.sol\":768:818  uint256 public constant COMMISSION_PERCENTAGE = 10 */\n      dup2\n      jump\t// out\n        /* \"contracts/SaleContract.sol\":2170:3409  function buyTokensWithERC20(... */\n    tag_27:\n        /* \"@openzeppelin/contracts/utils/ReentrancyGuard.sol\":2500:2521  _nonReentrantBefore() */\n      tag_60\n        /* \"@openzeppelin/contracts/utils/ReentrancyGuard.sol\":2500:2519  _nonReentrantBefore */\n      tag_61\n        /* \"@openzeppelin/contracts/utils/ReentrancyGuard.sol\":2500:2521  _nonReentrantBefore() */\n      jump\t// in\n    tag_60:\n        /* \"contracts/SaleContract.sol\":2323:2346  Listing storage listing */\n      0x00\n        /* \"contracts/SaleContract.sol\":2349:2357  listings */\n      0x02\n        /* \"contracts/SaleContract.sol\":2349:2368  listings[listingId] */\n      0x00\n        /* \"contracts/SaleContract.sol\":2358:2367  listingId */\n      dup6\n        /* \"contracts/SaleContract.sol\":2349:2368  listings[listingId] */\n      dup2\n      mstore\n      0x20\n      add\n      swap1\n      dup2\n      mstore\n      0x20\n      add\n      0x00\n      keccak256\n        /* \"contracts/SaleContract.sol\":2323:2368  Listing storage listing = listings[listingId] */\n      swap1\n      pop\n        /* \"contracts/SaleContract.sol\":2403:2404  0 */\n      0x00\n        /* \"contracts/SaleContract.sol\":2386:2393  listing */\n      dup2\n        /* \"contracts/SaleContract.sol\":2386:2400  listing.tokens */\n      0x02\n      add\n      sload\n        /* \"contracts/SaleContract.sol\":2386:2404  listing.tokens > 0 */\n      gt\n        /* \"contracts/SaleContract.sol\":2378:2431  require(listing.tokens > 0, \"Listing does not exist\") */\n      tag_63\n      jumpi\n      mload(0x40)\n      0x08c379a000000000000000000000000000000000000000000000000000000000\n      dup2\n      mstore\n      0x04\n      add\n      tag_64\n      swap1\n      tag_65\n      jump\t// in\n    tag_64:\n      mload(0x40)\n      dup1\n      swap2\n      sub\n      swap1\n      revert\n    tag_63:\n        /* \"contracts/SaleContract.sol\":2468:2475  listing */\n      dup1\n        /* \"contracts/SaleContract.sol\":2468:2486  listing.expiration */\n      0x04\n      add\n      sload\n        /* \"contracts/SaleContract.sol\":2449:2464  block.timestamp */\n      timestamp\n        /* \"contracts/SaleContract.sol\":2449:2486  block.timestamp <= listing.expiration */\n      gt\n      iszero\n        /* \"contracts/SaleContract.sol\":2441:2510  require(block.timestamp <= listing.expiration, \"Listing has expired\") */\n      tag_66\n      jumpi\n      mload(0x40)\n      0x08c379a000000000000000000000000000000000000000000000000000000000\n      dup2\n      mstore\n      0x04\n      add\n      tag_67\n      swap1\n      tag_68\n      jump\t// in\n    tag_67:\n      mload(0x40)\n      dup1\n      swap2\n      sub\n      swap1\n      revert\n    tag_66:\n        /* \"contracts/SaleContract.sol\":2546:2557  tokenAmount */\n      dup3\n        /* \"contracts/SaleContract.sol\":2528:2535  listing */\n      dup2\n        /* \"contracts/SaleContract.sol\":2528:2542  listing.tokens */\n      0x02\n      add\n      sload\n        /* \"contracts/SaleContract.sol\":2528:2557  listing.tokens >= tokenAmount */\n      lt\n      iszero\n        /* \"contracts/SaleContract.sol\":2520:2590  require(listing.tokens >= tokenAmount, \"Not enough tokens in listing\") */\n      tag_69\n      jumpi\n      mload(0x40)\n      0x08c379a000000000000000000000000000000000000000000000000000000000\n      dup2\n      mstore\n      0x04\n      add\n      tag_70\n      swap1\n      tag_71\n      jump\t// in\n    tag_70:\n      mload(0x40)\n      dup1\n      swap2\n      sub\n      swap1\n      revert\n    tag_69:\n        /* \"contracts/SaleContract.sol\":2601:2619  uint256 totalPrice */\n      0x00\n        /* \"contracts/SaleContract.sol\":2638:2649  tokenAmount */\n      dup4\n        /* \"contracts/SaleContract.sol\":2622:2629  listing */\n      dup3\n        /* \"contracts/SaleContract.sol\":2622:2635  listing.price */\n      0x01\n      add\n      sload\n        /* \"contracts/SaleContract.sol\":2622:2649  listing.price * tokenAmount */\n      tag_72\n      swap2\n      swap1\n      tag_73\n      jump\t// in\n    tag_72:\n        /* \"contracts/SaleContract.sol\":2601:2649  uint256 totalPrice = listing.price * tokenAmount */\n      swap1\n      pop\n        /* \"contracts/SaleContract.sol\":2659:2677  uint256 commission */\n      0x00\n        /* \"contracts/SaleContract.sol\":2719:2722  100 */\n      0x64\n        /* \"contracts/SaleContract.sol\":816:818  10 */\n      0x0a\n        /* \"contracts/SaleContract.sol\":2681:2691  totalPrice */\n      dup4\n        /* \"contracts/SaleContract.sol\":2681:2715  totalPrice * COMMISSION_PERCENTAGE */\n      tag_74\n      swap2\n      swap1\n      tag_73\n      jump\t// in\n    tag_74:\n        /* \"contracts/SaleContract.sol\":2680:2722  (totalPrice * COMMISSION_PERCENTAGE) / 100 */\n      tag_75\n      swap2\n      swap1\n      tag_76\n      jump\t// in\n    tag_75:\n        /* \"contracts/SaleContract.sol\":2659:2722  uint256 commission = (totalPrice * COMMISSION_PERCENTAGE) / 100 */\n      swap1\n      pop\n        /* \"contracts/SaleContract.sol\":2732:2758  uint256 totalPaymentAmount */\n      0x00\n        /* \"contracts/SaleContract.sol\":2774:2784  commission */\n      dup2\n        /* \"contracts/SaleContract.sol\":2761:2771  totalPrice */\n      dup4\n        /* \"contracts/SaleContract.sol\":2761:2784  totalPrice + commission */\n      tag_77\n      swap2\n      swap1\n      tag_78\n      jump\t// in\n    tag_77:\n        /* \"contracts/SaleContract.sol\":2732:2784  uint256 totalPaymentAmount = totalPrice + commission */\n      swap1\n      pop\n        /* \"contracts/SaleContract.sol\":2819:2837  totalPaymentAmount */\n      dup1\n        /* \"contracts/SaleContract.sol\":2802:2815  paymentAmount */\n      dup6\n        /* \"contracts/SaleContract.sol\":2802:2837  paymentAmount == totalPaymentAmount */\n      eq\n        /* \"contracts/SaleContract.sol\":2794:2866  require(paymentAmount == totalPaymentAmount, \"Incorrect payment amount\") */\n      tag_79\n      jumpi\n      mload(0x40)\n      0x08c379a000000000000000000000000000000000000000000000000000000000\n      dup2\n      mstore\n      0x04\n      add\n      tag_80\n      swap1\n      tag_81\n      jump\t// in\n    tag_80:\n      mload(0x40)\n      dup1\n      swap2\n      sub\n      swap1\n      revert\n    tag_79:\n        /* \"contracts/SaleContract.sol\":2877:2895  ERC20 paymentERC20 */\n      0x00\n        /* \"contracts/SaleContract.sol\":863:905  0x5FDAF637Aed59B2e6d384d9e84D8ac5cF03c6697 */\n      0x5fdaf637aed59b2e6d384d9e84d8ac5cf03c6697\n        /* \"contracts/SaleContract.sol\":2877:2917  ERC20 paymentERC20 = ERC20(MELS_ADDRESS) */\n      swap1\n      pop\n        /* \"contracts/SaleContract.sol\":2988:3001  paymentAmount */\n      dup6\n        /* \"contracts/SaleContract.sol\":2935:2947  paymentERC20 */\n      dup2\n        /* \"contracts/SaleContract.sol\":2935:2957  paymentERC20.allowance */\n      0xffffffffffffffffffffffffffffffffffffffff\n      and\n      0xdd62ed3e\n        /* \"contracts/SaleContract.sol\":2958:2968  msg.sender */\n      caller\n        /* \"contracts/SaleContract.sol\":2978:2982  this */\n      address\n        /* \"contracts/SaleContract.sol\":2935:2984  paymentERC20.allowance(msg.sender, address(this)) */\n      mload(0x40)\n      dup4\n      0xffffffff\n      and\n      0xe0\n      shl\n      dup2\n      mstore\n      0x04\n      add\n      tag_82\n      swap3\n      swap2\n      swap1\n      tag_83\n      jump\t// in\n    tag_82:\n      0x20\n      mload(0x40)\n      dup1\n      dup4\n      sub\n      dup2\n      dup7\n      gas\n      staticcall\n      iszero\n      dup1\n      iszero\n      tag_85\n      jumpi\n      returndatacopy(0x00, 0x00, returndatasize)\n      revert(0x00, returndatasize)\n    tag_85:\n      pop\n      pop\n      pop\n      pop\n      mload(0x40)\n      returndatasize\n      not(0x1f)\n      0x1f\n      dup3\n      add\n      and\n      dup3\n      add\n      dup1\n      0x40\n      mstore\n      pop\n      dup2\n      add\n      swap1\n      tag_86\n      swap2\n      swap1\n      tag_87\n      jump\t// in\n    tag_86:\n        /* \"contracts/SaleContract.sol\":2935:3001  paymentERC20.allowance(msg.sender, address(this)) >= paymentAmount */\n      lt\n      iszero\n        /* \"contracts/SaleContract.sol\":2927:3037  require(paymentERC20.allowance(msg.sender, address(this)) >= paymentAmount, \"Payment token allowance too low\") */\n      tag_88\n      jumpi\n      mload(0x40)\n      0x08c379a000000000000000000000000000000000000000000000000000000000\n      dup2\n      mstore\n      0x04\n      add\n      tag_89\n      swap1\n      tag_90\n      jump\t// in\n    tag_89:\n      mload(0x40)\n      dup1\n      swap2\n      sub\n      swap1\n      revert\n    tag_88:\n        /* \"contracts/SaleContract.sol\":3048:3120  paymentERC20.safeTransferFrom(msg.sender, COMMISSION_WALLET, commission) */\n      tag_91\n        /* \"contracts/SaleContract.sol\":3078:3088  msg.sender */\n      caller\n        /* \"contracts/SaleContract.sol\":3090:3107  COMMISSION_WALLET */\n      0x04\n      0x00\n      swap1\n      sload\n      swap1\n      0x0100\n      exp\n      swap1\n      div\n      0xffffffffffffffffffffffffffffffffffffffff\n      and\n        /* \"contracts/SaleContract.sol\":3109:3119  commission */\n      dup6\n        /* \"contracts/SaleContract.sol\":3048:3060  paymentERC20 */\n      dup5\n        /* \"contracts/SaleContract.sol\":3048:3077  paymentERC20.safeTransferFrom */\n      0xffffffffffffffffffffffffffffffffffffffff\n      and\n      tag_92\n      swap1\n        /* \"contracts/SaleContract.sol\":3048:3120  paymentERC20.safeTransferFrom(msg.sender, COMMISSION_WALLET, commission) */\n      swap4\n      swap3\n      swap2\n      swap1\n      0xffffffff\n      and\n      jump\t// in\n    tag_91:\n        /* \"contracts/SaleContract.sol\":3130:3199  paymentERC20.safeTransferFrom(msg.sender, listing.seller, totalPrice) */\n      tag_93\n        /* \"contracts/SaleContract.sol\":3160:3170  msg.sender */\n      caller\n        /* \"contracts/SaleContract.sol\":3172:3179  listing */\n      dup7\n        /* \"contracts/SaleContract.sol\":3172:3186  listing.seller */\n      0x03\n      add\n      0x00\n      swap1\n      sload\n      swap1\n      0x0100\n      exp\n      swap1\n      div\n      0xffffffffffffffffffffffffffffffffffffffff\n      and\n        /* \"contracts/SaleContract.sol\":3188:3198  totalPrice */\n      dup7\n        /* \"contracts/SaleContract.sol\":3130:3142  paymentERC20 */\n      dup5\n        /* \"contracts/SaleContract.sol\":3130:3159  paymentERC20.safeTransferFrom */\n      0xffffffffffffffffffffffffffffffffffffffff\n      and\n      tag_92\n      swap1\n        /* \"contracts/SaleContract.sol\":3130:3199  paymentERC20.safeTransferFrom(msg.sender, listing.seller, totalPrice) */\n      swap4\n      swap3\n      swap2\n      swap1\n      0xffffffff\n      and\n      jump\t// in\n    tag_93:\n        /* \"contracts/SaleContract.sol\":3228:3239  tokenAmount */\n      dup7\n        /* \"contracts/SaleContract.sol\":3210:3217  listing */\n      dup6\n        /* \"contracts/SaleContract.sol\":3210:3224  listing.tokens */\n      0x02\n      add\n      0x00\n        /* \"contracts/SaleContract.sol\":3210:3239  listing.tokens -= tokenAmount */\n      dup3\n      dup3\n      sload\n      tag_94\n      swap2\n      swap1\n      tag_95\n      jump\t// in\n    tag_94:\n      swap3\n      pop\n      pop\n      dup2\n      swap1\n      sstore\n      pop\n        /* \"contracts/SaleContract.sol\":3249:3317  ERC20(listing.contractAddress).safeTransfer(msg.sender, tokenAmount) */\n      tag_96\n        /* \"contracts/SaleContract.sol\":3293:3303  msg.sender */\n      caller\n        /* \"contracts/SaleContract.sol\":3305:3316  tokenAmount */\n      dup9\n        /* \"contracts/SaleContract.sol\":3255:3262  listing */\n      dup8\n        /* \"contracts/SaleContract.sol\":3255:3278  listing.contractAddress */\n      0x00\n      add\n      0x00\n      swap1\n      sload\n      swap1\n      0x0100\n      exp\n      swap1\n      div\n      0xffffffffffffffffffffffffffffffffffffffff\n      and\n        /* \"contracts/SaleContract.sol\":3249:3292  ERC20(listing.contractAddress).safeTransfer */\n      0xffffffffffffffffffffffffffffffffffffffff\n      and\n      tag_97\n      swap1\n        /* \"contracts/SaleContract.sol\":3249:3317  ERC20(listing.contractAddress).safeTransfer(msg.sender, tokenAmount) */\n      swap3\n      swap2\n      swap1\n      0xffffffff\n      and\n      jump\t// in\n    tag_96:\n        /* \"contracts/SaleContract.sol\":3360:3370  msg.sender */\n      caller\n        /* \"contracts/SaleContract.sol\":3333:3402  TokensPurchased(listingId, msg.sender, tokenAmount, totalPrice, true) */\n      0xffffffffffffffffffffffffffffffffffffffff\n      and\n      0xdca20547336c56209d6bccbfed1076a61d517d52a47986a7086df1977b10daf5\n        /* \"contracts/SaleContract.sol\":3349:3358  listingId */\n      dup10\n        /* \"contracts/SaleContract.sol\":3372:3383  tokenAmount */\n      dup10\n        /* \"contracts/SaleContract.sol\":3385:3395  totalPrice */\n      dup8\n        /* \"contracts/SaleContract.sol\":3397:3401  true */\n      0x01\n        /* \"contracts/SaleContract.sol\":3333:3402  TokensPurchased(listingId, msg.sender, tokenAmount, totalPrice, true) */\n      mload(0x40)\n      tag_98\n      swap5\n      swap4\n      swap3\n      swap2\n      swap1\n      tag_99\n      jump\t// in\n    tag_98:\n      mload(0x40)\n      dup1\n      swap2\n      sub\n      swap1\n      log2\n        /* \"contracts/SaleContract.sol\":2313:3409  {... */\n      pop\n      pop\n      pop\n      pop\n      pop\n        /* \"@openzeppelin/contracts/utils/ReentrancyGuard.sol\":2542:2562  _nonReentrantAfter() */\n      tag_100\n        /* \"@openzeppelin/contracts/utils/ReentrancyGuard.sol\":2542:2560  _nonReentrantAfter */\n      tag_101\n        /* \"@openzeppelin/contracts/utils/ReentrancyGuard.sol\":2542:2562  _nonReentrantAfter() */\n      jump\t// in\n    tag_100:\n        /* \"contracts/SaleContract.sol\":2170:3409  function buyTokensWithERC20(... */\n      pop\n      pop\n      pop\n      jump\t// out\n        /* \"contracts/SaleContract.sol\":824:905  address public constant MELS_ADDRESS = 0x5FDAF637Aed59B2e6d384d9e84D8ac5cF03c6697 */\n    tag_29:\n        /* \"contracts/SaleContract.sol\":863:905  0x5FDAF637Aed59B2e6d384d9e84D8ac5cF03c6697 */\n      0x5fdaf637aed59b2e6d384d9e84d8ac5cf03c6697\n        /* \"contracts/SaleContract.sol\":824:905  address public constant MELS_ADDRESS = 0x5FDAF637Aed59B2e6d384d9e84D8ac5cF03c6697 */\n      dup2\n      jump\t// out\n        /* \"contracts/SaleContract.sol\":650:679  uint256 public listingCounter */\n    tag_32:\n      sload(0x03)\n      dup2\n      jump\t// out\n        /* \"@openzeppelin/contracts/access/Ownable.sol\":2293:2394  function renounceOwnership() public virtual onlyOwner {... */\n    tag_35:\n        /* \"@openzeppelin/contracts/access/Ownable.sol\":1531:1544  _checkOwner() */\n      tag_103\n        /* \"@openzeppelin/contracts/access/Ownable.sol\":1531:1542  _checkOwner */\n      tag_104\n        /* \"@openzeppelin/contracts/access/Ownable.sol\":1531:1544  _checkOwner() */\n      jump\t// in\n    tag_103:\n        /* \"@openzeppelin/contracts/access/Ownable.sol\":2357:2387  _transferOwnership(address(0)) */\n      tag_106\n        /* \"@openzeppelin/contracts/access/Ownable.sol\":2384:2385  0 */\n      0x00\n        /* \"@openzeppelin/contracts/access/Ownable.sol\":2357:2375  _transferOwnership */\n      tag_107\n        /* \"@openzeppelin/contracts/access/Ownable.sol\":2357:2387  _transferOwnership(address(0)) */\n      jump\t// in\n    tag_106:\n        /* \"@openzeppelin/contracts/access/Ownable.sol\":2293:2394  function renounceOwnership() public virtual onlyOwner {... */\n      jump\t// out\n        /* \"contracts/SaleContract.sol\":3987:4161  function setCommissionWallet(address newWallet) external onlyOwner {... */\n    tag_39:\n        /* \"@openzeppelin/contracts/access/Ownable.sol\":1531:1544  _checkOwner() */\n      tag_109\n        /* \"@openzeppelin/contracts/access/Ownable.sol\":1531:1542  _checkOwner */\n      tag_104\n        /* \"@openzeppelin/contracts/access/Ownable.sol\":1531:1544  _checkOwner() */\n      jump\t// in\n    tag_109:\n        /* \"contracts/SaleContract.sol\":4093:4094  0 */\n      0x00\n        /* \"contracts/SaleContract.sol\":4072:4095  newWallet != address(0) */\n      0xffffffffffffffffffffffffffffffffffffffff\n      and\n        /* \"contracts/SaleContract.sol\":4072:4081  newWallet */\n      dup2\n        /* \"contracts/SaleContract.sol\":4072:4095  newWallet != address(0) */\n      0xffffffffffffffffffffffffffffffffffffffff\n      and\n      sub\n        /* \"contracts/SaleContract.sol\":4064:4115  require(newWallet != address(0), \"Invalid address\") */\n      tag_111\n      jumpi\n      mload(0x40)\n      0x08c379a000000000000000000000000000000000000000000000000000000000\n      dup2\n      mstore\n      0x04\n      add\n      tag_112\n      swap1\n      tag_113\n      jump\t// in\n    tag_112:\n      mload(0x40)\n      dup1\n      swap2\n      sub\n      swap1\n      revert\n    tag_111:\n        /* \"contracts/SaleContract.sol\":4145:4154  newWallet */\n      dup1\n        /* \"contracts/SaleContract.sol\":4125:4142  COMMISSION_WALLET */\n      0x04\n      0x00\n        /* \"contracts/SaleContract.sol\":4125:4154  COMMISSION_WALLET = newWallet */\n      0x0100\n      exp\n      dup2\n      sload\n      dup2\n      0xffffffffffffffffffffffffffffffffffffffff\n      mul\n      not\n      and\n      swap1\n      dup4\n      0xffffffffffffffffffffffffffffffffffffffff\n      and\n      mul\n      or\n      swap1\n      sstore\n      pop\n        /* \"contracts/SaleContract.sol\":3987:4161  function setCommissionWallet(address newWallet) external onlyOwner {... */\n      pop\n      jump\t// out\n        /* \"@openzeppelin/contracts/access/Ownable.sol\":1638:1723  function owner() public view virtual returns (address) {... */\n    tag_41:\n        /* \"@openzeppelin/contracts/access/Ownable.sol\":1684:1691  address */\n      0x00\n        /* \"@openzeppelin/contracts/access/Ownable.sol\":1710:1716  _owner */\n      0x01\n      0x00\n      swap1\n      sload\n      swap1\n      0x0100\n      exp\n      swap1\n      div\n      0xffffffffffffffffffffffffffffffffffffffff\n      and\n        /* \"@openzeppelin/contracts/access/Ownable.sol\":1703:1716  return _owner */\n      swap1\n      pop\n        /* \"@openzeppelin/contracts/access/Ownable.sol\":1638:1723  function owner() public view virtual returns (address) {... */\n      swap1\n      jump\t// out\n        /* \"contracts/SaleContract.sol\":1185:2164  function addListing(uint256 price, address contractAddress, uint256 tokens, uint256 duration) external {... */\n    tag_46:\n        /* \"contracts/SaleContract.sol\":1314:1315  0 */\n      0x00\n        /* \"contracts/SaleContract.sol\":1306:1311  price */\n      dup5\n        /* \"contracts/SaleContract.sol\":1306:1315  price > 0 */\n      gt\n        /* \"contracts/SaleContract.sol\":1298:1351  require(price > 0, \"Price must be greater than zero\") */\n      tag_116\n      jumpi\n      mload(0x40)\n      0x08c379a000000000000000000000000000000000000000000000000000000000\n      dup2\n      mstore\n      0x04\n      add\n      tag_117\n      swap1\n      tag_118\n      jump\t// in\n    tag_117:\n      mload(0x40)\n      dup1\n      swap2\n      sub\n      swap1\n      revert\n    tag_116:\n        /* \"contracts/SaleContract.sol\":1378:1379  0 */\n      0x00\n        /* \"contracts/SaleContract.sol\":1369:1375  tokens */\n      dup3\n        /* \"contracts/SaleContract.sol\":1369:1379  tokens > 0 */\n      gt\n        /* \"contracts/SaleContract.sol\":1361:1416  require(tokens > 0, \"Tokens must be greater than zero\") */\n      tag_119\n      jumpi\n      mload(0x40)\n      0x08c379a000000000000000000000000000000000000000000000000000000000\n      dup2\n      mstore\n      0x04\n      add\n      tag_120\n      swap1\n      tag_121\n      jump\t// in\n    tag_120:\n      mload(0x40)\n      dup1\n      swap2\n      sub\n      swap1\n      revert\n    tag_119:\n        /* \"contracts/SaleContract.sol\":1445:1446  0 */\n      0x00\n        /* \"contracts/SaleContract.sol\":1434:1442  duration */\n      dup2\n        /* \"contracts/SaleContract.sol\":1434:1446  duration > 0 */\n      gt\n        /* \"contracts/SaleContract.sol\":1426:1485  require(duration > 0, \"Duration must be greater than zero\") */\n      tag_122\n      jumpi\n      mload(0x40)\n      0x08c379a000000000000000000000000000000000000000000000000000000000\n      dup2\n      mstore\n      0x04\n      add\n      tag_123\n      swap1\n      tag_124\n      jump\t// in\n    tag_123:\n      mload(0x40)\n      dup1\n      swap2\n      sub\n      swap1\n      revert\n    tag_122:\n        /* \"contracts/SaleContract.sol\":1530:1531  0 */\n      0x00\n        /* \"contracts/SaleContract.sol\":1503:1532  contractAddress != address(0) */\n      0xffffffffffffffffffffffffffffffffffffffff\n      and\n        /* \"contracts/SaleContract.sol\":1503:1518  contractAddress */\n      dup4\n        /* \"contracts/SaleContract.sol\":1503:1532  contractAddress != address(0) */\n      0xffffffffffffffffffffffffffffffffffffffff\n      and\n      sub\n        /* \"contracts/SaleContract.sol\":1495:1561  require(contractAddress != address(0), \"Invalid contract address\") */\n      tag_125\n      jumpi\n      mload(0x40)\n      0x08c379a000000000000000000000000000000000000000000000000000000000\n      dup2\n      mstore\n      0x04\n      add\n      tag_126\n      swap1\n      tag_127\n      jump\t// in\n    tag_126:\n      mload(0x40)\n      dup1\n      swap2\n      sub\n      swap1\n      revert\n    tag_125:\n        /* \"contracts/SaleContract.sol\":1572:1583  ERC20 token */\n      0x00\n        /* \"contracts/SaleContract.sol\":1592:1607  contractAddress */\n      dup4\n        /* \"contracts/SaleContract.sol\":1572:1608  ERC20 token = ERC20(contractAddress) */\n      swap1\n      pop\n        /* \"contracts/SaleContract.sol\":1672:1678  tokens */\n      dup3\n        /* \"contracts/SaleContract.sol\":1626:1631  token */\n      dup2\n        /* \"contracts/SaleContract.sol\":1626:1641  token.allowance */\n      0xffffffffffffffffffffffffffffffffffffffff\n      and\n      0xdd62ed3e\n        /* \"contracts/SaleContract.sol\":1642:1652  msg.sender */\n      caller\n        /* \"contracts/SaleContract.sol\":1662:1666  this */\n      address\n        /* \"contracts/SaleContract.sol\":1626:1668  token.allowance(msg.sender, address(this)) */\n      mload(0x40)\n      dup4\n      0xffffffff\n      and\n      0xe0\n      shl\n      dup2\n      mstore\n      0x04\n      add\n      tag_128\n      swap3\n      swap2\n      swap1\n      tag_83\n      jump\t// in\n    tag_128:\n      0x20\n      mload(0x40)\n      dup1\n      dup4\n      sub\n      dup2\n      dup7\n      gas\n      staticcall\n      iszero\n      dup1\n      iszero\n      tag_130\n      jumpi\n      returndatacopy(0x00, 0x00, returndatasize)\n      revert(0x00, returndatasize)\n    tag_130:\n      pop\n      pop\n      pop\n      pop\n      mload(0x40)\n      returndatasize\n      not(0x1f)\n      0x1f\n      dup3\n      add\n      and\n      dup3\n      add\n      dup1\n      0x40\n      mstore\n      pop\n      dup2\n      add\n      swap1\n      tag_131\n      swap2\n      swap1\n      tag_87\n      jump\t// in\n    tag_131:\n        /* \"contracts/SaleContract.sol\":1626:1678  token.allowance(msg.sender, address(this)) >= tokens */\n      lt\n      iszero\n        /* \"contracts/SaleContract.sol\":1618:1706  require(token.allowance(msg.sender, address(this)) >= tokens, \"Token allowance too low\") */\n      tag_132\n      jumpi\n      mload(0x40)\n      0x08c379a000000000000000000000000000000000000000000000000000000000\n      dup2\n      mstore\n      0x04\n      add\n      tag_133\n      swap1\n      tag_134\n      jump\t// in\n    tag_133:\n      mload(0x40)\n      dup1\n      swap2\n      sub\n      swap1\n      revert\n    tag_132:\n        /* \"contracts/SaleContract.sol\":1717:1774  token.safeTransferFrom(msg.sender, address(this), tokens) */\n      tag_135\n        /* \"contracts/SaleContract.sol\":1740:1750  msg.sender */\n      caller\n        /* \"contracts/SaleContract.sol\":1760:1764  this */\n      address\n        /* \"contracts/SaleContract.sol\":1767:1773  tokens */\n      dup6\n        /* \"contracts/SaleContract.sol\":1717:1722  token */\n      dup5\n        /* \"contracts/SaleContract.sol\":1717:1739  token.safeTransferFrom */\n      0xffffffffffffffffffffffffffffffffffffffff\n      and\n      tag_92\n      swap1\n        /* \"contracts/SaleContract.sol\":1717:1774  token.safeTransferFrom(msg.sender, address(this), tokens) */\n      swap4\n      swap3\n      swap2\n      swap1\n      0xffffffff\n      and\n      jump\t// in\n    tag_135:\n        /* \"contracts/SaleContract.sol\":1785:1799  listingCounter */\n      0x03\n      0x00\n        /* \"contracts/SaleContract.sol\":1785:1801  listingCounter++ */\n      dup2\n      sload\n      dup1\n      swap3\n      swap2\n      swap1\n      tag_136\n      swap1\n      tag_137\n      jump\t// in\n    tag_136:\n      swap2\n      swap1\n      pop\n      sstore\n      pop\n        /* \"contracts/SaleContract.sol\":1838:2041  Listing({... */\n      mload(0x40)\n      dup1\n      0xa0\n      add\n      0x40\n      mstore\n      dup1\n        /* \"contracts/SaleContract.sol\":1877:1892  contractAddress */\n      dup6\n        /* \"contracts/SaleContract.sol\":1838:2041  Listing({... */\n      0xffffffffffffffffffffffffffffffffffffffff\n      and\n      dup2\n      mstore\n      0x20\n      add\n        /* \"contracts/SaleContract.sol\":1913:1918  price */\n      dup7\n        /* \"contracts/SaleContract.sol\":1838:2041  Listing({... */\n      dup2\n      mstore\n      0x20\n      add\n        /* \"contracts/SaleContract.sol\":1940:1946  tokens */\n      dup5\n        /* \"contracts/SaleContract.sol\":1838:2041  Listing({... */\n      dup2\n      mstore\n      0x20\n      add\n        /* \"contracts/SaleContract.sol\":1968:1978  msg.sender */\n      caller\n        /* \"contracts/SaleContract.sol\":1838:2041  Listing({... */\n      0xffffffffffffffffffffffffffffffffffffffff\n      and\n      dup2\n      mstore\n      0x20\n      add\n        /* \"contracts/SaleContract.sol\":2022:2030  duration */\n      dup4\n        /* \"contracts/SaleContract.sol\":2004:2019  block.timestamp */\n      timestamp\n        /* \"contracts/SaleContract.sol\":2004:2030  block.timestamp + duration */\n      tag_138\n      swap2\n      swap1\n      tag_78\n      jump\t// in\n    tag_138:\n        /* \"contracts/SaleContract.sol\":1838:2041  Listing({... */\n      dup2\n      mstore\n      pop\n        /* \"contracts/SaleContract.sol\":1811:1819  listings */\n      0x02\n        /* \"contracts/SaleContract.sol\":1811:1835  listings[listingCounter] */\n      0x00\n        /* \"contracts/SaleContract.sol\":1820:1834  listingCounter */\n      sload(0x03)\n        /* \"contracts/SaleContract.sol\":1811:1835  listings[listingCounter] */\n      dup2\n      mstore\n      0x20\n      add\n      swap1\n      dup2\n      mstore\n      0x20\n      add\n      0x00\n      keccak256\n        /* \"contracts/SaleContract.sol\":1811:2041  listings[listingCounter] = Listing({... */\n      0x00\n      dup3\n      add\n      mload\n      dup2\n      0x00\n      add\n      exp(0x0100, 0x00)\n      dup2\n      sload\n      dup2\n      0xffffffffffffffffffffffffffffffffffffffff\n      mul\n      not\n      and\n      swap1\n      dup4\n      0xffffffffffffffffffffffffffffffffffffffff\n      and\n      mul\n      or\n      swap1\n      sstore\n      pop\n      0x20\n      dup3\n      add\n      mload\n      dup2\n      0x01\n      add\n      sstore\n      0x40\n      dup3\n      add\n      mload\n      dup2\n      0x02\n      add\n      sstore\n      0x60\n      dup3\n      add\n      mload\n      dup2\n      0x03\n      add\n      exp(0x0100, 0x00)\n      dup2\n      sload\n      dup2\n      0xffffffffffffffffffffffffffffffffffffffff\n      mul\n      not\n      and\n      swap1\n      dup4\n      0xffffffffffffffffffffffffffffffffffffffff\n      and\n      mul\n      or\n      swap1\n      sstore\n      pop\n      0x80\n      dup3\n      add\n      mload\n      dup2\n      0x04\n      add\n      sstore\n      swap1\n      pop\n      pop\n        /* \"contracts/SaleContract.sol\":2098:2113  contractAddress */\n      dup4\n        /* \"contracts/SaleContract.sol\":2057:2157  ListingAdded(listingCounter, msg.sender, contractAddress, price, tokens, block.timestamp + duration) */\n      0xffffffffffffffffffffffffffffffffffffffff\n      and\n        /* \"contracts/SaleContract.sol\":2086:2096  msg.sender */\n      caller\n        /* \"contracts/SaleContract.sol\":2057:2157  ListingAdded(listingCounter, msg.sender, contractAddress, price, tokens, block.timestamp + duration) */\n      0xffffffffffffffffffffffffffffffffffffffff\n      and\n      0xc8636a22d2315a33de4785339601bb7299ebc1e02cf0d9f22776c7692ee3803b\n        /* \"contracts/SaleContract.sol\":2070:2084  listingCounter */\n      sload(0x03)\n        /* \"contracts/SaleContract.sol\":2115:2120  price */\n      dup9\n        /* \"contracts/SaleContract.sol\":2122:2128  tokens */\n      dup8\n        /* \"contracts/SaleContract.sol\":2148:2156  duration */\n      dup8\n        /* \"contracts/SaleContract.sol\":2130:2145  block.timestamp */\n      timestamp\n        /* \"contracts/SaleContract.sol\":2130:2156  block.timestamp + duration */\n      tag_139\n      swap2\n      swap1\n      tag_78\n      jump\t// in\n    tag_139:\n        /* \"contracts/SaleContract.sol\":2057:2157  ListingAdded(listingCounter, msg.sender, contractAddress, price, tokens, block.timestamp + duration) */\n      mload(0x40)\n      tag_140\n      swap5\n      swap4\n      swap3\n      swap2\n      swap1\n      tag_141\n      jump\t// in\n    tag_140:\n      mload(0x40)\n      dup1\n      swap2\n      sub\n      swap1\n      log3\n        /* \"contracts/SaleContract.sol\":1288:2164  {... */\n      pop\n        /* \"contracts/SaleContract.sol\":1185:2164  function addListing(uint256 price, address contractAddress, uint256 tokens, uint256 duration) external {... */\n      pop\n      pop\n      pop\n      pop\n      jump\t// out\n        /* \"contracts/SaleContract.sol\":601:644  mapping(uint256 => Listing) public listings */\n    tag_50:\n      mstore(0x20, 0x02)\n      dup1\n      0x00\n      mstore\n      keccak256(0x00, 0x40)\n      0x00\n      swap2\n      pop\n      swap1\n      pop\n      dup1\n      0x00\n      add\n      0x00\n      swap1\n      sload\n      swap1\n      0x0100\n      exp\n      swap1\n      div\n      0xffffffffffffffffffffffffffffffffffffffff\n      and\n      swap1\n      dup1\n      0x01\n      add\n      sload\n      swap1\n      dup1\n      0x02\n      add\n      sload\n      swap1\n      dup1\n      0x03\n      add\n      0x00\n      swap1\n      sload\n      swap1\n      0x0100\n      exp\n      swap1\n      div\n      0xffffffffffffffffffffffffffffffffffffffff\n      and\n      swap1\n      dup1\n      0x04\n      add\n      sload\n      swap1\n      pop\n      dup6\n      jump\t// out\n        /* \"contracts/SaleContract.sol\":3415:3981  function withdrawTokensFromListing(uint256 listingId) external nonReentrant {... */\n    tag_55:\n        /* \"@openzeppelin/contracts/utils/ReentrancyGuard.sol\":2500:2521  _nonReentrantBefore() */\n      tag_143\n        /* \"@openzeppelin/contracts/utils/ReentrancyGuard.sol\":2500:2519  _nonReentrantBefore */\n      tag_61\n        /* \"@openzeppelin/contracts/utils/ReentrancyGuard.sol\":2500:2521  _nonReentrantBefore() */\n      jump\t// in\n    tag_143:\n        /* \"contracts/SaleContract.sol\":3501:3524  Listing storage listing */\n      0x00\n        /* \"contracts/SaleContract.sol\":3527:3535  listings */\n      0x02\n        /* \"contracts/SaleContract.sol\":3527:3546  listings[listingId] */\n      0x00\n        /* \"contracts/SaleContract.sol\":3536:3545  listingId */\n      dup4\n        /* \"contracts/SaleContract.sol\":3527:3546  listings[listingId] */\n      dup2\n      mstore\n      0x20\n      add\n      swap1\n      dup2\n      mstore\n      0x20\n      add\n      0x00\n      keccak256\n        /* \"contracts/SaleContract.sol\":3501:3546  Listing storage listing = listings[listingId] */\n      swap1\n      pop\n        /* \"contracts/SaleContract.sol\":3578:3585  listing */\n      dup1\n        /* \"contracts/SaleContract.sol\":3578:3592  listing.seller */\n      0x03\n      add\n      0x00\n      swap1\n      sload\n      swap1\n      0x0100\n      exp\n      swap1\n      div\n      0xffffffffffffffffffffffffffffffffffffffff\n      and\n        /* \"contracts/SaleContract.sol\":3564:3592  msg.sender == listing.seller */\n      0xffffffffffffffffffffffffffffffffffffffff\n      and\n        /* \"contracts/SaleContract.sol\":3564:3574  msg.sender */\n      caller\n        /* \"contracts/SaleContract.sol\":3564:3592  msg.sender == listing.seller */\n      0xffffffffffffffffffffffffffffffffffffffff\n      and\n      eq\n        /* \"contracts/SaleContract.sol\":3556:3629  require(msg.sender == listing.seller, \"Only listing seller can withdraw\") */\n      tag_145\n      jumpi\n      mload(0x40)\n      0x08c379a000000000000000000000000000000000000000000000000000000000\n      dup2\n      mstore\n      0x04\n      add\n      tag_146\n      swap1\n      tag_147\n      jump\t// in\n    tag_146:\n      mload(0x40)\n      dup1\n      swap2\n      sub\n      swap1\n      revert\n    tag_145:\n        /* \"contracts/SaleContract.sol\":3665:3672  listing */\n      dup1\n        /* \"contracts/SaleContract.sol\":3665:3683  listing.expiration */\n      0x04\n      add\n      sload\n        /* \"contracts/SaleContract.sol\":3647:3662  block.timestamp */\n      timestamp\n        /* \"contracts/SaleContract.sol\":3647:3683  block.timestamp > listing.expiration */\n      gt\n        /* \"contracts/SaleContract.sol\":3639:3709  require(block.timestamp > listing.expiration, \"Listing has not ended\") */\n      tag_148\n      jumpi\n      mload(0x40)\n      0x08c379a000000000000000000000000000000000000000000000000000000000\n      dup2\n      mstore\n      0x04\n      add\n      tag_149\n      swap1\n      tag_150\n      jump\t// in\n    tag_149:\n      mload(0x40)\n      dup1\n      swap2\n      sub\n      swap1\n      revert\n    tag_148:\n        /* \"contracts/SaleContract.sol\":3744:3745  0 */\n      0x00\n        /* \"contracts/SaleContract.sol\":3727:3734  listing */\n      dup2\n        /* \"contracts/SaleContract.sol\":3727:3741  listing.tokens */\n      0x02\n      add\n      sload\n        /* \"contracts/SaleContract.sol\":3727:3745  listing.tokens > 0 */\n      gt\n        /* \"contracts/SaleContract.sol\":3719:3771  require(listing.tokens > 0, \"No tokens to withdraw\") */\n      tag_151\n      jumpi\n      mload(0x40)\n      0x08c379a000000000000000000000000000000000000000000000000000000000\n      dup2\n      mstore\n      0x04\n      add\n      tag_152\n      swap1\n      tag_153\n      jump\t// in\n    tag_152:\n      mload(0x40)\n      dup1\n      swap2\n      sub\n      swap1\n      revert\n    tag_151:\n        /* \"contracts/SaleContract.sol\":3782:3811  uint256 tokenAmountToWithdraw */\n      0x00\n        /* \"contracts/SaleContract.sol\":3814:3821  listing */\n      dup2\n        /* \"contracts/SaleContract.sol\":3814:3828  listing.tokens */\n      0x02\n      add\n      sload\n        /* \"contracts/SaleContract.sol\":3782:3828  uint256 tokenAmountToWithdraw = listing.tokens */\n      swap1\n      pop\n        /* \"contracts/SaleContract.sol\":3855:3856  0 */\n      0x00\n        /* \"contracts/SaleContract.sol\":3838:3845  listing */\n      dup3\n        /* \"contracts/SaleContract.sol\":3838:3852  listing.tokens */\n      0x02\n      add\n        /* \"contracts/SaleContract.sol\":3838:3856  listing.tokens = 0 */\n      dup2\n      swap1\n      sstore\n      pop\n        /* \"contracts/SaleContract.sol\":3867:3878  ERC20 token */\n      0x00\n        /* \"contracts/SaleContract.sol\":3887:3894  listing */\n      dup3\n        /* \"contracts/SaleContract.sol\":3887:3910  listing.contractAddress */\n      0x00\n      add\n      0x00\n      swap1\n      sload\n      swap1\n      0x0100\n      exp\n      swap1\n      div\n      0xffffffffffffffffffffffffffffffffffffffff\n      and\n        /* \"contracts/SaleContract.sol\":3867:3911  ERC20 token = ERC20(listing.contractAddress) */\n      swap1\n      pop\n        /* \"contracts/SaleContract.sol\":3921:3974  token.safeTransfer(msg.sender, tokenAmountToWithdraw) */\n      tag_154\n        /* \"contracts/SaleContract.sol\":3940:3950  msg.sender */\n      caller\n        /* \"contracts/SaleContract.sol\":3952:3973  tokenAmountToWithdraw */\n      dup4\n        /* \"contracts/SaleContract.sol\":3921:3926  token */\n      dup4\n        /* \"contracts/SaleContract.sol\":3921:3939  token.safeTransfer */\n      0xffffffffffffffffffffffffffffffffffffffff\n      and\n      tag_97\n      swap1\n        /* \"contracts/SaleContract.sol\":3921:3974  token.safeTransfer(msg.sender, tokenAmountToWithdraw) */\n      swap3\n      swap2\n      swap1\n      0xffffffff\n      and\n      jump\t// in\n    tag_154:\n        /* \"contracts/SaleContract.sol\":3491:3981  {... */\n      pop\n      pop\n      pop\n        /* \"@openzeppelin/contracts/utils/ReentrancyGuard.sol\":2542:2562  _nonReentrantAfter() */\n      tag_155\n        /* \"@openzeppelin/contracts/utils/ReentrancyGuard.sol\":2542:2560  _nonReentrantAfter */\n      tag_101\n        /* \"@openzeppelin/contracts/utils/ReentrancyGuard.sol\":2542:2562  _nonReentrantAfter() */\n      jump\t// in\n    tag_155:\n        /* \"contracts/SaleContract.sol\":3415:3981  function withdrawTokensFromListing(uint256 listingId) external nonReentrant {... */\n      pop\n      jump\t// out\n        /* \"@openzeppelin/contracts/access/Ownable.sol\":2543:2758  function transferOwnership(address newOwner) public virtual onlyOwner {... */\n    tag_58:\n        /* \"@openzeppelin/contracts/access/Ownable.sol\":1531:1544  _checkOwner() */\n      tag_157\n        /* \"@openzeppelin/contracts/access/Ownable.sol\":1531:1542  _checkOwner */\n      tag_104\n        /* \"@openzeppelin/contracts/access/Ownable.sol\":1531:1544  _checkOwner() */\n      jump\t// in\n    tag_157:\n        /* \"@openzeppelin/contracts/access/Ownable.sol\":2647:2648  0 */\n      0x00\n        /* \"@openzeppelin/contracts/access/Ownable.sol\":2627:2649  newOwner == address(0) */\n      0xffffffffffffffffffffffffffffffffffffffff\n      and\n        /* \"@openzeppelin/contracts/access/Ownable.sol\":2627:2635  newOwner */\n      dup2\n        /* \"@openzeppelin/contracts/access/Ownable.sol\":2627:2649  newOwner == address(0) */\n      0xffffffffffffffffffffffffffffffffffffffff\n      and\n      sub\n        /* \"@openzeppelin/contracts/access/Ownable.sol\":2623:2714  if (newOwner == address(0)) {... */\n      tag_159\n      jumpi\n        /* \"@openzeppelin/contracts/access/Ownable.sol\":2700:2701  0 */\n      0x00\n        /* \"@openzeppelin/contracts/access/Ownable.sol\":2672:2703  OwnableInvalidOwner(address(0)) */\n      mload(0x40)\n      0x1e4fbdf700000000000000000000000000000000000000000000000000000000\n      dup2\n      mstore\n      0x04\n      add\n      tag_160\n      swap2\n      swap1\n      tag_19\n      jump\t// in\n    tag_160:\n      mload(0x40)\n      dup1\n      swap2\n      sub\n      swap1\n      revert\n        /* \"@openzeppelin/contracts/access/Ownable.sol\":2623:2714  if (newOwner == address(0)) {... */\n    tag_159:\n        /* \"@openzeppelin/contracts/access/Ownable.sol\":2723:2751  _transferOwnership(newOwner) */\n      tag_161\n        /* \"@openzeppelin/contracts/access/Ownable.sol\":2742:2750  newOwner */\n      dup2\n        /* \"@openzeppelin/contracts/access/Ownable.sol\":2723:2741  _transferOwnership */\n      tag_107\n        /* \"@openzeppelin/contracts/access/Ownable.sol\":2723:2751  _transferOwnership(newOwner) */\n      jump\t// in\n    tag_161:\n        /* \"@openzeppelin/contracts/access/Ownable.sol\":2543:2758  function transferOwnership(address newOwner) public virtual onlyOwner {... */\n      pop\n      jump\t// out\n        /* \"@openzeppelin/contracts/utils/ReentrancyGuard.sol\":2575:2882  function _nonReentrantBefore() private {... */\n    tag_61:\n        /* \"@openzeppelin/contracts/utils/ReentrancyGuard.sol\":1899:1900  2 */\n      0x02\n        /* \"@openzeppelin/contracts/utils/ReentrancyGuard.sol\":2702:2709  _status */\n      sload(0x00)\n        /* \"@openzeppelin/contracts/utils/ReentrancyGuard.sol\":2702:2720  _status == ENTERED */\n      sub\n        /* \"@openzeppelin/contracts/utils/ReentrancyGuard.sol\":2698:2784  if (_status == ENTERED) {... */\n      tag_163\n      jumpi\n        /* \"@openzeppelin/contracts/utils/ReentrancyGuard.sol\":2743:2773  ReentrancyGuardReentrantCall() */\n      mload(0x40)\n      0x3ee5aeb500000000000000000000000000000000000000000000000000000000\n      dup2\n      mstore\n      0x04\n      add\n      mload(0x40)\n      dup1\n      swap2\n      sub\n      swap1\n      revert\n        /* \"@openzeppelin/contracts/utils/ReentrancyGuard.sol\":2698:2784  if (_status == ENTERED) {... */\n    tag_163:\n        /* \"@openzeppelin/contracts/utils/ReentrancyGuard.sol\":1899:1900  2 */\n      0x02\n        /* \"@openzeppelin/contracts/utils/ReentrancyGuard.sol\":2858:2865  _status */\n      0x00\n        /* \"@openzeppelin/contracts/utils/ReentrancyGuard.sol\":2858:2875  _status = ENTERED */\n      dup2\n      swap1\n      sstore\n      pop\n        /* \"@openzeppelin/contracts/utils/ReentrancyGuard.sol\":2575:2882  function _nonReentrantBefore() private {... */\n      jump\t// out\n        /* \"@openzeppelin/contracts/token/ERC20/utils/SafeERC20.sol\":1618:1806  function safeTransferFrom(IERC20 token, address from, address to, uint256 value) internal {... */\n    tag_92:\n        /* \"@openzeppelin/contracts/token/ERC20/utils/SafeERC20.sol\":1718:1799  _callOptionalReturn(token, abi.encodeCall(token.transferFrom, (from, to, value))) */\n      tag_165\n        /* \"@openzeppelin/contracts/token/ERC20/utils/SafeERC20.sol\":1738:1743  token */\n      dup5\n        /* \"@openzeppelin/contracts/token/ERC20/utils/SafeERC20.sol\":1760:1765  token */\n      dup6\n        /* \"@openzeppelin/contracts/token/ERC20/utils/SafeERC20.sol\":1760:1778  token.transferFrom */\n      0xffffffffffffffffffffffffffffffffffffffff\n      and\n      0x23b872dd\n        /* \"@openzeppelin/contracts/token/ERC20/utils/SafeERC20.sol\":1781:1785  from */\n      dup7\n        /* \"@openzeppelin/contracts/token/ERC20/utils/SafeERC20.sol\":1787:1789  to */\n      dup7\n        /* \"@openzeppelin/contracts/token/ERC20/utils/SafeERC20.sol\":1791:1796  value */\n      dup7\n        /* \"@openzeppelin/contracts/token/ERC20/utils/SafeERC20.sol\":1745:1798  abi.encodeCall(token.transferFrom, (from, to, value)) */\n      add(0x24, mload(0x40))\n      tag_166\n      swap4\n      swap3\n      swap2\n      swap1\n      tag_167\n      jump\t// in\n    tag_166:\n      mload(0x40)\n      0x20\n      dup2\n      dup4\n      sub\n      sub\n      dup2\n      mstore\n      swap1\n      0x40\n      mstore\n      swap2\n      pop\n      0xe0\n      shl\n      0x20\n      dup3\n      add\n      dup1\n      mload\n      0xffffffffffffffffffffffffffffffffffffffffffffffffffffffff\n      dup4\n      dup2\n      dup4\n      and\n      or\n      dup4\n      mstore\n      pop\n      pop\n      pop\n      pop\n        /* \"@openzeppelin/contracts/token/ERC20/utils/SafeERC20.sol\":1718:1737  _callOptionalReturn */\n      tag_168\n        /* \"@openzeppelin/contracts/token/ERC20/utils/SafeERC20.sol\":1718:1799  _callOptionalReturn(token, abi.encodeCall(token.transferFrom, (from, to, value))) */\n      jump\t// in\n    tag_165:\n        /* \"@openzeppelin/contracts/token/ERC20/utils/SafeERC20.sol\":1618:1806  function safeTransferFrom(IERC20 token, address from, address to, uint256 value) internal {... */\n      pop\n      pop\n      pop\n      pop\n      jump\t// out\n        /* \"@openzeppelin/contracts/token/ERC20/utils/SafeERC20.sol\":1219:1379  function safeTransfer(IERC20 token, address to, uint256 value) internal {... */\n    tag_97:\n        /* \"@openzeppelin/contracts/token/ERC20/utils/SafeERC20.sol\":1301:1372  _callOptionalReturn(token, abi.encodeCall(token.transfer, (to, value))) */\n      tag_170\n        /* \"@openzeppelin/contracts/token/ERC20/utils/SafeERC20.sol\":1321:1326  token */\n      dup4\n        /* \"@openzeppelin/contracts/token/ERC20/utils/SafeERC20.sol\":1343:1348  token */\n      dup5\n        /* \"@openzeppelin/contracts/token/ERC20/utils/SafeERC20.sol\":1343:1357  token.transfer */\n      0xffffffffffffffffffffffffffffffffffffffff\n      and\n      0xa9059cbb\n        /* \"@openzeppelin/contracts/token/ERC20/utils/SafeERC20.sol\":1360:1362  to */\n      dup6\n        /* \"@openzeppelin/contracts/token/ERC20/utils/SafeERC20.sol\":1364:1369  value */\n      dup6\n        /* \"@openzeppelin/contracts/token/ERC20/utils/SafeERC20.sol\":1328:1371  abi.encodeCall(token.transfer, (to, value)) */\n      add(0x24, mload(0x40))\n      tag_171\n      swap3\n      swap2\n      swap1\n      tag_172\n      jump\t// in\n    tag_171:\n      mload(0x40)\n      0x20\n      dup2\n      dup4\n      sub\n      sub\n      dup2\n      mstore\n      swap1\n      0x40\n      mstore\n      swap2\n      pop\n      0xe0\n      shl\n      0x20\n      dup3\n      add\n      dup1\n      mload\n      0xffffffffffffffffffffffffffffffffffffffffffffffffffffffff\n      dup4\n      dup2\n      dup4\n      and\n      or\n      dup4\n      mstore\n      pop\n      pop\n      pop\n      pop\n        /* \"@openzeppelin/contracts/token/ERC20/utils/SafeERC20.sol\":1301:1320  _callOptionalReturn */\n      tag_168\n        /* \"@openzeppelin/contracts/token/ERC20/utils/SafeERC20.sol\":1301:1372  _callOptionalReturn(token, abi.encodeCall(token.transfer, (to, value))) */\n      jump\t// in\n    tag_170:\n        /* \"@openzeppelin/contracts/token/ERC20/utils/SafeERC20.sol\":1219:1379  function safeTransfer(IERC20 token, address to, uint256 value) internal {... */\n      pop\n      pop\n      pop\n      jump\t// out\n        /* \"@openzeppelin/contracts/utils/ReentrancyGuard.sol\":2888:3096  function _nonReentrantAfter() private {... */\n    tag_101:\n        /* \"@openzeppelin/contracts/utils/ReentrancyGuard.sol\":1857:1858  1 */\n      0x01\n        /* \"@openzeppelin/contracts/utils/ReentrancyGuard.sol\":3068:3075  _status */\n      0x00\n        /* \"@openzeppelin/contracts/utils/ReentrancyGuard.sol\":3068:3089  _status = NOT_ENTERED */\n      dup2\n      swap1\n      sstore\n      pop\n        /* \"@openzeppelin/contracts/utils/ReentrancyGuard.sol\":2888:3096  function _nonReentrantAfter() private {... */\n      jump\t// out\n        /* \"@openzeppelin/contracts/access/Ownable.sol\":1796:1958  function _checkOwner() internal view virtual {... */\n    tag_104:\n        /* \"@openzeppelin/contracts/access/Ownable.sol\":1866:1878  _msgSender() */\n      tag_175\n        /* \"@openzeppelin/contracts/access/Ownable.sol\":1866:1876  _msgSender */\n      tag_176\n        /* \"@openzeppelin/contracts/access/Ownable.sol\":1866:1878  _msgSender() */\n      jump\t// in\n    tag_175:\n        /* \"@openzeppelin/contracts/access/Ownable.sol\":1855:1878  owner() != _msgSender() */\n      0xffffffffffffffffffffffffffffffffffffffff\n      and\n        /* \"@openzeppelin/contracts/access/Ownable.sol\":1855:1862  owner() */\n      tag_177\n        /* \"@openzeppelin/contracts/access/Ownable.sol\":1855:1860  owner */\n      tag_41\n        /* \"@openzeppelin/contracts/access/Ownable.sol\":1855:1862  owner() */\n      jump\t// in\n    tag_177:\n        /* \"@openzeppelin/contracts/access/Ownable.sol\":1855:1878  owner() != _msgSender() */\n      0xffffffffffffffffffffffffffffffffffffffff\n      and\n      eq\n        /* \"@openzeppelin/contracts/access/Ownable.sol\":1851:1952  if (owner() != _msgSender()) {... */\n      tag_178\n      jumpi\n        /* \"@openzeppelin/contracts/access/Ownable.sol\":1928:1940  _msgSender() */\n      tag_179\n        /* \"@openzeppelin/contracts/access/Ownable.sol\":1928:1938  _msgSender */\n      tag_176\n        /* \"@openzeppelin/contracts/access/Ownable.sol\":1928:1940  _msgSender() */\n      jump\t// in\n    tag_179:\n        /* \"@openzeppelin/contracts/access/Ownable.sol\":1901:1941  OwnableUnauthorizedAccount(_msgSender()) */\n      mload(0x40)\n      0x118cdaa700000000000000000000000000000000000000000000000000000000\n      dup2\n      mstore\n      0x04\n      add\n      tag_180\n      swap2\n      swap1\n      tag_19\n      jump\t// in\n    tag_180:\n      mload(0x40)\n      dup1\n      swap2\n      sub\n      swap1\n      revert\n        /* \"@openzeppelin/contracts/access/Ownable.sol\":1851:1952  if (owner() != _msgSender()) {... */\n    tag_178:\n        /* \"@openzeppelin/contracts/access/Ownable.sol\":1796:1958  function _checkOwner() internal view virtual {... */\n      jump\t// out\n        /* \"@openzeppelin/contracts/access/Ownable.sol\":2912:3099  function _transferOwnership(address newOwner) internal virtual {... */\n    tag_107:\n        /* \"@openzeppelin/contracts/access/Ownable.sol\":2985:3001  address oldOwner */\n      0x00\n        /* \"@openzeppelin/contracts/access/Ownable.sol\":3004:3010  _owner */\n      0x01\n      0x00\n      swap1\n      sload\n      swap1\n      0x0100\n      exp\n      swap1\n      div\n      0xffffffffffffffffffffffffffffffffffffffff\n      and\n        /* \"@openzeppelin/contracts/access/Ownable.sol\":2985:3010  address oldOwner = _owner */\n      swap1\n      pop\n        /* \"@openzeppelin/contracts/access/Ownable.sol\":3029:3037  newOwner */\n      dup2\n        /* \"@openzeppelin/contracts/access/Ownable.sol\":3020:3026  _owner */\n      0x01\n      0x00\n        /* \"@openzeppelin/contracts/access/Ownable.sol\":3020:3037  _owner = newOwner */\n      0x0100\n      exp\n      dup2\n      sload\n      dup2\n      0xffffffffffffffffffffffffffffffffffffffff\n      mul\n      not\n      and\n      swap1\n      dup4\n      0xffffffffffffffffffffffffffffffffffffffff\n      and\n      mul\n      or\n      swap1\n      sstore\n      pop\n        /* \"@openzeppelin/contracts/access/Ownable.sol\":3083:3091  newOwner */\n      dup2\n        /* \"@openzeppelin/contracts/access/Ownable.sol\":3052:3092  OwnershipTransferred(oldOwner, newOwner) */\n      0xffffffffffffffffffffffffffffffffffffffff\n      and\n        /* \"@openzeppelin/contracts/access/Ownable.sol\":3073:3081  oldOwner */\n      dup2\n        /* \"@openzeppelin/contracts/access/Ownable.sol\":3052:3092  OwnershipTransferred(oldOwner, newOwner) */\n      0xffffffffffffffffffffffffffffffffffffffff\n      and\n      0x8be0079c531659141344cd1fd0a4f28419497f9722a3daafe3b4186f6b6457e0\n      mload(0x40)\n      mload(0x40)\n      dup1\n      swap2\n      sub\n      swap1\n      log3\n        /* \"@openzeppelin/contracts/access/Ownable.sol\":2975:3099  {... */\n      pop\n        /* \"@openzeppelin/contracts/access/Ownable.sol\":2912:3099  function _transferOwnership(address newOwner) internal virtual {... */\n      pop\n      jump\t// out\n        /* \"@openzeppelin/contracts/token/ERC20/utils/SafeERC20.sol\":7686:8406  function _callOptionalReturn(IERC20 token, bytes memory data) private {... */\n    tag_168:\n        /* \"@openzeppelin/contracts/token/ERC20/utils/SafeERC20.sol\":7766:7784  uint256 returnSize */\n      0x00\n        /* \"@openzeppelin/contracts/token/ERC20/utils/SafeERC20.sol\":7794:7813  uint256 returnValue */\n      0x00\n        /* \"@openzeppelin/contracts/token/ERC20/utils/SafeERC20.sol\":7932:7936  0x20 */\n      0x20\n        /* \"@openzeppelin/contracts/token/ERC20/utils/SafeERC20.sol\":7929:7930  0 */\n      0x00\n        /* \"@openzeppelin/contracts/token/ERC20/utils/SafeERC20.sol\":7922:7926  data */\n      dup5\n        /* \"@openzeppelin/contracts/token/ERC20/utils/SafeERC20.sol\":7916:7927  mload(data) */\n      mload\n        /* \"@openzeppelin/contracts/token/ERC20/utils/SafeERC20.sol\":7909:7913  0x20 */\n      0x20\n        /* \"@openzeppelin/contracts/token/ERC20/utils/SafeERC20.sol\":7903:7907  data */\n      dup7\n        /* \"@openzeppelin/contracts/token/ERC20/utils/SafeERC20.sol\":7899:7914  add(data, 0x20) */\n      add\n        /* \"@openzeppelin/contracts/token/ERC20/utils/SafeERC20.sol\":7896:7897  0 */\n      0x00\n        /* \"@openzeppelin/contracts/token/ERC20/utils/SafeERC20.sol\":7889:7894  token */\n      dup9\n        /* \"@openzeppelin/contracts/token/ERC20/utils/SafeERC20.sol\":7882:7887  gas() */\n      gas\n        /* \"@openzeppelin/contracts/token/ERC20/utils/SafeERC20.sol\":7877:7937  call(gas(), token, 0, add(data, 0x20), mload(data), 0, 0x20) */\n      call\n        /* \"@openzeppelin/contracts/token/ERC20/utils/SafeERC20.sol\":7989:7996  success */\n      dup1\n        /* \"@openzeppelin/contracts/token/ERC20/utils/SafeERC20.sol\":7979:8155  if iszero(success) {... */\n      tag_183\n      jumpi\n        /* \"@openzeppelin/contracts/token/ERC20/utils/SafeERC20.sol\":8033:8037  0x40 */\n      0x40\n        /* \"@openzeppelin/contracts/token/ERC20/utils/SafeERC20.sol\":8027:8038  mload(0x40) */\n      mload\n        /* \"@openzeppelin/contracts/token/ERC20/utils/SafeERC20.sol\":8078:8094  returndatasize() */\n      returndatasize\n        /* \"@openzeppelin/contracts/token/ERC20/utils/SafeERC20.sol\":8075:8076  0 */\n      0x00\n        /* \"@openzeppelin/contracts/token/ERC20/utils/SafeERC20.sol\":8070:8073  ptr */\n      dup3\n        /* \"@openzeppelin/contracts/token/ERC20/utils/SafeERC20.sol\":8055:8095  returndatacopy(ptr, 0, returndatasize()) */\n      returndatacopy\n        /* \"@openzeppelin/contracts/token/ERC20/utils/SafeERC20.sol\":8124:8140  returndatasize() */\n      returndatasize\n        /* \"@openzeppelin/contracts/token/ERC20/utils/SafeERC20.sol\":8119:8122  ptr */\n      dup2\n        /* \"@openzeppelin/contracts/token/ERC20/utils/SafeERC20.sol\":8112:8141  revert(ptr, returndatasize()) */\n      revert\n        /* \"@openzeppelin/contracts/token/ERC20/utils/SafeERC20.sol\":7979:8155  if iszero(success) {... */\n    tag_183:\n        /* \"@openzeppelin/contracts/token/ERC20/utils/SafeERC20.sol\":8182:8198  returndatasize() */\n      returndatasize\n        /* \"@openzeppelin/contracts/token/ERC20/utils/SafeERC20.sol\":8168:8198  returnSize := returndatasize() */\n      swap3\n      pop\n        /* \"@openzeppelin/contracts/token/ERC20/utils/SafeERC20.sol\":8232:8233  0 */\n      0x00\n        /* \"@openzeppelin/contracts/token/ERC20/utils/SafeERC20.sol\":8226:8234  mload(0) */\n      mload\n        /* \"@openzeppelin/contracts/token/ERC20/utils/SafeERC20.sol\":8211:8234  returnValue := mload(0) */\n      swap2\n      pop\n        /* \"@openzeppelin/contracts/token/ERC20/utils/SafeERC20.sol\":7848:8244  {... */\n      pop\n        /* \"@openzeppelin/contracts/token/ERC20/utils/SafeERC20.sol\":8272:8273  0 */\n      0x00\n        /* \"@openzeppelin/contracts/token/ERC20/utils/SafeERC20.sol\":8258:8268  returnSize */\n      dup3\n        /* \"@openzeppelin/contracts/token/ERC20/utils/SafeERC20.sol\":8258:8273  returnSize == 0 */\n      eq\n        /* \"@openzeppelin/contracts/token/ERC20/utils/SafeERC20.sol\":8258:8326  returnSize == 0 ? address(token).code.length == 0 : returnValue != 1 */\n      tag_184\n      jumpi\n        /* \"@openzeppelin/contracts/token/ERC20/utils/SafeERC20.sol\":8325:8326  1 */\n      0x01\n        /* \"@openzeppelin/contracts/token/ERC20/utils/SafeERC20.sol\":8310:8321  returnValue */\n      dup2\n        /* \"@openzeppelin/contracts/token/ERC20/utils/SafeERC20.sol\":8310:8326  returnValue != 1 */\n      eq\n      iszero\n        /* \"@openzeppelin/contracts/token/ERC20/utils/SafeERC20.sol\":8258:8326  returnSize == 0 ? address(token).code.length == 0 : returnValue != 1 */\n      jump(tag_185)\n    tag_184:\n        /* \"@openzeppelin/contracts/token/ERC20/utils/SafeERC20.sol\":8306:8307  0 */\n      0x00\n        /* \"@openzeppelin/contracts/token/ERC20/utils/SafeERC20.sol\":8284:8289  token */\n      dup5\n        /* \"@openzeppelin/contracts/token/ERC20/utils/SafeERC20.sol\":8276:8302  address(token).code.length */\n      0xffffffffffffffffffffffffffffffffffffffff\n      and\n      extcodesize\n        /* \"@openzeppelin/contracts/token/ERC20/utils/SafeERC20.sol\":8276:8307  address(token).code.length == 0 */\n      eq\n        /* \"@openzeppelin/contracts/token/ERC20/utils/SafeERC20.sol\":8258:8326  returnSize == 0 ? address(token).code.length == 0 : returnValue != 1 */\n    tag_185:\n        /* \"@openzeppelin/contracts/token/ERC20/utils/SafeERC20.sol\":8254:8400  if (returnSize == 0 ? address(token).code.length == 0 : returnValue != 1) {... */\n      iszero\n      tag_186\n      jumpi\n        /* \"@openzeppelin/contracts/token/ERC20/utils/SafeERC20.sol\":8382:8387  token */\n      dup4\n        /* \"@openzeppelin/contracts/token/ERC20/utils/SafeERC20.sol\":8349:8389  SafeERC20FailedOperation(address(token)) */\n      mload(0x40)\n      0x5274afe700000000000000000000000000000000000000000000000000000000\n      dup2\n      mstore\n      0x04\n      add\n      tag_187\n      swap2\n      swap1\n      tag_19\n      jump\t// in\n    tag_187:\n      mload(0x40)\n      dup1\n      swap2\n      sub\n      swap1\n      revert\n        /* \"@openzeppelin/contracts/token/ERC20/utils/SafeERC20.sol\":8254:8400  if (returnSize == 0 ? address(token).code.length == 0 : returnValue != 1) {... */\n    tag_186:\n        /* \"@openzeppelin/contracts/token/ERC20/utils/SafeERC20.sol\":7756:8406  {... */\n      pop\n      pop\n        /* \"@openzeppelin/contracts/token/ERC20/utils/SafeERC20.sol\":7686:8406  function _callOptionalReturn(IERC20 token, bytes memory data) private {... */\n      pop\n      pop\n      jump\t// out\n        /* \"@openzeppelin/contracts/utils/Context.sol\":656:752  function _msgSender() internal view virtual returns (address) {... */\n    tag_176:\n        /* \"@openzeppelin/contracts/utils/Context.sol\":709:716  address */\n      0x00\n        /* \"@openzeppelin/contracts/utils/Context.sol\":735:745  msg.sender */\n      caller\n        /* \"@openzeppelin/contracts/utils/Context.sol\":728:745  return msg.sender */\n      swap1\n      pop\n        /* \"@openzeppelin/contracts/utils/Context.sol\":656:752  function _msgSender() internal view virtual returns (address) {... */\n      swap1\n      jump\t// out\n        /* \"#utility.yul\":7:133   */\n    tag_189:\n        /* \"#utility.yul\":44:51   */\n      0x00\n        /* \"#utility.yul\":84:126   */\n      0xffffffffffffffffffffffffffffffffffffffff\n        /* \"#utility.yul\":77:82   */\n      dup3\n        /* \"#utility.yul\":73:127   */\n      and\n        /* \"#utility.yul\":62:127   */\n      swap1\n      pop\n        /* \"#utility.yul\":7:133   */\n      swap2\n      swap1\n      pop\n      jump\t// out\n        /* \"#utility.yul\":139:235   */\n    tag_190:\n        /* \"#utility.yul\":176:183   */\n      0x00\n        /* \"#utility.yul\":205:229   */\n      tag_238\n        /* \"#utility.yul\":223:228   */\n      dup3\n        /* \"#utility.yul\":205:229   */\n      tag_189\n      jump\t// in\n    tag_238:\n        /* \"#utility.yul\":194:229   */\n      swap1\n      pop\n        /* \"#utility.yul\":139:235   */\n      swap2\n      swap1\n      pop\n      jump\t// out\n        /* \"#utility.yul\":241:359   */\n    tag_191:\n        /* \"#utility.yul\":328:352   */\n      tag_240\n        /* \"#utility.yul\":346:351   */\n      dup2\n        /* \"#utility.yul\":328:352   */\n      tag_190\n      jump\t// in\n    tag_240:\n        /* \"#utility.yul\":323:326   */\n      dup3\n        /* \"#utility.yul\":316:353   */\n      mstore\n        /* \"#utility.yul\":241:359   */\n      pop\n      pop\n      jump\t// out\n        /* \"#utility.yul\":365:587   */\n    tag_19:\n        /* \"#utility.yul\":458:462   */\n      0x00\n        /* \"#utility.yul\":496:498   */\n      0x20\n        /* \"#utility.yul\":485:494   */\n      dup3\n        /* \"#utility.yul\":481:499   */\n      add\n        /* \"#utility.yul\":473:499   */\n      swap1\n      pop\n        /* \"#utility.yul\":509:580   */\n      tag_242\n        /* \"#utility.yul\":577:578   */\n      0x00\n        /* \"#utility.yul\":566:575   */\n      dup4\n        /* \"#utility.yul\":562:579   */\n      add\n        /* \"#utility.yul\":553:559   */\n      dup5\n        /* \"#utility.yul\":509:580   */\n      tag_191\n      jump\t// in\n    tag_242:\n        /* \"#utility.yul\":365:587   */\n      swap3\n      swap2\n      pop\n      pop\n      jump\t// out\n        /* \"#utility.yul\":593:670   */\n    tag_192:\n        /* \"#utility.yul\":630:637   */\n      0x00\n        /* \"#utility.yul\":659:664   */\n      dup2\n        /* \"#utility.yul\":648:664   */\n      swap1\n      pop\n        /* \"#utility.yul\":593:670   */\n      swap2\n      swap1\n      pop\n      jump\t// out\n        /* \"#utility.yul\":676:794   */\n    tag_193:\n        /* \"#utility.yul\":763:787   */\n      tag_245\n        /* \"#utility.yul\":781:786   */\n      dup2\n        /* \"#utility.yul\":763:787   */\n      tag_192\n      jump\t// in\n    tag_245:\n        /* \"#utility.yul\":758:761   */\n      dup3\n        /* \"#utility.yul\":751:788   */\n      mstore\n        /* \"#utility.yul\":676:794   */\n      pop\n      pop\n      jump\t// out\n        /* \"#utility.yul\":800:1022   */\n    tag_23:\n        /* \"#utility.yul\":893:897   */\n      0x00\n        /* \"#utility.yul\":931:933   */\n      0x20\n        /* \"#utility.yul\":920:929   */\n      dup3\n        /* \"#utility.yul\":916:934   */\n      add\n        /* \"#utility.yul\":908:934   */\n      swap1\n      pop\n        /* \"#utility.yul\":944:1015   */\n      tag_247\n        /* \"#utility.yul\":1012:1013   */\n      0x00\n        /* \"#utility.yul\":1001:1010   */\n      dup4\n        /* \"#utility.yul\":997:1014   */\n      add\n        /* \"#utility.yul\":988:994   */\n      dup5\n        /* \"#utility.yul\":944:1015   */\n      tag_193\n      jump\t// in\n    tag_247:\n        /* \"#utility.yul\":800:1022   */\n      swap3\n      swap2\n      pop\n      pop\n      jump\t// out\n        /* \"#utility.yul\":1109:1226   */\n    tag_195:\n        /* \"#utility.yul\":1218:1219   */\n      0x00\n        /* \"#utility.yul\":1215:1216   */\n      0x00\n        /* \"#utility.yul\":1208:1220   */\n      revert\n        /* \"#utility.yul\":1355:1477   */\n    tag_197:\n        /* \"#utility.yul\":1428:1452   */\n      tag_252\n        /* \"#utility.yul\":1446:1451   */\n      dup2\n        /* \"#utility.yul\":1428:1452   */\n      tag_192\n      jump\t// in\n    tag_252:\n        /* \"#utility.yul\":1421:1426   */\n      dup2\n        /* \"#utility.yul\":1418:1453   */\n      eq\n        /* \"#utility.yul\":1408:1471   */\n      tag_253\n      jumpi\n        /* \"#utility.yul\":1467:1468   */\n      0x00\n        /* \"#utility.yul\":1464:1465   */\n      0x00\n        /* \"#utility.yul\":1457:1469   */\n      revert\n        /* \"#utility.yul\":1408:1471   */\n    tag_253:\n        /* \"#utility.yul\":1355:1477   */\n      pop\n      jump\t// out\n        /* \"#utility.yul\":1483:1622   */\n    tag_198:\n        /* \"#utility.yul\":1529:1534   */\n      0x00\n        /* \"#utility.yul\":1567:1573   */\n      dup2\n        /* \"#utility.yul\":1554:1574   */\n      calldataload\n        /* \"#utility.yul\":1545:1574   */\n      swap1\n      pop\n        /* \"#utility.yul\":1583:1616   */\n      tag_255\n        /* \"#utility.yul\":1610:1615   */\n      dup2\n        /* \"#utility.yul\":1583:1616   */\n      tag_197\n      jump\t// in\n    tag_255:\n        /* \"#utility.yul\":1483:1622   */\n      swap3\n      swap2\n      pop\n      pop\n      jump\t// out\n        /* \"#utility.yul\":1628:2247   */\n    tag_26:\n        /* \"#utility.yul\":1705:1711   */\n      0x00\n        /* \"#utility.yul\":1713:1719   */\n      0x00\n        /* \"#utility.yul\":1721:1727   */\n      0x00\n        /* \"#utility.yul\":1770:1772   */\n      0x60\n        /* \"#utility.yul\":1758:1767   */\n      dup5\n        /* \"#utility.yul\":1749:1756   */\n      dup7\n        /* \"#utility.yul\":1745:1768   */\n      sub\n        /* \"#utility.yul\":1741:1773   */\n      slt\n        /* \"#utility.yul\":1738:1857   */\n      iszero\n      tag_257\n      jumpi\n        /* \"#utility.yul\":1776:1855   */\n      tag_258\n      tag_195\n      jump\t// in\n    tag_258:\n        /* \"#utility.yul\":1738:1857   */\n    tag_257:\n        /* \"#utility.yul\":1896:1897   */\n      0x00\n        /* \"#utility.yul\":1921:1974   */\n      tag_259\n        /* \"#utility.yul\":1966:1973   */\n      dup7\n        /* \"#utility.yul\":1957:1963   */\n      dup3\n        /* \"#utility.yul\":1946:1955   */\n      dup8\n        /* \"#utility.yul\":1942:1964   */\n      add\n        /* \"#utility.yul\":1921:1974   */\n      tag_198\n      jump\t// in\n    tag_259:\n        /* \"#utility.yul\":1911:1974   */\n      swap4\n      pop\n        /* \"#utility.yul\":1867:1984   */\n      pop\n        /* \"#utility.yul\":2023:2025   */\n      0x20\n        /* \"#utility.yul\":2049:2102   */\n      tag_260\n        /* \"#utility.yul\":2094:2101   */\n      dup7\n        /* \"#utility.yul\":2085:2091   */\n      dup3\n        /* \"#utility.yul\":2074:2083   */\n      dup8\n        /* \"#utility.yul\":2070:2092   */\n      add\n        /* \"#utility.yul\":2049:2102   */\n      tag_198\n      jump\t// in\n    tag_260:\n        /* \"#utility.yul\":2039:2102   */\n      swap3\n      pop\n        /* \"#utility.yul\":1994:2112   */\n      pop\n        /* \"#utility.yul\":2151:2153   */\n      0x40\n        /* \"#utility.yul\":2177:2230   */\n      tag_261\n        /* \"#utility.yul\":2222:2229   */\n      dup7\n        /* \"#utility.yul\":2213:2219   */\n      dup3\n        /* \"#utility.yul\":2202:2211   */\n      dup8\n        /* \"#utility.yul\":2198:2220   */\n      add\n        /* \"#utility.yul\":2177:2230   */\n      tag_198\n      jump\t// in\n    tag_261:\n        /* \"#utility.yul\":2167:2230   */\n      swap2\n      pop\n        /* \"#utility.yul\":2122:2240   */\n      pop\n        /* \"#utility.yul\":1628:2247   */\n      swap3\n      pop\n      swap3\n      pop\n      swap3\n      jump\t// out\n        /* \"#utility.yul\":2253:2375   */\n    tag_199:\n        /* \"#utility.yul\":2326:2350   */\n      tag_263\n        /* \"#utility.yul\":2344:2349   */\n      dup2\n        /* \"#utility.yul\":2326:2350   */\n      tag_190\n      jump\t// in\n    tag_263:\n        /* \"#utility.yul\":2319:2324   */\n      dup2\n        /* \"#utility.yul\":2316:2351   */\n      eq\n        /* \"#utility.yul\":2306:2369   */\n      tag_264\n      jumpi\n        /* \"#utility.yul\":2365:2366   */\n      0x00\n        /* \"#utility.yul\":2362:2363   */\n      0x00\n        /* \"#utility.yul\":2355:2367   */\n      revert\n        /* \"#utility.yul\":2306:2369   */\n    tag_264:\n        /* \"#utility.yul\":2253:2375   */\n      pop\n      jump\t// out\n        /* \"#utility.yul\":2381:2520   */\n    tag_200:\n        /* \"#utility.yul\":2427:2432   */\n      0x00\n        /* \"#utility.yul\":2465:2471   */\n      dup2\n        /* \"#utility.yul\":2452:2472   */\n      calldataload\n        /* \"#utility.yul\":2443:2472   */\n      swap1\n      pop\n        /* \"#utility.yul\":2481:2514   */\n      tag_266\n        /* \"#utility.yul\":2508:2513   */\n      dup2\n        /* \"#utility.yul\":2481:2514   */\n      tag_199\n      jump\t// in\n    tag_266:\n        /* \"#utility.yul\":2381:2520   */\n      swap3\n      swap2\n      pop\n      pop\n      jump\t// out\n        /* \"#utility.yul\":2526:2855   */\n    tag_38:\n        /* \"#utility.yul\":2585:2591   */\n      0x00\n        /* \"#utility.yul\":2634:2636   */\n      0x20\n        /* \"#utility.yul\":2622:2631   */\n      dup3\n        /* \"#utility.yul\":2613:2620   */\n      dup5\n        /* \"#utility.yul\":2609:2632   */\n      sub\n        /* \"#utility.yul\":2605:2637   */\n      slt\n        /* \"#utility.yul\":2602:2721   */\n      iszero\n      tag_268\n      jumpi\n        /* \"#utility.yul\":2640:2719   */\n      tag_269\n      tag_195\n      jump\t// in\n    tag_269:\n        /* \"#utility.yul\":2602:2721   */\n    tag_268:\n        /* \"#utility.yul\":2760:2761   */\n      0x00\n        /* \"#utility.yul\":2785:2838   */\n      tag_270\n        /* \"#utility.yul\":2830:2837   */\n      dup5\n        /* \"#utility.yul\":2821:2827   */\n      dup3\n        /* \"#utility.yul\":2810:2819   */\n      dup6\n        /* \"#utility.yul\":2806:2828   */\n      add\n        /* \"#utility.yul\":2785:2838   */\n      tag_200\n      jump\t// in\n    tag_270:\n        /* \"#utility.yul\":2775:2838   */\n      swap2\n      pop\n        /* \"#utility.yul\":2731:2848   */\n      pop\n        /* \"#utility.yul\":2526:2855   */\n      swap3\n      swap2\n      pop\n      pop\n      jump\t// out\n        /* \"#utility.yul\":2861:3626   */\n    tag_45:\n        /* \"#utility.yul\":2947:2953   */\n      0x00\n        /* \"#utility.yul\":2955:2961   */\n      0x00\n        /* \"#utility.yul\":2963:2969   */\n      0x00\n        /* \"#utility.yul\":2971:2977   */\n      0x00\n        /* \"#utility.yul\":3020:3023   */\n      0x80\n        /* \"#utility.yul\":3008:3017   */\n      dup6\n        /* \"#utility.yul\":2999:3006   */\n      dup8\n        /* \"#utility.yul\":2995:3018   */\n      sub\n        /* \"#utility.yul\":2991:3024   */\n      slt\n        /* \"#utility.yul\":2988:3108   */\n      iszero\n      tag_272\n      jumpi\n        /* \"#utility.yul\":3027:3106   */\n      tag_273\n      tag_195\n      jump\t// in\n    tag_273:\n        /* \"#utility.yul\":2988:3108   */\n    tag_272:\n        /* \"#utility.yul\":3147:3148   */\n      0x00\n        /* \"#utility.yul\":3172:3225   */\n      tag_274\n        /* \"#utility.yul\":3217:3224   */\n      dup8\n        /* \"#utility.yul\":3208:3214   */\n      dup3\n        /* \"#utility.yul\":3197:3206   */\n      dup9\n        /* \"#utility.yul\":3193:3215   */\n      add\n        /* \"#utility.yul\":3172:3225   */\n      tag_198\n      jump\t// in\n    tag_274:\n        /* \"#utility.yul\":3162:3225   */\n      swap5\n      pop\n        /* \"#utility.yul\":3118:3235   */\n      pop\n        /* \"#utility.yul\":3274:3276   */\n      0x20\n        /* \"#utility.yul\":3300:3353   */\n      tag_275\n        /* \"#utility.yul\":3345:3352   */\n      dup8\n        /* \"#utility.yul\":3336:3342   */\n      dup3\n        /* \"#utility.yul\":3325:3334   */\n      dup9\n        /* \"#utility.yul\":3321:3343   */\n      add\n        /* \"#utility.yul\":3300:3353   */\n      tag_200\n      jump\t// in\n    tag_275:\n        /* \"#utility.yul\":3290:3353   */\n      swap4\n      pop\n        /* \"#utility.yul\":3245:3363   */\n      pop\n        /* \"#utility.yul\":3402:3404   */\n      0x40\n        /* \"#utility.yul\":3428:3481   */\n      tag_276\n        /* \"#utility.yul\":3473:3480   */\n      dup8\n        /* \"#utility.yul\":3464:3470   */\n      dup3\n        /* \"#utility.yul\":3453:3462   */\n      dup9\n        /* \"#utility.yul\":3449:3471   */\n      add\n        /* \"#utility.yul\":3428:3481   */\n      tag_198\n      jump\t// in\n    tag_276:\n        /* \"#utility.yul\":3418:3481   */\n      swap3\n      pop\n        /* \"#utility.yul\":3373:3491   */\n      pop\n        /* \"#utility.yul\":3530:3532   */\n      0x60\n        /* \"#utility.yul\":3556:3609   */\n      tag_277\n        /* \"#utility.yul\":3601:3608   */\n      dup8\n        /* \"#utility.yul\":3592:3598   */\n      dup3\n        /* \"#utility.yul\":3581:3590   */\n      dup9\n        /* \"#utility.yul\":3577:3599   */\n      add\n        /* \"#utility.yul\":3556:3609   */\n      tag_198\n      jump\t// in\n    tag_277:\n        /* \"#utility.yul\":3546:3609   */\n      swap2\n      pop\n        /* \"#utility.yul\":3501:3619   */\n      pop\n        /* \"#utility.yul\":2861:3626   */\n      swap3\n      swap6\n      swap2\n      swap5\n      pop\n      swap3\n      pop\n      jump\t// out\n        /* \"#utility.yul\":3632:3961   */\n    tag_49:\n        /* \"#utility.yul\":3691:3697   */\n      0x00\n        /* \"#utility.yul\":3740:3742   */\n      0x20\n        /* \"#utility.yul\":3728:3737   */\n      dup3\n        /* \"#utility.yul\":3719:3726   */\n      dup5\n        /* \"#utility.yul\":3715:3738   */\n      sub\n        /* \"#utility.yul\":3711:3743   */\n      slt\n        /* \"#utility.yul\":3708:3827   */\n      iszero\n      tag_279\n      jumpi\n        /* \"#utility.yul\":3746:3825   */\n      tag_280\n      tag_195\n      jump\t// in\n    tag_280:\n        /* \"#utility.yul\":3708:3827   */\n    tag_279:\n        /* \"#utility.yul\":3866:3867   */\n      0x00\n        /* \"#utility.yul\":3891:3944   */\n      tag_281\n        /* \"#utility.yul\":3936:3943   */\n      dup5\n        /* \"#utility.yul\":3927:3933   */\n      dup3\n        /* \"#utility.yul\":3916:3925   */\n      dup6\n        /* \"#utility.yul\":3912:3934   */\n      add\n        /* \"#utility.yul\":3891:3944   */\n      tag_198\n      jump\t// in\n    tag_281:\n        /* \"#utility.yul\":3881:3944   */\n      swap2\n      pop\n        /* \"#utility.yul\":3837:3954   */\n      pop\n        /* \"#utility.yul\":3632:3961   */\n      swap3\n      swap2\n      pop\n      pop\n      jump\t// out\n        /* \"#utility.yul\":3967:4631   */\n    tag_52:\n        /* \"#utility.yul\":4172:4176   */\n      0x00\n        /* \"#utility.yul\":4210:4213   */\n      0xa0\n        /* \"#utility.yul\":4199:4208   */\n      dup3\n        /* \"#utility.yul\":4195:4214   */\n      add\n        /* \"#utility.yul\":4187:4214   */\n      swap1\n      pop\n        /* \"#utility.yul\":4224:4295   */\n      tag_283\n        /* \"#utility.yul\":4292:4293   */\n      0x00\n        /* \"#utility.yul\":4281:4290   */\n      dup4\n        /* \"#utility.yul\":4277:4294   */\n      add\n        /* \"#utility.yul\":4268:4274   */\n      dup9\n        /* \"#utility.yul\":4224:4295   */\n      tag_191\n      jump\t// in\n    tag_283:\n        /* \"#utility.yul\":4305:4377   */\n      tag_284\n        /* \"#utility.yul\":4373:4375   */\n      0x20\n        /* \"#utility.yul\":4362:4371   */\n      dup4\n        /* \"#utility.yul\":4358:4376   */\n      add\n        /* \"#utility.yul\":4349:4355   */\n      dup8\n        /* \"#utility.yul\":4305:4377   */\n      tag_193\n      jump\t// in\n    tag_284:\n        /* \"#utility.yul\":4387:4459   */\n      tag_285\n        /* \"#utility.yul\":4455:4457   */\n      0x40\n        /* \"#utility.yul\":4444:4453   */\n      dup4\n        /* \"#utility.yul\":4440:4458   */\n      add\n        /* \"#utility.yul\":4431:4437   */\n      dup7\n        /* \"#utility.yul\":4387:4459   */\n      tag_193\n      jump\t// in\n    tag_285:\n        /* \"#utility.yul\":4469:4541   */\n      tag_286\n        /* \"#utility.yul\":4537:4539   */\n      0x60\n        /* \"#utility.yul\":4526:4535   */\n      dup4\n        /* \"#utility.yul\":4522:4540   */\n      add\n        /* \"#utility.yul\":4513:4519   */\n      dup6\n        /* \"#utility.yul\":4469:4541   */\n      tag_191\n      jump\t// in\n    tag_286:\n        /* \"#utility.yul\":4551:4624   */\n      tag_287\n        /* \"#utility.yul\":4619:4622   */\n      0x80\n        /* \"#utility.yul\":4608:4617   */\n      dup4\n        /* \"#utility.yul\":4604:4623   */\n      add\n        /* \"#utility.yul\":4595:4601   */\n      dup5\n        /* \"#utility.yul\":4551:4624   */\n      tag_193\n      jump\t// in\n    tag_287:\n        /* \"#utility.yul\":3967:4631   */\n      swap7\n      swap6\n      pop\n      pop\n      pop\n      pop\n      pop\n      pop\n      jump\t// out\n        /* \"#utility.yul\":4637:4806   */\n    tag_201:\n        /* \"#utility.yul\":4721:4732   */\n      0x00\n        /* \"#utility.yul\":4755:4761   */\n      dup3\n        /* \"#utility.yul\":4750:4753   */\n      dup3\n        /* \"#utility.yul\":4743:4762   */\n      mstore\n        /* \"#utility.yul\":4795:4799   */\n      0x20\n        /* \"#utility.yul\":4790:4793   */\n      dup3\n        /* \"#utility.yul\":4786:4800   */\n      add\n        /* \"#utility.yul\":4771:4800   */\n      swap1\n      pop\n        /* \"#utility.yul\":4637:4806   */\n      swap3\n      swap2\n      pop\n      pop\n      jump\t// out\n        /* \"#utility.yul\":4812:4984   */\n    tag_202:\n        /* \"#utility.yul\":4952:4976   */\n      0x4c697374696e6720646f6573206e6f7420657869737400000000000000000000\n        /* \"#utility.yul\":4948:4949   */\n      0x00\n        /* \"#utility.yul\":4940:4946   */\n      dup3\n        /* \"#utility.yul\":4936:4950   */\n      add\n        /* \"#utility.yul\":4929:4977   */\n      mstore\n        /* \"#utility.yul\":4812:4984   */\n      pop\n      jump\t// out\n        /* \"#utility.yul\":4990:5356   */\n    tag_203:\n        /* \"#utility.yul\":5132:5135   */\n      0x00\n        /* \"#utility.yul\":5153:5220   */\n      tag_291\n        /* \"#utility.yul\":5217:5219   */\n      0x16\n        /* \"#utility.yul\":5212:5215   */\n      dup4\n        /* \"#utility.yul\":5153:5220   */\n      tag_201\n      jump\t// in\n    tag_291:\n        /* \"#utility.yul\":5146:5220   */\n      swap2\n      pop\n        /* \"#utility.yul\":5229:5322   */\n      tag_292\n        /* \"#utility.yul\":5318:5321   */\n      dup3\n        /* \"#utility.yul\":5229:5322   */\n      tag_202\n      jump\t// in\n    tag_292:\n        /* \"#utility.yul\":5347:5349   */\n      0x20\n        /* \"#utility.yul\":5342:5345   */\n      dup3\n        /* \"#utility.yul\":5338:5350   */\n      add\n        /* \"#utility.yul\":5331:5350   */\n      swap1\n      pop\n        /* \"#utility.yul\":4990:5356   */\n      swap2\n      swap1\n      pop\n      jump\t// out\n        /* \"#utility.yul\":5362:5781   */\n    tag_65:\n        /* \"#utility.yul\":5528:5532   */\n      0x00\n        /* \"#utility.yul\":5566:5568   */\n      0x20\n        /* \"#utility.yul\":5555:5564   */\n      dup3\n        /* \"#utility.yul\":5551:5569   */\n      add\n        /* \"#utility.yul\":5543:5569   */\n      swap1\n      pop\n        /* \"#utility.yul\":5615:5624   */\n      dup2\n        /* \"#utility.yul\":5609:5613   */\n      dup2\n        /* \"#utility.yul\":5605:5625   */\n      sub\n        /* \"#utility.yul\":5601:5602   */\n      0x00\n        /* \"#utility.yul\":5590:5599   */\n      dup4\n        /* \"#utility.yul\":5586:5603   */\n      add\n        /* \"#utility.yul\":5579:5626   */\n      mstore\n        /* \"#utility.yul\":5643:5774   */\n      tag_294\n        /* \"#utility.yul\":5769:5773   */\n      dup2\n        /* \"#utility.yul\":5643:5774   */\n      tag_203\n      jump\t// in\n    tag_294:\n        /* \"#utility.yul\":5635:5774   */\n      swap1\n      pop\n        /* \"#utility.yul\":5362:5781   */\n      swap2\n      swap1\n      pop\n      jump\t// out\n        /* \"#utility.yul\":5787:5956   */\n    tag_204:\n        /* \"#utility.yul\":5927:5948   */\n      0x4c697374696e6720686173206578706972656400000000000000000000000000\n        /* \"#utility.yul\":5923:5924   */\n      0x00\n        /* \"#utility.yul\":5915:5921   */\n      dup3\n        /* \"#utility.yul\":5911:5925   */\n      add\n        /* \"#utility.yul\":5904:5949   */\n      mstore\n        /* \"#utility.yul\":5787:5956   */\n      pop\n      jump\t// out\n        /* \"#utility.yul\":5962:6328   */\n    tag_205:\n        /* \"#utility.yul\":6104:6107   */\n      0x00\n        /* \"#utility.yul\":6125:6192   */\n      tag_297\n        /* \"#utility.yul\":6189:6191   */\n      0x13\n        /* \"#utility.yul\":6184:6187   */\n      dup4\n        /* \"#utility.yul\":6125:6192   */\n      tag_201\n      jump\t// in\n    tag_297:\n        /* \"#utility.yul\":6118:6192   */\n      swap2\n      pop\n        /* \"#utility.yul\":6201:6294   */\n      tag_298\n        /* \"#utility.yul\":6290:6293   */\n      dup3\n        /* \"#utility.yul\":6201:6294   */\n      tag_204\n      jump\t// in\n    tag_298:\n        /* \"#utility.yul\":6319:6321   */\n      0x20\n        /* \"#utility.yul\":6314:6317   */\n      dup3\n        /* \"#utility.yul\":6310:6322   */\n      add\n        /* \"#utility.yul\":6303:6322   */\n      swap1\n      pop\n        /* \"#utility.yul\":5962:6328   */\n      swap2\n      swap1\n      pop\n      jump\t// out\n        /* \"#utility.yul\":6334:6753   */\n    tag_68:\n        /* \"#utility.yul\":6500:6504   */\n      0x00\n        /* \"#utility.yul\":6538:6540   */\n      0x20\n        /* \"#utility.yul\":6527:6536   */\n      dup3\n        /* \"#utility.yul\":6523:6541   */\n      add\n        /* \"#utility.yul\":6515:6541   */\n      swap1\n      pop\n        /* \"#utility.yul\":6587:6596   */\n      dup2\n        /* \"#utility.yul\":6581:6585   */\n      dup2\n        /* \"#utility.yul\":6577:6597   */\n      sub\n        /* \"#utility.yul\":6573:6574   */\n      0x00\n        /* \"#utility.yul\":6562:6571   */\n      dup4\n        /* \"#utility.yul\":6558:6575   */\n      add\n        /* \"#utility.yul\":6551:6598   */\n      mstore\n        /* \"#utility.yul\":6615:6746   */\n      tag_300\n        /* \"#utility.yul\":6741:6745   */\n      dup2\n        /* \"#utility.yul\":6615:6746   */\n      tag_205\n      jump\t// in\n    tag_300:\n        /* \"#utility.yul\":6607:6746   */\n      swap1\n      pop\n        /* \"#utility.yul\":6334:6753   */\n      swap2\n      swap1\n      pop\n      jump\t// out\n        /* \"#utility.yul\":6759:6937   */\n    tag_206:\n        /* \"#utility.yul\":6899:6929   */\n      0x4e6f7420656e6f75676820746f6b656e7320696e206c697374696e6700000000\n        /* \"#utility.yul\":6895:6896   */\n      0x00\n        /* \"#utility.yul\":6887:6893   */\n      dup3\n        /* \"#utility.yul\":6883:6897   */\n      add\n        /* \"#utility.yul\":6876:6930   */\n      mstore\n        /* \"#utility.yul\":6759:6937   */\n      pop\n      jump\t// out\n        /* \"#utility.yul\":6943:7309   */\n    tag_207:\n        /* \"#utility.yul\":7085:7088   */\n      0x00\n        /* \"#utility.yul\":7106:7173   */\n      tag_303\n        /* \"#utility.yul\":7170:7172   */\n      0x1c\n        /* \"#utility.yul\":7165:7168   */\n      dup4\n        /* \"#utility.yul\":7106:7173   */\n      tag_201\n      jump\t// in\n    tag_303:\n        /* \"#utility.yul\":7099:7173   */\n      swap2\n      pop\n        /* \"#utility.yul\":7182:7275   */\n      tag_304\n        /* \"#utility.yul\":7271:7274   */\n      dup3\n        /* \"#utility.yul\":7182:7275   */\n      tag_206\n      jump\t// in\n    tag_304:\n        /* \"#utility.yul\":7300:7302   */\n      0x20\n        /* \"#utility.yul\":7295:7298   */\n      dup3\n        /* \"#utility.yul\":7291:7303   */\n      add\n        /* \"#utility.yul\":7284:7303   */\n      swap1\n      pop\n        /* \"#utility.yul\":6943:7309   */\n      swap2\n      swap1\n      pop\n      jump\t// out\n        /* \"#utility.yul\":7315:7734   */\n    tag_71:\n        /* \"#utility.yul\":7481:7485   */\n      0x00\n        /* \"#utility.yul\":7519:7521   */\n      0x20\n        /* \"#utility.yul\":7508:7517   */\n      dup3\n        /* \"#utility.yul\":7504:7522   */\n      add\n        /* \"#utility.yul\":7496:7522   */\n      swap1\n      pop\n        /* \"#utility.yul\":7568:7577   */\n      dup2\n        /* \"#utility.yul\":7562:7566   */\n      dup2\n        /* \"#utility.yul\":7558:7578   */\n      sub\n        /* \"#utility.yul\":7554:7555   */\n      0x00\n        /* \"#utility.yul\":7543:7552   */\n      dup4\n        /* \"#utility.yul\":7539:7556   */\n      add\n        /* \"#utility.yul\":7532:7579   */\n      mstore\n        /* \"#utility.yul\":7596:7727   */\n      tag_306\n        /* \"#utility.yul\":7722:7726   */\n      dup2\n        /* \"#utility.yul\":7596:7727   */\n      tag_207\n      jump\t// in\n    tag_306:\n        /* \"#utility.yul\":7588:7727   */\n      swap1\n      pop\n        /* \"#utility.yul\":7315:7734   */\n      swap2\n      swap1\n      pop\n      jump\t// out\n        /* \"#utility.yul\":7740:7920   */\n    tag_208:\n        /* \"#utility.yul\":7788:7865   */\n      0x4e487b7100000000000000000000000000000000000000000000000000000000\n        /* \"#utility.yul\":7785:7786   */\n      0x00\n        /* \"#utility.yul\":7778:7866   */\n      mstore\n        /* \"#utility.yul\":7885:7889   */\n      0x11\n        /* \"#utility.yul\":7882:7883   */\n      0x04\n        /* \"#utility.yul\":7875:7890   */\n      mstore\n        /* \"#utility.yul\":7909:7913   */\n      0x24\n        /* \"#utility.yul\":7906:7907   */\n      0x00\n        /* \"#utility.yul\":7899:7914   */\n      revert\n        /* \"#utility.yul\":7926:8336   */\n    tag_73:\n        /* \"#utility.yul\":7966:7973   */\n      0x00\n        /* \"#utility.yul\":7989:8009   */\n      tag_309\n        /* \"#utility.yul\":8007:8008   */\n      dup3\n        /* \"#utility.yul\":7989:8009   */\n      tag_192\n      jump\t// in\n    tag_309:\n        /* \"#utility.yul\":7984:8009   */\n      swap2\n      pop\n        /* \"#utility.yul\":8023:8043   */\n      tag_310\n        /* \"#utility.yul\":8041:8042   */\n      dup4\n        /* \"#utility.yul\":8023:8043   */\n      tag_192\n      jump\t// in\n    tag_310:\n        /* \"#utility.yul\":8018:8043   */\n      swap3\n      pop\n        /* \"#utility.yul\":8078:8079   */\n      dup3\n        /* \"#utility.yul\":8075:8076   */\n      dup3\n        /* \"#utility.yul\":8071:8080   */\n      mul\n        /* \"#utility.yul\":8100:8130   */\n      tag_311\n        /* \"#utility.yul\":8118:8129   */\n      dup2\n        /* \"#utility.yul\":8100:8130   */\n      tag_192\n      jump\t// in\n    tag_311:\n        /* \"#utility.yul\":8089:8130   */\n      swap2\n      pop\n        /* \"#utility.yul\":8279:8280   */\n      dup3\n        /* \"#utility.yul\":8270:8277   */\n      dup3\n        /* \"#utility.yul\":8266:8281   */\n      div\n        /* \"#utility.yul\":8263:8264   */\n      dup5\n        /* \"#utility.yul\":8260:8282   */\n      eq\n        /* \"#utility.yul\":8240:8241   */\n      dup4\n        /* \"#utility.yul\":8233:8242   */\n      iszero\n        /* \"#utility.yul\":8213:8296   */\n      or\n        /* \"#utility.yul\":8190:8329   */\n      tag_312\n      jumpi\n        /* \"#utility.yul\":8309:8327   */\n      tag_313\n      tag_208\n      jump\t// in\n    tag_313:\n        /* \"#utility.yul\":8190:8329   */\n    tag_312:\n        /* \"#utility.yul\":7974:8336   */\n      pop\n        /* \"#utility.yul\":7926:8336   */\n      swap3\n      swap2\n      pop\n      pop\n      jump\t// out\n        /* \"#utility.yul\":8342:8522   */\n    tag_209:\n        /* \"#utility.yul\":8390:8467   */\n      0x4e487b7100000000000000000000000000000000000000000000000000000000\n        /* \"#utility.yul\":8387:8388   */\n      0x00\n        /* \"#utility.yul\":8380:8468   */\n      mstore\n        /* \"#utility.yul\":8487:8491   */\n      0x12\n        /* \"#utility.yul\":8484:8485   */\n      0x04\n        /* \"#utility.yul\":8477:8492   */\n      mstore\n        /* \"#utility.yul\":8511:8515   */\n      0x24\n        /* \"#utility.yul\":8508:8509   */\n      0x00\n        /* \"#utility.yul\":8501:8516   */\n      revert\n        /* \"#utility.yul\":8528:8713   */\n    tag_76:\n        /* \"#utility.yul\":8568:8569   */\n      0x00\n        /* \"#utility.yul\":8585:8605   */\n      tag_316\n        /* \"#utility.yul\":8603:8604   */\n      dup3\n        /* \"#utility.yul\":8585:8605   */\n      tag_192\n      jump\t// in\n    tag_316:\n        /* \"#utility.yul\":8580:8605   */\n      swap2\n      pop\n        /* \"#utility.yul\":8619:8639   */\n      tag_317\n        /* \"#utility.yul\":8637:8638   */\n      dup4\n        /* \"#utility.yul\":8619:8639   */\n      tag_192\n      jump\t// in\n    tag_317:\n        /* \"#utility.yul\":8614:8639   */\n      swap3\n      pop\n        /* \"#utility.yul\":8658:8659   */\n      dup3\n        /* \"#utility.yul\":8648:8683   */\n      tag_318\n      jumpi\n        /* \"#utility.yul\":8663:8681   */\n      tag_319\n      tag_209\n      jump\t// in\n    tag_319:\n        /* \"#utility.yul\":8648:8683   */\n    tag_318:\n        /* \"#utility.yul\":8705:8706   */\n      dup3\n        /* \"#utility.yul\":8702:8703   */\n      dup3\n        /* \"#utility.yul\":8698:8707   */\n      div\n        /* \"#utility.yul\":8693:8707   */\n      swap1\n      pop\n        /* \"#utility.yul\":8528:8713   */\n      swap3\n      swap2\n      pop\n      pop\n      jump\t// out\n        /* \"#utility.yul\":8719:8910   */\n    tag_78:\n        /* \"#utility.yul\":8759:8762   */\n      0x00\n        /* \"#utility.yul\":8778:8798   */\n      tag_321\n        /* \"#utility.yul\":8796:8797   */\n      dup3\n        /* \"#utility.yul\":8778:8798   */\n      tag_192\n      jump\t// in\n    tag_321:\n        /* \"#utility.yul\":8773:8798   */\n      swap2\n      pop\n        /* \"#utility.yul\":8812:8832   */\n      tag_322\n        /* \"#utility.yul\":8830:8831   */\n      dup4\n        /* \"#utility.yul\":8812:8832   */\n      tag_192\n      jump\t// in\n    tag_322:\n        /* \"#utility.yul\":8807:8832   */\n      swap3\n      pop\n        /* \"#utility.yul\":8855:8856   */\n      dup3\n        /* \"#utility.yul\":8852:8853   */\n      dup3\n        /* \"#utility.yul\":8848:8857   */\n      add\n        /* \"#utility.yul\":8841:8857   */\n      swap1\n      pop\n        /* \"#utility.yul\":8876:8879   */\n      dup1\n        /* \"#utility.yul\":8873:8874   */\n      dup3\n        /* \"#utility.yul\":8870:8880   */\n      gt\n        /* \"#utility.yul\":8867:8903   */\n      iszero\n      tag_323\n      jumpi\n        /* \"#utility.yul\":8883:8901   */\n      tag_324\n      tag_208\n      jump\t// in\n    tag_324:\n        /* \"#utility.yul\":8867:8903   */\n    tag_323:\n        /* \"#utility.yul\":8719:8910   */\n      swap3\n      swap2\n      pop\n      pop\n      jump\t// out\n        /* \"#utility.yul\":8916:9090   */\n    tag_210:\n        /* \"#utility.yul\":9056:9082   */\n      0x496e636f7272656374207061796d656e7420616d6f756e740000000000000000\n        /* \"#utility.yul\":9052:9053   */\n      0x00\n        /* \"#utility.yul\":9044:9050   */\n      dup3\n        /* \"#utility.yul\":9040:9054   */\n      add\n        /* \"#utility.yul\":9033:9083   */\n      mstore\n        /* \"#utility.yul\":8916:9090   */\n      pop\n      jump\t// out\n        /* \"#utility.yul\":9096:9462   */\n    tag_211:\n        /* \"#utility.yul\":9238:9241   */\n      0x00\n        /* \"#utility.yul\":9259:9326   */\n      tag_327\n        /* \"#utility.yul\":9323:9325   */\n      0x18\n        /* \"#utility.yul\":9318:9321   */\n      dup4\n        /* \"#utility.yul\":9259:9326   */\n      tag_201\n      jump\t// in\n    tag_327:\n        /* \"#utility.yul\":9252:9326   */\n      swap2\n      pop\n        /* \"#utility.yul\":9335:9428   */\n      tag_328\n        /* \"#utility.yul\":9424:9427   */\n      dup3\n        /* \"#utility.yul\":9335:9428   */\n      tag_210\n      jump\t// in\n    tag_328:\n        /* \"#utility.yul\":9453:9455   */\n      0x20\n        /* \"#utility.yul\":9448:9451   */\n      dup3\n        /* \"#utility.yul\":9444:9456   */\n      add\n        /* \"#utility.yul\":9437:9456   */\n      swap1\n      pop\n        /* \"#utility.yul\":9096:9462   */\n      swap2\n      swap1\n      pop\n      jump\t// out\n        /* \"#utility.yul\":9468:9887   */\n    tag_81:\n        /* \"#utility.yul\":9634:9638   */\n      0x00\n        /* \"#utility.yul\":9672:9674   */\n      0x20\n        /* \"#utility.yul\":9661:9670   */\n      dup3\n        /* \"#utility.yul\":9657:9675   */\n      add\n        /* \"#utility.yul\":9649:9675   */\n      swap1\n      pop\n        /* \"#utility.yul\":9721:9730   */\n      dup2\n        /* \"#utility.yul\":9715:9719   */\n      dup2\n        /* \"#utility.yul\":9711:9731   */\n      sub\n        /* \"#utility.yul\":9707:9708   */\n      0x00\n        /* \"#utility.yul\":9696:9705   */\n      dup4\n        /* \"#utility.yul\":9692:9709   */\n      add\n        /* \"#utility.yul\":9685:9732   */\n      mstore\n        /* \"#utility.yul\":9749:9880   */\n      tag_330\n        /* \"#utility.yul\":9875:9879   */\n      dup2\n        /* \"#utility.yul\":9749:9880   */\n      tag_211\n      jump\t// in\n    tag_330:\n        /* \"#utility.yul\":9741:9880   */\n      swap1\n      pop\n        /* \"#utility.yul\":9468:9887   */\n      swap2\n      swap1\n      pop\n      jump\t// out\n        /* \"#utility.yul\":9893:10225   */\n    tag_83:\n        /* \"#utility.yul\":10014:10018   */\n      0x00\n        /* \"#utility.yul\":10052:10054   */\n      0x40\n        /* \"#utility.yul\":10041:10050   */\n      dup3\n        /* \"#utility.yul\":10037:10055   */\n      add\n        /* \"#utility.yul\":10029:10055   */\n      swap1\n      pop\n        /* \"#utility.yul\":10065:10136   */\n      tag_332\n        /* \"#utility.yul\":10133:10134   */\n      0x00\n        /* \"#utility.yul\":10122:10131   */\n      dup4\n        /* \"#utility.yul\":10118:10135   */\n      add\n        /* \"#utility.yul\":10109:10115   */\n      dup6\n        /* \"#utility.yul\":10065:10136   */\n      tag_191\n      jump\t// in\n    tag_332:\n        /* \"#utility.yul\":10146:10218   */\n      tag_333\n        /* \"#utility.yul\":10214:10216   */\n      0x20\n        /* \"#utility.yul\":10203:10212   */\n      dup4\n        /* \"#utility.yul\":10199:10217   */\n      add\n        /* \"#utility.yul\":10190:10196   */\n      dup5\n        /* \"#utility.yul\":10146:10218   */\n      tag_191\n      jump\t// in\n    tag_333:\n        /* \"#utility.yul\":9893:10225   */\n      swap4\n      swap3\n      pop\n      pop\n      pop\n      jump\t// out\n        /* \"#utility.yul\":10231:10374   */\n    tag_212:\n        /* \"#utility.yul\":10288:10293   */\n      0x00\n        /* \"#utility.yul\":10319:10325   */\n      dup2\n        /* \"#utility.yul\":10313:10326   */\n      mload\n        /* \"#utility.yul\":10304:10326   */\n      swap1\n      pop\n        /* \"#utility.yul\":10335:10368   */\n      tag_335\n        /* \"#utility.yul\":10362:10367   */\n      dup2\n        /* \"#utility.yul\":10335:10368   */\n      tag_197\n      jump\t// in\n    tag_335:\n        /* \"#utility.yul\":10231:10374   */\n      swap3\n      swap2\n      pop\n      pop\n      jump\t// out\n        /* \"#utility.yul\":10380:10731   */\n    tag_87:\n        /* \"#utility.yul\":10450:10456   */\n      0x00\n        /* \"#utility.yul\":10499:10501   */\n      0x20\n        /* \"#utility.yul\":10487:10496   */\n      dup3\n        /* \"#utility.yul\":10478:10485   */\n      dup5\n        /* \"#utility.yul\":10474:10497   */\n      sub\n        /* \"#utility.yul\":10470:10502   */\n      slt\n        /* \"#utility.yul\":10467:10586   */\n      iszero\n      tag_337\n      jumpi\n        /* \"#utility.yul\":10505:10584   */\n      tag_338\n      tag_195\n      jump\t// in\n    tag_338:\n        /* \"#utility.yul\":10467:10586   */\n    tag_337:\n        /* \"#utility.yul\":10625:10626   */\n      0x00\n        /* \"#utility.yul\":10650:10714   */\n      tag_339\n        /* \"#utility.yul\":10706:10713   */\n      dup5\n        /* \"#utility.yul\":10697:10703   */\n      dup3\n        /* \"#utility.yul\":10686:10695   */\n      dup6\n        /* \"#utility.yul\":10682:10704   */\n      add\n        /* \"#utility.yul\":10650:10714   */\n      tag_212\n      jump\t// in\n    tag_339:\n        /* \"#utility.yul\":10640:10714   */\n      swap2\n      pop\n        /* \"#utility.yul\":10596:10724   */\n      pop\n        /* \"#utility.yul\":10380:10731   */\n      swap3\n      swap2\n      pop\n      pop\n      jump\t// out\n        /* \"#utility.yul\":10737:10918   */\n    tag_213:\n        /* \"#utility.yul\":10877:10910   */\n      0x5061796d656e7420746f6b656e20616c6c6f77616e636520746f6f206c6f7700\n        /* \"#utility.yul\":10873:10874   */\n      0x00\n        /* \"#utility.yul\":10865:10871   */\n      dup3\n        /* \"#utility.yul\":10861:10875   */\n      add\n        /* \"#utility.yul\":10854:10911   */\n      mstore\n        /* \"#utility.yul\":10737:10918   */\n      pop\n      jump\t// out\n        /* \"#utility.yul\":10924:11290   */\n    tag_214:\n        /* \"#utility.yul\":11066:11069   */\n      0x00\n        /* \"#utility.yul\":11087:11154   */\n      tag_342\n        /* \"#utility.yul\":11151:11153   */\n      0x1f\n        /* \"#utility.yul\":11146:11149   */\n      dup4\n        /* \"#utility.yul\":11087:11154   */\n      tag_201\n      jump\t// in\n    tag_342:\n        /* \"#utility.yul\":11080:11154   */\n      swap2\n      pop\n        /* \"#utility.yul\":11163:11256   */\n      tag_343\n        /* \"#utility.yul\":11252:11255   */\n      dup3\n        /* \"#utility.yul\":11163:11256   */\n      tag_213\n      jump\t// in\n    tag_343:\n        /* \"#utility.yul\":11281:11283   */\n      0x20\n        /* \"#utility.yul\":11276:11279   */\n      dup3\n        /* \"#utility.yul\":11272:11284   */\n      add\n        /* \"#utility.yul\":11265:11284   */\n      swap1\n      pop\n        /* \"#utility.yul\":10924:11290   */\n      swap2\n      swap1\n      pop\n      jump\t// out\n        /* \"#utility.yul\":11296:11715   */\n    tag_90:\n        /* \"#utility.yul\":11462:11466   */\n      0x00\n        /* \"#utility.yul\":11500:11502   */\n      0x20\n        /* \"#utility.yul\":11489:11498   */\n      dup3\n        /* \"#utility.yul\":11485:11503   */\n      add\n        /* \"#utility.yul\":11477:11503   */\n      swap1\n      pop\n        /* \"#utility.yul\":11549:11558   */\n      dup2\n        /* \"#utility.yul\":11543:11547   */\n      dup2\n        /* \"#utility.yul\":11539:11559   */\n      sub\n        /* \"#utility.yul\":11535:11536   */\n      0x00\n        /* \"#utility.yul\":11524:11533   */\n      dup4\n        /* \"#utility.yul\":11520:11537   */\n      add\n        /* \"#utility.yul\":11513:11560   */\n      mstore\n        /* \"#utility.yul\":11577:11708   */\n      tag_345\n        /* \"#utility.yul\":11703:11707   */\n      dup2\n        /* \"#utility.yul\":11577:11708   */\n      tag_214\n      jump\t// in\n    tag_345:\n        /* \"#utility.yul\":11569:11708   */\n      swap1\n      pop\n        /* \"#utility.yul\":11296:11715   */\n      swap2\n      swap1\n      pop\n      jump\t// out\n        /* \"#utility.yul\":11721:11915   */\n    tag_95:\n        /* \"#utility.yul\":11761:11765   */\n      0x00\n        /* \"#utility.yul\":11781:11801   */\n      tag_347\n        /* \"#utility.yul\":11799:11800   */\n      dup3\n        /* \"#utility.yul\":11781:11801   */\n      tag_192\n      jump\t// in\n    tag_347:\n        /* \"#utility.yul\":11776:11801   */\n      swap2\n      pop\n        /* \"#utility.yul\":11815:11835   */\n      tag_348\n        /* \"#utility.yul\":11833:11834   */\n      dup4\n        /* \"#utility.yul\":11815:11835   */\n      tag_192\n      jump\t// in\n    tag_348:\n        /* \"#utility.yul\":11810:11835   */\n      swap3\n      pop\n        /* \"#utility.yul\":11859:11860   */\n      dup3\n        /* \"#utility.yul\":11856:11857   */\n      dup3\n        /* \"#utility.yul\":11852:11861   */\n      sub\n        /* \"#utility.yul\":11844:11861   */\n      swap1\n      pop\n        /* \"#utility.yul\":11883:11884   */\n      dup2\n        /* \"#utility.yul\":11877:11881   */\n      dup2\n        /* \"#utility.yul\":11874:11885   */\n      gt\n        /* \"#utility.yul\":11871:11908   */\n      iszero\n      tag_349\n      jumpi\n        /* \"#utility.yul\":11888:11906   */\n      tag_350\n      tag_208\n      jump\t// in\n    tag_350:\n        /* \"#utility.yul\":11871:11908   */\n    tag_349:\n        /* \"#utility.yul\":11721:11915   */\n      swap3\n      swap2\n      pop\n      pop\n      jump\t// out\n        /* \"#utility.yul\":11921:12011   */\n    tag_215:\n        /* \"#utility.yul\":11955:11962   */\n      0x00\n        /* \"#utility.yul\":11998:12003   */\n      dup2\n        /* \"#utility.yul\":11991:12004   */\n      iszero\n        /* \"#utility.yul\":11984:12005   */\n      iszero\n        /* \"#utility.yul\":11973:12005   */\n      swap1\n      pop\n        /* \"#utility.yul\":11921:12011   */\n      swap2\n      swap1\n      pop\n      jump\t// out\n        /* \"#utility.yul\":12017:12126   */\n    tag_216:\n        /* \"#utility.yul\":12098:12119   */\n      tag_353\n        /* \"#utility.yul\":12113:12118   */\n      dup2\n        /* \"#utility.yul\":12098:12119   */\n      tag_215\n      jump\t// in\n    tag_353:\n        /* \"#utility.yul\":12093:12096   */\n      dup3\n        /* \"#utility.yul\":12086:12120   */\n      mstore\n        /* \"#utility.yul\":12017:12126   */\n      pop\n      pop\n      jump\t// out\n        /* \"#utility.yul\":12132:12673   */\n    tag_99:\n        /* \"#utility.yul\":12303:12307   */\n      0x00\n        /* \"#utility.yul\":12341:12344   */\n      0x80\n        /* \"#utility.yul\":12330:12339   */\n      dup3\n        /* \"#utility.yul\":12326:12345   */\n      add\n        /* \"#utility.yul\":12318:12345   */\n      swap1\n      pop\n        /* \"#utility.yul\":12355:12426   */\n      tag_355\n        /* \"#utility.yul\":12423:12424   */\n      0x00\n        /* \"#utility.yul\":12412:12421   */\n      dup4\n        /* \"#utility.yul\":12408:12425   */\n      add\n        /* \"#utility.yul\":12399:12405   */\n      dup8\n        /* \"#utility.yul\":12355:12426   */\n      tag_193\n      jump\t// in\n    tag_355:\n        /* \"#utility.yul\":12436:12508   */\n      tag_356\n        /* \"#utility.yul\":12504:12506   */\n      0x20\n        /* \"#utility.yul\":12493:12502   */\n      dup4\n        /* \"#utility.yul\":12489:12507   */\n      add\n        /* \"#utility.yul\":12480:12486   */\n      dup7\n        /* \"#utility.yul\":12436:12508   */\n      tag_193\n      jump\t// in\n    tag_356:\n        /* \"#utility.yul\":12518:12590   */\n      tag_357\n        /* \"#utility.yul\":12586:12588   */\n      0x40\n        /* \"#utility.yul\":12575:12584   */\n      dup4\n        /* \"#utility.yul\":12571:12589   */\n      add\n        /* \"#utility.yul\":12562:12568   */\n      dup6\n        /* \"#utility.yul\":12518:12590   */\n      tag_193\n      jump\t// in\n    tag_357:\n        /* \"#utility.yul\":12600:12666   */\n      tag_358\n        /* \"#utility.yul\":12662:12664   */\n      0x60\n        /* \"#utility.yul\":12651:12660   */\n      dup4\n        /* \"#utility.yul\":12647:12665   */\n      add\n        /* \"#utility.yul\":12638:12644   */\n      dup5\n        /* \"#utility.yul\":12600:12666   */\n      tag_216\n      jump\t// in\n    tag_358:\n        /* \"#utility.yul\":12132:12673   */\n      swap6\n      swap5\n      pop\n      pop\n      pop\n      pop\n      pop\n      jump\t// out\n        /* \"#utility.yul\":12679:12844   */\n    tag_217:\n        /* \"#utility.yul\":12819:12836   */\n      0x496e76616c696420616464726573730000000000000000000000000000000000\n        /* \"#utility.yul\":12815:12816   */\n      0x00\n        /* \"#utility.yul\":12807:12813   */\n      dup3\n        /* \"#utility.yul\":12803:12817   */\n      add\n        /* \"#utility.yul\":12796:12837   */\n      mstore\n        /* \"#utility.yul\":12679:12844   */\n      pop\n      jump\t// out\n        /* \"#utility.yul\":12850:13216   */\n    tag_218:\n        /* \"#utility.yul\":12992:12995   */\n      0x00\n        /* \"#utility.yul\":13013:13080   */\n      tag_361\n        /* \"#utility.yul\":13077:13079   */\n      0x0f\n        /* \"#utility.yul\":13072:13075   */\n      dup4\n        /* \"#utility.yul\":13013:13080   */\n      tag_201\n      jump\t// in\n    tag_361:\n        /* \"#utility.yul\":13006:13080   */\n      swap2\n      pop\n        /* \"#utility.yul\":13089:13182   */\n      tag_362\n        /* \"#utility.yul\":13178:13181   */\n      dup3\n        /* \"#utility.yul\":13089:13182   */\n      tag_217\n      jump\t// in\n    tag_362:\n        /* \"#utility.yul\":13207:13209   */\n      0x20\n        /* \"#utility.yul\":13202:13205   */\n      dup3\n        /* \"#utility.yul\":13198:13210   */\n      add\n        /* \"#utility.yul\":13191:13210   */\n      swap1\n      pop\n        /* \"#utility.yul\":12850:13216   */\n      swap2\n      swap1\n      pop\n      jump\t// out\n        /* \"#utility.yul\":13222:13641   */\n    tag_113:\n        /* \"#utility.yul\":13388:13392   */\n      0x00\n        /* \"#utility.yul\":13426:13428   */\n      0x20\n        /* \"#utility.yul\":13415:13424   */\n      dup3\n        /* \"#utility.yul\":13411:13429   */\n      add\n        /* \"#utility.yul\":13403:13429   */\n      swap1\n      pop\n        /* \"#utility.yul\":13475:13484   */\n      dup2\n        /* \"#utility.yul\":13469:13473   */\n      dup2\n        /* \"#utility.yul\":13465:13485   */\n      sub\n        /* \"#utility.yul\":13461:13462   */\n      0x00\n        /* \"#utility.yul\":13450:13459   */\n      dup4\n        /* \"#utility.yul\":13446:13463   */\n      add\n        /* \"#utility.yul\":13439:13486   */\n      mstore\n        /* \"#utility.yul\":13503:13634   */\n      tag_364\n        /* \"#utility.yul\":13629:13633   */\n      dup2\n        /* \"#utility.yul\":13503:13634   */\n      tag_218\n      jump\t// in\n    tag_364:\n        /* \"#utility.yul\":13495:13634   */\n      swap1\n      pop\n        /* \"#utility.yul\":13222:13641   */\n      swap2\n      swap1\n      pop\n      jump\t// out\n        /* \"#utility.yul\":13647:13828   */\n    tag_219:\n        /* \"#utility.yul\":13787:13820   */\n      0x5072696365206d7573742062652067726561746572207468616e207a65726f00\n        /* \"#utility.yul\":13783:13784   */\n      0x00\n        /* \"#utility.yul\":13775:13781   */\n      dup3\n        /* \"#utility.yul\":13771:13785   */\n      add\n        /* \"#utility.yul\":13764:13821   */\n      mstore\n        /* \"#utility.yul\":13647:13828   */\n      pop\n      jump\t// out\n        /* \"#utility.yul\":13834:14200   */\n    tag_220:\n        /* \"#utility.yul\":13976:13979   */\n      0x00\n        /* \"#utility.yul\":13997:14064   */\n      tag_367\n        /* \"#utility.yul\":14061:14063   */\n      0x1f\n        /* \"#utility.yul\":14056:14059   */\n      dup4\n        /* \"#utility.yul\":13997:14064   */\n      tag_201\n      jump\t// in\n    tag_367:\n        /* \"#utility.yul\":13990:14064   */\n      swap2\n      pop\n        /* \"#utility.yul\":14073:14166   */\n      tag_368\n        /* \"#utility.yul\":14162:14165   */\n      dup3\n        /* \"#utility.yul\":14073:14166   */\n      tag_219\n      jump\t// in\n    tag_368:\n        /* \"#utility.yul\":14191:14193   */\n      0x20\n        /* \"#utility.yul\":14186:14189   */\n      dup3\n        /* \"#utility.yul\":14182:14194   */\n      add\n        /* \"#utility.yul\":14175:14194   */\n      swap1\n      pop\n        /* \"#utility.yul\":13834:14200   */\n      swap2\n      swap1\n      pop\n      jump\t// out\n        /* \"#utility.yul\":14206:14625   */\n    tag_118:\n        /* \"#utility.yul\":14372:14376   */\n      0x00\n        /* \"#utility.yul\":14410:14412   */\n      0x20\n        /* \"#utility.yul\":14399:14408   */\n      dup3\n        /* \"#utility.yul\":14395:14413   */\n      add\n        /* \"#utility.yul\":14387:14413   */\n      swap1\n      pop\n        /* \"#utility.yul\":14459:14468   */\n      dup2\n        /* \"#utility.yul\":14453:14457   */\n      dup2\n        /* \"#utility.yul\":14449:14469   */\n      sub\n        /* \"#utility.yul\":14445:14446   */\n      0x00\n        /* \"#utility.yul\":14434:14443   */\n      dup4\n        /* \"#utility.yul\":14430:14447   */\n      add\n        /* \"#utility.yul\":14423:14470   */\n      mstore\n        /* \"#utility.yul\":14487:14618   */\n      tag_370\n        /* \"#utility.yul\":14613:14617   */\n      dup2\n        /* \"#utility.yul\":14487:14618   */\n      tag_220\n      jump\t// in\n    tag_370:\n        /* \"#utility.yul\":14479:14618   */\n      swap1\n      pop\n        /* \"#utility.yul\":14206:14625   */\n      swap2\n      swap1\n      pop\n      jump\t// out\n        /* \"#utility.yul\":14631:14813   */\n    tag_221:\n        /* \"#utility.yul\":14771:14805   */\n      0x546f6b656e73206d7573742062652067726561746572207468616e207a65726f\n        /* \"#utility.yul\":14767:14768   */\n      0x00\n        /* \"#utility.yul\":14759:14765   */\n      dup3\n        /* \"#utility.yul\":14755:14769   */\n      add\n        /* \"#utility.yul\":14748:14806   */\n      mstore\n        /* \"#utility.yul\":14631:14813   */\n      pop\n      jump\t// out\n        /* \"#utility.yul\":14819:15185   */\n    tag_222:\n        /* \"#utility.yul\":14961:14964   */\n      0x00\n        /* \"#utility.yul\":14982:15049   */\n      tag_373\n        /* \"#utility.yul\":15046:15048   */\n      0x20\n        /* \"#utility.yul\":15041:15044   */\n      dup4\n        /* \"#utility.yul\":14982:15049   */\n      tag_201\n      jump\t// in\n    tag_373:\n        /* \"#utility.yul\":14975:15049   */\n      swap2\n      pop\n        /* \"#utility.yul\":15058:15151   */\n      tag_374\n        /* \"#utility.yul\":15147:15150   */\n      dup3\n        /* \"#utility.yul\":15058:15151   */\n      tag_221\n      jump\t// in\n    tag_374:\n        /* \"#utility.yul\":15176:15178   */\n      0x20\n        /* \"#utility.yul\":15171:15174   */\n      dup3\n        /* \"#utility.yul\":15167:15179   */\n      add\n        /* \"#utility.yul\":15160:15179   */\n      swap1\n      pop\n        /* \"#utility.yul\":14819:15185   */\n      swap2\n      swap1\n      pop\n      jump\t// out\n        /* \"#utility.yul\":15191:15610   */\n    tag_121:\n        /* \"#utility.yul\":15357:15361   */\n      0x00\n        /* \"#utility.yul\":15395:15397   */\n      0x20\n        /* \"#utility.yul\":15384:15393   */\n      dup3\n        /* \"#utility.yul\":15380:15398   */\n      add\n        /* \"#utility.yul\":15372:15398   */\n      swap1\n      pop\n        /* \"#utility.yul\":15444:15453   */\n      dup2\n        /* \"#utility.yul\":15438:15442   */\n      dup2\n        /* \"#utility.yul\":15434:15454   */\n      sub\n        /* \"#utility.yul\":15430:15431   */\n      0x00\n        /* \"#utility.yul\":15419:15428   */\n      dup4\n        /* \"#utility.yul\":15415:15432   */\n      add\n        /* \"#utility.yul\":15408:15455   */\n      mstore\n        /* \"#utility.yul\":15472:15603   */\n      tag_376\n        /* \"#utility.yul\":15598:15602   */\n      dup2\n        /* \"#utility.yul\":15472:15603   */\n      tag_222\n      jump\t// in\n    tag_376:\n        /* \"#utility.yul\":15464:15603   */\n      swap1\n      pop\n        /* \"#utility.yul\":15191:15610   */\n      swap2\n      swap1\n      pop\n      jump\t// out\n        /* \"#utility.yul\":15616:15837   */\n    tag_223:\n        /* \"#utility.yul\":15756:15790   */\n      0x4475726174696f6e206d7573742062652067726561746572207468616e207a65\n        /* \"#utility.yul\":15752:15753   */\n      0x00\n        /* \"#utility.yul\":15744:15750   */\n      dup3\n        /* \"#utility.yul\":15740:15754   */\n      add\n        /* \"#utility.yul\":15733:15791   */\n      mstore\n        /* \"#utility.yul\":15825:15829   */\n      0x726f000000000000000000000000000000000000000000000000000000000000\n        /* \"#utility.yul\":15820:15822   */\n      0x20\n        /* \"#utility.yul\":15812:15818   */\n      dup3\n        /* \"#utility.yul\":15808:15823   */\n      add\n        /* \"#utility.yul\":15801:15830   */\n      mstore\n        /* \"#utility.yul\":15616:15837   */\n      pop\n      jump\t// out\n        /* \"#utility.yul\":15843:16209   */\n    tag_224:\n        /* \"#utility.yul\":15985:15988   */\n      0x00\n        /* \"#utility.yul\":16006:16073   */\n      tag_379\n        /* \"#utility.yul\":16070:16072   */\n      0x22\n        /* \"#utility.yul\":16065:16068   */\n      dup4\n        /* \"#utility.yul\":16006:16073   */\n      tag_201\n      jump\t// in\n    tag_379:\n        /* \"#utility.yul\":15999:16073   */\n      swap2\n      pop\n        /* \"#utility.yul\":16082:16175   */\n      tag_380\n        /* \"#utility.yul\":16171:16174   */\n      dup3\n        /* \"#utility.yul\":16082:16175   */\n      tag_223\n      jump\t// in\n    tag_380:\n        /* \"#utility.yul\":16200:16202   */\n      0x40\n        /* \"#utility.yul\":16195:16198   */\n      dup3\n        /* \"#utility.yul\":16191:16203   */\n      add\n        /* \"#utility.yul\":16184:16203   */\n      swap1\n      pop\n        /* \"#utility.yul\":15843:16209   */\n      swap2\n      swap1\n      pop\n      jump\t// out\n        /* \"#utility.yul\":16215:16634   */\n    tag_124:\n        /* \"#utility.yul\":16381:16385   */\n      0x00\n        /* \"#utility.yul\":16419:16421   */\n      0x20\n        /* \"#utility.yul\":16408:16417   */\n      dup3\n        /* \"#utility.yul\":16404:16422   */\n      add\n        /* \"#utility.yul\":16396:16422   */\n      swap1\n      pop\n        /* \"#utility.yul\":16468:16477   */\n      dup2\n        /* \"#utility.yul\":16462:16466   */\n      dup2\n        /* \"#utility.yul\":16458:16478   */\n      sub\n        /* \"#utility.yul\":16454:16455   */\n      0x00\n        /* \"#utility.yul\":16443:16452   */\n      dup4\n        /* \"#utility.yul\":16439:16456   */\n      add\n        /* \"#utility.yul\":16432:16479   */\n      mstore\n        /* \"#utility.yul\":16496:16627   */\n      tag_382\n        /* \"#utility.yul\":16622:16626   */\n      dup2\n        /* \"#utility.yul\":16496:16627   */\n      tag_224\n      jump\t// in\n    tag_382:\n        /* \"#utility.yul\":16488:16627   */\n      swap1\n      pop\n        /* \"#utility.yul\":16215:16634   */\n      swap2\n      swap1\n      pop\n      jump\t// out\n        /* \"#utility.yul\":16640:16814   */\n    tag_225:\n        /* \"#utility.yul\":16780:16806   */\n      0x496e76616c696420636f6e747261637420616464726573730000000000000000\n        /* \"#utility.yul\":16776:16777   */\n      0x00\n        /* \"#utility.yul\":16768:16774   */\n      dup3\n        /* \"#utility.yul\":16764:16778   */\n      add\n        /* \"#utility.yul\":16757:16807   */\n      mstore\n        /* \"#utility.yul\":16640:16814   */\n      pop\n      jump\t// out\n        /* \"#utility.yul\":16820:17186   */\n    tag_226:\n        /* \"#utility.yul\":16962:16965   */\n      0x00\n        /* \"#utility.yul\":16983:17050   */\n      tag_385\n        /* \"#utility.yul\":17047:17049   */\n      0x18\n        /* \"#utility.yul\":17042:17045   */\n      dup4\n        /* \"#utility.yul\":16983:17050   */\n      tag_201\n      jump\t// in\n    tag_385:\n        /* \"#utility.yul\":16976:17050   */\n      swap2\n      pop\n        /* \"#utility.yul\":17059:17152   */\n      tag_386\n        /* \"#utility.yul\":17148:17151   */\n      dup3\n        /* \"#utility.yul\":17059:17152   */\n      tag_225\n      jump\t// in\n    tag_386:\n        /* \"#utility.yul\":17177:17179   */\n      0x20\n        /* \"#utility.yul\":17172:17175   */\n      dup3\n        /* \"#utility.yul\":17168:17180   */\n      add\n        /* \"#utility.yul\":17161:17180   */\n      swap1\n      pop\n        /* \"#utility.yul\":16820:17186   */\n      swap2\n      swap1\n      pop\n      jump\t// out\n        /* \"#utility.yul\":17192:17611   */\n    tag_127:\n        /* \"#utility.yul\":17358:17362   */\n      0x00\n        /* \"#utility.yul\":17396:17398   */\n      0x20\n        /* \"#utility.yul\":17385:17394   */\n      dup3\n        /* \"#utility.yul\":17381:17399   */\n      add\n        /* \"#utility.yul\":17373:17399   */\n      swap1\n      pop\n        /* \"#utility.yul\":17445:17454   */\n      dup2\n        /* \"#utility.yul\":17439:17443   */\n      dup2\n        /* \"#utility.yul\":17435:17455   */\n      sub\n        /* \"#utility.yul\":17431:17432   */\n      0x00\n        /* \"#utility.yul\":17420:17429   */\n      dup4\n        /* \"#utility.yul\":17416:17433   */\n      add\n        /* \"#utility.yul\":17409:17456   */\n      mstore\n        /* \"#utility.yul\":17473:17604   */\n      tag_388\n        /* \"#utility.yul\":17599:17603   */\n      dup2\n        /* \"#utility.yul\":17473:17604   */\n      tag_226\n      jump\t// in\n    tag_388:\n        /* \"#utility.yul\":17465:17604   */\n      swap1\n      pop\n        /* \"#utility.yul\":17192:17611   */\n      swap2\n      swap1\n      pop\n      jump\t// out\n        /* \"#utility.yul\":17617:17790   */\n    tag_227:\n        /* \"#utility.yul\":17757:17782   */\n      0x546f6b656e20616c6c6f77616e636520746f6f206c6f77000000000000000000\n        /* \"#utility.yul\":17753:17754   */\n      0x00\n        /* \"#utility.yul\":17745:17751   */\n      dup3\n        /* \"#utility.yul\":17741:17755   */\n      add\n        /* \"#utility.yul\":17734:17783   */\n      mstore\n        /* \"#utility.yul\":17617:17790   */\n      pop\n      jump\t// out\n        /* \"#utility.yul\":17796:18162   */\n    tag_228:\n        /* \"#utility.yul\":17938:17941   */\n      0x00\n        /* \"#utility.yul\":17959:18026   */\n      tag_391\n        /* \"#utility.yul\":18023:18025   */\n      0x17\n        /* \"#utility.yul\":18018:18021   */\n      dup4\n        /* \"#utility.yul\":17959:18026   */\n      tag_201\n      jump\t// in\n    tag_391:\n        /* \"#utility.yul\":17952:18026   */\n      swap2\n      pop\n        /* \"#utility.yul\":18035:18128   */\n      tag_392\n        /* \"#utility.yul\":18124:18127   */\n      dup3\n        /* \"#utility.yul\":18035:18128   */\n      tag_227\n      jump\t// in\n    tag_392:\n        /* \"#utility.yul\":18153:18155   */\n      0x20\n        /* \"#utility.yul\":18148:18151   */\n      dup3\n        /* \"#utility.yul\":18144:18156   */\n      add\n        /* \"#utility.yul\":18137:18156   */\n      swap1\n      pop\n        /* \"#utility.yul\":17796:18162   */\n      swap2\n      swap1\n      pop\n      jump\t// out\n        /* \"#utility.yul\":18168:18587   */\n    tag_134:\n        /* \"#utility.yul\":18334:18338   */\n      0x00\n        /* \"#utility.yul\":18372:18374   */\n      0x20\n        /* \"#utility.yul\":18361:18370   */\n      dup3\n        /* \"#utility.yul\":18357:18375   */\n      add\n        /* \"#utility.yul\":18349:18375   */\n      swap1\n      pop\n        /* \"#utility.yul\":18421:18430   */\n      dup2\n        /* \"#utility.yul\":18415:18419   */\n      dup2\n        /* \"#utility.yul\":18411:18431   */\n      sub\n        /* \"#utility.yul\":18407:18408   */\n      0x00\n        /* \"#utility.yul\":18396:18405   */\n      dup4\n        /* \"#utility.yul\":18392:18409   */\n      add\n        /* \"#utility.yul\":18385:18432   */\n      mstore\n        /* \"#utility.yul\":18449:18580   */\n      tag_394\n        /* \"#utility.yul\":18575:18579   */\n      dup2\n        /* \"#utility.yul\":18449:18580   */\n      tag_228\n      jump\t// in\n    tag_394:\n        /* \"#utility.yul\":18441:18580   */\n      swap1\n      pop\n        /* \"#utility.yul\":18168:18587   */\n      swap2\n      swap1\n      pop\n      jump\t// out\n        /* \"#utility.yul\":18593:18826   */\n    tag_137:\n        /* \"#utility.yul\":18632:18635   */\n      0x00\n        /* \"#utility.yul\":18655:18679   */\n      tag_396\n        /* \"#utility.yul\":18673:18678   */\n      dup3\n        /* \"#utility.yul\":18655:18679   */\n      tag_192\n      jump\t// in\n    tag_396:\n        /* \"#utility.yul\":18646:18679   */\n      swap2\n      pop\n        /* \"#utility.yul\":18701:18767   */\n      0xffffffffffffffffffffffffffffffffffffffffffffffffffffffffffffffff\n        /* \"#utility.yul\":18694:18699   */\n      dup3\n        /* \"#utility.yul\":18691:18768   */\n      sub\n        /* \"#utility.yul\":18688:18791   */\n      tag_397\n      jumpi\n        /* \"#utility.yul\":18771:18789   */\n      tag_398\n      tag_208\n      jump\t// in\n    tag_398:\n        /* \"#utility.yul\":18688:18791   */\n    tag_397:\n        /* \"#utility.yul\":18818:18819   */\n      0x01\n        /* \"#utility.yul\":18811:18816   */\n      dup3\n        /* \"#utility.yul\":18807:18820   */\n      add\n        /* \"#utility.yul\":18800:18820   */\n      swap1\n      pop\n        /* \"#utility.yul\":18593:18826   */\n      swap2\n      swap1\n      pop\n      jump\t// out\n        /* \"#utility.yul\":18832:19385   */\n    tag_141:\n        /* \"#utility.yul\":19009:19013   */\n      0x00\n        /* \"#utility.yul\":19047:19050   */\n      0x80\n        /* \"#utility.yul\":19036:19045   */\n      dup3\n        /* \"#utility.yul\":19032:19051   */\n      add\n        /* \"#utility.yul\":19024:19051   */\n      swap1\n      pop\n        /* \"#utility.yul\":19061:19132   */\n      tag_400\n        /* \"#utility.yul\":19129:19130   */\n      0x00\n        /* \"#utility.yul\":19118:19127   */\n      dup4\n        /* \"#utility.yul\":19114:19131   */\n      add\n        /* \"#utility.yul\":19105:19111   */\n      dup8\n        /* \"#utility.yul\":19061:19132   */\n      tag_193\n      jump\t// in\n    tag_400:\n        /* \"#utility.yul\":19142:19214   */\n      tag_401\n        /* \"#utility.yul\":19210:19212   */\n      0x20\n        /* \"#utility.yul\":19199:19208   */\n      dup4\n        /* \"#utility.yul\":19195:19213   */\n      add\n        /* \"#utility.yul\":19186:19192   */\n      dup7\n        /* \"#utility.yul\":19142:19214   */\n      tag_193\n      jump\t// in\n    tag_401:\n        /* \"#utility.yul\":19224:19296   */\n      tag_402\n        /* \"#utility.yul\":19292:19294   */\n      0x40\n        /* \"#utility.yul\":19281:19290   */\n      dup4\n        /* \"#utility.yul\":19277:19295   */\n      add\n        /* \"#utility.yul\":19268:19274   */\n      dup6\n        /* \"#utility.yul\":19224:19296   */\n      tag_193\n      jump\t// in\n    tag_402:\n        /* \"#utility.yul\":19306:19378   */\n      tag_403\n        /* \"#utility.yul\":19374:19376   */\n      0x60\n        /* \"#utility.yul\":19363:19372   */\n      dup4\n        /* \"#utility.yul\":19359:19377   */\n      add\n        /* \"#utility.yul\":19350:19356   */\n      dup5\n        /* \"#utility.yul\":19306:19378   */\n      tag_193\n      jump\t// in\n    tag_403:\n        /* \"#utility.yul\":18832:19385   */\n      swap6\n      swap5\n      pop\n      pop\n      pop\n      pop\n      pop\n      jump\t// out\n        /* \"#utility.yul\":19391:19573   */\n    tag_229:\n        /* \"#utility.yul\":19531:19565   */\n      0x4f6e6c79206c697374696e672073656c6c65722063616e207769746864726177\n        /* \"#utility.yul\":19527:19528   */\n      0x00\n        /* \"#utility.yul\":19519:19525   */\n      dup3\n        /* \"#utility.yul\":19515:19529   */\n      add\n        /* \"#utility.yul\":19508:19566   */\n      mstore\n        /* \"#utility.yul\":19391:19573   */\n      pop\n      jump\t// out\n        /* \"#utility.yul\":19579:19945   */\n    tag_230:\n        /* \"#utility.yul\":19721:19724   */\n      0x00\n        /* \"#utility.yul\":19742:19809   */\n      tag_406\n        /* \"#utility.yul\":19806:19808   */\n      0x20\n        /* \"#utility.yul\":19801:19804   */\n      dup4\n        /* \"#utility.yul\":19742:19809   */\n      tag_201\n      jump\t// in\n    tag_406:\n        /* \"#utility.yul\":19735:19809   */\n      swap2\n      pop\n        /* \"#utility.yul\":19818:19911   */\n      tag_407\n        /* \"#utility.yul\":19907:19910   */\n      dup3\n        /* \"#utility.yul\":19818:19911   */\n      tag_229\n      jump\t// in\n    tag_407:\n        /* \"#utility.yul\":19936:19938   */\n      0x20\n        /* \"#utility.yul\":19931:19934   */\n      dup3\n        /* \"#utility.yul\":19927:19939   */\n      add\n        /* \"#utility.yul\":19920:19939   */\n      swap1\n      pop\n        /* \"#utility.yul\":19579:19945   */\n      swap2\n      swap1\n      pop\n      jump\t// out\n        /* \"#utility.yul\":19951:20370   */\n    tag_147:\n        /* \"#utility.yul\":20117:20121   */\n      0x00\n        /* \"#utility.yul\":20155:20157   */\n      0x20\n        /* \"#utility.yul\":20144:20153   */\n      dup3\n        /* \"#utility.yul\":20140:20158   */\n      add\n        /* \"#utility.yul\":20132:20158   */\n      swap1\n      pop\n        /* \"#utility.yul\":20204:20213   */\n      dup2\n        /* \"#utility.yul\":20198:20202   */\n      dup2\n        /* \"#utility.yul\":20194:20214   */\n      sub\n        /* \"#utility.yul\":20190:20191   */\n      0x00\n        /* \"#utility.yul\":20179:20188   */\n      dup4\n        /* \"#utility.yul\":20175:20192   */\n      add\n        /* \"#utility.yul\":20168:20215   */\n      mstore\n        /* \"#utility.yul\":20232:20363   */\n      tag_409\n        /* \"#utility.yul\":20358:20362   */\n      dup2\n        /* \"#utility.yul\":20232:20363   */\n      tag_230\n      jump\t// in\n    tag_409:\n        /* \"#utility.yul\":20224:20363   */\n      swap1\n      pop\n        /* \"#utility.yul\":19951:20370   */\n      swap2\n      swap1\n      pop\n      jump\t// out\n        /* \"#utility.yul\":20376:20547   */\n    tag_231:\n        /* \"#utility.yul\":20516:20539   */\n      0x4c697374696e6720686173206e6f7420656e6465640000000000000000000000\n        /* \"#utility.yul\":20512:20513   */\n      0x00\n        /* \"#utility.yul\":20504:20510   */\n      dup3\n        /* \"#utility.yul\":20500:20514   */\n      add\n        /* \"#utility.yul\":20493:20540   */\n      mstore\n        /* \"#utility.yul\":20376:20547   */\n      pop\n      jump\t// out\n        /* \"#utility.yul\":20553:20919   */\n    tag_232:\n        /* \"#utility.yul\":20695:20698   */\n      0x00\n        /* \"#utility.yul\":20716:20783   */\n      tag_412\n        /* \"#utility.yul\":20780:20782   */\n      0x15\n        /* \"#utility.yul\":20775:20778   */\n      dup4\n        /* \"#utility.yul\":20716:20783   */\n      tag_201\n      jump\t// in\n    tag_412:\n        /* \"#utility.yul\":20709:20783   */\n      swap2\n      pop\n        /* \"#utility.yul\":20792:20885   */\n      tag_413\n        /* \"#utility.yul\":20881:20884   */\n      dup3\n        /* \"#utility.yul\":20792:20885   */\n      tag_231\n      jump\t// in\n    tag_413:\n        /* \"#utility.yul\":20910:20912   */\n      0x20\n        /* \"#utility.yul\":20905:20908   */\n      dup3\n        /* \"#utility.yul\":20901:20913   */\n      add\n        /* \"#utility.yul\":20894:20913   */\n      swap1\n      pop\n        /* \"#utility.yul\":20553:20919   */\n      swap2\n      swap1\n      pop\n      jump\t// out\n        /* \"#utility.yul\":20925:21344   */\n    tag_150:\n        /* \"#utility.yul\":21091:21095   */\n      0x00\n        /* \"#utility.yul\":21129:21131   */\n      0x20\n        /* \"#utility.yul\":21118:21127   */\n      dup3\n        /* \"#utility.yul\":21114:21132   */\n      add\n        /* \"#utility.yul\":21106:21132   */\n      swap1\n      pop\n        /* \"#utility.yul\":21178:21187   */\n      dup2\n        /* \"#utility.yul\":21172:21176   */\n      dup2\n        /* \"#utility.yul\":21168:21188   */\n      sub\n        /* \"#utility.yul\":21164:21165   */\n      0x00\n        /* \"#utility.yul\":21153:21162   */\n      dup4\n        /* \"#utility.yul\":21149:21166   */\n      add\n        /* \"#utility.yul\":21142:21189   */\n      mstore\n        /* \"#utility.yul\":21206:21337   */\n      tag_415\n        /* \"#utility.yul\":21332:21336   */\n      dup2\n        /* \"#utility.yul\":21206:21337   */\n      tag_232\n      jump\t// in\n    tag_415:\n        /* \"#utility.yul\":21198:21337   */\n      swap1\n      pop\n        /* \"#utility.yul\":20925:21344   */\n      swap2\n      swap1\n      pop\n      jump\t// out\n        /* \"#utility.yul\":21350:21521   */\n    tag_233:\n        /* \"#utility.yul\":21490:21513   */\n      0x4e6f20746f6b656e7320746f2077697468647261770000000000000000000000\n        /* \"#utility.yul\":21486:21487   */\n      0x00\n        /* \"#utility.yul\":21478:21484   */\n      dup3\n        /* \"#utility.yul\":21474:21488   */\n      add\n        /* \"#utility.yul\":21467:21514   */\n      mstore\n        /* \"#utility.yul\":21350:21521   */\n      pop\n      jump\t// out\n        /* \"#utility.yul\":21527:21893   */\n    tag_234:\n        /* \"#utility.yul\":21669:21672   */\n      0x00\n        /* \"#utility.yul\":21690:21757   */\n      tag_418\n        /* \"#utility.yul\":21754:21756   */\n      0x15\n        /* \"#utility.yul\":21749:21752   */\n      dup4\n        /* \"#utility.yul\":21690:21757   */\n      tag_201\n      jump\t// in\n    tag_418:\n        /* \"#utility.yul\":21683:21757   */\n      swap2\n      pop\n        /* \"#utility.yul\":21766:21859   */\n      tag_419\n        /* \"#utility.yul\":21855:21858   */\n      dup3\n        /* \"#utility.yul\":21766:21859   */\n      tag_233\n      jump\t// in\n    tag_419:\n        /* \"#utility.yul\":21884:21886   */\n      0x20\n        /* \"#utility.yul\":21879:21882   */\n      dup3\n        /* \"#utility.yul\":21875:21887   */\n      add\n        /* \"#utility.yul\":21868:21887   */\n      swap1\n      pop\n        /* \"#utility.yul\":21527:21893   */\n      swap2\n      swap1\n      pop\n      jump\t// out\n        /* \"#utility.yul\":21899:22318   */\n    tag_153:\n        /* \"#utility.yul\":22065:22069   */\n      0x00\n        /* \"#utility.yul\":22103:22105   */\n      0x20\n        /* \"#utility.yul\":22092:22101   */\n      dup3\n        /* \"#utility.yul\":22088:22106   */\n      add\n        /* \"#utility.yul\":22080:22106   */\n      swap1\n      pop\n        /* \"#utility.yul\":22152:22161   */\n      dup2\n        /* \"#utility.yul\":22146:22150   */\n      dup2\n        /* \"#utility.yul\":22142:22162   */\n      sub\n        /* \"#utility.yul\":22138:22139   */\n      0x00\n        /* \"#utility.yul\":22127:22136   */\n      dup4\n        /* \"#utility.yul\":22123:22140   */\n      add\n        /* \"#utility.yul\":22116:22163   */\n      mstore\n        /* \"#utility.yul\":22180:22311   */\n      tag_421\n        /* \"#utility.yul\":22306:22310   */\n      dup2\n        /* \"#utility.yul\":22180:22311   */\n      tag_234\n      jump\t// in\n    tag_421:\n        /* \"#utility.yul\":22172:22311   */\n      swap1\n      pop\n        /* \"#utility.yul\":21899:22318   */\n      swap2\n      swap1\n      pop\n      jump\t// out\n        /* \"#utility.yul\":22324:22766   */\n    tag_167:\n        /* \"#utility.yul\":22473:22477   */\n      0x00\n        /* \"#utility.yul\":22511:22513   */\n      0x60\n        /* \"#utility.yul\":22500:22509   */\n      dup3\n        /* \"#utility.yul\":22496:22514   */\n      add\n        /* \"#utility.yul\":22488:22514   */\n      swap1\n      pop\n        /* \"#utility.yul\":22524:22595   */\n      tag_423\n        /* \"#utility.yul\":22592:22593   */\n      0x00\n        /* \"#utility.yul\":22581:22590   */\n      dup4\n        /* \"#utility.yul\":22577:22594   */\n      add\n        /* \"#utility.yul\":22568:22574   */\n      dup7\n        /* \"#utility.yul\":22524:22595   */\n      tag_191\n      jump\t// in\n    tag_423:\n        /* \"#utility.yul\":22605:22677   */\n      tag_424\n        /* \"#utility.yul\":22673:22675   */\n      0x20\n        /* \"#utility.yul\":22662:22671   */\n      dup4\n        /* \"#utility.yul\":22658:22676   */\n      add\n        /* \"#utility.yul\":22649:22655   */\n      dup6\n        /* \"#utility.yul\":22605:22677   */\n      tag_191\n      jump\t// in\n    tag_424:\n        /* \"#utility.yul\":22687:22759   */\n      tag_425\n        /* \"#utility.yul\":22755:22757   */\n      0x40\n        /* \"#utility.yul\":22744:22753   */\n      dup4\n        /* \"#utility.yul\":22740:22758   */\n      add\n        /* \"#utility.yul\":22731:22737   */\n      dup5\n        /* \"#utility.yul\":22687:22759   */\n      tag_193\n      jump\t// in\n    tag_425:\n        /* \"#utility.yul\":22324:22766   */\n      swap5\n      swap4\n      pop\n      pop\n      pop\n      pop\n      jump\t// out\n        /* \"#utility.yul\":22772:23104   */\n    tag_172:\n        /* \"#utility.yul\":22893:22897   */\n      0x00\n        /* \"#utility.yul\":22931:22933   */\n      0x40\n        /* \"#utility.yul\":22920:22929   */\n      dup3\n        /* \"#utility.yul\":22916:22934   */\n      add\n        /* \"#utility.yul\":22908:22934   */\n      swap1\n      pop\n        /* \"#utility.yul\":22944:23015   */\n      tag_427\n        /* \"#utility.yul\":23012:23013   */\n      0x00\n        /* \"#utility.yul\":23001:23010   */\n      dup4\n        /* \"#utility.yul\":22997:23014   */\n      add\n        /* \"#utility.yul\":22988:22994   */\n      dup6\n        /* \"#utility.yul\":22944:23015   */\n      tag_191\n      jump\t// in\n    tag_427:\n        /* \"#utility.yul\":23025:23097   */\n      tag_428\n        /* \"#utility.yul\":23093:23095   */\n      0x20\n        /* \"#utility.yul\":23082:23091   */\n      dup4\n        /* \"#utility.yul\":23078:23096   */\n      add\n        /* \"#utility.yul\":23069:23075   */\n      dup5\n        /* \"#utility.yul\":23025:23097   */\n      tag_193\n      jump\t// in\n    tag_428:\n        /* \"#utility.yul\":22772:23104   */\n      swap4\n      swap3\n      pop\n      pop\n      pop\n      jump\t// out\n\n    auxdata: 0xa2646970667358221220b3cc67c450942aad31a55d9e6e8b9bbb96b7a4ce1585b261a2ec64600fa5c39464736f6c634300081c0033\n}\n",
				"bytecode": {
					"linkReferences": {},
					"object": "608060405273fcf8d2b098b3160654bbada1a8769483c71c288b60045f6101000a81548173ffffffffffffffffffffffffffffffffffffffff021916908373ffffffffffffffffffffffffffffffffffffffff160217905550348015610063575f5ffd5b503360015f819055505f73ffffffffffffffffffffffffffffffffffffffff168173ffffffffffffffffffffffffffffffffffffffff16036100dc575f6040517f1e4fbdf70000000000000000000000000000000000000000000000000000000081526004016100d391906101f3565b60405180910390fd5b6100eb816100f160201b60201c565b5061020c565b5f60015f9054906101000a900473ffffffffffffffffffffffffffffffffffffffff1690508160015f6101000a81548173ffffffffffffffffffffffffffffffffffffffff021916908373ffffffffffffffffffffffffffffffffffffffff1602179055508173ffffffffffffffffffffffffffffffffffffffff168173ffffffffffffffffffffffffffffffffffffffff167f8be0079c531659141344cd1fd0a4f28419497f9722a3daafe3b4186f6b6457e060405160405180910390a35050565b5f73ffffffffffffffffffffffffffffffffffffffff82169050919050565b5f6101dd826101b4565b9050919050565b6101ed816101d3565b82525050565b5f6020820190506102065f8301846101e4565b92915050565b611bde806102195f395ff3fe608060405234801561000f575f5ffd5b50600436106100b2575f3560e01c80637d60b6ce1161006f5780637d60b6ce146101545780638da5cb5b146101705780639ffae41b1461018e578063de74e57b146101aa578063f25713bf146101de578063f2fde38b146101fa576100b2565b806317c73ff0146100b65780631bf1de9b146100d457806324f56afa146100f257806327722e621461010e5780636c2c9c7d1461012c578063715018a61461014a575b5f5ffd5b6100be610216565b6040516100cb91906110eb565b60405180910390f35b6100dc61023b565b6040516100e9919061111c565b60405180910390f35b61010c60048036038101906101079190611163565b610240565b005b6101166105f0565b60405161012391906110eb565b60405180910390f35b610134610608565b604051610141919061111c565b60405180910390f35b61015261060e565b005b61016e600480360381019061016991906111dd565b610621565b005b6101786106da565b60405161018591906110eb565b60405180910390f35b6101a860048036038101906101a39190611208565b610702565b005b6101c460048036038101906101bf919061126c565b610ad5565b6040516101d5959493929190611297565b60405180910390f35b6101f860048036038101906101f3919061126c565b610b45565b005b610214600480360381019061020f91906111dd565b610cee565b005b60045f9054906101000a900473ffffffffffffffffffffffffffffffffffffffff1681565b600a81565b610248610d72565b5f60025f8581526020019081526020015f2090505f8160020154116102a2576040517f08c379a000000000000000000000000000000000000000000000000000000000815260040161029990611342565b60405180910390fd5b80600401544211156102e9576040517f08c379a00000000000000000000000000000000000000000000000000000000081526004016102e0906113aa565b60405180910390fd5b8281600201541015610330576040517f08c379a000000000000000000000000000000000000000000000000000000000815260040161032790611412565b60405180910390fd5b5f838260010154610341919061145d565b90505f6064600a83610353919061145d565b61035d91906114cb565b90505f818361036c91906114fb565b90508085146103b0576040517f08c379a00000000000000000000000000000000000000000000000000000000081526004016103a790611578565b60405180910390fd5b5f735fdaf637aed59b2e6d384d9e84d8ac5cf03c66979050858173ffffffffffffffffffffffffffffffffffffffff1663dd62ed3e33306040518363ffffffff1660e01b8152600401610404929190611596565b602060405180830381865afa15801561041f573d5f5f3e3d5ffd5b505050506040513d601f19601f8201168201806040525081019061044391906115d1565b1015610484576040517f08c379a000000000000000000000000000000000000000000000000000000000815260040161047b90611646565b60405180910390fd5b6104d23360045f9054906101000a900473ffffffffffffffffffffffffffffffffffffffff16858473ffffffffffffffffffffffffffffffffffffffff16610db6909392919063ffffffff16565b61052233866003015f9054906101000a900473ffffffffffffffffffffffffffffffffffffffff16868473ffffffffffffffffffffffffffffffffffffffff16610db6909392919063ffffffff16565b86856002015f8282546105359190611664565b925050819055506105893388875f015f9054906101000a900473ffffffffffffffffffffffffffffffffffffffff1673ffffffffffffffffffffffffffffffffffffffff16610e389092919063ffffffff16565b3373ffffffffffffffffffffffffffffffffffffffff167fdca20547336c56209d6bccbfed1076a61d517d52a47986a7086df1977b10daf589898760016040516105d694939291906116b1565b60405180910390a250505050506105eb610eb7565b505050565b735fdaf637aed59b2e6d384d9e84d8ac5cf03c669781565b60035481565b610616610ec0565b61061f5f610f47565b565b610629610ec0565b5f73ffffffffffffffffffffffffffffffffffffffff168173ffffffffffffffffffffffffffffffffffffffff1603610697576040517f08c379a000000000000000000000000000000000000000000000000000000000815260040161068e9061173e565b60405180910390fd5b8060045f6101000a81548173ffffffffffffffffffffffffffffffffffffffff021916908373ffffffffffffffffffffffffffffffffffffffff16021790555050565b5f60015f9054906101000a900473ffffffffffffffffffffffffffffffffffffffff16905090565b5f8411610744576040517f08c379a000000000000000000000000000000000000000000000000000000000815260040161073b906117a6565b60405180910390fd5b5f8211610786576040517f08c379a000000000000000000000000000000000000000000000000000000000815260040161077d9061180e565b60405180910390fd5b5f81116107c8576040517f08c379a00000000000000000000000000000000000000000000000000000000081526004016107bf9061189c565b60405180910390fd5b5f73ffffffffffffffffffffffffffffffffffffffff168373ffffffffffffffffffffffffffffffffffffffff1603610836576040517f08c379a000000000000000000000000000000000000000000000000000000000815260040161082d90611904565b60405180910390fd5b5f839050828173ffffffffffffffffffffffffffffffffffffffff1663dd62ed3e33306040518363ffffffff1660e01b8152600401610876929190611596565b602060405180830381865afa158015610891573d5f5f3e3d5ffd5b505050506040513d601f19601f820116820180604052508101906108b591906115d1565b10156108f6576040517f08c379a00000000000000000000000000000000000000000000000000000000081526004016108ed9061196c565b60405180910390fd5b6109233330858473ffffffffffffffffffffffffffffffffffffffff16610db6909392919063ffffffff16565b60035f8154809291906109359061198a565b91905055506040518060a001604052808573ffffffffffffffffffffffffffffffffffffffff1681526020018681526020018481526020013373ffffffffffffffffffffffffffffffffffffffff168152602001834261099591906114fb565b81525060025f60035481526020019081526020015f205f820151815f015f6101000a81548173ffffffffffffffffffffffffffffffffffffffff021916908373ffffffffffffffffffffffffffffffffffffffff16021790555060208201518160010155604082015181600201556060820151816003015f6101000a81548173ffffffffffffffffffffffffffffffffffffffff021916908373ffffffffffffffffffffffffffffffffffffffff160217905550608082015181600401559050508373ffffffffffffffffffffffffffffffffffffffff163373ffffffffffffffffffffffffffffffffffffffff167fc8636a22d2315a33de4785339601bb7299ebc1e02cf0d9f22776c7692ee3803b60035488878742610ab691906114fb565b604051610ac694939291906119d1565b60405180910390a35050505050565b6002602052805f5260405f205f91509050805f015f9054906101000a900473ffffffffffffffffffffffffffffffffffffffff1690806001015490806002015490806003015f9054906101000a900473ffffffffffffffffffffffffffffffffffffffff16908060040154905085565b610b4d610d72565b5f60025f8381526020019081526020015f209050806003015f9054906101000a900473ffffffffffffffffffffffffffffffffffffffff1673ffffffffffffffffffffffffffffffffffffffff163373ffffffffffffffffffffffffffffffffffffffff1614610bf2576040517f08c379a0000000000000000000000000000000000000000000000000000000008152600401610be990611a5e565b60405180910390fd5b80600401544211610c38576040517f08c379a0000000000000000000000000000000000000000000000000000000008152600401610c2f90611ac6565b60405180910390fd5b5f816002015411610c7e576040517f08c379a0000000000000000000000000000000000000000000000000000000008152600401610c7590611b2e565b60405180910390fd5b5f816002015490505f82600201819055505f825f015f9054906101000a900473ffffffffffffffffffffffffffffffffffffffff169050610ce033838373ffffffffffffffffffffffffffffffffffffffff16610e389092919063ffffffff16565b505050610ceb610eb7565b50565b610cf6610ec0565b5f73ffffffffffffffffffffffffffffffffffffffff168173ffffffffffffffffffffffffffffffffffffffff1603610d66575f6040517f1e4fbdf7000000000000000000000000000000000000000000000000000000008152600401610d5d91906110eb565b60405180910390fd5b610d6f81610f47565b50565b60025f5403610dad576040517f3ee5aeb500000000000000000000000000000000000000000000000000000000815260040160405180910390fd5b60025f81905550565b610e32848573ffffffffffffffffffffffffffffffffffffffff166323b872dd868686604051602401610deb93929190611b4c565b604051602081830303815290604052915060e01b6020820180517bffffffffffffffffffffffffffffffffffffffffffffffffffffffff838183161783525050505061100a565b50505050565b610eb2838473ffffffffffffffffffffffffffffffffffffffff1663a9059cbb8585604051602401610e6b929190611b81565b604051602081830303815290604052915060e01b6020820180517bffffffffffffffffffffffffffffffffffffffffffffffffffffffff838183161783525050505061100a565b505050565b60015f81905550565b610ec86110a5565b73ffffffffffffffffffffffffffffffffffffffff16610ee66106da565b73ffffffffffffffffffffffffffffffffffffffff1614610f4557610f096110a5565b6040517f118cdaa7000000000000000000000000000000000000000000000000000000008152600401610f3c91906110eb565b60405180910390fd5b565b5f60015f9054906101000a900473ffffffffffffffffffffffffffffffffffffffff1690508160015f6101000a81548173ffffffffffffffffffffffffffffffffffffffff021916908373ffffffffffffffffffffffffffffffffffffffff1602179055508173ffffffffffffffffffffffffffffffffffffffff168173ffffffffffffffffffffffffffffffffffffffff167f8be0079c531659141344cd1fd0a4f28419497f9722a3daafe3b4186f6b6457e060405160405180910390a35050565b5f5f60205f8451602086015f885af180611029576040513d5f823e3d81fd5b3d92505f519150505f821461104257600181141561105d565b5f8473ffffffffffffffffffffffffffffffffffffffff163b145b1561109f57836040517f5274afe700000000000000000000000000000000000000000000000000000000815260040161109691906110eb565b60405180910390fd5b50505050565b5f33905090565b5f73ffffffffffffffffffffffffffffffffffffffff82169050919050565b5f6110d5826110ac565b9050919050565b6110e5816110cb565b82525050565b5f6020820190506110fe5f8301846110dc565b92915050565b5f819050919050565b61111681611104565b82525050565b5f60208201905061112f5f83018461110d565b92915050565b5f5ffd5b61114281611104565b811461114c575f5ffd5b50565b5f8135905061115d81611139565b92915050565b5f5f5f6060848603121561117a57611179611135565b5b5f6111878682870161114f565b93505060206111988682870161114f565b92505060406111a98682870161114f565b9150509250925092565b6111bc816110cb565b81146111c6575f5ffd5b50565b5f813590506111d7816111b3565b92915050565b5f602082840312156111f2576111f1611135565b5b5f6111ff848285016111c9565b91505092915050565b5f5f5f5f608085870312156112205761121f611135565b5b5f61122d8782880161114f565b945050602061123e878288016111c9565b935050604061124f8782880161114f565b92505060606112608782880161114f565b91505092959194509250565b5f6020828403121561128157611280611135565b5b5f61128e8482850161114f565b91505092915050565b5f60a0820190506112aa5f8301886110dc565b6112b7602083018761110d565b6112c4604083018661110d565b6112d160608301856110dc565b6112de608083018461110d565b9695505050505050565b5f82825260208201905092915050565b7f4c697374696e6720646f6573206e6f74206578697374000000000000000000005f82015250565b5f61132c6016836112e8565b9150611337826112f8565b602082019050919050565b5f6020820190508181035f83015261135981611320565b9050919050565b7f4c697374696e67206861732065787069726564000000000000000000000000005f82015250565b5f6113946013836112e8565b915061139f82611360565b602082019050919050565b5f6020820190508181035f8301526113c181611388565b9050919050565b7f4e6f7420656e6f75676820746f6b656e7320696e206c697374696e67000000005f82015250565b5f6113fc601c836112e8565b9150611407826113c8565b602082019050919050565b5f6020820190508181035f830152611429816113f0565b9050919050565b7f4e487b71000000000000000000000000000000000000000000000000000000005f52601160045260245ffd5b5f61146782611104565b915061147283611104565b925082820261148081611104565b9150828204841483151761149757611496611430565b5b5092915050565b7f4e487b71000000000000000000000000000000000000000000000000000000005f52601260045260245ffd5b5f6114d582611104565b91506114e083611104565b9250826114f0576114ef61149e565b5b828204905092915050565b5f61150582611104565b915061151083611104565b925082820190508082111561152857611527611430565b5b92915050565b7f496e636f7272656374207061796d656e7420616d6f756e7400000000000000005f82015250565b5f6115626018836112e8565b915061156d8261152e565b602082019050919050565b5f6020820190508181035f83015261158f81611556565b9050919050565b5f6040820190506115a95f8301856110dc565b6115b660208301846110dc565b9392505050565b5f815190506115cb81611139565b92915050565b5f602082840312156115e6576115e5611135565b5b5f6115f3848285016115bd565b91505092915050565b7f5061796d656e7420746f6b656e20616c6c6f77616e636520746f6f206c6f77005f82015250565b5f611630601f836112e8565b915061163b826115fc565b602082019050919050565b5f6020820190508181035f83015261165d81611624565b9050919050565b5f61166e82611104565b915061167983611104565b925082820390508181111561169157611690611430565b5b92915050565b5f8115159050919050565b6116ab81611697565b82525050565b5f6080820190506116c45f83018761110d565b6116d1602083018661110d565b6116de604083018561110d565b6116eb60608301846116a2565b95945050505050565b7f496e76616c6964206164647265737300000000000000000000000000000000005f82015250565b5f611728600f836112e8565b9150611733826116f4565b602082019050919050565b5f6020820190508181035f8301526117558161171c565b9050919050565b7f5072696365206d7573742062652067726561746572207468616e207a65726f005f82015250565b5f611790601f836112e8565b915061179b8261175c565b602082019050919050565b5f6020820190508181035f8301526117bd81611784565b9050919050565b7f546f6b656e73206d7573742062652067726561746572207468616e207a65726f5f82015250565b5f6117f86020836112e8565b9150611803826117c4565b602082019050919050565b5f6020820190508181035f830152611825816117ec565b9050919050565b7f4475726174696f6e206d7573742062652067726561746572207468616e207a655f8201527f726f000000000000000000000000000000000000000000000000000000000000602082015250565b5f6118866022836112e8565b91506118918261182c565b604082019050919050565b5f6020820190508181035f8301526118b38161187a565b9050919050565b7f496e76616c696420636f6e7472616374206164647265737300000000000000005f82015250565b5f6118ee6018836112e8565b91506118f9826118ba565b602082019050919050565b5f6020820190508181035f83015261191b816118e2565b9050919050565b7f546f6b656e20616c6c6f77616e636520746f6f206c6f770000000000000000005f82015250565b5f6119566017836112e8565b915061196182611922565b602082019050919050565b5f6020820190508181035f8301526119838161194a565b9050919050565b5f61199482611104565b91507fffffffffffffffffffffffffffffffffffffffffffffffffffffffffffffffff82036119c6576119c5611430565b5b600182019050919050565b5f6080820190506119e45f83018761110d565b6119f1602083018661110d565b6119fe604083018561110d565b611a0b606083018461110d565b95945050505050565b7f4f6e6c79206c697374696e672073656c6c65722063616e2077697468647261775f82015250565b5f611a486020836112e8565b9150611a5382611a14565b602082019050919050565b5f6020820190508181035f830152611a7581611a3c565b9050919050565b7f4c697374696e6720686173206e6f7420656e64656400000000000000000000005f82015250565b5f611ab06015836112e8565b9150611abb82611a7c565b602082019050919050565b5f6020820190508181035f830152611add81611aa4565b9050919050565b7f4e6f20746f6b656e7320746f20776974686472617700000000000000000000005f82015250565b5f611b186015836112e8565b9150611b2382611ae4565b602082019050919050565b5f6020820190508181035f830152611b4581611b0c565b9050919050565b5f606082019050611b5f5f8301866110dc565b611b6c60208301856110dc565b611b79604083018461110d565b949350505050565b5f604082019050611b945f8301856110dc565b611ba1602083018461110d565b939250505056fea2646970667358221220b3cc67c450942aad31a55d9e6e8b9bbb96b7a4ce1585b261a2ec64600fa5c39464736f6c634300081c0033",
					"opcodes": "PUSH1 0x80 PUSH1 0x40 MSTORE PUSH20 0xFCF8D2B098B3160654BBADA1A8769483C71C288B PUSH1 0x4 PUSH0 PUSH2 0x100 EXP DUP2 SLOAD DUP2 PUSH20 0xFFFFFFFFFFFFFFFFFFFFFFFFFFFFFFFFFFFFFFFF MUL NOT AND SWAP1 DUP4 PUSH20 0xFFFFFFFFFFFFFFFFFFFFFFFFFFFFFFFFFFFFFFFF AND MUL OR SWAP1 SSTORE POP CALLVALUE DUP1 ISZERO PUSH2 0x63 JUMPI PUSH0 PUSH0 REVERT JUMPDEST POP CALLER PUSH1 0x1 PUSH0 DUP2 SWAP1 SSTORE POP PUSH0 PUSH20 0xFFFFFFFFFFFFFFFFFFFFFFFFFFFFFFFFFFFFFFFF AND DUP2 PUSH20 0xFFFFFFFFFFFFFFFFFFFFFFFFFFFFFFFFFFFFFFFF AND SUB PUSH2 0xDC JUMPI PUSH0 PUSH1 0x40 MLOAD PUSH32 0x1E4FBDF700000000000000000000000000000000000000000000000000000000 DUP2 MSTORE PUSH1 0x4 ADD PUSH2 0xD3 SWAP2 SWAP1 PUSH2 0x1F3 JUMP JUMPDEST PUSH1 0x40 MLOAD DUP1 SWAP2 SUB SWAP1 REVERT JUMPDEST PUSH2 0xEB DUP2 PUSH2 0xF1 PUSH1 0x20 SHL PUSH1 0x20 SHR JUMP JUMPDEST POP PUSH2 0x20C JUMP JUMPDEST PUSH0 PUSH1 0x1 PUSH0 SWAP1 SLOAD SWAP1 PUSH2 0x100 EXP SWAP1 DIV PUSH20 0xFFFFFFFFFFFFFFFFFFFFFFFFFFFFFFFFFFFFFFFF AND SWAP1 POP DUP2 PUSH1 0x1 PUSH0 PUSH2 0x100 EXP DUP2 SLOAD DUP2 PUSH20 0xFFFFFFFFFFFFFFFFFFFFFFFFFFFFFFFFFFFFFFFF MUL NOT AND SWAP1 DUP4 PUSH20 0xFFFFFFFFFFFFFFFFFFFFFFFFFFFFFFFFFFFFFFFF AND MUL OR SWAP1 SSTORE POP DUP2 PUSH20 0xFFFFFFFFFFFFFFFFFFFFFFFFFFFFFFFFFFFFFFFF AND DUP2 PUSH20 0xFFFFFFFFFFFFFFFFFFFFFFFFFFFFFFFFFFFFFFFF AND PUSH32 0x8BE0079C531659141344CD1FD0A4F28419497F9722A3DAAFE3B4186F6B6457E0 PUSH1 0x40 MLOAD PUSH1 0x40 MLOAD DUP1 SWAP2 SUB SWAP1 LOG3 POP POP JUMP JUMPDEST PUSH0 PUSH20 0xFFFFFFFFFFFFFFFFFFFFFFFFFFFFFFFFFFFFFFFF DUP3 AND SWAP1 POP SWAP2 SWAP1 POP JUMP JUMPDEST PUSH0 PUSH2 0x1DD DUP3 PUSH2 0x1B4 JUMP JUMPDEST SWAP1 POP SWAP2 SWAP1 POP JUMP JUMPDEST PUSH2 0x1ED DUP2 PUSH2 0x1D3 JUMP JUMPDEST DUP3 MSTORE POP POP JUMP JUMPDEST PUSH0 PUSH1 0x20 DUP3 ADD SWAP1 POP PUSH2 0x206 PUSH0 DUP4 ADD DUP5 PUSH2 0x1E4 JUMP JUMPDEST SWAP3 SWAP2 POP POP JUMP JUMPDEST PUSH2 0x1BDE DUP1 PUSH2 0x219 PUSH0 CODECOPY PUSH0 RETURN INVALID PUSH1 0x80 PUSH1 0x40 MSTORE CALLVALUE DUP1 ISZERO PUSH2 0xF JUMPI PUSH0 PUSH0 REVERT JUMPDEST POP PUSH1 0x4 CALLDATASIZE LT PUSH2 0xB2 JUMPI PUSH0 CALLDATALOAD PUSH1 0xE0 SHR DUP1 PUSH4 0x7D60B6CE GT PUSH2 0x6F JUMPI DUP1 PUSH4 0x7D60B6CE EQ PUSH2 0x154 JUMPI DUP1 PUSH4 0x8DA5CB5B EQ PUSH2 0x170 JUMPI DUP1 PUSH4 0x9FFAE41B EQ PUSH2 0x18E JUMPI DUP1 PUSH4 0xDE74E57B EQ PUSH2 0x1AA JUMPI DUP1 PUSH4 0xF25713BF EQ PUSH2 0x1DE JUMPI DUP1 PUSH4 0xF2FDE38B EQ PUSH2 0x1FA JUMPI PUSH2 0xB2 JUMP JUMPDEST DUP1 PUSH4 0x17C73FF0 EQ PUSH2 0xB6 JUMPI DUP1 PUSH4 0x1BF1DE9B EQ PUSH2 0xD4 JUMPI DUP1 PUSH4 0x24F56AFA EQ PUSH2 0xF2 JUMPI DUP1 PUSH4 0x27722E62 EQ PUSH2 0x10E JUMPI DUP1 PUSH4 0x6C2C9C7D EQ PUSH2 0x12C JUMPI DUP1 PUSH4 0x715018A6 EQ PUSH2 0x14A JUMPI JUMPDEST PUSH0 PUSH0 REVERT JUMPDEST PUSH2 0xBE PUSH2 0x216 JUMP JUMPDEST PUSH1 0x40 MLOAD PUSH2 0xCB SWAP2 SWAP1 PUSH2 0x10EB JUMP JUMPDEST PUSH1 0x40 MLOAD DUP1 SWAP2 SUB SWAP1 RETURN JUMPDEST PUSH2 0xDC PUSH2 0x23B JUMP JUMPDEST PUSH1 0x40 MLOAD PUSH2 0xE9 SWAP2 SWAP1 PUSH2 0x111C JUMP JUMPDEST PUSH1 0x40 MLOAD DUP1 SWAP2 SUB SWAP1 RETURN JUMPDEST PUSH2 0x10C PUSH1 0x4 DUP1 CALLDATASIZE SUB DUP2 ADD SWAP1 PUSH2 0x107 SWAP2 SWAP1 PUSH2 0x1163 JUMP JUMPDEST PUSH2 0x240 JUMP JUMPDEST STOP JUMPDEST PUSH2 0x116 PUSH2 0x5F0 JUMP JUMPDEST PUSH1 0x40 MLOAD PUSH2 0x123 SWAP2 SWAP1 PUSH2 0x10EB JUMP JUMPDEST PUSH1 0x40 MLOAD DUP1 SWAP2 SUB SWAP1 RETURN JUMPDEST PUSH2 0x134 PUSH2 0x608 JUMP JUMPDEST PUSH1 0x40 MLOAD PUSH2 0x141 SWAP2 SWAP1 PUSH2 0x111C JUMP JUMPDEST PUSH1 0x40 MLOAD DUP1 SWAP2 SUB SWAP1 RETURN JUMPDEST PUSH2 0x152 PUSH2 0x60E JUMP JUMPDEST STOP JUMPDEST PUSH2 0x16E PUSH1 0x4 DUP1 CALLDATASIZE SUB DUP2 ADD SWAP1 PUSH2 0x169 SWAP2 SWAP1 PUSH2 0x11DD JUMP JUMPDEST PUSH2 0x621 JUMP JUMPDEST STOP JUMPDEST PUSH2 0x178 PUSH2 0x6DA JUMP JUMPDEST PUSH1 0x40 MLOAD PUSH2 0x185 SWAP2 SWAP1 PUSH2 0x10EB JUMP JUMPDEST PUSH1 0x40 MLOAD DUP1 SWAP2 SUB SWAP1 RETURN JUMPDEST PUSH2 0x1A8 PUSH1 0x4 DUP1 CALLDATASIZE SUB DUP2 ADD SWAP1 PUSH2 0x1A3 SWAP2 SWAP1 PUSH2 0x1208 JUMP JUMPDEST PUSH2 0x702 JUMP JUMPDEST STOP JUMPDEST PUSH2 0x1C4 PUSH1 0x4 DUP1 CALLDATASIZE SUB DUP2 ADD SWAP1 PUSH2 0x1BF SWAP2 SWAP1 PUSH2 0x126C JUMP JUMPDEST PUSH2 0xAD5 JUMP JUMPDEST PUSH1 0x40 MLOAD PUSH2 0x1D5 SWAP6 SWAP5 SWAP4 SWAP3 SWAP2 SWAP1 PUSH2 0x1297 JUMP JUMPDEST PUSH1 0x40 MLOAD DUP1 SWAP2 SUB SWAP1 RETURN JUMPDEST PUSH2 0x1F8 PUSH1 0x4 DUP1 CALLDATASIZE SUB DUP2 ADD SWAP1 PUSH2 0x1F3 SWAP2 SWAP1 PUSH2 0x126C JUMP JUMPDEST PUSH2 0xB45 JUMP JUMPDEST STOP JUMPDEST PUSH2 0x214 PUSH1 0x4 DUP1 CALLDATASIZE SUB DUP2 ADD SWAP1 PUSH2 0x20F SWAP2 SWAP1 PUSH2 0x11DD JUMP JUMPDEST PUSH2 0xCEE JUMP JUMPDEST STOP JUMPDEST PUSH1 0x4 PUSH0 SWAP1 SLOAD SWAP1 PUSH2 0x100 EXP SWAP1 DIV PUSH20 0xFFFFFFFFFFFFFFFFFFFFFFFFFFFFFFFFFFFFFFFF AND DUP2 JUMP JUMPDEST PUSH1 0xA DUP2 JUMP JUMPDEST PUSH2 0x248 PUSH2 0xD72 JUMP JUMPDEST PUSH0 PUSH1 0x2 PUSH0 DUP6 DUP2 MSTORE PUSH1 0x20 ADD SWAP1 DUP2 MSTORE PUSH1 0x20 ADD PUSH0 KECCAK256 SWAP1 POP PUSH0 DUP2 PUSH1 0x2 ADD SLOAD GT PUSH2 0x2A2 JUMPI PUSH1 0x40 MLOAD PUSH32 0x8C379A000000000000000000000000000000000000000000000000000000000 DUP2 MSTORE PUSH1 0x4 ADD PUSH2 0x299 SWAP1 PUSH2 0x1342 JUMP JUMPDEST PUSH1 0x40 MLOAD DUP1 SWAP2 SUB SWAP1 REVERT JUMPDEST DUP1 PUSH1 0x4 ADD SLOAD TIMESTAMP GT ISZERO PUSH2 0x2E9 JUMPI PUSH1 0x40 MLOAD PUSH32 0x8C379A000000000000000000000000000000000000000000000000000000000 DUP2 MSTORE PUSH1 0x4 ADD PUSH2 0x2E0 SWAP1 PUSH2 0x13AA JUMP JUMPDEST PUSH1 0x40 MLOAD DUP1 SWAP2 SUB SWAP1 REVERT JUMPDEST DUP3 DUP2 PUSH1 0x2 ADD SLOAD LT ISZERO PUSH2 0x330 JUMPI PUSH1 0x40 MLOAD PUSH32 0x8C379A000000000000000000000000000000000000000000000000000000000 DUP2 MSTORE PUSH1 0x4 ADD PUSH2 0x327 SWAP1 PUSH2 0x1412 JUMP JUMPDEST PUSH1 0x40 MLOAD DUP1 SWAP2 SUB SWAP1 REVERT JUMPDEST PUSH0 DUP4 DUP3 PUSH1 0x1 ADD SLOAD PUSH2 0x341 SWAP2 SWAP1 PUSH2 0x145D JUMP JUMPDEST SWAP1 POP PUSH0 PUSH1 0x64 PUSH1 0xA DUP4 PUSH2 0x353 SWAP2 SWAP1 PUSH2 0x145D JUMP JUMPDEST PUSH2 0x35D SWAP2 SWAP1 PUSH2 0x14CB JUMP JUMPDEST SWAP1 POP PUSH0 DUP2 DUP4 PUSH2 0x36C SWAP2 SWAP1 PUSH2 0x14FB JUMP JUMPDEST SWAP1 POP DUP1 DUP6 EQ PUSH2 0x3B0 JUMPI PUSH1 0x40 MLOAD PUSH32 0x8C379A000000000000000000000000000000000000000000000000000000000 DUP2 MSTORE PUSH1 0x4 ADD PUSH2 0x3A7 SWAP1 PUSH2 0x1578 JUMP JUMPDEST PUSH1 0x40 MLOAD DUP1 SWAP2 SUB SWAP1 REVERT JUMPDEST PUSH0 PUSH20 0x5FDAF637AED59B2E6D384D9E84D8AC5CF03C6697 SWAP1 POP DUP6 DUP2 PUSH20 0xFFFFFFFFFFFFFFFFFFFFFFFFFFFFFFFFFFFFFFFF AND PUSH4 0xDD62ED3E CALLER ADDRESS PUSH1 0x40 MLOAD DUP4 PUSH4 0xFFFFFFFF AND PUSH1 0xE0 SHL DUP2 MSTORE PUSH1 0x4 ADD PUSH2 0x404 SWAP3 SWAP2 SWAP1 PUSH2 0x1596 JUMP JUMPDEST PUSH1 0x20 PUSH1 0x40 MLOAD DUP1 DUP4 SUB DUP2 DUP7 GAS STATICCALL ISZERO DUP1 ISZERO PUSH2 0x41F JUMPI RETURNDATASIZE PUSH0 PUSH0 RETURNDATACOPY RETURNDATASIZE PUSH0 REVERT JUMPDEST POP POP POP POP PUSH1 0x40 MLOAD RETURNDATASIZE PUSH1 0x1F NOT PUSH1 0x1F DUP3 ADD AND DUP3 ADD DUP1 PUSH1 0x40 MSTORE POP DUP2 ADD SWAP1 PUSH2 0x443 SWAP2 SWAP1 PUSH2 0x15D1 JUMP JUMPDEST LT ISZERO PUSH2 0x484 JUMPI PUSH1 0x40 MLOAD PUSH32 0x8C379A000000000000000000000000000000000000000000000000000000000 DUP2 MSTORE PUSH1 0x4 ADD PUSH2 0x47B SWAP1 PUSH2 0x1646 JUMP JUMPDEST PUSH1 0x40 MLOAD DUP1 SWAP2 SUB SWAP1 REVERT JUMPDEST PUSH2 0x4D2 CALLER PUSH1 0x4 PUSH0 SWAP1 SLOAD SWAP1 PUSH2 0x100 EXP SWAP1 DIV PUSH20 0xFFFFFFFFFFFFFFFFFFFFFFFFFFFFFFFFFFFFFFFF AND DUP6 DUP5 PUSH20 0xFFFFFFFFFFFFFFFFFFFFFFFFFFFFFFFFFFFFFFFF AND PUSH2 0xDB6 SWAP1 SWAP4 SWAP3 SWAP2 SWAP1 PUSH4 0xFFFFFFFF AND JUMP JUMPDEST PUSH2 0x522 CALLER DUP7 PUSH1 0x3 ADD PUSH0 SWAP1 SLOAD SWAP1 PUSH2 0x100 EXP SWAP1 DIV PUSH20 0xFFFFFFFFFFFFFFFFFFFFFFFFFFFFFFFFFFFFFFFF AND DUP7 DUP5 PUSH20 0xFFFFFFFFFFFFFFFFFFFFFFFFFFFFFFFFFFFFFFFF AND PUSH2 0xDB6 SWAP1 SWAP4 SWAP3 SWAP2 SWAP1 PUSH4 0xFFFFFFFF AND JUMP JUMPDEST DUP7 DUP6 PUSH1 0x2 ADD PUSH0 DUP3 DUP3 SLOAD PUSH2 0x535 SWAP2 SWAP1 PUSH2 0x1664 JUMP JUMPDEST SWAP3 POP POP DUP2 SWAP1 SSTORE POP PUSH2 0x589 CALLER DUP9 DUP8 PUSH0 ADD PUSH0 SWAP1 SLOAD SWAP1 PUSH2 0x100 EXP SWAP1 DIV PUSH20 0xFFFFFFFFFFFFFFFFFFFFFFFFFFFFFFFFFFFFFFFF AND PUSH20 0xFFFFFFFFFFFFFFFFFFFFFFFFFFFFFFFFFFFFFFFF AND PUSH2 0xE38 SWAP1 SWAP3 SWAP2 SWAP1 PUSH4 0xFFFFFFFF AND JUMP JUMPDEST CALLER PUSH20 0xFFFFFFFFFFFFFFFFFFFFFFFFFFFFFFFFFFFFFFFF AND PUSH32 0xDCA20547336C56209D6BCCBFED1076A61D517D52A47986A7086DF1977B10DAF5 DUP10 DUP10 DUP8 PUSH1 0x1 PUSH1 0x40 MLOAD PUSH2 0x5D6 SWAP5 SWAP4 SWAP3 SWAP2 SWAP1 PUSH2 0x16B1 JUMP JUMPDEST PUSH1 0x40 MLOAD DUP1 SWAP2 SUB SWAP1 LOG2 POP POP POP POP POP PUSH2 0x5EB PUSH2 0xEB7 JUMP JUMPDEST POP POP POP JUMP JUMPDEST PUSH20 0x5FDAF637AED59B2E6D384D9E84D8AC5CF03C6697 DUP2 JUMP JUMPDEST PUSH1 0x3 SLOAD DUP2 JUMP JUMPDEST PUSH2 0x616 PUSH2 0xEC0 JUMP JUMPDEST PUSH2 0x61F PUSH0 PUSH2 0xF47 JUMP JUMPDEST JUMP JUMPDEST PUSH2 0x629 PUSH2 0xEC0 JUMP JUMPDEST PUSH0 PUSH20 0xFFFFFFFFFFFFFFFFFFFFFFFFFFFFFFFFFFFFFFFF AND DUP2 PUSH20 0xFFFFFFFFFFFFFFFFFFFFFFFFFFFFFFFFFFFFFFFF AND SUB PUSH2 0x697 JUMPI PUSH1 0x40 MLOAD PUSH32 0x8C379A000000000000000000000000000000000000000000000000000000000 DUP2 MSTORE PUSH1 0x4 ADD PUSH2 0x68E SWAP1 PUSH2 0x173E JUMP JUMPDEST PUSH1 0x40 MLOAD DUP1 SWAP2 SUB SWAP1 REVERT JUMPDEST DUP1 PUSH1 0x4 PUSH0 PUSH2 0x100 EXP DUP2 SLOAD DUP2 PUSH20 0xFFFFFFFFFFFFFFFFFFFFFFFFFFFFFFFFFFFFFFFF MUL NOT AND SWAP1 DUP4 PUSH20 0xFFFFFFFFFFFFFFFFFFFFFFFFFFFFFFFFFFFFFFFF AND MUL OR SWAP1 SSTORE POP POP JUMP JUMPDEST PUSH0 PUSH1 0x1 PUSH0 SWAP1 SLOAD SWAP1 PUSH2 0x100 EXP SWAP1 DIV PUSH20 0xFFFFFFFFFFFFFFFFFFFFFFFFFFFFFFFFFFFFFFFF AND SWAP1 POP SWAP1 JUMP JUMPDEST PUSH0 DUP5 GT PUSH2 0x744 JUMPI PUSH1 0x40 MLOAD PUSH32 0x8C379A000000000000000000000000000000000000000000000000000000000 DUP2 MSTORE PUSH1 0x4 ADD PUSH2 0x73B SWAP1 PUSH2 0x17A6 JUMP JUMPDEST PUSH1 0x40 MLOAD DUP1 SWAP2 SUB SWAP1 REVERT JUMPDEST PUSH0 DUP3 GT PUSH2 0x786 JUMPI PUSH1 0x40 MLOAD PUSH32 0x8C379A000000000000000000000000000000000000000000000000000000000 DUP2 MSTORE PUSH1 0x4 ADD PUSH2 0x77D SWAP1 PUSH2 0x180E JUMP JUMPDEST PUSH1 0x40 MLOAD DUP1 SWAP2 SUB SWAP1 REVERT JUMPDEST PUSH0 DUP2 GT PUSH2 0x7C8 JUMPI PUSH1 0x40 MLOAD PUSH32 0x8C379A000000000000000000000000000000000000000000000000000000000 DUP2 MSTORE PUSH1 0x4 ADD PUSH2 0x7BF SWAP1 PUSH2 0x189C JUMP JUMPDEST PUSH1 0x40 MLOAD DUP1 SWAP2 SUB SWAP1 REVERT JUMPDEST PUSH0 PUSH20 0xFFFFFFFFFFFFFFFFFFFFFFFFFFFFFFFFFFFFFFFF AND DUP4 PUSH20 0xFFFFFFFFFFFFFFFFFFFFFFFFFFFFFFFFFFFFFFFF AND SUB PUSH2 0x836 JUMPI PUSH1 0x40 MLOAD PUSH32 0x8C379A000000000000000000000000000000000000000000000000000000000 DUP2 MSTORE PUSH1 0x4 ADD PUSH2 0x82D SWAP1 PUSH2 0x1904 JUMP JUMPDEST PUSH1 0x40 MLOAD DUP1 SWAP2 SUB SWAP1 REVERT JUMPDEST PUSH0 DUP4 SWAP1 POP DUP3 DUP2 PUSH20 0xFFFFFFFFFFFFFFFFFFFFFFFFFFFFFFFFFFFFFFFF AND PUSH4 0xDD62ED3E CALLER ADDRESS PUSH1 0x40 MLOAD DUP4 PUSH4 0xFFFFFFFF AND PUSH1 0xE0 SHL DUP2 MSTORE PUSH1 0x4 ADD PUSH2 0x876 SWAP3 SWAP2 SWAP1 PUSH2 0x1596 JUMP JUMPDEST PUSH1 0x20 PUSH1 0x40 MLOAD DUP1 DUP4 SUB DUP2 DUP7 GAS STATICCALL ISZERO DUP1 ISZERO PUSH2 0x891 JUMPI RETURNDATASIZE PUSH0 PUSH0 RETURNDATACOPY RETURNDATASIZE PUSH0 REVERT JUMPDEST POP POP POP POP PUSH1 0x40 MLOAD RETURNDATASIZE PUSH1 0x1F NOT PUSH1 0x1F DUP3 ADD AND DUP3 ADD DUP1 PUSH1 0x40 MSTORE POP DUP2 ADD SWAP1 PUSH2 0x8B5 SWAP2 SWAP1 PUSH2 0x15D1 JUMP JUMPDEST LT ISZERO PUSH2 0x8F6 JUMPI PUSH1 0x40 MLOAD PUSH32 0x8C379A000000000000000000000000000000000000000000000000000000000 DUP2 MSTORE PUSH1 0x4 ADD PUSH2 0x8ED SWAP1 PUSH2 0x196C JUMP JUMPDEST PUSH1 0x40 MLOAD DUP1 SWAP2 SUB SWAP1 REVERT JUMPDEST PUSH2 0x923 CALLER ADDRESS DUP6 DUP5 PUSH20 0xFFFFFFFFFFFFFFFFFFFFFFFFFFFFFFFFFFFFFFFF AND PUSH2 0xDB6 SWAP1 SWAP4 SWAP3 SWAP2 SWAP1 PUSH4 0xFFFFFFFF AND JUMP JUMPDEST PUSH1 0x3 PUSH0 DUP2 SLOAD DUP1 SWAP3 SWAP2 SWAP1 PUSH2 0x935 SWAP1 PUSH2 0x198A JUMP JUMPDEST SWAP2 SWAP1 POP SSTORE POP PUSH1 0x40 MLOAD DUP1 PUSH1 0xA0 ADD PUSH1 0x40 MSTORE DUP1 DUP6 PUSH20 0xFFFFFFFFFFFFFFFFFFFFFFFFFFFFFFFFFFFFFFFF AND DUP2 MSTORE PUSH1 0x20 ADD DUP7 DUP2 MSTORE PUSH1 0x20 ADD DUP5 DUP2 MSTORE PUSH1 0x20 ADD CALLER PUSH20 0xFFFFFFFFFFFFFFFFFFFFFFFFFFFFFFFFFFFFFFFF AND DUP2 MSTORE PUSH1 0x20 ADD DUP4 TIMESTAMP PUSH2 0x995 SWAP2 SWAP1 PUSH2 0x14FB JUMP JUMPDEST DUP2 MSTORE POP PUSH1 0x2 PUSH0 PUSH1 0x3 SLOAD DUP2 MSTORE PUSH1 0x20 ADD SWAP1 DUP2 MSTORE PUSH1 0x20 ADD PUSH0 KECCAK256 PUSH0 DUP3 ADD MLOAD DUP2 PUSH0 ADD PUSH0 PUSH2 0x100 EXP DUP2 SLOAD DUP2 PUSH20 0xFFFFFFFFFFFFFFFFFFFFFFFFFFFFFFFFFFFFFFFF MUL NOT AND SWAP1 DUP4 PUSH20 0xFFFFFFFFFFFFFFFFFFFFFFFFFFFFFFFFFFFFFFFF AND MUL OR SWAP1 SSTORE POP PUSH1 0x20 DUP3 ADD MLOAD DUP2 PUSH1 0x1 ADD SSTORE PUSH1 0x40 DUP3 ADD MLOAD DUP2 PUSH1 0x2 ADD SSTORE PUSH1 0x60 DUP3 ADD MLOAD DUP2 PUSH1 0x3 ADD PUSH0 PUSH2 0x100 EXP DUP2 SLOAD DUP2 PUSH20 0xFFFFFFFFFFFFFFFFFFFFFFFFFFFFFFFFFFFFFFFF MUL NOT AND SWAP1 DUP4 PUSH20 0xFFFFFFFFFFFFFFFFFFFFFFFFFFFFFFFFFFFFFFFF AND MUL OR SWAP1 SSTORE POP PUSH1 0x80 DUP3 ADD MLOAD DUP2 PUSH1 0x4 ADD SSTORE SWAP1 POP POP DUP4 PUSH20 0xFFFFFFFFFFFFFFFFFFFFFFFFFFFFFFFFFFFFFFFF AND CALLER PUSH20 0xFFFFFFFFFFFFFFFFFFFFFFFFFFFFFFFFFFFFFFFF AND PUSH32 0xC8636A22D2315A33DE4785339601BB7299EBC1E02CF0D9F22776C7692EE3803B PUSH1 0x3 SLOAD DUP9 DUP8 DUP8 TIMESTAMP PUSH2 0xAB6 SWAP2 SWAP1 PUSH2 0x14FB JUMP JUMPDEST PUSH1 0x40 MLOAD PUSH2 0xAC6 SWAP5 SWAP4 SWAP3 SWAP2 SWAP1 PUSH2 0x19D1 JUMP JUMPDEST PUSH1 0x40 MLOAD DUP1 SWAP2 SUB SWAP1 LOG3 POP POP POP POP POP JUMP JUMPDEST PUSH1 0x2 PUSH1 0x20 MSTORE DUP1 PUSH0 MSTORE PUSH1 0x40 PUSH0 KECCAK256 PUSH0 SWAP2 POP SWAP1 POP DUP1 PUSH0 ADD PUSH0 SWAP1 SLOAD SWAP1 PUSH2 0x100 EXP SWAP1 DIV PUSH20 0xFFFFFFFFFFFFFFFFFFFFFFFFFFFFFFFFFFFFFFFF AND SWAP1 DUP1 PUSH1 0x1 ADD SLOAD SWAP1 DUP1 PUSH1 0x2 ADD SLOAD SWAP1 DUP1 PUSH1 0x3 ADD PUSH0 SWAP1 SLOAD SWAP1 PUSH2 0x100 EXP SWAP1 DIV PUSH20 0xFFFFFFFFFFFFFFFFFFFFFFFFFFFFFFFFFFFFFFFF AND SWAP1 DUP1 PUSH1 0x4 ADD SLOAD SWAP1 POP DUP6 JUMP JUMPDEST PUSH2 0xB4D PUSH2 0xD72 JUMP JUMPDEST PUSH0 PUSH1 0x2 PUSH0 DUP4 DUP2 MSTORE PUSH1 0x20 ADD SWAP1 DUP2 MSTORE PUSH1 0x20 ADD PUSH0 KECCAK256 SWAP1 POP DUP1 PUSH1 0x3 ADD PUSH0 SWAP1 SLOAD SWAP1 PUSH2 0x100 EXP SWAP1 DIV PUSH20 0xFFFFFFFFFFFFFFFFFFFFFFFFFFFFFFFFFFFFFFFF AND PUSH20 0xFFFFFFFFFFFFFFFFFFFFFFFFFFFFFFFFFFFFFFFF AND CALLER PUSH20 0xFFFFFFFFFFFFFFFFFFFFFFFFFFFFFFFFFFFFFFFF AND EQ PUSH2 0xBF2 JUMPI PUSH1 0x40 MLOAD PUSH32 0x8C379A000000000000000000000000000000000000000000000000000000000 DUP2 MSTORE PUSH1 0x4 ADD PUSH2 0xBE9 SWAP1 PUSH2 0x1A5E JUMP JUMPDEST PUSH1 0x40 MLOAD DUP1 SWAP2 SUB SWAP1 REVERT JUMPDEST DUP1 PUSH1 0x4 ADD SLOAD TIMESTAMP GT PUSH2 0xC38 JUMPI PUSH1 0x40 MLOAD PUSH32 0x8C379A000000000000000000000000000000000000000000000000000000000 DUP2 MSTORE PUSH1 0x4 ADD PUSH2 0xC2F SWAP1 PUSH2 0x1AC6 JUMP JUMPDEST PUSH1 0x40 MLOAD DUP1 SWAP2 SUB SWAP1 REVERT JUMPDEST PUSH0 DUP2 PUSH1 0x2 ADD SLOAD GT PUSH2 0xC7E JUMPI PUSH1 0x40 MLOAD PUSH32 0x8C379A000000000000000000000000000000000000000000000000000000000 DUP2 MSTORE PUSH1 0x4 ADD PUSH2 0xC75 SWAP1 PUSH2 0x1B2E JUMP JUMPDEST PUSH1 0x40 MLOAD DUP1 SWAP2 SUB SWAP1 REVERT JUMPDEST PUSH0 DUP2 PUSH1 0x2 ADD SLOAD SWAP1 POP PUSH0 DUP3 PUSH1 0x2 ADD DUP2 SWAP1 SSTORE POP PUSH0 DUP3 PUSH0 ADD PUSH0 SWAP1 SLOAD SWAP1 PUSH2 0x100 EXP SWAP1 DIV PUSH20 0xFFFFFFFFFFFFFFFFFFFFFFFFFFFFFFFFFFFFFFFF AND SWAP1 POP PUSH2 0xCE0 CALLER DUP4 DUP4 PUSH20 0xFFFFFFFFFFFFFFFFFFFFFFFFFFFFFFFFFFFFFFFF AND PUSH2 0xE38 SWAP1 SWAP3 SWAP2 SWAP1 PUSH4 0xFFFFFFFF AND JUMP JUMPDEST POP POP POP PUSH2 0xCEB PUSH2 0xEB7 JUMP JUMPDEST POP JUMP JUMPDEST PUSH2 0xCF6 PUSH2 0xEC0 JUMP JUMPDEST PUSH0 PUSH20 0xFFFFFFFFFFFFFFFFFFFFFFFFFFFFFFFFFFFFFFFF AND DUP2 PUSH20 0xFFFFFFFFFFFFFFFFFFFFFFFFFFFFFFFFFFFFFFFF AND SUB PUSH2 0xD66 JUMPI PUSH0 PUSH1 0x40 MLOAD PUSH32 0x1E4FBDF700000000000000000000000000000000000000000000000000000000 DUP2 MSTORE PUSH1 0x4 ADD PUSH2 0xD5D SWAP2 SWAP1 PUSH2 0x10EB JUMP JUMPDEST PUSH1 0x40 MLOAD DUP1 SWAP2 SUB SWAP1 REVERT JUMPDEST PUSH2 0xD6F DUP2 PUSH2 0xF47 JUMP JUMPDEST POP JUMP JUMPDEST PUSH1 0x2 PUSH0 SLOAD SUB PUSH2 0xDAD JUMPI PUSH1 0x40 MLOAD PUSH32 0x3EE5AEB500000000000000000000000000000000000000000000000000000000 DUP2 MSTORE PUSH1 0x4 ADD PUSH1 0x40 MLOAD DUP1 SWAP2 SUB SWAP1 REVERT JUMPDEST PUSH1 0x2 PUSH0 DUP2 SWAP1 SSTORE POP JUMP JUMPDEST PUSH2 0xE32 DUP5 DUP6 PUSH20 0xFFFFFFFFFFFFFFFFFFFFFFFFFFFFFFFFFFFFFFFF AND PUSH4 0x23B872DD DUP7 DUP7 DUP7 PUSH1 0x40 MLOAD PUSH1 0x24 ADD PUSH2 0xDEB SWAP4 SWAP3 SWAP2 SWAP1 PUSH2 0x1B4C JUMP JUMPDEST PUSH1 0x40 MLOAD PUSH1 0x20 DUP2 DUP4 SUB SUB DUP2 MSTORE SWAP1 PUSH1 0x40 MSTORE SWAP2 POP PUSH1 0xE0 SHL PUSH1 0x20 DUP3 ADD DUP1 MLOAD PUSH28 0xFFFFFFFFFFFFFFFFFFFFFFFFFFFFFFFFFFFFFFFFFFFFFFFFFFFFFFFF DUP4 DUP2 DUP4 AND OR DUP4 MSTORE POP POP POP POP PUSH2 0x100A JUMP JUMPDEST POP POP POP POP JUMP JUMPDEST PUSH2 0xEB2 DUP4 DUP5 PUSH20 0xFFFFFFFFFFFFFFFFFFFFFFFFFFFFFFFFFFFFFFFF AND PUSH4 0xA9059CBB DUP6 DUP6 PUSH1 0x40 MLOAD PUSH1 0x24 ADD PUSH2 0xE6B SWAP3 SWAP2 SWAP1 PUSH2 0x1B81 JUMP JUMPDEST PUSH1 0x40 MLOAD PUSH1 0x20 DUP2 DUP4 SUB SUB DUP2 MSTORE SWAP1 PUSH1 0x40 MSTORE SWAP2 POP PUSH1 0xE0 SHL PUSH1 0x20 DUP3 ADD DUP1 MLOAD PUSH28 0xFFFFFFFFFFFFFFFFFFFFFFFFFFFFFFFFFFFFFFFFFFFFFFFFFFFFFFFF DUP4 DUP2 DUP4 AND OR DUP4 MSTORE POP POP POP POP PUSH2 0x100A JUMP JUMPDEST POP POP POP JUMP JUMPDEST PUSH1 0x1 PUSH0 DUP2 SWAP1 SSTORE POP JUMP JUMPDEST PUSH2 0xEC8 PUSH2 0x10A5 JUMP JUMPDEST PUSH20 0xFFFFFFFFFFFFFFFFFFFFFFFFFFFFFFFFFFFFFFFF AND PUSH2 0xEE6 PUSH2 0x6DA JUMP JUMPDEST PUSH20 0xFFFFFFFFFFFFFFFFFFFFFFFFFFFFFFFFFFFFFFFF AND EQ PUSH2 0xF45 JUMPI PUSH2 0xF09 PUSH2 0x10A5 JUMP JUMPDEST PUSH1 0x40 MLOAD PUSH32 0x118CDAA700000000000000000000000000000000000000000000000000000000 DUP2 MSTORE PUSH1 0x4 ADD PUSH2 0xF3C SWAP2 SWAP1 PUSH2 0x10EB JUMP JUMPDEST PUSH1 0x40 MLOAD DUP1 SWAP2 SUB SWAP1 REVERT JUMPDEST JUMP JUMPDEST PUSH0 PUSH1 0x1 PUSH0 SWAP1 SLOAD SWAP1 PUSH2 0x100 EXP SWAP1 DIV PUSH20 0xFFFFFFFFFFFFFFFFFFFFFFFFFFFFFFFFFFFFFFFF AND SWAP1 POP DUP2 PUSH1 0x1 PUSH0 PUSH2 0x100 EXP DUP2 SLOAD DUP2 PUSH20 0xFFFFFFFFFFFFFFFFFFFFFFFFFFFFFFFFFFFFFFFF MUL NOT AND SWAP1 DUP4 PUSH20 0xFFFFFFFFFFFFFFFFFFFFFFFFFFFFFFFFFFFFFFFF AND MUL OR SWAP1 SSTORE POP DUP2 PUSH20 0xFFFFFFFFFFFFFFFFFFFFFFFFFFFFFFFFFFFFFFFF AND DUP2 PUSH20 0xFFFFFFFFFFFFFFFFFFFFFFFFFFFFFFFFFFFFFFFF AND PUSH32 0x8BE0079C531659141344CD1FD0A4F28419497F9722A3DAAFE3B4186F6B6457E0 PUSH1 0x40 MLOAD PUSH1 0x40 MLOAD DUP1 SWAP2 SUB SWAP1 LOG3 POP POP JUMP JUMPDEST PUSH0 PUSH0 PUSH1 0x20 PUSH0 DUP5 MLOAD PUSH1 0x20 DUP7 ADD PUSH0 DUP9 GAS CALL DUP1 PUSH2 0x1029 JUMPI PUSH1 0x40 MLOAD RETURNDATASIZE PUSH0 DUP3 RETURNDATACOPY RETURNDATASIZE DUP2 REVERT JUMPDEST RETURNDATASIZE SWAP3 POP PUSH0 MLOAD SWAP2 POP POP PUSH0 DUP3 EQ PUSH2 0x1042 JUMPI PUSH1 0x1 DUP2 EQ ISZERO PUSH2 0x105D JUMP JUMPDEST PUSH0 DUP5 PUSH20 0xFFFFFFFFFFFFFFFFFFFFFFFFFFFFFFFFFFFFFFFF AND EXTCODESIZE EQ JUMPDEST ISZERO PUSH2 0x109F JUMPI DUP4 PUSH1 0x40 MLOAD PUSH32 0x5274AFE700000000000000000000000000000000000000000000000000000000 DUP2 MSTORE PUSH1 0x4 ADD PUSH2 0x1096 SWAP2 SWAP1 PUSH2 0x10EB JUMP JUMPDEST PUSH1 0x40 MLOAD DUP1 SWAP2 SUB SWAP1 REVERT JUMPDEST POP POP POP POP JUMP JUMPDEST PUSH0 CALLER SWAP1 POP SWAP1 JUMP JUMPDEST PUSH0 PUSH20 0xFFFFFFFFFFFFFFFFFFFFFFFFFFFFFFFFFFFFFFFF DUP3 AND SWAP1 POP SWAP2 SWAP1 POP JUMP JUMPDEST PUSH0 PUSH2 0x10D5 DUP3 PUSH2 0x10AC JUMP JUMPDEST SWAP1 POP SWAP2 SWAP1 POP JUMP JUMPDEST PUSH2 0x10E5 DUP2 PUSH2 0x10CB JUMP JUMPDEST DUP3 MSTORE POP POP JUMP JUMPDEST PUSH0 PUSH1 0x20 DUP3 ADD SWAP1 POP PUSH2 0x10FE PUSH0 DUP4 ADD DUP5 PUSH2 0x10DC JUMP JUMPDEST SWAP3 SWAP2 POP POP JUMP JUMPDEST PUSH0 DUP2 SWAP1 POP SWAP2 SWAP1 POP JUMP JUMPDEST PUSH2 0x1116 DUP2 PUSH2 0x1104 JUMP JUMPDEST DUP3 MSTORE POP POP JUMP JUMPDEST PUSH0 PUSH1 0x20 DUP3 ADD SWAP1 POP PUSH2 0x112F PUSH0 DUP4 ADD DUP5 PUSH2 0x110D JUMP JUMPDEST SWAP3 SWAP2 POP POP JUMP JUMPDEST PUSH0 PUSH0 REVERT JUMPDEST PUSH2 0x1142 DUP2 PUSH2 0x1104 JUMP JUMPDEST DUP2 EQ PUSH2 0x114C JUMPI PUSH0 PUSH0 REVERT JUMPDEST POP JUMP JUMPDEST PUSH0 DUP2 CALLDATALOAD SWAP1 POP PUSH2 0x115D DUP2 PUSH2 0x1139 JUMP JUMPDEST SWAP3 SWAP2 POP POP JUMP JUMPDEST PUSH0 PUSH0 PUSH0 PUSH1 0x60 DUP5 DUP7 SUB SLT ISZERO PUSH2 0x117A JUMPI PUSH2 0x1179 PUSH2 0x1135 JUMP JUMPDEST JUMPDEST PUSH0 PUSH2 0x1187 DUP7 DUP3 DUP8 ADD PUSH2 0x114F JUMP JUMPDEST SWAP4 POP POP PUSH1 0x20 PUSH2 0x1198 DUP7 DUP3 DUP8 ADD PUSH2 0x114F JUMP JUMPDEST SWAP3 POP POP PUSH1 0x40 PUSH2 0x11A9 DUP7 DUP3 DUP8 ADD PUSH2 0x114F JUMP JUMPDEST SWAP2 POP POP SWAP3 POP SWAP3 POP SWAP3 JUMP JUMPDEST PUSH2 0x11BC DUP2 PUSH2 0x10CB JUMP JUMPDEST DUP2 EQ PUSH2 0x11C6 JUMPI PUSH0 PUSH0 REVERT JUMPDEST POP JUMP JUMPDEST PUSH0 DUP2 CALLDATALOAD SWAP1 POP PUSH2 0x11D7 DUP2 PUSH2 0x11B3 JUMP JUMPDEST SWAP3 SWAP2 POP POP JUMP JUMPDEST PUSH0 PUSH1 0x20 DUP3 DUP5 SUB SLT ISZERO PUSH2 0x11F2 JUMPI PUSH2 0x11F1 PUSH2 0x1135 JUMP JUMPDEST JUMPDEST PUSH0 PUSH2 0x11FF DUP5 DUP3 DUP6 ADD PUSH2 0x11C9 JUMP JUMPDEST SWAP2 POP POP SWAP3 SWAP2 POP POP JUMP JUMPDEST PUSH0 PUSH0 PUSH0 PUSH0 PUSH1 0x80 DUP6 DUP8 SUB SLT ISZERO PUSH2 0x1220 JUMPI PUSH2 0x121F PUSH2 0x1135 JUMP JUMPDEST JUMPDEST PUSH0 PUSH2 0x122D DUP8 DUP3 DUP9 ADD PUSH2 0x114F JUMP JUMPDEST SWAP5 POP POP PUSH1 0x20 PUSH2 0x123E DUP8 DUP3 DUP9 ADD PUSH2 0x11C9 JUMP JUMPDEST SWAP4 POP POP PUSH1 0x40 PUSH2 0x124F DUP8 DUP3 DUP9 ADD PUSH2 0x114F JUMP JUMPDEST SWAP3 POP POP PUSH1 0x60 PUSH2 0x1260 DUP8 DUP3 DUP9 ADD PUSH2 0x114F JUMP JUMPDEST SWAP2 POP POP SWAP3 SWAP6 SWAP2 SWAP5 POP SWAP3 POP JUMP JUMPDEST PUSH0 PUSH1 0x20 DUP3 DUP5 SUB SLT ISZERO PUSH2 0x1281 JUMPI PUSH2 0x1280 PUSH2 0x1135 JUMP JUMPDEST JUMPDEST PUSH0 PUSH2 0x128E DUP5 DUP3 DUP6 ADD PUSH2 0x114F JUMP JUMPDEST SWAP2 POP POP SWAP3 SWAP2 POP POP JUMP JUMPDEST PUSH0 PUSH1 0xA0 DUP3 ADD SWAP1 POP PUSH2 0x12AA PUSH0 DUP4 ADD DUP9 PUSH2 0x10DC JUMP JUMPDEST PUSH2 0x12B7 PUSH1 0x20 DUP4 ADD DUP8 PUSH2 0x110D JUMP JUMPDEST PUSH2 0x12C4 PUSH1 0x40 DUP4 ADD DUP7 PUSH2 0x110D JUMP JUMPDEST PUSH2 0x12D1 PUSH1 0x60 DUP4 ADD DUP6 PUSH2 0x10DC JUMP JUMPDEST PUSH2 0x12DE PUSH1 0x80 DUP4 ADD DUP5 PUSH2 0x110D JUMP JUMPDEST SWAP7 SWAP6 POP POP POP POP POP POP JUMP JUMPDEST PUSH0 DUP3 DUP3 MSTORE PUSH1 0x20 DUP3 ADD SWAP1 POP SWAP3 SWAP2 POP POP JUMP JUMPDEST PUSH32 0x4C697374696E6720646F6573206E6F7420657869737400000000000000000000 PUSH0 DUP3 ADD MSTORE POP JUMP JUMPDEST PUSH0 PUSH2 0x132C PUSH1 0x16 DUP4 PUSH2 0x12E8 JUMP JUMPDEST SWAP2 POP PUSH2 0x1337 DUP3 PUSH2 0x12F8 JUMP JUMPDEST PUSH1 0x20 DUP3 ADD SWAP1 POP SWAP2 SWAP1 POP JUMP JUMPDEST PUSH0 PUSH1 0x20 DUP3 ADD SWAP1 POP DUP2 DUP2 SUB PUSH0 DUP4 ADD MSTORE PUSH2 0x1359 DUP2 PUSH2 0x1320 JUMP JUMPDEST SWAP1 POP SWAP2 SWAP1 POP JUMP JUMPDEST PUSH32 0x4C697374696E6720686173206578706972656400000000000000000000000000 PUSH0 DUP3 ADD MSTORE POP JUMP JUMPDEST PUSH0 PUSH2 0x1394 PUSH1 0x13 DUP4 PUSH2 0x12E8 JUMP JUMPDEST SWAP2 POP PUSH2 0x139F DUP3 PUSH2 0x1360 JUMP JUMPDEST PUSH1 0x20 DUP3 ADD SWAP1 POP SWAP2 SWAP1 POP JUMP JUMPDEST PUSH0 PUSH1 0x20 DUP3 ADD SWAP1 POP DUP2 DUP2 SUB PUSH0 DUP4 ADD MSTORE PUSH2 0x13C1 DUP2 PUSH2 0x1388 JUMP JUMPDEST SWAP1 POP SWAP2 SWAP1 POP JUMP JUMPDEST PUSH32 0x4E6F7420656E6F75676820746F6B656E7320696E206C697374696E6700000000 PUSH0 DUP3 ADD MSTORE POP JUMP JUMPDEST PUSH0 PUSH2 0x13FC PUSH1 0x1C DUP4 PUSH2 0x12E8 JUMP JUMPDEST SWAP2 POP PUSH2 0x1407 DUP3 PUSH2 0x13C8 JUMP JUMPDEST PUSH1 0x20 DUP3 ADD SWAP1 POP SWAP2 SWAP1 POP JUMP JUMPDEST PUSH0 PUSH1 0x20 DUP3 ADD SWAP1 POP DUP2 DUP2 SUB PUSH0 DUP4 ADD MSTORE PUSH2 0x1429 DUP2 PUSH2 0x13F0 JUMP JUMPDEST SWAP1 POP SWAP2 SWAP1 POP JUMP JUMPDEST PUSH32 0x4E487B7100000000000000000000000000000000000000000000000000000000 PUSH0 MSTORE PUSH1 0x11 PUSH1 0x4 MSTORE PUSH1 0x24 PUSH0 REVERT JUMPDEST PUSH0 PUSH2 0x1467 DUP3 PUSH2 0x1104 JUMP JUMPDEST SWAP2 POP PUSH2 0x1472 DUP4 PUSH2 0x1104 JUMP JUMPDEST SWAP3 POP DUP3 DUP3 MUL PUSH2 0x1480 DUP2 PUSH2 0x1104 JUMP JUMPDEST SWAP2 POP DUP3 DUP3 DIV DUP5 EQ DUP4 ISZERO OR PUSH2 0x1497 JUMPI PUSH2 0x1496 PUSH2 0x1430 JUMP JUMPDEST JUMPDEST POP SWAP3 SWAP2 POP POP JUMP JUMPDEST PUSH32 0x4E487B7100000000000000000000000000000000000000000000000000000000 PUSH0 MSTORE PUSH1 0x12 PUSH1 0x4 MSTORE PUSH1 0x24 PUSH0 REVERT JUMPDEST PUSH0 PUSH2 0x14D5 DUP3 PUSH2 0x1104 JUMP JUMPDEST SWAP2 POP PUSH2 0x14E0 DUP4 PUSH2 0x1104 JUMP JUMPDEST SWAP3 POP DUP3 PUSH2 0x14F0 JUMPI PUSH2 0x14EF PUSH2 0x149E JUMP JUMPDEST JUMPDEST DUP3 DUP3 DIV SWAP1 POP SWAP3 SWAP2 POP POP JUMP JUMPDEST PUSH0 PUSH2 0x1505 DUP3 PUSH2 0x1104 JUMP JUMPDEST SWAP2 POP PUSH2 0x1510 DUP4 PUSH2 0x1104 JUMP JUMPDEST SWAP3 POP DUP3 DUP3 ADD SWAP1 POP DUP1 DUP3 GT ISZERO PUSH2 0x1528 JUMPI PUSH2 0x1527 PUSH2 0x1430 JUMP JUMPDEST JUMPDEST SWAP3 SWAP2 POP POP JUMP JUMPDEST PUSH32 0x496E636F7272656374207061796D656E7420616D6F756E740000000000000000 PUSH0 DUP3 ADD MSTORE POP JUMP JUMPDEST PUSH0 PUSH2 0x1562 PUSH1 0x18 DUP4 PUSH2 0x12E8 JUMP JUMPDEST SWAP2 POP PUSH2 0x156D DUP3 PUSH2 0x152E JUMP JUMPDEST PUSH1 0x20 DUP3 ADD SWAP1 POP SWAP2 SWAP1 POP JUMP JUMPDEST PUSH0 PUSH1 0x20 DUP3 ADD SWAP1 POP DUP2 DUP2 SUB PUSH0 DUP4 ADD MSTORE PUSH2 0x158F DUP2 PUSH2 0x1556 JUMP JUMPDEST SWAP1 POP SWAP2 SWAP1 POP JUMP JUMPDEST PUSH0 PUSH1 0x40 DUP3 ADD SWAP1 POP PUSH2 0x15A9 PUSH0 DUP4 ADD DUP6 PUSH2 0x10DC JUMP JUMPDEST PUSH2 0x15B6 PUSH1 0x20 DUP4 ADD DUP5 PUSH2 0x10DC JUMP JUMPDEST SWAP4 SWAP3 POP POP POP JUMP JUMPDEST PUSH0 DUP2 MLOAD SWAP1 POP PUSH2 0x15CB DUP2 PUSH2 0x1139 JUMP JUMPDEST SWAP3 SWAP2 POP POP JUMP JUMPDEST PUSH0 PUSH1 0x20 DUP3 DUP5 SUB SLT ISZERO PUSH2 0x15E6 JUMPI PUSH2 0x15E5 PUSH2 0x1135 JUMP JUMPDEST JUMPDEST PUSH0 PUSH2 0x15F3 DUP5 DUP3 DUP6 ADD PUSH2 0x15BD JUMP JUMPDEST SWAP2 POP POP SWAP3 SWAP2 POP POP JUMP JUMPDEST PUSH32 0x5061796D656E7420746F6B656E20616C6C6F77616E636520746F6F206C6F7700 PUSH0 DUP3 ADD MSTORE POP JUMP JUMPDEST PUSH0 PUSH2 0x1630 PUSH1 0x1F DUP4 PUSH2 0x12E8 JUMP JUMPDEST SWAP2 POP PUSH2 0x163B DUP3 PUSH2 0x15FC JUMP JUMPDEST PUSH1 0x20 DUP3 ADD SWAP1 POP SWAP2 SWAP1 POP JUMP JUMPDEST PUSH0 PUSH1 0x20 DUP3 ADD SWAP1 POP DUP2 DUP2 SUB PUSH0 DUP4 ADD MSTORE PUSH2 0x165D DUP2 PUSH2 0x1624 JUMP JUMPDEST SWAP1 POP SWAP2 SWAP1 POP JUMP JUMPDEST PUSH0 PUSH2 0x166E DUP3 PUSH2 0x1104 JUMP JUMPDEST SWAP2 POP PUSH2 0x1679 DUP4 PUSH2 0x1104 JUMP JUMPDEST SWAP3 POP DUP3 DUP3 SUB SWAP1 POP DUP2 DUP2 GT ISZERO PUSH2 0x1691 JUMPI PUSH2 0x1690 PUSH2 0x1430 JUMP JUMPDEST JUMPDEST SWAP3 SWAP2 POP POP JUMP JUMPDEST PUSH0 DUP2 ISZERO ISZERO SWAP1 POP SWAP2 SWAP1 POP JUMP JUMPDEST PUSH2 0x16AB DUP2 PUSH2 0x1697 JUMP JUMPDEST DUP3 MSTORE POP POP JUMP JUMPDEST PUSH0 PUSH1 0x80 DUP3 ADD SWAP1 POP PUSH2 0x16C4 PUSH0 DUP4 ADD DUP8 PUSH2 0x110D JUMP JUMPDEST PUSH2 0x16D1 PUSH1 0x20 DUP4 ADD DUP7 PUSH2 0x110D JUMP JUMPDEST PUSH2 0x16DE PUSH1 0x40 DUP4 ADD DUP6 PUSH2 0x110D JUMP JUMPDEST PUSH2 0x16EB PUSH1 0x60 DUP4 ADD DUP5 PUSH2 0x16A2 JUMP JUMPDEST SWAP6 SWAP5 POP POP POP POP POP JUMP JUMPDEST PUSH32 0x496E76616C696420616464726573730000000000000000000000000000000000 PUSH0 DUP3 ADD MSTORE POP JUMP JUMPDEST PUSH0 PUSH2 0x1728 PUSH1 0xF DUP4 PUSH2 0x12E8 JUMP JUMPDEST SWAP2 POP PUSH2 0x1733 DUP3 PUSH2 0x16F4 JUMP JUMPDEST PUSH1 0x20 DUP3 ADD SWAP1 POP SWAP2 SWAP1 POP JUMP JUMPDEST PUSH0 PUSH1 0x20 DUP3 ADD SWAP1 POP DUP2 DUP2 SUB PUSH0 DUP4 ADD MSTORE PUSH2 0x1755 DUP2 PUSH2 0x171C JUMP JUMPDEST SWAP1 POP SWAP2 SWAP1 POP JUMP JUMPDEST PUSH32 0x5072696365206D7573742062652067726561746572207468616E207A65726F00 PUSH0 DUP3 ADD MSTORE POP JUMP JUMPDEST PUSH0 PUSH2 0x1790 PUSH1 0x1F DUP4 PUSH2 0x12E8 JUMP JUMPDEST SWAP2 POP PUSH2 0x179B DUP3 PUSH2 0x175C JUMP JUMPDEST PUSH1 0x20 DUP3 ADD SWAP1 POP SWAP2 SWAP1 POP JUMP JUMPDEST PUSH0 PUSH1 0x20 DUP3 ADD SWAP1 POP DUP2 DUP2 SUB PUSH0 DUP4 ADD MSTORE PUSH2 0x17BD DUP2 PUSH2 0x1784 JUMP JUMPDEST SWAP1 POP SWAP2 SWAP1 POP JUMP JUMPDEST PUSH32 0x546F6B656E73206D7573742062652067726561746572207468616E207A65726F PUSH0 DUP3 ADD MSTORE POP JUMP JUMPDEST PUSH0 PUSH2 0x17F8 PUSH1 0x20 DUP4 PUSH2 0x12E8 JUMP JUMPDEST SWAP2 POP PUSH2 0x1803 DUP3 PUSH2 0x17C4 JUMP JUMPDEST PUSH1 0x20 DUP3 ADD SWAP1 POP SWAP2 SWAP1 POP JUMP JUMPDEST PUSH0 PUSH1 0x20 DUP3 ADD SWAP1 POP DUP2 DUP2 SUB PUSH0 DUP4 ADD MSTORE PUSH2 0x1825 DUP2 PUSH2 0x17EC JUMP JUMPDEST SWAP1 POP SWAP2 SWAP1 POP JUMP JUMPDEST PUSH32 0x4475726174696F6E206D7573742062652067726561746572207468616E207A65 PUSH0 DUP3 ADD MSTORE PUSH32 0x726F000000000000000000000000000000000000000000000000000000000000 PUSH1 0x20 DUP3 ADD MSTORE POP JUMP JUMPDEST PUSH0 PUSH2 0x1886 PUSH1 0x22 DUP4 PUSH2 0x12E8 JUMP JUMPDEST SWAP2 POP PUSH2 0x1891 DUP3 PUSH2 0x182C JUMP JUMPDEST PUSH1 0x40 DUP3 ADD SWAP1 POP SWAP2 SWAP1 POP JUMP JUMPDEST PUSH0 PUSH1 0x20 DUP3 ADD SWAP1 POP DUP2 DUP2 SUB PUSH0 DUP4 ADD MSTORE PUSH2 0x18B3 DUP2 PUSH2 0x187A JUMP JUMPDEST SWAP1 POP SWAP2 SWAP1 POP JUMP JUMPDEST PUSH32 0x496E76616C696420636F6E747261637420616464726573730000000000000000 PUSH0 DUP3 ADD MSTORE POP JUMP JUMPDEST PUSH0 PUSH2 0x18EE PUSH1 0x18 DUP4 PUSH2 0x12E8 JUMP JUMPDEST SWAP2 POP PUSH2 0x18F9 DUP3 PUSH2 0x18BA JUMP JUMPDEST PUSH1 0x20 DUP3 ADD SWAP1 POP SWAP2 SWAP1 POP JUMP JUMPDEST PUSH0 PUSH1 0x20 DUP3 ADD SWAP1 POP DUP2 DUP2 SUB PUSH0 DUP4 ADD MSTORE PUSH2 0x191B DUP2 PUSH2 0x18E2 JUMP JUMPDEST SWAP1 POP SWAP2 SWAP1 POP JUMP JUMPDEST PUSH32 0x546F6B656E20616C6C6F77616E636520746F6F206C6F77000000000000000000 PUSH0 DUP3 ADD MSTORE POP JUMP JUMPDEST PUSH0 PUSH2 0x1956 PUSH1 0x17 DUP4 PUSH2 0x12E8 JUMP JUMPDEST SWAP2 POP PUSH2 0x1961 DUP3 PUSH2 0x1922 JUMP JUMPDEST PUSH1 0x20 DUP3 ADD SWAP1 POP SWAP2 SWAP1 POP JUMP JUMPDEST PUSH0 PUSH1 0x20 DUP3 ADD SWAP1 POP DUP2 DUP2 SUB PUSH0 DUP4 ADD MSTORE PUSH2 0x1983 DUP2 PUSH2 0x194A JUMP JUMPDEST SWAP1 POP SWAP2 SWAP1 POP JUMP JUMPDEST PUSH0 PUSH2 0x1994 DUP3 PUSH2 0x1104 JUMP JUMPDEST SWAP2 POP PUSH32 0xFFFFFFFFFFFFFFFFFFFFFFFFFFFFFFFFFFFFFFFFFFFFFFFFFFFFFFFFFFFFFFFF DUP3 SUB PUSH2 0x19C6 JUMPI PUSH2 0x19C5 PUSH2 0x1430 JUMP JUMPDEST JUMPDEST PUSH1 0x1 DUP3 ADD SWAP1 POP SWAP2 SWAP1 POP JUMP JUMPDEST PUSH0 PUSH1 0x80 DUP3 ADD SWAP1 POP PUSH2 0x19E4 PUSH0 DUP4 ADD DUP8 PUSH2 0x110D JUMP JUMPDEST PUSH2 0x19F1 PUSH1 0x20 DUP4 ADD DUP7 PUSH2 0x110D JUMP JUMPDEST PUSH2 0x19FE PUSH1 0x40 DUP4 ADD DUP6 PUSH2 0x110D JUMP JUMPDEST PUSH2 0x1A0B PUSH1 0x60 DUP4 ADD DUP5 PUSH2 0x110D JUMP JUMPDEST SWAP6 SWAP5 POP POP POP POP POP JUMP JUMPDEST PUSH32 0x4F6E6C79206C697374696E672073656C6C65722063616E207769746864726177 PUSH0 DUP3 ADD MSTORE POP JUMP JUMPDEST PUSH0 PUSH2 0x1A48 PUSH1 0x20 DUP4 PUSH2 0x12E8 JUMP JUMPDEST SWAP2 POP PUSH2 0x1A53 DUP3 PUSH2 0x1A14 JUMP JUMPDEST PUSH1 0x20 DUP3 ADD SWAP1 POP SWAP2 SWAP1 POP JUMP JUMPDEST PUSH0 PUSH1 0x20 DUP3 ADD SWAP1 POP DUP2 DUP2 SUB PUSH0 DUP4 ADD MSTORE PUSH2 0x1A75 DUP2 PUSH2 0x1A3C JUMP JUMPDEST SWAP1 POP SWAP2 SWAP1 POP JUMP JUMPDEST PUSH32 0x4C697374696E6720686173206E6F7420656E6465640000000000000000000000 PUSH0 DUP3 ADD MSTORE POP JUMP JUMPDEST PUSH0 PUSH2 0x1AB0 PUSH1 0x15 DUP4 PUSH2 0x12E8 JUMP JUMPDEST SWAP2 POP PUSH2 0x1ABB DUP3 PUSH2 0x1A7C JUMP JUMPDEST PUSH1 0x20 DUP3 ADD SWAP1 POP SWAP2 SWAP1 POP JUMP JUMPDEST PUSH0 PUSH1 0x20 DUP3 ADD SWAP1 POP DUP2 DUP2 SUB PUSH0 DUP4 ADD MSTORE PUSH2 0x1ADD DUP2 PUSH2 0x1AA4 JUMP JUMPDEST SWAP1 POP SWAP2 SWAP1 POP JUMP JUMPDEST PUSH32 0x4E6F20746F6B656E7320746F2077697468647261770000000000000000000000 PUSH0 DUP3 ADD MSTORE POP JUMP JUMPDEST PUSH0 PUSH2 0x1B18 PUSH1 0x15 DUP4 PUSH2 0x12E8 JUMP JUMPDEST SWAP2 POP PUSH2 0x1B23 DUP3 PUSH2 0x1AE4 JUMP JUMPDEST PUSH1 0x20 DUP3 ADD SWAP1 POP SWAP2 SWAP1 POP JUMP JUMPDEST PUSH0 PUSH1 0x20 DUP3 ADD SWAP1 POP DUP2 DUP2 SUB PUSH0 DUP4 ADD MSTORE PUSH2 0x1B45 DUP2 PUSH2 0x1B0C JUMP JUMPDEST SWAP1 POP SWAP2 SWAP1 POP JUMP JUMPDEST PUSH0 PUSH1 0x60 DUP3 ADD SWAP1 POP PUSH2 0x1B5F PUSH0 DUP4 ADD DUP7 PUSH2 0x10DC JUMP JUMPDEST PUSH2 0x1B6C PUSH1 0x20 DUP4 ADD DUP6 PUSH2 0x10DC JUMP JUMPDEST PUSH2 0x1B79 PUSH1 0x40 DUP4 ADD DUP5 PUSH2 0x110D JUMP JUMPDEST SWAP5 SWAP4 POP POP POP POP JUMP JUMPDEST PUSH0 PUSH1 0x40 DUP3 ADD SWAP1 POP PUSH2 0x1B94 PUSH0 DUP4 ADD DUP6 PUSH2 0x10DC JUMP JUMPDEST PUSH2 0x1BA1 PUSH1 0x20 DUP4 ADD DUP5 PUSH2 0x110D JUMP JUMPDEST SWAP4 SWAP3 POP POP POP JUMP INVALID LOG2 PUSH5 0x6970667358 0x22 SLT KECCAK256 0xB3 0xCC PUSH8 0xC450942AAD31A55D SWAP15 PUSH15 0x8B9BBB96B7A4CE1585B261A2EC6460 0xF 0xA5 0xC3 SWAP5 PUSH5 0x736F6C6343 STOP ADDMOD SHR STOP CALLER "
				},
				"gasEstimates": {
					"creation": {
						"codeDepositCost": "1426800",
						"executionCost": "infinite",
						"totalCost": "infinite"
					},
					"external": {
						"COMMISSION_PERCENTAGE()": "348",
						"COMMISSION_WALLET()": "2509",
						"MELS_ADDRESS()": "440",
						"addListing(uint256,address,uint256,uint256)": "infinite",
						"buyTokensWithERC20(uint256,uint256,uint256)": "infinite",
						"listingCounter()": "2514",
						"listings(uint256)": "infinite",
						"owner()": "2537",
						"renounceOwnership()": "infinite",
						"setCommissionWallet(address)": "infinite",
						"transferOwnership(address)": "infinite",
						"withdrawTokensFromListing(uint256)": "infinite"
					}
				},
				"methodIdentifiers": {
					"COMMISSION_PERCENTAGE()": "1bf1de9b",
					"COMMISSION_WALLET()": "17c73ff0",
					"MELS_ADDRESS()": "27722e62",
					"addListing(uint256,address,uint256,uint256)": "9ffae41b",
					"buyTokensWithERC20(uint256,uint256,uint256)": "24f56afa",
					"listingCounter()": "6c2c9c7d",
					"listings(uint256)": "de74e57b",
					"owner()": "8da5cb5b",
					"renounceOwnership()": "715018a6",
					"setCommissionWallet(address)": "7d60b6ce",
					"transferOwnership(address)": "f2fde38b",
					"withdrawTokensFromListing(uint256)": "f25713bf"
				}
			},
			"storageLayout": {
				"storage": [
					{
						"astId": 1443,
						"contract": "contracts/SaleContract.sol:SaleContract",
						"label": "_status",
						"offset": 0,
						"slot": "0",
						"type": "t_uint256"
					},
					{
						"astId": 8,
						"contract": "contracts/SaleContract.sol:SaleContract",
						"label": "_owner",
						"offset": 0,
						"slot": "1",
						"type": "t_address"
					},
					{
						"astId": 1552,
						"contract": "contracts/SaleContract.sol:SaleContract",
						"label": "listings",
						"offset": 0,
						"slot": "2",
						"type": "t_mapping(t_uint256,t_struct(Listing)1547_storage)"
					},
					{
						"astId": 1554,
						"contract": "contracts/SaleContract.sol:SaleContract",
						"label": "listingCounter",
						"offset": 0,
						"slot": "3",
						"type": "t_uint256"
					},
					{
						"astId": 1557,
						"contract": "contracts/SaleContract.sol:SaleContract",
						"label": "COMMISSION_WALLET",
						"offset": 0,
						"slot": "4",
						"type": "t_address"
					}
				],
				"types": {
					"t_address": {
						"encoding": "inplace",
						"label": "address",
						"numberOfBytes": "20"
					},
					"t_mapping(t_uint256,t_struct(Listing)1547_storage)": {
						"encoding": "mapping",
						"key": "t_uint256",
						"label": "mapping(uint256 => struct SaleContract.Listing)",
						"numberOfBytes": "32",
						"value": "t_struct(Listing)1547_storage"
					},
					"t_struct(Listing)1547_storage": {
						"encoding": "inplace",
						"label": "struct SaleContract.Listing",
						"members": [
							{
								"astId": 1538,
								"contract": "contracts/SaleContract.sol:SaleContract",
								"label": "contractAddress",
								"offset": 0,
								"slot": "0",
								"type": "t_address"
							},
							{
								"astId": 1540,
								"contract": "contracts/SaleContract.sol:SaleContract",
								"label": "price",
								"offset": 0,
								"slot": "1",
								"type": "t_uint256"
							},
							{
								"astId": 1542,
								"contract": "contracts/SaleContract.sol:SaleContract",
								"label": "tokens",
								"offset": 0,
								"slot": "2",
								"type": "t_uint256"
							},
							{
								"astId": 1544,
								"contract": "contracts/SaleContract.sol:SaleContract",
								"label": "seller",
								"offset": 0,
								"slot": "3",
								"type": "t_address"
							},
							{
								"astId": 1546,
								"contract": "contracts/SaleContract.sol:SaleContract",
								"label": "expiration",
								"offset": 0,
								"slot": "4",
								"type": "t_uint256"
							}
						],
						"numberOfBytes": "160"
					},
					"t_uint256": {
						"encoding": "inplace",
						"label": "uint256",
						"numberOfBytes": "32"
					}
				}
			},
			"userdoc": {
				"kind": "user",
				"methods": {},
				"version": 1
			}
		}
	}
}